:100000000C947F010C944C320C9479320C9419129C
:100010000C94F4110C94CF110C94D3160C94A701EA
:100020000C94A7010C94A7010C94A7010C94A701B0
:100030000C94A7010C94A7010C94A7010C94A701A0
:100040000C94BC320C94A7010C94052F0C94532FE4
:100050000C94A7010C94A7010C94A7010C94A70180
:100060000C94C7040C94A7010000000009000000D4
:1000700000AE01010406050105000000B70172652C
:100080006D6F7465206576656E742C206461746193
:100090003A200073746174757320726571756573AD
:1000A000742C20646174613A2000636F6E66696726
:1000B000206368616E6765642C20646174613A2016
:1000C0000072657365742C20646174613A200020AD
:1000D0006279746500667265654D656D3A200053FE
:1000E00074617274696E6720736B657463682E2E19
:1000F0002E0A000DF10248423044656661756C7449
:1001000070030100ABCDEF0064000000120000039B
:10011000290A002800290020286C3A004B6E6F77CE
:100120006E20636F6D6D616E64733A002062797446
:100130006573004E6F7420656E6F7567682064612B
:1001400074612C206E6565642000556E7265636F66
:10015000676E697A65642063686172616374657251
:100160003A2000002E0206030D04E905CA063D07E9
:100170000C0B060D210E650F5010C81193120315BC
:10018000341601181819161B432156250026112D67
:10019000353EC320202077726974652064617461E4
:1001A0002C20627574206E6F7420696E20636F6EF0
:1001B000666967206D6F64650A002D3E204E412000
:1001C000003C2D20000A554E4B4E4F574E204D45BA
:1001D00053534147452C20504C45415345205245EF
:1001E000504F5254210A0A006E6F74207265636585
:1001F00069766564206265666F72652E2E2E0A0030
:10020000616C7265616479207265636569766564A5
:10021000202D20736B69700A0020202072657065A4
:1002200061746564206D6573736167653B20006C64
:100230003E2000623E20002D3E20000A0A002020C1
:1002400020000A0A00646174613A200072656773D5
:100250003A20002C20616464723A002C206C656E98
:100260003A006964783A002C20704D61783A002C8D
:10027000206C73743A00636E6C3A0020656C656D97
:10028000656E74730A000A636F6E74656E74206F16
:1002900066206444656620666F72200000000000DE
:1002A000240027002A0000000000250028002B0061
:1002B00000000000230026002900040404040404B4
:1002C0000404020202020202030303030303010205
:1002D00004081020408001020408102001020408D4
:1002E00010200000000700020100000304060000C7
:1002F0000000000000009102B0063E12B63011244A
:100300001FBECFEFD8E0DEBFCDBF11E0A0E0B1E06F
:10031000E2E1FEE602C005900D92AE39B107D9F7D1
:1003200014E0AEE9B1E001C01D92A43EB107E1F7CF
:1003300012E0CEEFD2E004C02297FE010E94CC363C
:10034000C63FD107C9F70E94AD320C9407370C9411
:100350000000FB01DC0104C08D910590801921F49F
:1003600041505040C8F7881B990B0895FB01DC01F0
:1003700002C005900D9241505040D8F70895FC01FD
:100380004150504030F001900616D1F73197CF011F
:100390000895882799270895FB01DC0104C08D91F9
:1003A0000190801921F441505040C8F7881B990BE7
:1003B0000895FB01DC0102C001900D9241505040B4
:1003C000D8F70895A0E0B0E0E8EEF1E00C94DA365A
:1003D0007C01EB018A01690109C0CE012196F60179
:1003E0000995F70181937F01015010400115110516
:1003F000A1F7CDB7DEB7E8E00C94F636BF92CF9206
:10040000DF92EF92FF920F931F937B018C01FB0110
:100410000995B82EC8010196F7010995C82EC801A3
:100420000296F7010995D82EC8010396F7010995A0
:10043000982F6B2D7C2D8D2D1F910F91FF90EF909C
:10044000DF90CF90BF900895DF92EF92FF920F93CD
:100450001F937B018C01FB010995D82EC8010196E1
:10046000F7010995982F8D2D1F910F91FF90EF9017
:10047000DF900895A0E0B0E0E0E4F2E00C94DA361A
:10048000EC017B018A01690109C0CE012196F701C7
:1004900061917F01F6010995015010400115110588
:1004A000A1F7CDB7DEB7E8E00C94F636BF92CF9255
:1004B000DF92EF92FF920F931F93D52EC62EB72E89
:1004C00079018C01642FF9010995C80101966D2D00
:1004D000F7010995C80102966C2DF7010995C8012D
:1004E00003966B2DF70109951F910F91FF90EF90E7
:1004F000DF90CF90BF900895DF92EF92FF920F931D
:100500001F93D72E7A018C01FA010995C801019633
:100510006D2DF70109951F910F91FF90EF90DF90DE
:10052000089588E0EEE9F1E0DF01982F1D929A9599
:10053000E9F71092A3011092A2011092A501109266
:10054000A4011092A1011092A0013896DF011D9222
:100550008A95E9F71092AB011092AA011092AD01B1
:100560001092AC011092A9011092A80180EF91E0C5
:100570000E945B070895FF920F931F938C01F62E44
:1005800085EB94E063E970E00E943631C8016F2D7D
:100590000E940913682F85EB94E00E94593185EB86
:1005A00094E06AE00E94593184EF91E028EC30E059
:1005B000F9013197F1F70197D9F71F910F91FF904A
:1005C00008951F93CF93DF93EC01162F6091B30131
:1005D0006F3008F46FE0633308F062E382EE93E07B
:1005E0000E943A1060E08091AF01829586958695D1
:1005F000837009F061E08BE393E00E94E2168BE3E5
:1006000093E063E00E943B278091B601882309F4C0
:1006100081E0873008F086E080930C019091B4016E
:1006200080E02091B501622F70E0682B792B8EEF6E
:100630006C30780714F46CE07EEF87E26131780764
:1006400014F060E177E285EF91E00E949E2B85EB4C
:1006500094E06AEA70E00E943631CE01612F0E9478
:100660000913682F85EB94E00E94593185EB94E0E3
:100670006AE00E945931DF91CF911F910895EF9266
:10068000FF921F937C01162F85EB94E061EC70E0E4
:100690000E943631C701612F0E940913682F85EB34
:1006A00094E00E94593185EB94E06AE00E94593150
:1006B0008BE393E00E94A120F7018181882321F43C
:1006C0008BE393E00E940A271F91FF90EF9008951B
:1006D0008BE393E00E94E4270895AF92BF92CF92FC
:1006E000DF92EF92FF920F931F9388E10FB6F89479
:1006F00080936000109260000FBE05EB14E0C8010B
:1007000040E051EE60E070E00E948E2FC8016FED76
:1007100070E00E943631C80165ED70E00E9436310C
:100720000E942911BC01C8014AE050E00E94F0314A
:10073000C8016FEC70E00E943631C8016AE00E9487
:100740005931B9ECAB2EB3E0BB2EC5016AE04BE0EA
:100750002CE00DE0A2E0EA2ECC240E948F14C5010B
:10076000499662E047E021E00F2EFEE9EF2EFFEE12
:10077000FF2EF7E20F2FFEE31F2FF02DF0E1CF2E1B
:10078000F7E2DF2E0E94F710EBE3EE2EE3E0FE2E01
:10079000C70161E00E94252808EB11E0C80160E074
:1007A000A7010E94BE28C80168E040E050E00E9416
:1007B000142B05EF11E0C80161E0A7010E94F02BA6
:1007C000C80162E143E120E030E003ED11E079EDA2
:1007D000E72E71E0F72E50EFC52E51E0D52E0E9486
:1007E000942E84B714BE80E090E060E00E94E102A5
:1007F00002ED13E0C80164E044E00E947214C801F5
:1008000063E043E023E00E94AE131F910F91FF903D
:10081000EF90DF90CF90BF90AF900895382F413286
:1008200010F040E042C0809120028823E1F791E07F
:1008300090932002209322028FEF80938D021092DA
:1008400048024150409349024F5F909321028091AA
:100850002102330F832B8093210280912302813068
:1008600041F410922302809121028093BB0085EC19
:1008700001C085EE8093BC00809120028130E1F3BD
:1008800080914802841710F44091480220E030E043
:100890000AC0FB01E20FF31FD901A85DBD4F8C9187
:1008A00080832F5F3F4F2417A0F3842F08950F9369
:1008B0001F93582F122F413210F081E04AC08091CF
:1008C00020028823E1F782E0809320020093220235
:1008D0008FEF80938D021092480240934902A8E264
:1008E000B2E0FB0102C081918D938E2F861B84178D
:1008F000D0F31092210280912102550F852B809315
:10090000210280912302813041F4109223028091D0
:1009100021028093BB0085EC01C085EE8093BC0072
:10092000112321F0809120028230E1F380918D0229
:100930008F3F11F480E00DC080918D02803211F460
:1009400082E007C080918D02803311F084E001C005
:1009500083E01F910F910895482F613210F081E0DC
:10096000089580912002843011F082E00895609310
:100970006B02AAE4B2E0842F9C01F90102C08191CC
:100980008D938E2F841B8617D0F380E008951F92DD
:100990000F920FB60F9211242F933F934F935F93B3
:1009A0006F937F938F939F93AF93BF93EF93FF9337
:1009B0008091B90090E0887F90708036910509F4AD
:1009C000F2C081369105CCF58832910509F47BC0DF
:1009D00089329105B4F48031910509F46FC08131F9
:1009E00091053CF4009709F447C1089709F04FC1FD
:1009F00065C08831910509F466C0809709F047C148
:100A000082C08034910509F4A4C08134910544F476
:100A10008033910509F482C0C89709F038C189C0B4
:100A20008035910509F489C08835910509F496C08F
:100A30008834910509F02BC1AEC08839910509F4BD
:100A400013C189399105ECF48837910509F4ABC0DD
:100A5000893791054CF48836910509F4A4C0803794
:100A6000910509F014C19FC08838910509F4FCC0B4
:100A70008039910509F49DC08038910509F007C1BE
:100A800098C0803B910509F4C6C0813B91054CF4A8
:100A9000803A910509F49FC0883A910509F0F7C0A2
:100AA000BAC0803C910509F4E3C0883C910509F483
:100AB000DFC0883B910509F0EAC0C2C080912102E5
:100AC0008093BB00CFC09091480280914902981753
:100AD00068F490914802E92FF0E0E85DFD4F8081D5
:100AE0008093BB009F5F90934802BCC0809122021C
:100AF000882309F44BC085ED8093BC008091BC0035
:100B000084FDFCCFC2C080E280938D0285ED80938E
:100B1000BC008091BC0084FDFCCFB7C080E3809313
:100B20008D0285ED8093BC008091BC0084FDFCCFDC
:100B3000ACC088E380938D029BC080914802909165
:100B4000BB00E82FF0E0E85DFD4F90838F5F80935E
:100B50004802909148028091490282C080914802E7
:100B60009091BB00E82FF0E0E85DFD4F90838F5F30
:100B70008093480280912202882341F085ED809382
:100B8000BC008091BC0084FDFCCF7FC081E08093DD
:100B9000230284EA6EC085ED8093BC008091BC0086
:100BA00084FDFCCF72C083E08093200210928C02FF
:100BB00059C080918C02803208F056C080918C021E
:100BC0009091BB00E82FF0E0E459FD4F90838F5FD8
:100BD00080938C0247C080918C02803230F4E09187
:100BE0008C02F0E0E459FD4F108285ED8093BC004B
:100BF0008091BC0084FDFCCF1092200260918C0299
:100C0000E0912602F09127028CE692E070E00995CF
:100C100010928C022DC084E08093200210926A0210
:100C200010926B02E0912402F091250209958091C7
:100C30006B02882329F481E080936B0210924A02B0
:100C400090916A02E92FF0E0E65BFD4F808180938E
:100C5000BB009F5F90936A0290916A0280916B0241
:100C6000981710F485EC01C085E88093BC000FC094
:100C700085EC8093BC0009C010928D0285ED8093B5
:100C8000BC008091BC0084FDFCCF10922002FF913B
:100C9000EF91BF91AF919F918F917F916F915F91F4
:100CA0004F913F912F910F900FBE0F901F9018956D
:100CB0001092200281E0809322021092230282E1AE
:100CC00061E00E94983383E161E00E949833E9EB90
:100CD000F0E080818E7F808380818D7F808380E2C1
:100CE0008093B80085E48093BC00089581E08093F0
:100CF000D3026093B0021092D1021092D2020895F2
:100D00002091AF0230E08091AE02281B3109C90169
:100D100008954091AE028091AF02481718F02FEF6E
:100D20003FEF0AC0E42FF0E0E257FD4F8081282F0B
:100D300030E04F5F4093AE02C9010895E091AE02EA
:100D40008091AF02E81718F0EFEFFFEF06C0F0E078
:100D5000E257FD4F8081E82FF0E0CF01089508951C
:100D60001092D7021092D60288EE93E0A0E0B0E095
:100D70008093D8029093D902A093DA02B093DB0259
:100D800084E691E09093D5028093D4020895CF92A7
:100D9000DF92EF92FF920F931F93CF93DF937C012B
:100DA0006B018A018091D3028823A1F0C0E0D0E0DA
:100DB0000DC0D701ED91FC91D601AC0FBD1F019084
:100DC000F081E02DC7016C9109952196C017D107DC
:100DD00080F304C0CB01642F0E94AC04C801DF91F2
:100DE000CF911F910F91FF90EF90DF90CF900895DA
:100DF000DF93CF930F92CDB7DEB7FC01698380916B
:100E0000D3028823C9F08091D202803238F081E089
:100E100090E09383828320E030E015C08091D1027E
:100E2000E82FF0E0EF54FD4F998190838F5F80931E
:100E3000D1028093D20205C0CE01019661E00E94EA
:100E4000AC0421E030E0C9010F90CF91DF9108950B
:100E50000F93062F8091B00261EB72E04091D202B5
:100E600021E00E9457041092D1021092D2021092F7
:100E7000D3020F91089561E00E942807089541323E
:100E800008F040E2862F6EE872E00E940E04109295
:100E9000AE028093AF02089521E00E943F070895BB
:100EA0001092AE021092AF021092D1021092D202B2
:100EB0000E945806089508956F927F928F929F9294
:100EC000AF92BF92CF92DF92EF92FF920F931F9358
:100ED000CF93DF93FC01EA01818192818E309105ED
:100EE00039F417E1E12E15E7F12E012D112D0FC078
:100EF0008536910531F0E12CB4E0FB2E012D112D4A
:100F000006C0A7EEEA2EAFE0FA2E012D112D838147
:100F1000882339F4E4E0EE0CFF1C001F111FEA9552
:100F2000D1F79B0140E050E0C801B7010E945A365A
:100F30005B016C015AE0D694C794B794A7945A9574
:100F4000D1F79E0140E050E0C801B7010E945A3637
:100F50003B014C014AE096948794779467944A95B4
:100F6000D1F7A114B104C104D10429F480E090E0C8
:100F7000A0E0B0E00FC0C401B3013AE0660F771FF4
:100F8000881F991F3A95D1F7A60195010E948D36C9
:100F9000C901DA010196A11DB11DB695A7959795D6
:100FA000879581349105A105B10528F462EF71E0C0
:100FB000CEEBD1E049C081389105A105B10528F4F7
:100FC00064E172E0C1EDD2E03FC0813C9105A10532
:100FD000B10528F46FE372E0CBE7D3E035C0813090
:100FE00021E0920720E0A20720E0B20728F460E7A2
:100FF00072E0CEEFD3E028C0893321E0920720E0F1
:10100000A20720E0B20728F46FE671E0CCEFD1E050
:101010001BC08B3921E0920720E0A20720E0B20735
:1010200028F462ED70E0CBEFD0E00EC08B59924017
:10103000A040B04028F060E070E0C0E0D0E004C024
:1010400068E170E0C2E1D0E080E090E0A6019501A7
:101050000E945A367B018C01BE0180E090E0A40121
:1010600093010E945A36E61AF70A080B190BC801B9
:10107000B7010E94413520E030E040E858E30E948B
:10108000F735DF91CF911F910F91FF90EF90DF9097
:10109000CF90BF90AF909F908F907F906F9008956A
:1010A000CF93DF93FC01E90181819281833B91051C
:1010B00018F08FEF9FEF08C08636910518F089E38E
:1010C00091E902C087EB93E16817790719F0481797
:1010D000590751F480E090E0A0E0B0E08883998364
:1010E000AA83BB8380E008C0CF010E945C076883AD
:1010F00079838A839B8381E0DF91CF9108950F9359
:101100001F938C01FC016081772767FD709584ED4A
:1011100092E00E94760684ED92E060EC0E94F80670
:1011200084ED92E00E943B07F801848390E08823DD
:1011300009F491E0892F1F910F910895EF92FF928A
:101140000F931F93CF93DF93EC01062F7A016881F1
:10115000772767FD709584ED92E00E94760610E097
:101160000F701070006884ED92E0602F0E94F80606
:1011700084ED92E00E943B078C838823C1F4688150
:10118000772767FD709584ED92E041E050E00E9482
:101190004C0784ED92E00E948006019741F484EDB3
:1011A00092E00E948906F701808381E001C080E01F
:1011B000DF91CF911F910F91FF90EF900895EF92E3
:1011C000FF920F931F93CF93DF93EC01062F7A01C9
:1011D0006881772767FD709584ED92E00E9476061E
:1011E00010E00F701070006884ED92E0602F0E9494
:1011F000F80684ED92E00E943B078C83882309F572
:101200006881772767FD709584ED92E042E050E0B9
:101210000E944C0784ED92E00E948006029789F4B8
:1012200084ED92E00E948906182F84ED92E00E94DE
:101230008906612F0E94A632F7019183808381E0A5
:1012400001C080E0DF91CF911F910F91FF90EF904F
:1012500008950F931F93CF93DF93EC019B018A01B5
:101260006CE0A9010E94DF08882311F490E00BC014
:10127000CE016EE0A8010E94DF0890E0882309F407
:1012800091E081E09827892FDF91CF911F910F91F5
:101290000895DF92EF92FF920F931F937C01062F28
:1012A000D42EFC016081772767FD709584ED92E074
:1012B0000E94760610E00F701070006884ED92E0D6
:1012C000602F0E94F80684ED92E06D2D0E94F806D2
:1012D00084ED92E00E943B07F701848390E088232D
:1012E00009F491E0892F1F910F91FF90EF90DF900B
:1012F000089570E06370707024E0660F771F2A9580
:10130000E1F74F70462B66E00E944909811181E0A8
:101310000895EF92FF920F931F93DF93CF930F9255
:10132000CDB7DEB78C01E62EF42EFC016383442397
:1013300019F48EE090E006C0F1E04F1731F485E635
:1013400090E0F8019283818309C0F2E04F1719F40D
:1013500082E991E0F6CFFC0112821182C80161E0BE
:10136000AE014F5F5F4F0E949E08882399F08981EC
:10137000EE2011F0806101C08F7E89834F2D437074
:1013800089818C7F482B4983C80161E00E9449090B
:10139000811181E00F90CF91DF911F910F91FF900C
:1013A000EF90089560E040E00E944909089560E0F0
:1013B00043E00E9449090895FC01608384ED92E0B6
:1013C0000E9450070895FC0184819B0140E050E099
:1013D00080FF09C0CA01B9010E9441352AE037EDFA
:1013E00043E25DE308C0CA01B9010E9441352AE029
:1013F00037ED43E25CE30E94F7352DEC3CEC4EE127
:1014000052E40E943F34E62F2E2F372F482F592FBA
:10141000B901CA0108952F923F924F925F926F9245
:101420007F928F929F92AF92BF92CF92DF92EF9274
:10143000FF920F931F9319012A01FC0184819B01E4
:1014400040E050E080FF39C0CA01B9010E94413537
:101450007B018C012DEB32E546E15FE30E94F7351D
:1014600025EC3EEF42E050E40E943F345B016C010A
:10147000C801B7012BE335E246ED59EB0E94F73581
:10148000A80197010E94F7359B01AC01C601B50187
:101490000E9440343B014C01C201B10120E030E028
:1014A00048EC51E40E943F345B016C01C801B70174
:1014B0002CEA35EC47EA5AE338C0CA01B9010E9468
:1014C00041357B018C012DEB32E546E15DE30E9465
:1014D000F73525EC3EEF42E050E40E943F345B01DB
:1014E0006C01C801B70126EF34E246ED55EB0E94CE
:1014F000F735A80197010E94F7359B01AC01C601A1
:10150000B5010E9440343B014C01C201B10120E011
:1015100030E048EC51E40E943F345B016C01C801AB
:10152000B7012CEA35EC47EA58E30E94F7352AE088
:1015300037ED43E25CE30E9440349B01AC01C601FD
:10154000B5010E94F735A40193010E9440347B014C
:101550008C0120E030E048EC52E40E94F33518168C
:101560005CF40F2EF0E0EF2EF0E0FF2EF8EC0F2FE2
:10157000F2E41F2FF02D14C0C801B7012DEC3CEC94
:101580004CEC5DE30E94A434882354F40F2EFDEC50
:10159000EF2EFCECFF2EFCEC0F2FFDE31F2FF02DA8
:1015A000B701C8011F910F91FF90EF90DF90CF908E
:1015B000BF90AF909F908F907F906F905F904F9073
:1015C0003F902F900895FF920F931F938C01FC0181
:1015D000808161E00E949833F801808161E00E947F
:1015E000593382E0F82E8F2D8A95F1F7F801818129
:1015F00061E00E9498338F2D8A95F1F7F801808180
:1016000060E00E9498338F2D8A95F1F7F80181816F
:1016100060E00E94983388E08A95F1F7F8018181B3
:1016200061E00E9498338F2D8A95F1F7F80180814F
:1016300061E00E9498338F2D8A95F1F7F80181813E
:1016400060E00E949833FA94F1F71F910F91FF9098
:1016500008950F931F93CF93DF93EC01888161E08E
:101660000E949833888161E00E94593388E08A950E
:10167000F1F710E008E0898161E00E949833802F43
:101680008A95F1F7898160E00E949833802F8A95CE
:10169000F1F71F5F193079F7CE010E94E30ADF915D
:1016A000CF911F910F910895DF92EF92FF920F93C8
:1016B0001F93CF93DF93EC01E62E18E000E022E0C9
:1016C000F22E898161E00E94983392E0D92E8F2D0D
:1016D0008A95F1F788810E94EC33000F082B8981ED
:1016E00060E00E9498338F2D8A95F1F7115049F7E9
:1016F000888161E00E94593361E06E2588810E94F3
:1017000098338D2D8A95F1F7898161E00E94983395
:1017100088E08A95F1F7898160E00E9498338D2DE9
:101720008A95F1F7888160E00E945933888161E0F1
:101730000E949833802FDF91CF911F910F91FF90DE
:10174000EF90DF9008950F931F93CF93DF93EC01F9
:101750008B0161E00E94540B9D81982728E031E3C2
:1017600097FF03C0990F932701C0990F2150C1F72C
:101770009D83F80180831182CE0161E00E94540BA9
:101780009D81982748E021E397FF03C0990F922796
:1017900001C0990F4150C1F79D83282F30E0F80117
:1017A000908180E0282B392B31832083CE0160E0AB
:1017B0000E94540B382F90E028E0990F832F8170FE
:1017C000982B36952150C9F78D81981711F480E038
:1017D00006C08FEF9FEFF8019183808382E0DF9155
:1017E000CF911F910F910895DF92EF92FF920F9387
:1017F0001F93CF93DF93EC01F62E888161E00E9466
:10180000593310E808E042E0E42E38E0D32E612F8F
:101810006F2188810E9498338E2D8A95F1F78981F6
:1018200061E00E9498338D2D8A95F1F7898160E0FF
:101830000E9498338E2D8A95F1F71695015039F74D
:10184000888160E00E945933888161E00E9498336A
:10185000898161E00E94983388E08A95F1F7888158
:101860000E94EC338C0182E08A95F1F7898160E077
:101870000E94983380E0012B09F081E0DF91CF9145
:101880001F910F91FF90EF90DF9008951F93CF93DA
:10189000DF93EC01162F17701C830E94E30ACE0120
:1018A00066E00E94F40B882321F4CE01612F0E9490
:1018B000F40BDF91CF911F9108950F931F938C012B
:1018C000842FF8016083418313821282148261E0C5
:1018D0000E945933C8010E94290BC8016EE10E9481
:1018E000F40B1F910F910895CF92DF92EF92FF9228
:1018F0001F93CF93DF93EC01162F6A01F22E2C81F8
:10190000277090E038E0990F822F8170982B2695F0
:101910003150C9F79D83CE010E94E30A112311F0D3
:1019200015E001C013E0CE01612F0E94F40B882363
:1019300041F59D81912728E031E397FF03C0990F7E
:10194000932701C0990F2150C1F79D83FF2031F0EB
:1019500010EF60E7E62E67E1F62E0AC0DB82CA824E
:1019600010C0115011F483E00CC0C7010197F1F7CA
:1019700088810E94EC33892BA1F7CE01B6010E9429
:10198000A30BDF91CF911F91FF90EF90DF90CF904D
:101990000895EF92FF920F931F93162F042F84ED5B
:1019A000E82E82E0F82EC70167E770E00E94760615
:1019B000C701612F0E94F806C701602F0E94F80638
:1019C000C7010E943B071F910F91FF90EF90089570
:1019D000CF92DF92EF92FF920F931F93162F94ED09
:1019E000E92E92E0F92EC70167E770E00E947606C3
:1019F000C701612F0E94F806C7010E943B07C7017B
:101A000067E770E00E947606C70167E770E042E092
:101A100050E00E944C07C7010E948906182F00E081
:101A2000C7010E9489066C01C7010E943B070C296F
:101A30001D29C8011F910F91FF90EF90DF90CF906B
:101A400008950F931F938C0164EF4EE20E94C90C1E
:101A500080E197E20197F1F7C80166EF0E94E80C78
:101A60001F910F910895CF92DF92EF92FF920F9303
:101A70001F936C010E94210DA0E0B0E0F6012589C2
:101A8000368940E050E0821B930BA40BB50B2389F1
:101A9000348940E050E0BC01CD010E945A367B0100
:101AA0008C01FFE015950795F794E794FA95D1F727
:101AB000D6011D966D917C911E97882777FD8095A4
:101AC000982FEBE0660F771F881F991FEA95D1F7D3
:101AD0001F962D913C915097442737FD4095542FE8
:101AE0002E0D3F1D401F511F0E94AF3688E090E031
:101AF000A0E0B0E0E80EF91E0A1F1B1F2E0D3F1DCF
:101B0000401F511F64E055954795379527956A9575
:101B1000D1F7CA01B9010E94433520E030E040E22C
:101B200051E40E94A8341F910F91FF90EF90DF9035
:101B3000CF900895EF92FF921F93162FA4EDEA2EF7
:101B4000A2E0FA2EC70167E770E00E947606C7019F
:101B5000612F0E94F806C7010E943B07C70167E793
:101B600070E00E947606C70167E770E041E050E050
:101B70000E944C07C7010E948906182FC7010E94C6
:101B80003B07812F1F91FF90EF900895EF92FF92F6
:101B90000F931F93CF93DF93EC0148814295440F3D
:101BA000440F407C4C5C64EF0E94C90C8881882300
:101BB00019F480E197E20CC0813019F480E89EE3CB
:101BC00007C0823019F480E69DE602C080E29BECFB
:101BD0000197F1F7CE0166EF0E94E80C7C0100E06E
:101BE00010E0102F0F2DFE2CEE24CE0168EF0E9486
:101BF0009A0D282F30E040E050E02E293F29402B5D
:101C0000512B688188E090E0861B910904C05695AD
:101C10004795379527958A95D2F7B901CA01DF9183
:101C2000CF911F910F91FF90EF9008952F923F92C7
:101C30004F925F926F927F928F929F92AF92BF92DC
:101C4000CF92DF92EF92FF920F931F93DF93CF9388
:101C5000CDB7DEB72C970FB6F894DEBF0FBECDBF61
:101C60004C010E94210D7C01C4010E94C60D2B0174
:101C70003C0100E010E0D40155968D919C9156975F
:101C8000A0E0B0E0E81AF90A0A0B1B0BF401238963
:101C9000348940E050E0C801B7010E945A365B0128
:101CA0006C01FFE0D594C794B794A794FA95D1F747
:101CB000D4011F96ED90FC9050970027F7FC0095FB
:101CC000102FEA0CFB1C0C1D1D1DC801B70122E0E2
:101CD00030E040E050E00E94AF36F4016585768543
:101CE000882777FD8095982FEBE0660F771F881F78
:101CF000991FEA95D1F7621B730B840B950BA60114
:101D00009501205A3F404040504029833A834B83FD
:101D10005C83A80197010E94AF3689819A81AB81CB
:101D2000BC81820F931FA41FB51F89839A83AB8345
:101D3000BC83BC01CD019B01AC010E945A369B01C2
:101D4000AC016CE055954795379527956A95D1F785
:101D50002F83388749875A87D401DC901596ED91F7
:101D6000FC911697FC87EB8717962D903C9018975F
:101D700051962D913C9152973E832D8313962D9130
:101D80003C911497442737FD4095542F69817A81FF
:101D90008B819C810E945A367B018C013BE015951A
:101DA0000795F794E7943A95D1F7D40111968D9160
:101DB0009C911297AA2797FDA095BA2F22E0880F31
:101DC000991FAA1FBB1F2A95D1F7E80EF91E0A1FFB
:101DD0001B1FF40121853285442737FD4095542F80
:101DE0006F81788589859A850E945A36BBE09595E2
:101DF000879577956795BA95D1F7E60EF71E081F78
:101E0000191F0D2C04C0EE0CFF1C001F111F0A949B
:101E1000D2F722E030E040E050E0E20EF31E041F73
:101E2000151FC801B70124E030E040E050E00E94F7
:101E3000AF3679018A014E185F08600A710A20E501
:101E400033EC40E050E004C0569547953795279510
:101E5000DA94D2F7C301B2010E945A365B016C01D9
:101E6000AA0CBB1CCC1CDD1C97FD56C08B859C8529
:101E70009C01442737FD4095542F69817A818B81DD
:101E80009C810E945A367B018C01FDE015950795D7
:101E9000F794E794FA95D1F722E030E040E050E083
:101EA000E20EF31E041F151F9101442737FD4095D4
:101EB000542F6F81788589859A850E945A36BC0196
:101EC000992777FD9095892FE60EF71E081F191F99
:101ED00072E015950795F794E7947A95D1F780E02D
:101EE00090E8A0E0B0E0E80EF91E0A1F1B1FAD81CC
:101EF000BE819D0140E050E0C801B7010E945A3602
:101F00009B01AC016FE056954795379527956A95EB
:101F1000D1F7C601B50104C0C601B501A8019701FA
:101F20000E948D36C901DA015C016D015527D7FC8D
:101F30005A954D2D3C2D2B2DCA01B9010E945A36C0
:101F40002EED3BE040E050E00E945A367B018C01D0
:101F5000C601B50123E433EE4FEF5FEF0E945A361E
:101F60009B01AC019A01552737FD5095452F215310
:101F7000314F4F4F5F4F78011127F7FC1095012F1C
:101F80002E0D3F1D401F511F14E055954795379565
:101F900027951A95D1F72A0D3B1D4C1D5D1DB901E2
:101FA000CA012C960FB6F894DEBF0FBECDBFCF91FD
:101FB000DF911F910F91FF90EF90DF90CF90BF9036
:101FC000AF909F908F907F906F905F904F903F90D9
:101FD0002F900895CF93DF93EC01643008F063E015
:101FE000688384ED92E00E945007CE016AEA0E9465
:101FF000E80C9A838983CE016CEA0E94E80C9C83EA
:102000008B83CE016EEA0E94E80C9E838D83CE0105
:1020100060EB0E94E80C9A8B898BCE0162EB0E94E8
:10202000E80C9C8B8B8BCE0164EB0E94E80C9E8BA2
:102030008D8BCE0166EB0E94E80C98878F83CE01D2
:1020400068EB0E94E80C9A878987CE016AEB0E94B0
:10205000E80C9C878B87CE016CEB0E94E80C9E8776
:102060008D87CE016EEB0E94E80C988B8F87DF91F5
:10207000CF910895FC01608B0895462B40937C001E
:1020800086E880937A0020E030E040E050E08091E4
:102090007A00806480937A0080917A0086FDFCCF7C
:1020A0004A30510534F08091780090917900280FE2
:1020B000391F4F5F5F4F4A34510549F780917A00CD
:1020C0008F7780937A0086E0369527958A95E1F799
:1020D000C901089560E44EE00E943D109C0140E07B
:1020E00050E064EB7BE281E190E00E948D36C90113
:1020F0000895CF92DF92EF92FF920F931F936C019E
:10210000FC01848161E00E945933F601848160E022
:102110000E949833C60160ECF60145810E943D1093
:10212000A0E0B0E0BC01CD012CE434E040E050E0A0
:102130000E945A362FEF33E040E050E00E948D3687
:10214000CA01B9010E944135F601268137814085D7
:1021500051850E94A8347B018C01F601848160E0E6
:102160000E945933C801B7010E941535CB011F9158
:102170000F91FF90EF90DF90CF900895CF93DF9372
:10218000EC010E9410339B01AC018B81882361F12B
:102190008C859D85AE85BF85281739074A075B0763
:1021A00018F1CE010E946A10CE010E9479109C01A4
:1021B00040E064E670E00E947936888990E0681714
:1021C000790708F441E048833A8329830E94103359
:1021D0002A853B8540E050E0260F371F481F591FD6
:1021E0002C873D874E875F87DF91CF9108959F921F
:1021F000AF92BF92CF92DF92EF92FF920F931F9315
:10220000CF93DF93EC01962EB42EA22E0E941033B2
:102210009B82BC82AD82EE82FF8208871987DB86B3
:10222000CA86992021F06C877D878E879F878C8155
:10223000882319F060E00E945933DF91CF911F91FC
:102240000F91FF90EF90DF90CF90BF90AF909F9055
:102250000895DF93CF9300D0CDB7DEB720915E0114
:1022600030915F01CE0101962115310519F4845E8C
:10227000944002C0821B930B9A83898389819A813F
:102280000F900F90CF91DF91089570E06827792724
:1022900020E041E050EACB019695879560FF04C0AD
:1022A000BC016427752701C0BC012F5F283099F756
:1022B000CB010895EF92FF920F931F93E82EF894AD
:1022C00090E0FC01EE0FFF1FDF01A95ABE4F0D90F9
:1022D000BC91A02D2C91EF5AFE4F0190F081E02D82
:1022E0003081322380529D4FDC010C9103273C93B7
:1022F000002311F478944EC08081FF24381710F029
:10230000FF24F39410E040C0A12FB0E0FD0143E0B2
:10231000EE0FFF1F4A95E1F7ED51FD4F80818E15BD
:1023200091F58181801779F533E0AA0FBB1F3A95AB
:10233000E1F7FD01EB51FD4F60817181A951BD4F66
:102340008C9111969C911197FC01AF0112962C91E2
:10235000129713963C9120FF0EC0F901F595E79571
:10236000E60FF71F0190F081E02DE40FF51F80814B
:102370009181FC01AF0135952795CB01820F931F09
:102380006F2DFA0109951F5F80913303181708F428
:10239000BBCF78941F910F91FF90EF9008951F92FB
:1023A0000F920FB60F9211242F933F934F935F9389
:1023B0006F937F938F939F93AF93BF93EF93FF930D
:1023C00082E00E945A11FF91EF91BF91AF919F91CE
:1023D0008F917F916F915F914F913F912F910F90CE
:1023E0000FBE0F901F9018951F920F920FB60F926D
:1023F00011242F933F934F935F936F937F938F930A
:102400009F93AF93BF93EF93FF9381E00E945A1184
:10241000FF91EF91BF91AF919F918F917F916F91BC
:102420005F914F913F912F910F900FBE0F901F9092
:1024300018951F920F920FB60F9211242F933F936E
:102440004F935F936F937F938F939F93AF93BF93BC
:10245000EF93FF9380E00E945A11FF91EF91BF919B
:10246000AF919F918F917F916F915F914F913F912C
:102470002F910F900FBE0F901F901895E5EEF2E090
:10248000118210821382128215821482389683E0A0
:10249000E533F807A9F70895FF920F931F93CF93A1
:1024A000DF93082FEB01883010F412E00CC0885045
:1024B000863010F410E007C0802F8E50863010F068
:1024C0001FEF01C011E0A0913303AF5FA09333036E
:1024D000B0E011972A813B814C815D81FD0183E051
:1024E000EE0FFF1F8A95E1F7E951FD4F20833183FD
:1024F00042835383E3E0AA0FBB1FEA95E1F7FD0196
:10250000EB51FD4F8881998191838083AD51BD4FFF
:102510001C93E02FF0E0E253FD4FF4901196FC92F3
:10252000802F62E00E945933412F50E0DA01AA0F58
:10253000BB1FBD016F5A7E4FEB01E881F98180819D
:102540008F2980832091680081E090E002C0880F8D
:10255000991F1A95E2F7282B20936800A95ABE4FBD
:10256000ED91FC919081E881F9818081892340522D
:102570005D4FFA0180837894DF91CF911F910F9185
:10258000FF9008950F931F9305EB14E0C80163E1DA
:1025900071E00E9436310E941033AB01BC01C801CA
:1025A0002AE030E00E94E131C80160E171E00E9460
:1025B000363180E01F910F910895CF92DF92EF9214
:1025C000FF920F931F93E82EFF2495EBC92E94E002
:1025D000D92EF70184E0F595E7958A95E1F700E7B4
:1025E00011E0E00FF11FC60160810E9459318FE0B8
:1025F000E822FF240E0D1F1DC601F80160810E9414
:10260000593180E01F910F91FF90EF90DF90CF90B4
:102610000895DF92EF92FF920F931F93CF93DF9372
:10262000D62E8C01C0E0D0E0E62EFF240FC0F801CA
:1026300080810E94DD122196CE15DF052CF485EBFA
:1026400094E060E20E9459310F5F1F4FCD1578F37F
:1026500080E0DF91CF911F910F91FF90EF90DF907D
:102660000895FF920F931F93F62E0E94091305EB16
:1026700014E0C80167E171E00E943631C8016F2D96
:102680004AE050E00E940132C80165E171E00E9419
:10269000363180E01F910F91FF90089570933503BC
:1026A000609334030895DF92EF92FF920F931F938C
:1026B000CF93DF937C01D62EC42FD0E08C010C0F7A
:1026C0001D1FF80180810E949833F801D282229662
:1026D000CC0FDD1FCC0FDD1FCE0DDF1D1882198240
:1026E0001A821B82DF91CF911F910F91FF90EF9083
:1026F000DF900895462F60E00E94531308951F93C2
:10270000CF93DF93EC01162F60FF04C0CE0160E091
:102710000E947A1311FF04C0CE0161E00E947A1377
:102720001C821E821A821D821F821B82DF91CF9122
:102730001F910895462F61E00E94531308959C0154
:10274000FC01E60FF11D8281882321F0C9010E945E
:102750007A130895C9010E949A130895FF920F9366
:102760001F93CF93DF93EC01062FF42E122F0E94BC
:102770001033212F30E0220F331F422F00FF06C0FD
:10278000FC822E83688779878A879B8701FF06C032
:10279000FD824F836C877D878E879F87DF91CF91E6
:1027A0001F910F91FF9008959F92AF92BF92CF9289
:1027B000DF92EF92FF920F931F93CF93DF93982EA8
:1027C000C92E9C01E9015901DD24F501E084F18461
:1027D00002851385E114F1040105110509F46CC0AB
:1027E0000E9410336E157F058007910708F464C0BE
:1027F0008C81882331F4892D9C2D6D2D0E947A13B4
:1028000007C0813041F4892D9C2D6D2D0E949A13B3
:1028100000E010E020C0823019F40CE211E01BC08F
:10282000833019F406E910E016C0843019F402E38D
:1028300010E011C0853061F78E81843008F01E826F
:102840008E81E82FF0E0EE0FFF1FE058FE4F008171
:1028500011818F5F8E838C81823070F1892D9C2D48
:102860006D2D0E949F130E9410339801442737FD5D
:102870004095542F260F371F481F591FF5012087F9
:102880003187428753878E818823B1F081508E83B0
:10289000882329F4892D9C2D6D2D0E947A130C59C3
:1028A0001F4FA801662757FD6095762F809134034E
:1028B000909135030E94A722D39484E090E0A80E63
:1028C000B91E219692E0D91609F07FCFDF91CF9102
:1028D0001F910F91FF90EF90DF90CF90BF90AF903E
:1028E0009F900895FF920F931F938C01862FF42ED3
:1028F000F801608361E00E945933C80160E00E94E2
:102900007A13F801F1828F2D61E00E945933C801DA
:1029100061E00E947A131F910F91FF900895EF924A
:102920000F93FC016083418322830383E4820F9130
:10293000EF9008950F931F93CF93DF93EC01162F21
:10294000042F888160E00E9498338A810E94EC33D2
:10295000892BD9F71EBD0DB407FEFDCF8EB50EBD78
:102960000DB407FEFDCF8EB5888161E00E949833DB
:10297000DF91CF911F910F9108950F931F93CF93E4
:10298000DF93EC01062F142F888160E00E949833BA
:102990008A810E94EC33892BD9F7102B1EBD0DB410
:1029A00007FEFDCF8EB51EBC0DB407FEFDCF1EB5D4
:1029B000888161E00E949833812FDF91CF911F9130
:1029C0000F91089568E340EC0E94BD140895EF92C2
:1029D000FF920F931F93CF93DF93EC01062FF72EF7
:1029E000142FE22E888160E00E9498338A810E9431
:1029F000EC33892BD9F7106C1EBD0DB407FEFDCF4B
:102A00008EB5802F9F2D9C01F90190E007C01EBC60
:102A10000DB407FEFDCF8EB581939F5F9E15B8F371
:102A2000888161E00E949833DF91CF911F910F91CF
:102A3000FF90EF900895EF92FF920F931F93CF9323
:102A4000DF93EC01162F042FF52EE22E888160E033
:102A50000E9498338A810E94EC33892BD9F7106445
:102A60001EBD0DB407FEFDCF8EB5802F9F2D9C019E
:102A7000F90190E008C080818EBD0DB407FEFDCF46
:102A80008EB59F5F31969E15B0F3888161E00E94FC
:102A90009833DF91CF911F910F91FF90EF900895A0
:102AA0001F93CF93DF93EC01162F888160E00E9483
:102AB00098338A810E94EC33892BD9F71EBD0DB45F
:102AC00007FEFDCF8EB5888161E00E949833DF91CB
:102AD000CF911F9108950F931F938C0166E30E947D
:102AE0005015C8016AE30E945015C80169E30E94AD
:102AF00050151F910F9108950F931F93CF93DF935C
:102B0000EC018B016BE340EC0E94BD14282F90E098
:102B10008F779070892B29F127FD23C0CE016FE3B9
:102B200040E80E94BD14282FF80180838D33D0F433
:102B3000B8016F5F7F4FCE014FE30E94E714CE01D3
:102B40006FE340E80E94BD14CE016FE340E80E94AD
:102B5000BD14982F9F779887881F8827881F8E839A
:102B600002C0F8011082CE016AE30E945015CE0126
:102B700066E30E945015CE0164E30E945015CE0119
:102B80006CE30E945015F8018081DF91CF911F9175
:102B90000F910895EF92FF920F931F93CF93DF93BE
:102BA000EC017B01142F66E30E945015CE016AE30D
:102BB0000E945015CE016BE30E945015112371F055
:102BC000CE0165E30E94501580E19EE028EC30E0E4
:102BD000F9013197F1F70197D9F704C080ED97E03B
:102BE0000197F1F7F70120812F5FCE016FE3A70175
:102BF0000E941B15CE016AE30E945015CE0165E3C9
:102C00000E94501510E00AE1CE0165E340EC0E94FD
:102C1000BD148D3069F0CE0165E340EC0E94BD1417
:102C2000833131F4802F8A95F1F71F5F183C61F7EB
:102C300081E0DF91CF911F910F91FF90EF90089568
:102C4000CF93DF93EC01888160E00E9498338A8102
:102C50000E94EC33892BD9F7888161E00E94983378
:102C6000CE0164E30E94501580E797E10197F1F7E8
:102C7000CE010E94E21490E026E0959587952A9572
:102C8000E1F78170DF91CF9108950F931F93CF9358
:102C9000DF93EC01888161E00E945933898161E012
:102CA0000E9459338A8160E00E9459338B8161E030
:102CB0000E9459338C8160E00E945933888161E021
:102CC0000E9498338B8161E00E949833898160E093
:102CD0000E94983380E58CBD888161E00E94983322
:102CE0008DE08A95F1F7888160E00E9498338AE14F
:102CF0008A95F1F7888161E00E9498338DE68A9584
:102D0000F1F7CE0160E30E94501580E29EE4019746
:102D1000F1F700E010E0F801ED59FE4F6491F80181
:102D2000EC59FE4FE491CE014E2F0E949A140E5F93
:102D30001F4F0033110579F7CE0163E30E94501550
:102D400012E003C0812F8A95F1F7CE0165E340ECD4
:102D50000E94BD148130B1F7CE016EE340EC0E94B9
:102D60009A14CE0164E30E945015CE016CE30E94D8
:102D70005015DF91CF911F910F9108959C01F99902
:102D8000FECF32BD21BDF89A80B508959C01F99916
:102D9000FECF1FBA32BD21BD60BD0FB6F894FA9ABE
:102DA000F99A0FBE08951F920F920FB60F92112439
:102DB0008F9381E0809320048F910F900FBE0F902E
:102DC0001F901895FC01EC51FF4F60830895EF921E
:102DD000FF920F931F93CF93DF93CA017901E8010C
:102DE000A62FB0E0FA012281338144815581FD0193
:102DF00073E0EE0FFF1F7A95E1F7EE55FE4F20834B
:102E000031834283538323E0AA0FBB1F2A95E1F746
:102E10009D0120563E4FFC0180819181F9019183F3
:102E20008083A256BE4F81E08C9370E0ABE026C059
:102E30007A9FC00111242091210130912201280F95
:102E4000391FF90184918617C1F4A9014F5F5F4FC3
:102E5000FA018491833030F0F9013996859194918B
:102E600099838883FA018491823038F4F901399684
:102E700085919491F701918380837F5F80911E01FA
:102E80007817B0F2DF91CF911F910F91FF90EF90E3
:102E90000895DF93CF9300D00F92CDB7DEB7FC013A
:102EA000E654FF4F60817291829190E00F900F90F5
:102EB0000F90CF91DF910895FC0184AD815008956A
:102EC000EF92FF920F931F93CF93DF93FF2442C0A3
:102ED000AF2DB0E0FD0183E0EE0FFF1F8A95E1F713
:102EE000E256FE4F80818823A1F103E0AA0FBB1FA9
:102EF0000A95E1F7FD01E056FE4F40815181AE5544
:102F0000BE4F8C9111969C911197FC01EF01129686
:102F10002C91129713963C9120FF0EC0F901F59564
:102F2000E795E40FF51F0190F081E02DEC0FFD1FF8
:102F300080819181FC01EF0135952795CA01820FAF
:102F4000931F60E040E020E000E010E0EE24FE018E
:102F50000995F39480911D018F1508F0B9CFDF9189
:102F6000CF911F910F91FF90EF900895DB01119683
:102F70009C91119786E7982711969C93119712962A
:102F80005C91129742E008C0FD01E20FF31F9452DA
:102F90008081982790834F5F8C91242F30E04817D1
:102FA00098F3FD01E20FF31F808185278083089548
:102FB000DB0111969C91119786E7892711968C93D6
:102FC000119742E009C0FD01E20FF31F8081945286
:102FD000982790834F5F982F8C91242F30E04817CB
:102FE00090F3FD01E20FF31F808112969C918927D7
:102FF000808308958F929F92AF92BF92CF92DF927B
:10300000EF92FF921F93CF93DF93EC01C25BDF4FF0
:1030100040E010E0A7E48A2E912C880E991E5E01F4
:10302000FFE4CF2ED12CC80ED91EE4E4EE2EF12CF5
:10303000E80EF91E212F30E0F901EE0FFF1FEE0F11
:10304000FF1FE20FF31FE35CFE4FE081EE23D1F19F
:10305000D4018C91E81711F0EF3F91F5F901EE0FD3
:10306000FF1FEE0FFF1FE20FF31FE35CFE4F918186
:10307000F5018081981711F09F3F11F5F901EE0FCE
:10308000FF1FEE0FFF1FE20FF31FE35CFE4F928165
:10309000D6018C91981711F09F3F91F4F901EE0F32
:1030A000FF1FEE0FFF1FE20FF31FE35CFE4FD70180
:1030B0006C9169500380F481E02DCE01099541E0C7
:1030C0001F5FB8CF842FDF91CF911F91FF90EF90BA
:1030D000DF90CF90BF90AF909F908F900895CF9248
:1030E000EF92FF920F931F93CF93DF93EB01F801C1
:1030F0008081A82FB0E0FD0163E0EE0FFF1F6A950D
:10310000E1F7E256FE4F80818823C1F16881FA0120
:103110000081F901108123E0AA0FBB1F2A95E1F776
:10312000FD01E056FE4F40815181AE55BE4F8C915E
:1031300011969C911197FC01EF0112962C91129718
:1031400013963C9120FF0EC0F901F595E795E40F29
:10315000F51F0190F081E02DEC0FFD1F8081918122
:10316000FC01EF0135952795CA01820F931F402F6F
:10317000212F8701EC2CFE01099581E0DF91CF9191
:103180001F910F91FF90EF90CF900895CF92EF9203
:10319000FF920F931F93FC018C01015B1F4FAC0149
:1031A000425B5F4F70E5E72EF12CE80EF91EEC5BF9
:1031B000FF4FA081E454F040AB50CF01E95BFF4FDB
:1031C000BF019801CA2E0E946F181F910F91FF90A6
:1031D000EF90CF90089520911E01E0912101F09190
:1031E000220190E009C08491681761F431968491BE
:1031F0003197481739F404C09217A8F3E0E0F0E0E3
:10320000CF0108959F5F3B96F7CF0F931F93022F37
:103210000E94EB18AC010596FC01259134914C5F9E
:103220005F4FFA0144918091270190912801280F66
:10323000391F409F80011124200F311FC9011F91A8
:103240000F91089520911E01E0912101F09122013A
:1032500090E009C08491681761F4329684913297A6
:10326000882339F004C09217A8F3E0E0F0E0CF0122
:1032700008959F5F3B96F7CF1F93142F0E9422194A
:10328000FC01009739F0112351F032968491329766
:10329000181728F040E050E0CA011F9108953796B2
:1032A00025913491412F50E0440F551F440F551F75
:1032B0008091250190912601480F591F420F531FFD
:1032C000EBCFEF92FF920F931F93CF93DF937C018D
:1032D00080913A01882309F449C010E007E038C022
:1032E000109FC0011124C0913B01D0913C01C80F37
:1032F000D91F8881882331F4C70169814B810E94DD
:103300003C190BC0813019F020E030E007C0C70144
:1033100069814A812B810E9405199C016C8140E0E2
:1033200014C0ED81FE81E40FF11D5491F999FECF97
:10333000C90101961FBA32BD21BD50BD0FB6F89428
:10334000FA9AF99A0FBE4F5F9C01461750F31F5F20
:1033500080913A01181708F4C3CF84EF91E028EC6C
:1033600030E0F9013197F1F70197D9F7DF91CF916B
:103370001F910F91FF90EF9008959F92AF92BF928F
:10338000CF92DF92EF92FF920F931F93CF93DF9331
:10339000EC015A01922E0E942219C152DF4F9983EB
:1033A0008883CF5DD040892B09F448C0C753DF4FD5
:1033B00080E7888380E28A93C85CD040FE01E653B0
:1033C000FF4F95013F77232F330F330BC955DF4F45
:1033D0008881879588278795822B8083A496A992D8
:1033E0009992199309938F2D9927AA27BB2789931F
:1033F000E992A701960140705070BB27A52F942F2A
:10340000832F89932883C25DD040FE01E855FF4F8A
:103410008181CD52DF4F88832196808188832A96CF
:103420008BE08883CE5DD040FE01EF51FF4F80815D
:103430008F5F8083CE51DF4F81E08883DF91CF9112
:103440001F910F91FF90EF90DF90CF90BF90AF90C2
:103450009F900895FF920F931F93CF93DF93EC01FA
:10346000062FF42E122F0E942219C152DF4F99838A
:103470008883CF5DD040892B09F443C0202F30E0F2
:10348000CF51DF4FF90183E0EE0FFF1F8A95E1F77F
:10349000E256FE4F81818883C15ED040FE01E85331
:1034A000FF4F81E0F81611F4108202C080E28083A1
:1034B000C753DF4F80E48883A2978881C75AD040E2
:1034C000811111E0FF2011F480E001C080E4C653B7
:1034D000DF4F179511271795102B812B8993F90131
:1034E00013E0EE0FFF1F1A95E1F7E256FE4F8181C0
:1034F00088838F5F8183639682E08883249681E04E
:103500008883DF91CF911F910F91FF90089581E003
:10351000809321040895EF92FF920F93CF93DF934E
:10352000E42EE9010E942219AC010596FC012591C7
:1035300034914C5F5F4FFA01449180912701909143
:103540002801280F391F4E9D700111242E0D3F1D9B
:103550002115310541F0C901BE01402F50E026EC94
:1035600036E10E943A02DF91CF910F91FF90EF90E8
:103570000895CF93DF93E9010E943C19BC010097A5
:1035800011F480E008C0CE0144E050E02EEB36E1BB
:103590000E94E20181E0DF91CF9108951F93142FE3
:1035A0000E9422199C010097D9F00596FC016591B3
:1035B00074912C5F3F4FF901449135968591949118
:1035C0002091270130912801620F731F419F9001C4
:1035D0001124620F731F50E02EEB36E10E94E201CE
:1035E0001F910895FF920F931F93CF93DF93EC01E8
:1035F000F62E0E942219FC010097A9F0329610E0E5
:1036000004910FC0CE016F2D412F0E943C196EEB2B
:1036100076E10E94FE01611571058105910521F099
:103620001F5F101778F31FEF812FDF91CF911F914C
:103630000F91FF900895DF92EF92FF920F931F93E7
:10364000CF93DF93EC01062F7A01662311F410E08B
:1036500020C00E942219FC010097D1F0329610E0A0
:10366000D49014C0CE01602F412F0E943C196EEB04
:1036700076E10E94FE01F701208131814281538170
:10368000621773078407950721F01F5F1D1550F31C
:103690001FEF812FDF91CF911F910F91FF90EF903E
:1036A000DF9008951F93CF93DF93EC01162F0E94B4
:1036B0001B1B482F8F3F81F0CE01612F0E943C19C8
:1036C000009751F040E050E060E070E026EC36E119
:1036D0000E94560281E001C080E0DF91CF911F91EE
:1036E0000895EF92FF920F931F93CF93DF93EC0116
:1036F000062F7A010E941B1B8F3F11F01EEF19C08D
:10370000CE01602F0E94F21A182F8F3F11F41DEF87
:1037100010C0CE01602F412F0E943C19009711F478
:103720001FEF07C0B70144E050E026EC36E10E94ED
:103730003A02812FDF91CF911F910F91FF90EF906F
:103740000895EF92FF921F93CF93DF937C01EB01DB
:1037500011E008C0C701612FAE010E941B1B8F3F03
:1037600031F41F5F80911D018117A0F71FEF812F9A
:10377000DF91CF911F91FF90EF900895AF92BF928C
:10378000CF92DF92EF92FF920F931F93CF93DF932D
:10379000A22EB02E0E94EB18EC010097A1F100912F
:1037A0001F01109120012396FE0184912196FE01B4
:1037B000F4902497080F111DC8016B2D70E04F2D58
:1037C00050E00E94BF01DC010097E9F0CE010596B0
:1037D000FC01659174918091270190912801680FF7
:1037E000791FFA9CC0011124680F791F8A2F801B52
:1037F000680F711DC6014E2D50E02EEB36E10E9480
:10380000E20181E001C080E0DF91CF911F910F9133
:10381000FF90EF90DF90CF90BF90AF900895CF9240
:10382000DF92EF920F931F936C0100E01BE021C029
:10383000019FC00111242091210130912201280F04
:10384000391FC9010596FC01659174912C5F3F4FAA
:10385000F9014491359685919491209127013091F9
:103860002801620F731F50E02EEB36E10E94E20147
:103870000F5F80911E010817D8F2C60160E040E09A
:1038800020E00AE053E0E52E31E1C32E31E0D32EF3
:103890000E94BE1B1F910F91EF90DF90CF90089573
:1038A0008F929F92AF92BF92CF92DF92EF92FF9250
:1038B0000F931F93CF93DF93EC01162FC42EA02EEE
:1038C0004701A9010E941B1BD82E2FEF821711F46C
:1038D0008FEF53C0CE01612F4C2D0E94EB18AC012D
:1038E000009711F480E049C04D5F5F4FFA013491B9
:1038F00043505040CA010596FC01059114914C5F5C
:103900005F4FFA0124918091270190912801080FBF
:10391000191F2D9DC0011124080F191FC0911F01EF
:10392000D0912001C30FD11DBC2EDD24C22E22C098
:103930007401ED0CF11CF7016081CE0170E04C2D9B
:1039400050E00E94BF019C01009791F0F701618156
:10395000F999FECF1FBA822F8B199801280F311DBC
:1039600032BD21BD60BD0FB6F894FA9AF99A0FBE28
:1039700032E0D30EDA14E0F281E0DF91CF911F91B3
:103980000F91FF90EF90DF90CF90BF90AF909F90FE
:103990008F900895AF92BF92CF92DF92EF92FF92F5
:1039A0000F931F93CF93DF93EC01F62EE42E680163
:1039B000A9010E941B1B182F8F3F09F472C0809130
:1039C0005D01811729F01092220410935D0107C058
:1039D000809122048F3F19F480935D0108C0CE01CD
:1039E0006F2D4E2D0E94EB18AC01009711F410E0E2
:1039F00058C04D5F5F4FFA01349143505040CA01A7
:103A00000596FC01C591D4914C5F5F4FFA0124915A
:103A10008091270190912801C80FD91F219FC001D3
:103A20001124C80FD91F760110E0022FA32EBB244A
:103A300080912204801728F5103199F19501280F03
:103A4000311DE0911F01F0912001E20FF31F8081F1
:103A5000F70181931E5F80912204BE01680F711DE2
:103A6000CF0141E050E02EEB36E10E94E20180916F
:103A700022048F5F8093220482E090E0E80EF91E1A
:103A8000D7CF103170F4F601E10FF11D1082812FB4
:103A90008F5FC80ED11CF60110821E5F8FEF8093DE
:103AA0002204812FDF91CF911F910F91FF90EF9012
:103AB000DF90CF90BF90AF900895BF92CF92DF92EA
:103AC000EF92FF920F931F93DF93CF9300D000D01C
:103AD000CDB7DEB76C01B62E7A010E942219FC0127
:103AE00080912304909124048E179F0751F0109227
:103AF0002504F0932404E0932304329610E004910B
:103B000017C0809125048F3FC1F7109224041092B2
:103B1000230410E03AC0F701E10FF11D60837183C7
:103B2000828393831C5F809125048F5F809325049B
:103B3000409125044017A0F4103138F5C6016B2DD3
:103B40000E943C196EEB76E10E94FE0169837A8344
:103B50008B839C83611571058105910521F3DBCF72
:103B6000103198F4E10EF11C8091370390913803E5
:103B7000A0913903B0913A03F70180839183A28326
:103B8000B3831C5F8FEF80932504812F0F900F90DC
:103B90000F900F90CF91DF911F910F91FF90EF90B9
:103BA000DF90CF90BF900895BF92CF92DF92EF92B7
:103BB000FF920F931F93DF93CF9300D000D0CDB728
:103BC000DEB76C01B62E7A01FA0180819181A28163
:103BD000B38189839A83AB83BC83C6018E010F5F57
:103BE0001F4FA8010E94521BF70184818C83C601DC
:103BF0006B2DA8010E94521B81E00F900F900F9037
:103C00000F90CF91DF911F910F91FF90EF90DF9078
:103C1000CF90BF900895CF92DF92EF92FF920F93D3
:103C20001F93DF93CF9300D000D0CDB7DEB77C01D8
:103C3000C62E8A01FA018381882379F080819181DF
:103C4000A281B38189839A83AB83BC83C701AE0110
:103C50004F5F5F4F0E94711BD82EF80144814423AF
:103C600041F04C83C7016C2DAE014F5F5F4F0E9446
:103C7000711B25E530E0E20EF31EF701D1927F01C2
:103C800080832AEA3FEFE20EF31E8701025B1F4F9B
:103C90009701215B3F4FF701ED5AFF4FC70147E402
:103CA00050E0E40EF51EB701A8017F01E4E0CE2E3E
:103CB0000E946F1881E00F900F900F900F90CF919E
:103CC000DF911F910F91FF90EF90DF90CF900895BB
:103CD000CF92DF92EF92FF920F931F93DF93CF93D8
:103CE00000D000D00F92CDB7DEB78C01B2E0CB2E62
:103CF000D12CCC0EDD1E085B1F4FF8018081918115
:103D0000A281B381085410408A839B83AC83BD8316
:103D1000AEE4EA2EF12CE00EF11ED7018C918F70EB
:103D20008D83C801B6010E94A11B682F882329F149
:103D30008983C801A6010E941B1B482F8F3FE9F011
:103D4000C80169810E94CE1AFFE4CF2ED12CC00E8B
:103D5000D11E0C5B1F4FD801EC9104541040EA5067
:103D6000C801095B1F4FB801A70196018E010F5FC3
:103D70001F4F7601CE2E0E946F180F900F900F905C
:103D80000F900F90CF91DF911F910F91FF90EF90C7
:103D9000DF90CF900895CF93DF93EB0181E191E025
:103DA00067E373E043E050E00E94CC01009759F0D4
:103DB00081E191E0BE0143E050E00E94CC019C0112
:103DC00080E0232B09F481E0DF91CF910895CF9318
:103DD000DF93EC018A8185FF0DC0CE01079667E372
:103DE00073E043E050E00E94CC01009719F080910D
:103DF0000C0101C081E08EAF8A8190E024E09595AE
:103E000087952A95E1F78170CD5BDF4F8883C35496
:103E1000D040BE0168547F4FCE01079643E050E08A
:103E20000E94CC01009771F4AE014C5B5F4F28817A
:103E300030E02F5F3F4FCA01BE01A9010E94D901A6
:103E40001DAE07C081E08DAFEF96188219821A82ED
:103E50001B82DF91CF910895CF92EF92FF920F9343
:103E60001F93CF93DF93EC015C2D575F588359501C
:103E700069834A832B83DC011496FC01E854FF4FCD
:103E800083E001900D928150E1F7DE011796F80171
:103E900083E001900D928150E1F79E01265F3F4F34
:103EA000E216F30631F0C901B701452F50E00E9438
:103EB000D901CE010E94E71EDF91CF911F910F9192
:103EC000FF90EF90CF9008958F929F92AF92BF9204
:103ED000CF92DF92EF92FF920F931F93DF93CF93D6
:103EE00000D000D00F92CDB7DEB75C01FC0185ADEC
:103EF000882309F0EDC02FED30E0A20EB31EF501CE
:103F00002081318141E25FEFA40EB51E809126042D
:103F1000909127048217930719F581EE90E0A80E7F
:103F2000B91E90912B04F50180814FE15FEFA40E43
:103F3000B51E9817A9F480912A04813049F5E091C3
:103F40002804F09129043296E49180912C048E1774
:103F5000F8F082EE90E0A80EB91EF5011082B8C00C
:103F6000309327042093260441EE50E0A40EB51EA2
:103F7000F50180814FE15FEFA40EB51E80932B0405
:103F800010922C0410922A043093290420932804C0
:103F900080912A04882309F07EC0E0912804F091E2
:103FA00029043296E49180912C048E1708F473C092
:103FB000F50164AD6F5F64AF615028EC30E0A20E94
:103FC000B31EF501408128E33FEFA20EB31E426805
:103FD000EAECEE2EF12CEA0CFB1CD501A252BF4FED
:103FE000C501E9ECF0E0AE0EBF1EF501208101E154
:103FF00011E0CC900E942C1F81E080932A0468C0BD
:104000002F5F20932C0464C081E080932A04E09108
:104010002804F091290464913196E4912F5F209354
:104020002C042150C5014E2F01E0EE24E3946E01D3
:104030000894C11CD11C0E94BE1BF50164AD6F5FCA
:1040400064AF6150898190E08170907074E0880F56
:10405000991F7A95E1F728EC30E0A20EB31EF50126
:10406000408128E33FEFA20EB31E4268482B5AEC72
:10407000E52EF12CEA0CFB1CD501A252BF4FC50165
:10408000E9ECF0E0AE0EBF1EF50120818401CC907A
:104090000E942C1F1DC0E0912804F0912904E49196
:1040A00032E0832E912C8C0E9D1EC5016E2F409107
:1040B0002C0494010E94B91A8A819B81AC81BD8134
:1040C00020912C040097A105B10509F499CF9CCF4C
:1040D0000F900F900F900F900F90CF91DF911F9145
:1040E0000F91FF90EF90DF90CF90BF90AF909F9097
:1040F0008F900895CF92EF92FF920F931F93DF93CB
:10410000CF930F92CDB7DEB7FC0180E889838F0192
:10411000085B1F4FCF01EB5BFF4F608140E822E05F
:104120007E010894E11CF11CCC24C3940E942C1F36
:104130000F90CF91DF911F910F91FF90EF90CF9053
:104140000895CF92EF92FF920F931F93DF93CF9337
:104150000F92CDB7DEB7FC0119828C01085B1F4FAF
:10416000EB5BFF4F608140E822E07E010894E11C98
:10417000F11CCC24C3940E942C1F0F90CF91DF918F
:104180001F910F91FF90EF90CF900895CF92EF92F3
:10419000FF920F931F93FC0181E08287638744871E
:1041A000E955FF4F8081E75AF0408795882787952A
:1041B000822B8587EB56FF4F8081E559F04086873B
:1041C0008F01085B1F4FDF011A96CF01EB5BFF4F9A
:1041D000608140E822E07D01F5E0CF2E0E942C1F97
:1041E0001F910F91FF90EF90CF900895CF92EF9293
:1041F000FF920F931F93CF93DF93EC01162F042FA1
:10420000F22E81E191E067E373E043E050E00E9429
:10421000CC01009771F186E08A871B870C87FD86A9
:10422000CB56DF4F8881C559D0408E87C95BDF4FA1
:104230008881C754D040813069F4C15BDF4F8881E9
:10424000CF54D0408E3031F4CB5BDF4F6881C55402
:10425000D04004C06CAD6F5F6CAF6150CE0144EADA
:1042600020E101E111E02A967E01A5E0CA2E0E941C
:104270002C1FDF91CF911F910F91FF90EF90CF9066
:104280000895CF92EF92FF920F931F93CF93DF93F6
:10429000EC014FE4E42EF12CE80EF91EF7018081C9
:1042A000813049F4CE01C25BDF4F68812296AE01B6
:1042B0000E940B1EDEC0823049F4CE01C25BDF4F8C
:1042C00068812296AE010E94D41DD3C0833019F5B7
:1042D000FE01E554FF4FCB5BDF4F8881C554D040D2
:1042E0008083FE01E154FF4FC25BDF4F8881CE54D3
:1042F000D0408083DE01A454BF4FFE01E85BFF4F36
:1043000083E001900D928150E1F7CB53DF4F81E0C4
:10431000888322963DC08430E9F5FE01E554FF4FC5
:10432000CB5BDF4F8881C554D0408083FE01E154D0
:10433000FF4FC25BDF4F8881CE54D0408083FE01A7
:10434000E054FF4FCC5ADF4F8881C455D040808362
:10435000FE01EF53FF4FC05BDF4F88819981AA8137
:10436000BB81C055D04080839183A283B383DE019B
:10437000A454BF4FFE01E85BFF4F83E001900D9214
:104380008150E1F7CB53DF4F82E08883229681E0B2
:104390008883D5C0853031F5FE01E154FF4FC25B03
:1043A000DF4F8881CE54D0408083FE01EF53FF4F12
:1043B000C05BDF4F88819981AA81BB81C055D04005
:1043C00080839183A283B383FE01E054FF4FCC5AD4
:1043D000DF4F88818083CE58DF4F81E08883C058CB
:1043E000D04048C08630C1F4CA53DF4F1882C65C43
:1043F000D040CE010E940F1C8E01025B1F4FCE01E8
:10440000C95BDF4FBE01A8019701EE24FF24CC2435
:104410000E946F188A912FC08830A9F5CA53DF4FC8
:104420008881C65CD040882351F0C154DF4F688139
:10443000C157D0408881CE54D040681739F085EB01
:1044400094E063E971E00E94363179C0FE01E054E6
:10445000FF4F9E012F533F4FCC5BDF4F0881C45469
:10446000D0400B50CE014081C05BDF4F7E010E94E7
:10447000501C2A978881C654D04085FF60C0CE0169
:104480000E94A1205CC08930E1F41A8660910F017E
:10449000709110016D5F7F4FCE010B964BE050E0A5
:1044A0000E94B6018E01085B1F4FFE013A96CE01B5
:1044B000CB5BDF4F688140E820E17F013BE0C32E0A
:1044C00029C08A3051F500910F0110911001B801F7
:1044D0006D5F7F4FCE01805B9F4F4AE050E00E94AE
:1044E000A901892B61F58AE0E82EF12CEC0EFD1E66
:1044F000C701B80141E150E00E94B6016CAD6F5FA9
:104500006CAF6150CE0142EA20E0C85BDF4F8E0104
:10451000B1E1CB2E0E942C1F12C08E3081F48E018F
:10452000025B1F4F9E01215B3F4FCE01C95BDF4FF6
:10453000BE01A801EE24FF24CC240E946F18DF9155
:10454000CF911F910F91FF90EF90CF900895EF9230
:10455000FF920F931F93CF93DF93EC017A018B01AE
:10456000CD57DF4F8881C358D040882329F4CE012E
:1045700082579F4F0E942016CD57DF4F81E08883DE
:104580000E9410339B01AC012E0D3F1D401F511F97
:10459000FE01379680819181A281B3812817390766
:1045A0004A075B0720F02083318342835383DF91E6
:1045B000CF911F910F91FF90EF900895EF92FF928E
:1045C0000F931F93CF93DF93EC018C010E571F4F76
:1045D000F8018081813009F4D4C00E9410335AE878
:1045E000E52EF12CEC0EFD1EF70120813181428178
:1045F0005381621773078407950708F4C2C08DAD15
:10460000882309F0BEC0F8019081923009F042C0C1
:104610008E010D571F4FF8018081882331F5CE019F
:1046200082579F4F0E942016882389F00E941033E2
:104630009B01AC01CA57DF4F88819981C658D04091
:10464000A0E0B0E0280F391F4A1F5B1F04C00E9482
:1046500010339B01AC01CD57DF4F81E08883279653
:10466000288339834A835B838CC0813041F5CE0136
:1046700082579F4F0E946B15F80110820E941033E1
:1046800066507F4F8F4F9F4FF70160837183828306
:10469000938377C0933008F474C08E010D571F4F79
:1046A000F8018081813041F4CE0182579F4F0E94F2
:1046B0006B15F801108265C0923008F462C0CD57C6
:1046C000DF4F8881C358D040882309F05AC0CE01FB
:1046D00089569F4F63E00E947F13CE57DF4F98812A
:1046E000C258D0409250923028F48091600080648B
:1046F0008093600010927A00209164008FEF809385
:10470000640083B7816083BF80E685BF80E485BF96
:10471000889583B78E7F83BF923028F480916000A4
:104720008F7B80936000209364008091200481300F
:10473000E9F4109220042091DF043091E0044091CC
:10474000E1045091E204C857DF4F88819981A0E0CD
:10475000B0E0820F931FA41FB51F8093DF049093D6
:10476000E004A093E104B093E2040BC0CA57DF4F0A
:1047700048815981C658D04060E070E0CE010E9467
:10478000A722DF91CF911F910F91FF90EF90089595
:10479000CF92EF92FF920F931F938C0189569F4FF8
:1047A00062E043E020E00E94AE13EAE0EE2EF12C3E
:1047B000E00EF11E60910F0170911001C70141E1FF
:1047C00050E00E94B601F80164AD6F5F64AF6150C4
:1047D000C80142EA20E001E111E071E1C72E0E9428
:1047E0002C1F1F910F91FF90EF90CF900895CF92C3
:1047F000EF92FF920F931F93CF93DF93EC018DAD58
:10480000882309F05BC0CE0189569F4F61E044E0E8
:1048100021E00E94AE13CB53DF4FF880C55CD0403F
:1048200081E0F81659F4FE01E154FF4FAE01455FF7
:104830005F4FCE0160810E945D1D14C0B2E0FB1687
:10484000E9F5FE01E154FF4FDE01A054BF4F9E0188
:104850002F533F4F8E01055F1F4FCE0160814C915A
:104860000E94CA1C382F882351F4CE0185549F4FD3
:10487000FC018DE0DF011D928A95E9F71FC0DE0182
:10488000A554BF4F8F3F41F48DE01D928A95E9F703
:10489000CE010E947A2012C0FA866C916F5F6C93F1
:1048A0006150FE013A963F5FCE0140EA20E1C454D8
:1048B000DF4F8E017F01C32E0E942C1FDF91CF910D
:1048C0001F910F91FF90EF90CF9008958F929F923C
:1048D000AF92BF92CF92DF92EF92FF920F931F930E
:1048E000CF93DF93EC010E9410335B016C019DAD0F
:1048F0008EAD891708F495C08E01015C1F4FF80139
:1049000080819181A281B381A816B906CA06DB060F
:1049100008F487C09C2E8D2ECE01BE010E94B617D2
:10492000809136030E943932FE01ED5BFF4FCE01CC
:1049300082579F4FBE0140810E94CA158091360365
:1049400067E87AE142E050E00E941632CE01BE01F3
:104950000E94D8178DAD8F5F8DAF80910D01909122
:104960000E01A0E0B0E08A0D9B1DAC1DBD1DF8013D
:1049700080839183A283B383CD57DF4F81E0888307
:104980008A91C258D0408823F1F0CA57DF4F8881FE
:1049900099817C0100E010E02496A60195012E0D7E
:1049A0003F1D401F511F88819981AA81BB81CA5830
:1049B000D04082179307A407B50728F4CE01B801A9
:1049C000A7010E94A72285EB94E061EC71E00E94B0
:1049D000363168816F5F892D982D0E943113682FC1
:1049E00085EB94E00E9459310E94C212682F85EB3A
:1049F00094E00E945931CE51DF4F8881C25ED04091
:104A0000813079F4CC51DF4F8881C45ED040813051
:104A100041F4CE0189569F4F63E044E021E00E94BB
:104A2000AE139DAD8EAD891758F480910C01981787
:104A300038F41DAEEF96188219821A821B82EF9706
:104A40009DAD8EAD8917B0F5FE01FF9680819181F5
:104A5000A281B381A816B906CA06DB0658F11DAEBD
:104A60001082118212821382CE51DF4F8881C25E82
:104A7000D040813091F48E0109561F4FC80163E088
:104A80000E947F13CC51DF4F8881813031F4C801FF
:104A900062E042E021E00E94AE1385EB94E06AEB15
:104AA00071E00E9436310E94C212682F85EB94E0BB
:104AB0000E945931DF91CF911F910F91FF90EF909C
:104AC000DF90CF90BF90AF909F908F9008950F93FD
:104AD0001F93CF93DF93EC018C01055B1F4FBC014B
:104AE00068547F4FC80143E050E00E94CC01FE01B2
:104AF000E058FF4F009719F48081816002C08081E7
:104B00008E7F8083C80167E373E043E050E00E943A
:104B1000CC01FE01E058FF4F009719F480818260BC
:104B200002C080818D7F8083C058DF4F8881C0584C
:104B3000D04080FF05C085EB94E067E372E00BC0D6
:104B400081FF05C085EB94E063E372E004C085EB70
:104B500094E06FE272E00E9436318E010C5B1F4FD1
:104B6000F80160816F5FC8010E943113682F85EBE7
:104B700094E00E9459310E94C212682F85EB94E0A4
:104B80000E945931C058DF4F8881C058D04080FD05
:104B900005C081FD03C0F801108299C0CA5BDF4FD8
:104BA0008881C654D04086FF28C085EB94E069E137
:104BB00072E00E943631FE01EF57FF4FCB5BDF4FB3
:104BC00090818881C554D040981729F485EB94E0F2
:104BD00060E072E004C085EB94E068EE71E00E9452
:104BE0003631FE01EF57FF4FCB5BDF4F908188815D
:104BF000C554D040981709F467C0BE01685B7F4F69
:104C0000CE010E94CB1E882349F0FE01EF57FF4FD3
:104C1000CB5BDF4F8881C554D0408083C058DF4FC5
:104C20008881C058D04080FD02C081FF43C0CA5B6C
:104C3000DF4F8881C654D04087FF3CC0C95BDF4F3F
:104C40008881C754D040813021F4CE010E94412197
:104C500031C08230E9F41DAECE51DF4F8881C25E93
:104C6000D040813039F58E0109561F4FC80163E0ED
:104C70000E947F13CC51DF4F8881C45ED0408130C9
:104C8000C9F4C80161E044E021E00E94AE1312C003
:104C9000813121F4CE010E94C6180CC0823120F06F
:104CA000CE010E94681E06C085EB94E065EC71E0C1
:104CB0000E943631C058DF4F8881C058D04080FFF5
:104CC00003C0CE010E94FA17CC5BDF4F1882DF9140
:104CD000CF911F910F9108959F92AF92BF92CF9263
:104CE000DF92EF92FF920F931F93CF93DF935C01BC
:104CF000C0902101D0902201EE24FF2400E0FBE0CF
:104D00009F2E0BC0FE016491C7010E9445117C01DA
:104D10001F5F21961930B1F70F5F80911E010817B0
:104D200038F4099DE0011124CC0DDD1D10E0EACF1F
:104D300080912301909124016EEB76E10E94240280
:104D4000E816F90609F451C0609125017091260119
:104D500040912D0150912E0120E030E010C0F999D2
:104D6000FECF1FBAC901860F971F92BD81BD10BC2F
:104D70000FB6F894FA9AF99A0FBE2F5F3F4F241797
:104D8000350768F384EF91E028EC30E0F9013197C2
:104D9000F1F70197D9F760912701709128014091AF
:104DA0002F015091300120E030E010C0F999FECF82
:104DB0001FBAC901860F971F92BD81BD10BC0FB6E7
:104DC000F894FA9AF99A0FBE2F5F3F4F24173507D0
:104DD00068F384EF91E028EC30E0F9013197F1F7C6
:104DE0000197D9F7C5010E94611980912301909123
:104DF0002401B70146EC56E10E947C02DF91CF917D
:104E00001F910F91FF90EF90DF90CF90BF90AF90E8
:104E10009F900895CF93DF93EC01809123019091AF
:104E2000240160E070E046EC56E10E947C02CE0175
:104E30000E946C26CE010E940F1CCD51DF4F88814D
:104E4000C35ED040813061F42EE088E190E00FB67F
:104E5000F894A895809360000FBE20936000FFCF68
:104E6000CE0189569F4F62E044E025E00E94AE13D8
:104E7000DF91CF910895FF920F931F93CF93DF930C
:104E8000EC01F62E81E0681719F483B7817F29C001
:104E9000E2E06E1741F5CC57DF4F88E99AE389933A
:104EA000999388EC90E0998388830E94103324962C
:104EB00066507F4F8F4F9F4F688379838A839B8390
:104EC0008091600088618093600084E0809360003E
:104ED0008AEF90E09A938A93C858D04083B7817F35
:104EE000846083BF13C0F3E06F1781F4809160008A
:104EF00088618093600084E080936000C857DF4F32
:104F00008AEF90E099838883C858D0408F2D8350D2
:104F10008230D8F4CC57DF4F88E99AE3899399938C
:104F200088EC90E0998388830E9410332496605621
:104F3000704F8F4F9F4F688379838A839B83CA58B2
:104F4000D04083B7817F846083BF8E010E571F4F8F
:104F5000F801F08285EB94E060E071E00E9413328A
:104F600085EB94E0F80160814AE050E00E94013254
:104F700085EB94E06AE00E945931CD57DF4F81E024
:104F80008883DF91CF911F910F91FF9008958091B9
:104F900036030E94393289EC93E06FE773E00E9498
:104FA0007C15882331F08BE393E06FE773E00E9478
:104FB000D817109221048091360367E87AE142E025
:104FC00050E00E9416320895CF93DF93EC01809158
:104FD0002104882319F0CE010E94C727CC5BDF4F44
:104FE0008881C454D040882319F0CE010E946725DF
:104FF0008DAD882319F0CE010E946624C953DF4F7E
:105000008881C75CD040882319F0CE010E94F72325
:10501000CE51DF4F8881C25ED040882319F0CE0187
:105020000E94641FCE010E94DE22CE010E94601702
:10503000CE0189569F4F0E94D413CE0189559F4FB0
:105040000E94BE10DF91CF910895FF920F931F939E
:105050008C01F62E85EB94E040E051EE60E070E0CC
:105060000E948E2F0D511F4FF801F082035E1040F9
:10507000C8010E946C26C8010E940F1CC8018257FB
:105080009F4F0E9445160D561F4FF801808103590E
:1050900010408093360367E87AE142E050E00E94D6
:1050A000163260910F01709110016F5E7F4FC80141
:1050B00088549F4F43E050E00E94B601C8018956D2
:1050C0009F4FB8010E944E138BE393E048EE53E0EC
:1050D00060E070E00E94A7221F910F91FF90089559
:1050E000EF92FF920F93CF93DF93EC017B01FB01D3
:1050F0002081222381F18181882319F18D899E8964
:1051000020FF0FC06C89428128E831E001E00E9455
:105110008B1A8D899E896C89F701438129E831E0DA
:1051200025C06C89F701428129E831E001E00E9445
:105130008B1A8D899E896C89F701438128E831E0BB
:1051400015C08D899E896C89F70142812AE831E07A
:1051500001E00E948B1AF7018181882349F08D8933
:105160009E896C8943812AE831E001E00E948B1A14
:10517000DF91CF910F91FF90EF900895DF92EF9222
:10518000FF920F931F93DF93CF9300D000D000D0F6
:10519000CDB7DEB77C01D62ECA01F701568B458B01
:1051A00022EB3AE240E050E02B833C834D835E8368
:1051B000FA82E9829701275E3F4F8701095E1F4F00
:1051C000AE014F5F5F4F0E94E716F701D48A269623
:1051D0000FB6F894DEBF0FBECDBFCF91DF911F9108
:1051E0000F91FF90EF90DF9008950F931F938C0124
:1051F0006170660FFC0182858D7F862B82870E94FD
:105200001033665F7F4F8F4F9F4FF801638774871E
:10521000858796878285816082871F910F91089587
:10522000FC01858996896489438920E00E94F620E3
:105230000895FC01858996896489438920E00E944C
:10524000C62008951F93CF93DF93EC01162F8D890D
:105250009E8948EE53E060E070E00E94A7221F3F65
:1052600009F451C06C89662359F5112369F48D89BD
:105270009E890E94C8238D899E8940E25EE460E099
:1052800070E00E94A72238C0123039F48D899E89BF
:1052900089569F4F62E044E008C0163051F48D8972
:1052A0009E8989569F4F62E040E020E00E94AE1345
:1052B00023C0153009F58D899E890E940A271CC0DC
:1052C000123030F48D899E8940E020E00E942A1A35
:1052D000812F8250823038F48D899E896C8941E01B
:1052E00020E00E942A1A143039F48D899E896C8935
:1052F00042E020E00E942A1AE885F985309719F0EB
:105300008C89612F0995DF91CF911F910895EF92BC
:10531000FF920F931F93CF93DF93EC010E94103302
:105320007B018C016A8560FF16C18B859C85AD85EC
:10533000BE85E816F9060A071B0708F40CC1862F7C
:1053400086958170813009F0B5C0862F8695869547
:105350008170813009F055C064FF17C08E819F8134
:10536000A0E0B0E02F85388949895A89820F931FC0
:10537000A41FB51FE816F9060A071B0730F06F7E59
:105380006A87CE0166E00E9422296A8563FF13C006
:105390008A819B81A0E0B0E02F85388949895A89AC
:1053A000820F931FA41FB51FE816F9060A071B07F3
:1053B00010F0677F6A878A8584FD04C083FD02C080
:1053C0008E7F8A878A8584FF0CC08E819F81A0E0B2
:1053D000B0E08E0D9F1DA01FB11F8B879C87AD87EE
:1053E000BE878A8583FFB7C08A819B81A0E0B0E039
:1053F0008E0D9F1DA01FB11F8B879C87AD87BE8719
:10540000AAC0882309F0A7C065FF05C06F7D6A8721
:10541000CE0164E020C063FF05C0677F6A87CE01CC
:1054200061E019C08C819D81A0E0B0E02F853889B2
:1054300049895A89820F931FA41FB51FE816F906E0
:105440000A071B0750F468606A878A819B81892B51
:1054500021F4CE0160E00E9422298A8583FF0EC0DC
:105460008A819B81009751F0A0E0B0E08E0D9F1DD6
:10547000A01FB11F8B879C87AD87BE878A8584FF5D
:105480000CC08E819F81A0E0B0E08E0D9F1DA01FFB
:10549000B11F8B879C87AD87BE87EF86F88A098B03
:1054A0001A8B8A85982F990F94708B7F892B816036
:1054B0008A8751C0882309F04EC0862F869586952D
:1054C00081708130D1F4EF86F88A098B1A8B8C8138
:1054D0009D81A0E0B0E08E0D9F1DA01FB11F8B87A6
:1054E0009C87AD87BE87862F880F84706B7F682B63
:1054F00061606A87CE016FEF2CC0882361F565FF7C
:1055000011C06F7E6A878CE291E0A0E0B0E0E80E07
:10551000F91E0A1F1B1FEB86FC860D871E87CE0116
:1055200063E017C064FF05C06E7C6A87CE0165E04A
:1055300010C060636A878C819D81A0E0B0E08E0D11
:105540009F1DA01FB11F8B879C87AD87BE87CE0193
:1055500062E00E942229DF91CF911F910F91FF906D
:10556000EF900895EF920F931F93DC01662321F4CF
:10557000CD010E94872954C0613091F52630D1F5C4
:1055800054968C915497882359F413961C921E922A
:10559000129788E893E115969C938E9314971BC0FD
:1055A000ED91FC91119782818F7024E6829FC0015A
:1055B000112413969C938E931297808182958F70FD
:1055C000829FC0011124845D9E4F15969C938E93FB
:1055D000149788EE93E017969C938E93169720C0AD
:1055E0006131B1F44230E1F4CD01B8014E2D0E9499
:1055F000192916C02E3021F4CD010E94102910C0A7
:10560000213071F4CD01B8014E2D0E94702808C0E0
:105610006E3330F055968D919C9156970E94A12043
:105620001F910F91EF900895CF92DF92FF920F9309
:105630001F93DF93CF93CDB7DEB729970FB6F894BA
:10564000DEBF0FBECDBF6C01F62E8A01862F62E051
:105650000E945933D60119961C930E9318971A96E7
:105660008C911A97887C86601A968C9385EF98E2C5
:10567000A0E0B0E08E839F83A887B987DD82CC82CB
:105680008F2DBE016C5F7F4F0E944C12F601848902
:10569000882329F0818D928D918380830EC0DE0155
:1056A0001196EBE8F1E083E001900D928150E1F773
:1056B000CE010196D6018D939C93F60184898823AF
:1056C00049F41382128288E893E195838483978357
:1056D000868320C0D601ED91FC91119782818F7055
:1056E00024E6829FC001112413969C938E931297F7
:1056F000808182958F70829FC0011124845D9E4FAE
:1057000015969C938E93149788EE93E017969C932E
:105710008E93169729960FB6F894DEBF0FBECDBFB5
:10572000CF91DF911F910F91FF90DF90CF9008955F
:10573000FC01662311F481E081A70895FC01778FB5
:10574000668F0895EF92FF920F93CF93DF93EC0152
:105750007B01FB012081222381F18181882319F1C2
:105760008A819B8120FF0FC0698142812EE831E050
:1057700000E00E948B1A8A819B816981F701438135
:105780002EE831E025C06981F70142812EE831E041
:1057900000E00E948B1A8A819B816981F701438115
:1057A0002EE831E015C08A819B816981F701428131
:1057B0002EE831E000E00E948B1AF70181818823F6
:1057C00049F08A819B81698143812EE831E000E0C4
:1057D0000E948B1ADF91CF910F91FF90EF90089567
:1057E000DF92EF92FF920F931F93DF93CF9300D03E
:1057F00000D000D0CDB7DEB77C01D62ECA01F701AC
:105800005383428323E63EE240E050E02B833C8317
:105810004D835E83FA82E98297012A5F3F4F8701B9
:105820000C5F1F4FAE014F5F5F4F0E94E716F701FD
:10583000D18226960FB6F894DEBF0FBECDBFCF91B2
:10584000DF911F910F91FF90EF90DF9008959F924D
:10585000AF92BF92CF92DF92EF92FF920F931F937E
:10586000DF93CF9300D0CDB7DEB76C011092BC00B0
:10587000FC018485958560E05E010894A11CB11C43
:10588000A50121E00E94740C982E882341F56981BE
:105890007A81F601848595850E94E3097B018C015C
:1058A00020E030E040E251E40E94F7350E941035DC
:1058B000F601728F618F8485958561E0A50121E0F5
:1058C0000E94740C69817A81F60184859585A8010E
:1058D00097010E940B0A0E941535F601638FF601AD
:1058E00086859785009709F447C063E00E94EA0F18
:1058F000F601868597850E94160E2AE030E040E08A
:1059000050E00E94AF36CA01B9010E9443357B01C5
:105910008C01F601668D778D882777FD8095982F0D
:105920000E9443352AE939E949E55FE30E94A8343A
:105930009B01AC01C801B7010E9440340E9415359B
:10594000F601758F648F6D52714098F09920A1F027
:10595000F601868597850E94330D20E030E040E215
:1059600051E40E94F7350E941035F601728F618F65
:1059700003C0F601158E148E85E0F601828B0F9020
:105980000F90CF91DF911F910F91FF90EF90DF90DB
:10599000CF90BF90AF909F9008950F931F93DF9388
:1059A000CF9300D000D0CDB7DEB78C01BC016F5DC6
:1059B0007F4FAC014D5D5F4FFC01808991890E9452
:1059C0002909F80180A1882381F481A192A1805D39
:1059D000974058F4F80183A194A1805D974028F482
:1059E00081E0F801828B80A32EC080E090E0A0E0EF
:1059F000B0E089839A83AB83BC83F80161A172A173
:105A000043A154A1808991899E012F5F3F4F0E943D
:105A10005008882329F46CE97FEF83E690E00CC0FE
:105A200069817A818B819C8120E030E048EC52E4EE
:105A30000E94F7350E941535F80165A376A387A368
:105A400090A784E0828BF801808991890E94D20915
:105A50000F900F900F900F90CF91DF911F910F91AA
:105A600008951F93CF93DF93EC01888999890E9451
:105A7000D709182F882389F18889998961E040E046
:105A80000E94790988A1882359F4888999890E94FC
:105A90007F081AA219A21CA21BA260E040E019C054
:105AA00029A13AA143E0283E340788F48BA19CA1A8
:105AB00043E0883E940758F42436310528F48436B0
:105AC000910510F461E001C060E042E002C060E0D6
:105AD00041E0888999890E948909812FDF91CF91BE
