:020000040000FA
:200000000C944D010C94182F0C94452F0C94A7100C94CC100C94F1100C94C6210C947501E6
:200020000C9475010C9475010C9475010C9475010C9475010C9475010C9475010C94750110
:200040000C94872F0C9475010C94142D0C94462D0C9475010C9475010C9475010C947501E8
:200060000C9442040C94750173746174757320726571756573742C20646174613A20006116
:200080006C7469747564653A20000A007472616E736D4465765472794D61783A20000A0084
:2000A000627572737452783A20000A006C65644D6F64653A20000A006C6F774261744C69A6
:2000C0006D69743A20000A00436F6E666967206368616E6765642E20446174613A2000729E
:2000E000657365742C20646174613A2000667265654D656D3A20002062797465000A0053C3
:2001000074617274696E6720736B657463682E2E2E0A000064000000100300000000000039
:20012000090000000024020104060501050000002D0220284D3A00290A000A0020284C3A71
:200140000029002000002E0206030D04E905CA063D070C0B060D210E650F5010C81193125F
:200160000315341601181819161B432156250026112D353EC32020207772697465206461B9
:2001800074612C20627574206E6F7420696E20636F6E666967206D6F64650A0042555253EA
:2001A0005420212121200A002D3E204E4120003C2D20000A554E4B4E4F574E204D455353E9
:2001C0004147452C20504C45415345205245504F5254210A0A006E6F74207265636569762C
:2001E0006564206265666F72652E2E2E0A00616C7265616479207265636569766564202D79
:2002000020736B69700A002020207265706561746564206D6573736167653B20006C3E2029
:2002200000623E20002D3E2000706F7765724D6F64653A20000A0000000008000201000052
:2002400003040700000000000000000102040810204080010204081020010204081020040F
:200260000404040404040402020202020203030303030300000000230026002900000000D2
:2002800000250028002B0000000000240027002A0000400342061611762D11241FBECFEF4C
:2002A000D8E0DEBFCDBF11E0A0E0B1E0E8EEF7E602C005900D92AC3AB107D9F725E0ACEAA9
:2002C000B1E001C01D92AB30B207E1F712E0CAE9D2E004C02297FE010E947D33C239D107B9
:2002E000C9F70E94782F0C94F2330C9400001F93CF93DF93EC01162F6FED70E08DE594E046
:200300000E94F72D42E0612FCE010E9483118DE593E00E941A1A8981811107C08DE593E05D
:20032000DF91CF911F910C94AC21DF91CF911F910895EF92FF920F931F93CF93DF938C01EC
:20034000E62E809129028A3008F48AE0682F833308F062E380E194E00E94EF0E80912502F7
:20036000807C61E009F460E08DE593E00E94521680912402882311F062E001C063E08DE579
:2003800093E00E94FD1580912A02811101C081E0F82E8AE08F1510F49AE0F92EF0924701A2
:2003A00020912B0230E0322F222780912C02282B2C308EEF380714F42CE03EEFE90121317E
:2003C00087E2380714F0C0E1D7E2BE018CEA91E00E94D12B68EC70E08DE594E00E94F72D83
:2003E00043E06E2DC8010E9483111091290268EB70E08DE594E00E94F72D4AE050E0612F3B
:200400008DE594E00E94DB2E66EC70E08DE594E00E94F72D109125021295169516951370B5
:200420006CEA70E08DE594E00E94F72D4AE050E0612F8DE594E00E94DB2E66EB70E08DE5DC
:2004400094E00E94F72D1091240260EA70E08DE594E00E94F72D4AE050E0612F8DE594E085
:200460000E94DB2E6AEA70E08DE594E00E94F72D6CE870E08DE594E00E94F72D4AE050E0D7
:200480006F2D8DE594E00E94DB2E6EE970E08DE594E00E94F72D6FE770E08DE594E00E94AE
:2004A000F72D4AE050E0BE018DE594E00E94C62E6AE870E08DE594E0DF91CF911F910F91DB
:2004C000FF90EF900C94F72D1F93CF93DF93EC01162F68E670E08DE594E00E94F72D42E026
:2004E000612FCE010E9483112FE788E391E0215080409040E1F700C00000DF91CF911F915C
:200500000895FA0170E0641B750B680F791F8E2F841B821738F48491DB01AE0FBF1F8C9319
:200520003196F5CF0895CF92DF92EF92FF920F931F93CF93DF9388E10FB6F894809360005A
:20054000109260000FBE26E040E051EE60E070E08DE594E00E94B82C6FEF70E08DE594E0D7
:200560000E94F72D0E94A30FEC016DEE70E08DE594E00E94F72D4AE050E0BE018DE594E01E
:200580000E94E22E67EF70E08DE594E00E94F72D6DEF70E08DE594E00E94F72D2CE040EFC4
:2005A0005FE761E08FE491E00E94810223E04CEF5FE761E18FE491E00E948102C12C22E0ED
:2005C000E22E0DE02CE04BE06AE08FEE93E00E94311330EAE32E3BEBF32E01E121E047E04B
:2005E00062E080E194E00E94B00E8DE593E00E947D214DE553E060E08DEF91E00E9497276D
:2006000040E050E068E08DEF91E00E9469264DE553E061E08CEA91E00E94212B4BEDC42E7F
:2006200041E0D42E50EEE52E51E0F52E07EF11E020E030E043E162E18CEA91E00E94512892
:2006400084B714BE60E080E090E00E94990144E064E088EF93E00E94441223E043E063E08E
:2006600088EF93E0DF91CF911F910F91FF90EF90DF90CF900C94D6118DE593E00C946C25F7
:2006800010922E0210922F02109231021092300210923302109232021092350210923402AE
:2006A0001092360210923702109239021092380210923B0210923A0210923D0210923C024E
:2006C0008BED91E00C944D061092AB0281E08093A9021092A80261E082E10E947A3061E053
:2006E00083E10E947A30E9EBF0E080818E7F808380818D7F808380E28093B80085E48093DC
:20070000BC000895413208F03FC09091AB029111FCCF91E09093AB022093A9022FEF20936B
:200720003E0210928302240F209382029093AA029091AA02880F892B8093AA028091A80287
:20074000813041F41092A8028091AA028093BB0085EC01C085EE8093BC008091AB028130F9
:20076000E1F380918302841710F44091830224E832E0FB01D9018A2F821B841718F48D910B
:200780008193F9CF842F089580E008950F93413208F046C09091AB029111FCCF92E090934D
:2007A000AB020093A9029FEF90933E021092830240938202FB0164E872E0DB019A2F961BEF
:2007C000941718F491919D93F9CF1092AA029091AA02880F892B8093AA028091A8028130B7
:2007E00041F41092A8028091AA028093BB0085EC01C085EE8093BC00222321F08091AB0265
:200800008230E1F380913E028F3F61F080913E02803251F080913E02803341F483E007C03B
:2008200081E005C080E003C082E001C084E00F910895613298F42091AB02243089F460936A
:200840006002FC0182E692E0DC012A2F281B261718F421912D93F9CF80E0089581E0089568
:2008600082E0089585ED8093BC008091BC0084FDFCCF1092AB02089585EC8093BC00109251
:20088000AB0208951F920F920FB60F9211242F933F934F935F936F937F938F939F93AF930F
:2008A000BF93EF93FF938091B900887F803609F49CC068F5883209F45BC090F4803109F491
:2008C00054C038F4882309F4F5C0883009F44DC0F5C0883109F44CC0803209F45DC0EEC0C8
:2008E000803409F468C048F4803309F455C0883309F0E4C080933E02A8C0803509F44FC04A
:20090000883509F45DC0883409F0D8C0D5C0883909F4C6C0A8F4883709F467C038F4883671
:2009200009F463C0803709F460C0C8C0883809F4B7C0803909F45FC0803809F0BFC05BC0E7
:20094000803B09F485C038F4803A09F466C0883A09F47EC0B3C0803C09F4A6C0883C09F441
:20096000A3C0883B09F489C0A9C08091AA0210C09091830280918202981770F5E0918302D0
:2009800081E08E0F80938302F0E0EC57FD4F80818093BB0085EC85C080933E028DC0E091CC
:2009A000830281E08E0F809383028091BB00F0E0EC57FD4F808390918302809182026DC086
:2009C000E091830281E08E0F809383028091BB00F0E0EC57FD4F80838091A90281116CC0E3
:2009E00081E08093A80284EA60C083E08093AB0210923F02CFCF80913F02803208F050C09B
:200A0000E0913F0281E08E0F80933F028091BB00F0E0E05CFD4F8083BDCF80913F0280321B
:200A200030F4E0913F02F0E0E05CFD4F10820E94320460913F0270E0E091A402F091A5025D
:200A400080E492E0099510923F020E943C0436C084E08093AB021092610210926002E091C9
:200A6000A602F091A702099580916002811105C081E08093600210926202E091610281E02B
:200A80008E0F80936102F0E0EE59FD4F80818093BB009091610280916002981708F47ACF26
:200AA00085E88093BC000AC085EC8093BC001092AB0204C010923E020E943204FF91EF9113
:200AC000BF91AF919F918F917F916F915F914F913F912F910F900FBE0F901F90189580914E
:200AE000DC0290E02091DD02821B910908952091DD028091DC02281750F4E22FF0E0E2522D
:200B0000FD4F808190E02F5F2093DD0208958FEF9FEF0895E091DD028091DC02E81730F450
:200B2000F0E0E252FD4F808190E008958FEF9FEF08950895CF92DF92EF92FF920F931F93D9
:200B4000CF93DF937C01CB018A012091B802222389F0EB016B01C40ED51ECC15DD0569F08B
:200B60006991D701ED91FC910190F081E02DC7010995F3CF642F0E941904C801DF91CF9176
:200B80001F910F91FF90EF90DF90CF900895CF93DF931F92CDB7DEB769832091B802222352
:200BA000D1F02091B902203240F021E030E0FC013383228380E090E015C08091BA02E82F94
:200BC000F0E0E554FD4F998190838F5F8093BA028093B90205C061E0CE0101960E941904DD
:200BE00081E090E00F90DF91CF910895FC011382128248EE53E060E070E044835583668371
:200C0000778384E891E09183808308951092DD021092DC021092BA021092B9020C94640386
:200C2000862F413208F040E26EED72E00E9482031092DD028093DC02089521E00C941006D8
:200C400081E08093B8026093DB021092BA021092B90208950C9420060F93062F21E04091CF
:200C6000B9026BEB72E08091DB020E94C6031092BA021092B9021092B8020F91089561E023
:200C80000C942C068CEA92E00C94F605DC01ED91FC910190F081E02D09940895FC016083EE
:200CA0008CEA92E00C940606CF93DF93EC016881772767FD70958CEA92E00E942A0660ECE9
:200CC00070E08CEA92E00E9446068CEA92E00E943F06982F8C8381E0911180E0DF91CF9116
:200CE00008958F929F92AF92BF92CF92DF92EF92FF92FA01DC0111962D913C9112972E307E
:200D0000310551F02536310571F437EEC32E3FE0D32EE12CF12C0CC027E1C22E25E7D22E36
:200D2000E12CF12C05C0C12CB4E0DB2EE12CF12CDC0113968C91811107C0A4E0CC0CDD1CBF
:200D4000EE1CFF1CAA95D1F7DB01A70196010E9468334B015C016AE0B694A7949794879451
:200D60006A95D1F7DF010E9468336B017C017AE0F694E794D794C7947A95D1F78114910480
:200D8000A104B10471F0C701B6013AE0660F771F881F991F3A95D1F7A50194010E941833D6
:200DA00003C020E030E0A901DA01C9010196A11DB11DB695A7959795879581349105A1052E
:200DC000B10530F181389105A105B10530F1813C9105A105B10530F1813021E09207A105AF
:200DE000B10528F1893321E09207A105B10520F18B3921E09207A105B10518F18B39924008
:200E0000A105B10518F5E2E1F0E0A8E1B0E022C0EEEBF1E0A2EFB1E01DC0E1EDF2E0A4E10D
:200E2000B2E018C0EBE7F3E0AFE3B2E013C0EEEFF3E0A0E7B2E00EC0ECEFF1E0AFE6B1E043
:200E400009C0EBEFF0E0A2EDB0E004C0E0E0F0E0A0E0B0E0A50194010E9468334B015C017B
:200E6000DF01A70196010E946833861A970AA80AB90AC501B4010E94DB3120E030E040E8FF
:200E800058E30E949132FF90EF90DF90CF90BF90AF909F908F900895CF93DF93E901FC01A2
:200EA00021813281233B310530F42636310530F4E7EBF3E105C0EFEFFFEF02C0E9E3F1E9D0
:200EC0006E177F0719F04E175F0731F4188219821A821B8280E007C00E9471066883798379
:200EE0008A839B8381E0DF91CF910895FF920F931F93CF93DF93EC01F62E8A018881682F04
:200F0000772767FD70958CEA92E00E942A066F2D6F70606870E08CEA92E00E9446068CEA31
:200F200092E00E943F068C83882311F080E017C06881772767FD709541E050E08CEA92E03D
:200F40000E941D068CEA92E00E946F05019771F78CEA92E00E947705F801808381E0DF91FB
:200F6000CF911F910F91FF900895CF92DF92FF920F931F93CF93DF931F92CDB7DEB76C01D3
:200F8000F62E8A01FC018081682F772767FD70958CEA92E00E942A066F2D6F70606870E0B9
:200FA0008CEA92E00E9446068CEA92E00E943F06F6018483882311F080E022C0F6016081C8
:200FC000772767FD709542E050E08CEA92E00E941D068CEA92E00E946F05029769F78CEA9E
:200FE00092E00E947705682F8CEA92E069830E94770569810E94722FF8019183808381E03A
:201000000F90DF91CF911F910F91FF90DF90CF9008950F931F93CF93DF93EC018A01AB01CB
:201020006CE00E94B507882349F0A8016EE0CE010E94B507882311F081E001C080E0DF9160
:20104000CF911F910F910895EF92FF921F93CF93DF931F92CDB7DEB77C01162FFC01808121
:20106000682F772767FD70958CEA92E049830E942A06812F8F708068682F70E08CEA92E0E6
:201080000E9446064981642F8CEA92E00E94C7058CEA92E00E943F06982FF701848381E0B9
:2010A000911180E00F90DF91CF911F91FF90EF90089543E060E00C94240840E060E00C9435
:2010C0002408FF920F931F93CF93DF9300D0CDB7DEB78C01F62E242FFC016383411103C046
:2010E0008EE090E005C0413031F485E690E0F8019283818308C0423019F482E991E0F7CFE1
:20110000FC0112821182AE014F5F5F4F61E0C8012A830E9476072A81882391F08981FF20CA
:2011200011F0806101C08F7E8983422F437089818C7F482B498361E0C8010E94240801C0E2
:2011400080E00F900F90DF91CF911F910F91FF900895637020E1629FB00111244F70462BBA
:2011600066E00C942408FF920F931F93CF93DF93EC01F62E61E088810E94413018E000E856
:20118000602F6F2188810E947A3082E08A95F1F700C061E089810E947A3088E08A95F1F7AC
:2011A00060E089810E947A3082E08A95F1F700C00695115029F760E088810E94413061E0B7
:2011C00088810E947A3061E089810E947A3088E08A95F1F788810E94B0308C0182E08A951B
:2011E000F1F700C060E089810E947A3081E0012B09F480E0DF91CF911F910F91FF9008957B
:20120000FF920F931F93CF93DF93EC01F62E08E010E061E089810E947A3082E08A95F1F72C
:2012200000C088810E94B030110F182B60E089810E947A3082E08A95F1F700C0015049F7B0
:2012400061E088810E94413061E06F2588810E947A3082E08A95F1F700C061E089810E94F1
:201260007A3088E08A95F1F760E089810E947A3082E08A95F1F700C060E088810E9441303A
:2012800061E088810E947A30812FDF91CF911F910F91FF900895CF93DF93EC0161E08881B1
:2012A0000E947A3061E088810E94413082E08A95F1F700C061E089810E947A3082E08A9544
:2012C000F1F700C060E088810E947A3082E08A95F1F700C060E089810E947A3088E08A958B
:2012E000F1F761E089810E947A3082E08A95F1F700C061E088810E947A3082E08A95F1F747
:2013000000C060E089810E947A3082E08A95F1F700C0DF91CF9108951F93CF93DF93EC016E
:20132000162F17701C830E944B0966E0CE010E94B308811107C0612FCE01DF91CF911F91A2
:201340000C94B308DF91CF911F9108951F93CF93DF93EC0161E088810E947A3061E08881C2
:201360000E94413088E08A95F1F719E061E089810E947A3088E08A95F1F760E089810E9400
:201380007A3088E08A95F1F7115081F7CE01DF91CF911F910C944B09CF93DF93EC01842FA4
:2013A000688349831B821A821C8261E00E944130CE010E94A6096EE1CE01DF91CF910C949D
:2013C000B308FC01248180E090E020FF07C00E94DB312AE037ED43E25DE306C00E94DB3145
:2013E0002AE037ED43E25CE30E9491322DEC3CEC4EE152E40E94D93008954F925F926F9235
:201400007F928F929F92AF92BF92CF92DF92EF92FF9249015A01FC01248180E090E020FFBD
:2014200035C00E94DB316B017C012DEB32E546E15FE30E94913225EC3EEF42E050E40E94ED
:20144000D9302B013C012BE335E246ED59EBC701B6010E949132A70196010E9491329B015A
:20146000AC01C301B2010E94DA302B013C0120E030E048EC51E4C501B4010E94D9304B0148
:201480005C012CEA35EC47EA5AE334C00E94DB316B017C012DEB32E546E15DE30E949132C4
:2014A00025EC3EEF42E050E40E94D9302B013C0126EF34E246ED55EBC701B6010E94913202
:2014C000A70196010E9491329B01AC01C301B2010E94DA302B013C0120E030E048EC51E41A
:2014E000C501B4010E94D9304B015C012CEA35EC47EA58E3C701B6010E9491322AE037ED68
:2015000043E25CE30E94DA309B01AC01C501B4010E949132A30192010E94DA306B017C01C6
:2015200020E030E048EC52E40E948D32181694F02DEC3CEC4CEC5DE3C701B6010E943E31D5
:2015400087FF0EC08DECC82E8CECD82EED2C8DE3F82E06C0C12CD12C98ECE92E92E4F92EB3
:20156000C701B601FF90EF90DF90CF90BF90AF909F908F907F906F905F904F900895FA01C0
:2015800080818627808388E021E3908197FF03C0990F922701C0990F90838150B1F70895D1
:2015A00098E080E0262F2170880F822B66959150C9F70895DF92EF92FF920F931F93CF93B7
:2015C000DF93EC018B0161E00E940009D82E7E0185E0E80EF11CA7016D2DCE010E94BF0ACB
:2015E0008D2D90E0F8019183808361E0CE010E940009D82EA701682FCE010E94BF0A20E077
:2016000030E0F80130812D293183208360E0CE010E940009682FCE010E94D00A9D81891709
:2016200039F08FEF9FEFF8019183808382E001C080E0DF91CF911F910F91FF90EF90DF9045
:201640000895CF92DF92EF92FF920F931F93CF93DF931F92CDB7DEB76C01E62E8A01F22EEB
:20166000FC01648167700E94D00AF6018583C6010E944B09E11002C033E001C035E0632F4B
:20168000C60139830E94B308398181112DC0A6014B5F5F4F632FC6010E94BF0AFF2001F15D
:2016A00020EFF22EF60180810E94B030892B49F0FA94A1F08FE697E10197F1F700C0000048
:2016C000F1CFB801C6010F90DF91CF911F910F91FF90EF90DF90CF900C94DA0A83E004C084
:2016E000F6011383028380E00F90DF91CF911F910F91FF90EF90DF90CF9008951F93CF932C
:20170000DF931F92CDB7DEB7162F67E770E08CEA92E049830E942A06612F8CEA92E00E940A
:20172000C7054981642F8CEA92E00E94C7058CEA92E00F90DF91CF911F910C943F06CF93DC
:20174000C62F67E770E08CEA92E00E942A066C2F8CEA92E00E94C7058CEA92E00E943F067C
:2017600067E770E08CEA92E00E942A0641E050E067E770E08CEA92E00E941D068CEA92E08D
:201780000E947705C82F8CEA92E00E943F068C2FCF910895CF93DF93C62F67E770E08CEAD0
:2017A00092E00E942A066C2F8CEA92E00E94C7058CEA92E00E943F0667E770E08CEA92E09F
:2017C0000E942A0642E050E067E770E08CEA92E00E941D068CEA92E00E947705D82F80E02D
:2017E000C82F8CEA92E00E947705C82BD92B8CEA92E00E943F06CE01DF91CF910895CF9388
:20180000DF93EC01643008F063E068838CEA92E00E9406066AEACE010E94CA0B9A83898356
:201820006CEACE010E94CA0B9C838B836EEACE010E94CA0B9E838D8360EBCE010E94CA0B7F
:201840009A8B898B62EBCE010E94CA0B9C8B8B8B64EBCE010E94CA0B9E8B8D8B66EBCE0189
:201860000E94CA0B98878F8368EBCE010E94CA0B9A8789876AEBCE010E94CA0B9C878B8726
:201880006CEBCE010E94CA0B9E878D876EEBCE010E94CA0B988B8F87DF91CF910895CF93CB
:2018A000DF93EC014EE264EF0E947E0B8FE097E20197F1F700C0000066EFCE01DF91CF91FF
:2018C0000C94CA0BCF92DF92EF92FF92CF93DF93EC010E944F0C9C0140E050E08D899E89C7
:2018E000281B390B41095109AB89BC890E9468336B017C018FE0F594E794D794C7948A95C6
:20190000D1F76D857E85882777FD8095982F2BE0660F771F881F991F2A95D1F72F8538899A
:20192000442737FD4095542F2C0D3D1D4E1D5F1D0E943A332C0D3D1D4E1D5F1D285F3F4F98
:201940004F4F5F4F64E055954795379527956A95D1F7CA01B9010E94DD3120E030E040E27B
:2019600051E40E944231DF91CF91FF90EF90DF90CF900895CF92DF92EF92FF92CF93DF931C
:20198000EC0148814295440F440F407C4C5C64EF0E947E0B8881811105C08FE097E2019752
:2019A000F1F712C0813029F48FE79EE30197F1F70BC0823029F48FE59DE60197F1F704C053
:2019C0008FE19BEC0197F1F700C0000066EFCE010E94CA0B6C01E12CF12CFE2CED2CDC2C53
:2019E000CC2468EFCE010E949F0BA7019601282BCA01B901488128E030E0241B310904C050
:201A000096958795779567952A95D2F7DF91CF91FF90EF90DF90CF9008952F923F924F9233
:201A20005F926F927F928F929F92AF92BF92CF92DF92EF92FF920F931F93CF93DF93CDB72F
:201A4000DEB72D970FB6F894DEBF0FBECDBF9D878C870E944F0C8C018C859D850E94BA0C8A
:201A60006D837E838F839887980140E050E0AC85BD8555968D919C915697281B390B4109F4
:201A8000510953960D90BC91A02D0E9468332B013C017FE075946794579447947A95D1F7A6
:201AA000EC85FD8587849088AA2497FCA094BA2C840C951CA61CB71CC584D684EE24D7FC37
:201AC000E094FE2CEBE0CC0CDD1CEE1CFF1CEA95D1F7C501B40122E030E040E050E00E94E1
:201AE0003A33C21AD30AE40AF50AC701B601A50194010E943A3349015A01840C951CA61C62
:201B0000B71CF0EA8F1AFFE09F0AA108B108A5019401C501B4010E94F432DC01CB01FCE082
:201B2000B595A79597958795FA95D1F789839A83AB83BC83AC85BD851196CD90DC9012975E
:201B4000BC91B987EC85FD8525803680878190859B878A8701891289EE24D7FCE094FE2CB2
:201B6000A2E0CC0CDD1CEE1CFF1CAA95D1F7A185B28529813A814B815C810E9473332B0107
:201B80003C01BBE07594679457944794BA95D1F7A381B481A50194010E9473332BE095957B
:201BA0008795779567952A95D1F7460E571E681E791EC40CD51CE61CF71C098404C0CC0C95
:201BC000DD1CEE1CFF1C0A94D2F792E0C90ED11CE11CF11CC701B60124E030E040E050E05D
:201BE0000E943A3369017A018D819E81AF81B885821B930BA40BB50B8D839E83AF83B8870B
:201C000060E573EC80E090E0098404C096958795779567950A94D2F72D813E814F8158852F
:201C20000E94F4322B013C01440C551C661C771C97FD3FC0D101A50194010E9473336B0149
:201C40007C018DE0F594E794D794C7948A95D1F7AA85BB8529813A814B815C810E94733324
:201C6000BB2797FDB095AB2FC80ED91EEA1EFB1E92E0C90ED11CE11CF11C32E0F594E7948B
:201C8000D794C7943A95D1F7A0E8DA0EE11CF11CD801A70196010E9468339B01AC016FE080
:201CA00056954795379527956A95D1F7C301B20104C0C301B201A70196010E9418334901E6
:201CC0005A01992757FD9A95852F742F632F9B01AC010E94F4329B01AC01AEEDBBE00E944B
:201CE00068336C01FF24D7FCF094EF2CA3E4B3EEA50194010E947633BB2797FDB095AB2F04
:201D0000C80ED91EEA1EFB1EBFECCB0EBEE0DB1EE11CF11CB4E0F594E794D794C794BA9503
:201D2000D1F7C80CD91CEA1CFB1CC701B6012D960FB6F894DEBF0FBECDBFDF91CF911F91EC
:201D40000F91FF90EF90DF90CF90BF90AF909F908F907F906F905F904F903F902F90089524
:201D6000CF92DF92EF92FF920F931F93CF93DF931F92CDB7DEB76C01FC01638344832583CE
:201D8000602F70E080E090E049830E94DB31F6016683778380879187F386E286870120E0B8
:201DA00030E004871587268737874981442369F060E0842F0F90DF91CF911F910F91FF90B6
:201DC000EF90DF90CF900C9441300F90DF91CF911F910F91FF90EF90DF90CF900895FC0170
:201DE000608B0895642B60937C0086E880937A0020E030E080E090E040917A0040644093C0
:201E00007A0040917A0046FDFCCF2A30310534F04091780050917900840F951F2F5F3F4F35
:201E20002A34310549F720917A002F7720937A0026E0969587952A95E1F708954EE060E4DD
:201E40000E94F20EBC0185EF9BE20E940433862F0895CF92DF92EF92FF92CF93DF93EC0162
:201E600061E08C810E94413060E08C810E947A304D8160ECCE010E94F20E9C01ACE4B4E01C
:201E80000E9459332FEF33E040E050E00E941833CA01B9010E94DB312E813F814885598559
:201EA0000E9442316B017C0160E08C810E944130C701B6010E94AF31862FDF91CF91FF90AF
:201EC000EF90DF90CF9008950F931F93CF93DF93EC018B81882391F10E94D12F0C851D85F5
:201EE0002E853F85601B710B820B930B0A851B8520E030E06017710782079307F8F08B8104
:201F0000813021F4CE010E941E0F05C0823031F4CE010E94290F90E09A838983888990E0FE
:201F200041E029813A812817390708F040E048830E94D12F6C877D878E879F87DF91CF9115
:201F40001F910F910895CF93DF9300D0CDB7DEB780910705909108059E012F5F3F4F00973A
:201F600019F42B50354002C0281B390B3A83298389819A810F900F90DF91CF910895862735
:201F800048E09C013695279580FF06C0C90151E0852750EA952701C0C901415091F70895D2
:201FA0001F93CF93DF93EB01883050F098EF980F963040F092EF980F963030F411E005C0CB
:201FC00012E003C010E001C01FEF2091FE022F5F2093FE0230E021503109F90193E0EE0F76
:201FE000FF1F9A95E1F7DF01AF5FBC4F4A815B816C817D8112964D935D936D937C931597FE
:20200000488159814D935C93E150FD4F1083C82FD0E0C55BDD4FFE019491F90123E0EE0F2D
:20202000FF1F2A95E1F7E150FD4F918362E00E944130FE01C491212F30E0A901440F551FE0
:20204000FA01E759FE4FA081B1818C918C2B8C936091680081E090E001C0880F1A95EAF7A0
:20206000682B60936800DA01AD59BE4F0D90BC91A02D9C910190F081E02D80818923F901EA
:20208000E15BFC4F80837894DF91CF911F9108950F931F93CF93DF93D82FF894A82FB0E06B
:2020A000CD01880F991FFC01ED59FE4F0190F081E02D2081FC01E759FE4F0190F081E02D2A
:2020C00080818223A15BBC4FCC91C8278C93CC23C1F1908101E0891708F400E010E08091D8
:2020E000FE02181770F588E0189FF0011124DF01A150BD4F8C918D1322C011968C918C1328
:202100001EC0EF5FFC4FA081B1814281538164817581CB019595879560FF0CC0FD01E80F51
:20212000F91F0190F081E02DE40FF51F0190F081E02D01C0FA01602F8A0F9B1F09951F5FA8
:20214000CECF7894DF91CF911F910F9108951F920F920FB60F9211242F933F934F935F93C4
:202160006F937F938F939F93AF93BF93EF93FF9380E00E944810FF91EF91BF91AF919F9125
:202180008F917F916F915F914F913F912F910F900FBE0F901F9018951F920F920FB60F9290
:2021A00011242F933F934F935F936F937F938F939F93AF93BF93EF93FF9381E00E94481017
:2021C000FF91EF91BF91AF919F918F917F916F915F914F913F912F910F900FBE0F901F90E5
:2021E00018951F920F920FB60F9211242F933F934F935F936F937F938F939F93AF93BF93E1
:20220000EF93FF9382E00E944810FF91EF91BF91AF919F918F917F916F915F914F913F91AE
:202220002F910F900FBE0F901F9018958FEF92E0FC01329611821082138212821582148247
:20224000089623E08F34920799F708951F93CF93DF93CDB7DEB760970FB6F894DEBF0FBE03
:20226000CDBF90E1E0E7F1E0DE01119601900D929A95E1F7982F9F70A1E0B0E0AC0FBD1F8E
:20228000A90FB11D1C91E82FF0E034E0F595E7953A95E1F781E090E08C0F9D1FE80FF91F2C
:2022A00060818DE594E00E941C2E612F8DE594E060960FB6F894DEBF0FBECDBFDF91CF91E8
:2022C0001F910C941C2ECF92DF92EF92FF920E94D12F6B017C0162E371E08DE594E00E94D7
:2022E000F72D2AE030E0B701A6018DE594E00E94CE2E67E371E08DE594E0FF90EF90DF90BF
:20230000CF900C94F72DCF92DF92EF92FF920F931F93CF93DF938C01C62ED42EEC01E62E0A
:20232000F12C8C2F801B8C1580F489910E942611CE01801B910B8E159F059CF763E471E0AA
:202340008DE594E00E94F72DECCFD0FE13C06CE371E08DE594E00E94F72D4AE050E06C2D36
:202360008DE594E00E94DB2E61E471E08DE594E00E94F72DD2FC0E946311D1FE0EC06AE3BC
:2023800071E08DE594E0DF91CF911F910F91FF90EF90DF90CF900C94F72DDF91CF911F91C6
:2023A0000F91FF90EF90DF90CF900895CF92DF92FF920F931F93CF93DF9300D0CDB7DEB790
:2023C0006C01F62E2A8349830E94D12F2A81522F550F4981F0FE0FC0F6014483568301E0C2
:2023E00010E020E030E00087118722873387608B718B828B938BF1FE0FC0F60145835783F2
:2024000001E010E020E030E00487158726873787648B758B868B978B0F900F90DF91CF9119
:202420001F910F91FF90DF90CF900895DF92EF92FF920F931F93CF93DF938C01D62EE42E04
:20244000F12CEC01CE0DDF1D88810E947A30DA82F7013296EE0FFF1FEE0FFF1FE00FF11FF5
:202460001082118212821382DF91CF911F910F91FF90EF90DF900895462F61E00C94161256
:20248000462F60E00C9416120F931F93CF93DF931F92CDB7DEB78C01862FF801608361E06E
:2024A00049830E94413060E0C8010E9440124981F801418361E0842F0E94413061E0C801A8
:2024C0000F90DF91CF911F910F910C9440121F93CF93DF93EC01162F60FF03C060E00E948F
:2024E000401211FF04C061E0CE010E9440121C821E821A821D821F821B82DF91CF911F917B
:202500000895FC01E60FF11D228121110C9440120C943C128F929F92AF92BF92DF92EF9293
:20252000FF920F931F93CF93DF937C018C01EC012696D12CF80180859185A285B385892B0B
:202540008A2B8B2BA1F10E94D12FF80180889188A288B388681979098A099B09808491840A
:20256000A284B384681579058A059B0598F51FC0823009F444C0833009F446C0843009F44E
:2025800047C0853009F048C08881843008F01882E88181E08E0F8883F0E0EE0FFF1FE0579B
:2025A000FE4FA080B180F40180818230C0F5D3940C5F1F4F2196F2E0DF12BCCFDF91CF910B
:2025C0001F910F91FF90EF90DF90BF90AF909F908F9008954E0182E0881A9108F4018081D3
:2025E000811105C06D2DC7010E94401215C0813009F0BECF6D2DC7010E943C120DC03CE2E5
:20260000A32EBB24B394CFCF26E9A22EB12CCBCF92E3A92EB12CC7CFA12CB12CC4CF6D2D39
:20262000C7010E948112C501AA2797FDA095BA2FF80180879187A287B3870E94D12FF8013E
:20264000608B718B828B938B8881882309F4AFCF815088838111ABCF6D2DC7010E944012FB
:20266000A6CFEF920F93FC016083418322830383E4820F91EF9008956EBD0DB407FEFDCF14
:202680008EB508951F93CF93DF93EC01162F60E088810E947A308A810E94B030892BD9F7FC
:2026A000612FCE010E943C1361E08881DF91CF911F910C947A30CF93DF93EC0166E30E940A
:2026C00042136AE3CE010E94421369E3CE01DF91CF910C944213CF92DF92EF92FF920F932C
:2026E0001F93CF93DF93EC01162FF42ED52EE22E60E088810E947A308A810E94B030892B17
:20270000D9F7612F6064CE010E943C13CF2C0F2D1D2D802F8C198E1538F4F80161918F01B6
:20272000CE010E943C13F5CF61E08881DF91CF911F910F91FF90EF90DF90CF900C947A3085
:20274000CF92DF92EF92FF920F931F93CF93DF93EC01F62ED72E142FE22E60E088810E9419
:202760007A308A810E94B030892BD9F7612F606CCE010E943C13CF2C0F2D1D2D802F8C19AD
:202780008E1540F460E0CE010E943C13F80181938F01F4CF61E08881DF91CF911F910F9198
:2027A000FF90EF90DF90CF900C947A300F931F93CF93DF93EC01162F042F60E088810E947B
:2027C0007A308A810E94B030892BD9F7612F602BCE010E943C1360E0CE010E943C13182F1C
:2027E00061E088810E947A30812FDF91CF911F910F910895EF92FF920F931F93CF93DF939C
:202800001F92CDB7DEB77C018B0166E349830E9442136AE3C7010E9442136BE3C7010E9415
:2028200042134981442369F065E3C7010E9442132FEB83EC98E0215080409040E1F700C018
:202840000000EFECF7E03197F1F700C00000F80120812F5FA8016FE3C7010E946B136AE3FE
:20286000C7010E94421365E3C7010E94421318EC40EC65E3C7010E94D6138D3069F040EC85
:2028800065E3C7010E94D613833131F4FAE1FA95F1F700C0115061F781E00F90DF91CF9129
:2028A0001F910F91FF90EF9008950F931F93CF93DF93EC018B0140EC6BE30E94D613982FB0
:2028C0009F7729F187FD23C040E86FE3CE010E94D613F80180838D33D8F4282F4FE3B801C3
:2028E0006F5F7F4FCE010E94A01340E86FE3CE010E94D61340E86FE3CE010E94D613982FA9
:202900009F779887881F8827881F8E8302C0F80110826AE3CE010E94421366E3CE010E945A
:20292000421364E3CE010E9442136CE3CE010E944213F8018081DF91CF911F910F91089569
:2029400040EC68E30C94D613CF93DF93EC0160E088810E947A308A810E94B030892BD9F710
:2029600061E088810E947A3064E3CE010E9442138FE697E10197F1F700C00000CE010E9416
:20298000A01486FB882780F9DF91CF9108950F931F93CF93DF93EC01062F142F60E0888197
:2029A0000E947A308A810E94B030892BD9F7602FCE010E943C13612FCE010E943C1361E0DA
:2029C0008881DF91CF911F910F910C947A300F931F93CF93DF93EC0161E088810E94413012
:2029E00061E089810E94413060E08A810E94413061E08B810E94413060E08C810E9441305B
:202A000061E088810E947A3061E08B810E947A3060E089810E947A3080E58CBD61E08881F9
:202A20000E947A308DE08A95F1F7000060E088810E947A309AE19A95F1F700C061E08881A5
:202A40000E947A30EDE6EA95F1F7000060E3CE010E9442138FE19EE40197F1F700C00000B5
:202A600005E411E0F80131964491F8016491CE010E94C7140E5F1F4FF1E005371F0791F717
:202A800063E3CE010E94421340EC65E3CE010E94D613813029F082E08A95F1F700C0F4CFA6
:202AA00040EC6EE3CE010E94C71464E3CE010E9442136CE3CE01DF91CF911F910F910C9462
:202AC000421381E080935B040895FF920F931F93CF93DF93EC01FA808C01095F1F4FF5FEBB
:202AE0000CC043E050E065E574E0C8010E949B33892B19F08091470101C081E08EAFFE016C
:202B0000E95BFF4FF4FAFF24F0F8F08243E050E0BE016C537F4FC8010E949B33892B61F4D7
:202B2000488150E04F5F5F4FBE01CE01885B9F4F0E94A8331DAE07C081E08DAFEF96188216
:202B400019821A821B82DF91CF911F910F91FF9008958F929F92AF92BF92CF92DF92EF921E
:202B6000FF920F931F93CF93DF93EC016A017B018C0109571F4FF8018081811105C0CE014D
:202B80008E569F4F0E94A41481E0F80180830E94D12F8E0102571F4FF80180809180A28088
:202BA000B380681979098A099B09C657DF4F6C157D058E059F0548F488819981AA81BB815D
:202BC000C816D906EA06FB0658F0C882D982EA82FB820E94D12FF8016083718382839383E4
:202BE000DF91CF911F910F91FF90EF90DF90CF90BF90AF909F908F9008951F93CF93DF93DA
:202C0000EC01162F8EEF860F8230B0F48091600088618093600084E0809360008AEF90E08D
:202C2000FE01E857FF4F91838083623051F44AEF50E060E070E00DC0613019F483B7817F7C
:202C400011C08DEF810F823040F440EA5FE060E070E0CE010E94A91502C0123020F083B73B
:202C6000817F846083BFFE01EA57FF4F108369E272E08DE594E00E94F72D4AE050E0612FDA
:202C80008DE594E00E94DB2E65E372E08DE594E00E94F72DC957DF4F81E08883DF91CF91D3
:202CA0001F9108958D509F4FFC0160830895EF92FF920F931F93CF93DF9388E0689F700165
:202CC0001124E701C05DDD4FFA0182819381A481B5818A839B83AC83BD8380819181998358
:202CE0008883F701E25DFD4F81E08083C0913C01D0913D0170E080913901781730F5CE0197
:202D0000FBE07F9F800D911D1124FC01449146131AC0DC011196FD014491433048F0AC0196
:202D2000475F5F4FFA01E590F490F801F182E082FD01A491A23038F40996FC018591949175
:202D4000F901918380837F5FD6CFDF91CF911F910F91FF90EF900895CF93DF9300D01F92BF
:202D6000CDB7DEB7FC01EA53FF4F3081319720813197808139832A838B8369817A818B8167
:202D80009C810F900F900F90DF91CF910895FC0184AD81500895CF92DF92EF92FF920F93AA
:202DA0001F93CF93DF93EC018C010A571F4FF8018081813009F4CAC00E94D12FFE01E25738
:202DC000FF4FC080D180E280F3806C197D098E099F093497C080D180E280F3806C157D05C1
:202DE0008E059F0508F4B2C08DAD8111AFC0F80180818230B1F57E01F7E8EF0EF11CF70141
:202E00008081811120C0CE018E569F4F0E94A414882371F04CE251E060E070E0CE010E94D8
:202E2000A9156CE971E08DE594E00E94F72D07C041E050E060E070E0CE010E94A91581E04A
:202E4000F701808383C08130F9F4CE018E569F4F0E945B13F70110824AEF50E060E070E062
:202E60006AC0833008F472C07E01F7E8EF0EF11CF7018081813041F4CE018E569F4F0E94BD
:202E80005B13F701108262C0FE01E957FF4F808181115CC063E0CE0185569F4F0E946712E6
:202EA000F80180818250823028F48091600080648093600010927A00909164008FEF80937E
:202EC000640083B7816083BF80E685BF80E485BF889583B78E7F83BFF801808182508230BB
:202EE00028F4809160008F7B809360009093640080915A048130D9F410925A044091FF0480
:202F0000509100056091010570910205C857DF4F88819981480F591F611D711D4093FF04AB
:202F20005093000560930105709302050FC04CE251E060E070E0CE01DF91CF911F910F91F9
:202F4000FF90EF90DF90CF900C94A915DF91CF911F910F91FF90EF90DF90CF900895FB01A2
:202F6000218186E728272183428132E05081832F90E0351748F4DF01A80FB91F24528C91FD
:202F800028272C933F5FF2CFE80FF91F8081842780830895FB01918186E78927818382E0D8
:202FA0002081A82FB0E0AE0FBF1F821738F42C91945292279C938F5F922FF2CF8C9192817E
:202FC00089278C930895809159040E94082F65EA73E08FEE93E00E945514882331F065EA86
:202FE00073E08DE593E00E94CA1710925B0442E050E061E675E1809159040C94E82EAF92C1
:20300000BF92CF92DF92EF92FF920F931F93CF93DF93EC010E94D12F6B017C019DAD8EAD56
:20302000891708F47BC08E010D5B1F4FF80180819181A281B381B701A601481B590B6A0B56
:203040007B0B5E01FFE3AF0EB11CF50180819181A281B381481759076A077B0708F45EC0F3
:20306000BE01CE010E94AF17809159040E94082FFE01E95BFF4F4081BE01CE018E569F4F61
:203080000E94FA1342E050E061E675E1809159040E94E82EBE01CE010E94CA178DAD8F5F33
:2030A0008DAF8091480190914901A0E0B0E0F50180839183A283B383F801C082D182E282A5
:2030C000F38281E0EC5BFF4F808331978081823038F04CE251E060E070E0CE010E94A915C1
:2030E0006FEA71E08DE594E00E94F72D68816F5F45E0CE010E948311FE01EE50FF4F80810D
:20310000813061F431968081813041F421E044E063E0CE0185569F4F0E94D6119DAD8EADED
:20312000891758F420914701921738F41DAEFE01FF9610821182128213829DAD891708F046
:203140003FC0FE01ED5BFF4F80819181A281B381C81AD90AEA0AFB0A349740815181628172
:203160007381C416D506E606F70650F11DAE1082118212821382ED54FF4F8081813091F49D
:203180008E0105561F4F63E0C8010E946712CD50DF4F8881813031F421E042E062E0C80158
:2031A0000E94D61168EA71E08DE594E00E94F72D0E9463118FE19EE40197F1F700C00000EF
:2031C000DF91CF911F910F91FF90EF90DF90CF90BF90AF900895AF92BF92CF92DF92EF92E3
:2031E000FF920F931F93CF93DF939C01B12C80E095E0A92E8901055B1F4FE901CE5ADF4F58
:20320000790193E5E90EF11C6901A8E4CA0ED11CAB9CF0011124E65FFE4F90819923F1F050
:20322000D8012C91921711F09F3FB1F491812881921711F09F3F81F49281D7012C919217C2
:2032400011F09F3F49F4D6016C9169500380F481E02DCE01099581E0B394DACFDF91CF9132
:203260001F910F91FF90EF90DF90CF90BF90AF900895CF92EF92FF920F931F93CF93DF935C
:20328000EC0189E08C0D888369834A832B83FE01EC53FF4F2081318142812C833D834E83EB
:2032A000F8012081318142812F8338874987CE010A96E816F90629F04C2D50E0B7010E9436
:2032C000A833CE01DF91CF911F910F91FF90EF90CF900C946515CF92EF92FF920F931F93D6
:2032E000CF93DF93EC0120E042E062E085569F4F0E94D6117E018AE0E80EF11CE0914A01AF
:20330000F0914B0181E1D70101900D928A95E1F76CAD81E0860F8CAF21E1C22E0CE411E062
:2033200020E042EACE010E943919DF91CF911F910F91FF90EF90CF900895AF92BF92CF9281
:20334000EF92FF920F931F93CF93DF931F92CDB7DEB75C01E62EF42E43E050E065E574E0E5
:203360008CE491E029830E949B332981892B49F186E0F5018287E386F4862587E756FF4F39
:203380008081F5018687E55BFF4F8081813039F4389680818E3019F43A97608105C0F501B5
:2033A00064AD81E0860F84AF7501FAE0EF0EF11C35E0C32E0CE411E020E144EAC5010E94FB
:2033C00039190F90DF91CF911F910F91FF90EF90CF90BF90AF900895CF92EF92FF920F932F
:2033E0001F93FC0181E0828763874487DF01AD54BF4F8C9130E8839FC0011124282B2587C4
:203400005A978C9186877F018AE0E80EF11C8F01045B1F4FA055B10945E0C42E22E040E857
:203420006C91CF010E9439191F910F91FF90EF90CF900895CF92EF92FF920F931F93CF9348
:20344000DF931F92CDB7DEB719828C01045B1F4FFC01E75BFF4FCC24C3949E012F5F3F4FAC
:20346000790122E040E860810E9439190F90DF91CF911F910F91FF90EF90CF900895CF92A9
:20348000EF92FF920F931F93CF93DF931F92CDB7DEB720E829838C01045B1F4FFC01E75BDB
:2034A000FF4FCC24C3949E012F5F3F4F790122E040E860810E9439190F90DF91CF911F9124
:2034C0000F91FF90EF90CF900895CF93DF93EB0143E050E065E574E08CE491E00E949B3340
:2034E000892B61F043E050E0BE018CE491E00E949B3321E0892B19F020E001C021E0822F33
:20350000DF91CF910895FB01359625913491FB013496649180912C0190912D01820F931F71
:20352000469F800D911D112408959091390120913C0130913D0180E0891751F0F901549131
:20354000651309C03196E4914E1305C0C901089580E090E008958F5F255F3F4FEDCF0F9396
:203560001F93CF93DF931F92CDB7DEB78C0129830E94951A2981422FBC01C8010F90DF91C1
:20358000CF911F910F910C94831A6F927F928F929F92AF92BF92CF92DF92EF920F931F93A1
:2035A000CF93DF935C01122F0E94951AEC01009771F1FC013496449160903A0170903B015F
:2035C0004C0123E0820E911CF401849150E0602F70E09301280F311DC9010E948E33009768
:2035E000B1F0F4018490680C711C4C0186189708412FBE01C5010E94831A4E2D50E0BC01FA
:20360000680D711DC6010E94B13381E001C080E0DF91CF911F910F91EF90DF90CF90BF901C
:20362000AF909F908F907F906F900895CF92DF92EF920F931F93CF93DF93EC0110E08091E9
:203640003901181700F520913C0130913D018BE0189F200D311D1124F90139968591949149
:20366000F901349644912B5F3F4FF9012591349150E060912C0170912D01620F731F0E9402
:20368000B1331F5FDCCF5CE4C52E51E0D52E63E0E62E0AE020E040E060E0CE010E94C51AC5
:2036A000DF91CF911F910F91EF90DF90CF9008959091390120913C0130913D0180E08917B8
:2036C00051F0F9014491641309C03296E491EE2329F0C901089580E090E008958F5F255FED
:2036E0003F4FEDCFEF92FF921F93CF93DF9300D0CDB7DEB77C01162F2A8349830E94581BAF
:20370000F701E151FF4F918380832A814981892BE1F188E0189FF0011124DF01A25DBD4FEF
:2037200011968C91D701AF50BF4F8C935997413011F41C9202C080E28C9380E4D701A75235
:20374000BF4F8C9396978C91811121E0442311F080E401C080E0D701A652BF4F90E8299F54
:2037600090011124212B282B2C93E25DFD4F818191E0980F9183F701E552FF4F80837396E3
:2037800082E08083349681E080830F900F90DF91CF911F91FF90EF9008958F929F92AF929A
:2037A000BF92CF92DF92EF92FF920F931F93CF93DF931F92CDB7DEB74C015A0129830E94EC
:2037C000581BF401E151FF4F918380832981892B09F43FC0769780E78083319780E28083EC
:2037E0003296A5015F77D401AD54BF4F8C9130E8839FC0011124852B80833196A0823196F1
:20380000208331961083319600833196F0823196E082EE24FF243196D0823196C082BE9753
:2038200080819181BF9644E6489F9001499F300D112430833196849F802D112480833A96D2
:203840008BE08083339680818F5F8083319681E080830F90DF91CF911F910F91FF90EF9047
:20386000DF90CF90BF90AF909F908F900895CF93DF931F92CDB7DEB749830E94581B4981B8
:20388000009739F0442341F0FC013296E4914E1718F080E090E00FC00796FC012591349175
:2038A00080912A0190912B0154E0459F800D911D1124820F931F0F90DF91CF910895CF9247
:2038C000DF92EF92FF920F931F93CF93DF937C0180911E01882309F441C0D12C80911E01BA
:2038E000D81698F5C0911F01D091200127E0D29EC00DD11D11248881811106C04B816981DC
:20390000C7010E94371C0DC0813029F0C12C90E00C2D192F08C02B814A816981C7010E94E2
:20392000AF1AC82EF5CF802F8C199C81891758F4ED81FE81E80FF11D6491C8010E94D7334B
:203940000F5F1F4FF0CFD394C9CF8FE798E321E0815090402040E1F700C00000DF91CF9172
:203960001F910F91FF90EF90DF90CF900895CF93DF93E9010E94371CBC01009739F044E02A
:2039800050E0CE010E94B13381E001C080E0DF91CF9108958F929F92AF92BF92CF92DF92FD
:2039A000EF92FF920F931F93CF93DF9300D000D01F92CDB7DEB75C01FC0185AD8111B1C0D4
:2039C000E151FF4F8081918120915B0330915C03329628173907A1F430915A032081321345
:2039E0000FC0809159038130D1F4E0915603F09157033296E491809158038E17D0F50FC08E
:203A000090935C0380935B03208120935A031092580310925903909357038093560380910D
:203A200059036091560370915703811127C0FB013296E491809158038E1700F1F501E251A8
:203A4000FF4FC08075972081319740814268F50164AD81E0860F84AF7501FAEDEF0EF11C61
:203A60000CE411E0C5010E94391981E08093590358C0F501EE50FF4F108253C0FB016491AB
:203A80009E012F5F3F4F40915803C5010E94B71C49815A816B817C8120915803452B462B89
:203AA000472B21F42F5F209358033BC081E080935903820F80935803609156037091570374
:203AC000FB0131964491FB016491CE0105966C01EE24E39401E0C5010E94C51AF501E251AC
:203AE000FF4FC080759720813197408142688D8180FB882480F8912C74E0880C991C7A9542
:203B0000E1F74829F50164AD81E0860F84AF7501FAEDEF0EF11C8E010F5F1F4FC5010E94F2
:203B200039190F900F900F900F900F90DF91CF911F910F91FF90EF90DF90CF90BF90AF908E
:203B40009F908F900895AF92BF92CF92DF92EF92FF920F931F93CF93DF931F92CDB7DEB712
:203B60008C01D62E5A010E94581BFC0180915403909155038E179F0761F010925303F0934F
:203B80005503E093540350E07F0182E0E80EF11C25C0809153038F3FB1F710925503109290
:203BA000540380E039C05031B0F54C2D6D2DC80159830E94371C0E94C13359816115710526
:203BC0008105910541F0F501E50FF11D60837183828393835C5FC394C0925303C09053034E
:203BE000F7018491C816F8F25031A8F4F501E50FF11D009155041091560420915704309129
:203C0000580400831183228333838FEF8093530384E0850F01C0852F0F90DF91CF911F9163
:203C20000F91FF90EF90DF90CF90BF90AF900895AF92BF92CF92DF92EF92FF920F931F9313
:203C4000CF93DF93EC01A62E6A01662321F10E94581B0097E1F0B12C7C0122E0E20EF11CF3
:203C600012C04B2D6A2DCE010E94371C0E94C133F601008111812281338160177107820730
:203C8000930739F0B394F7018491B81650F38FEF03C08B2D01C080E0DF91CF911F910F91C2
:203CA000FF90EF90DF90CF90BF90AF9008956F927F928F929F92AF92BF92CF92DF92EF92B4
:203CC000FF920F931F93CF93DF936C01C62FD42FA9010E94181E182F8F3F09F43BC04D2FBB
:203CE0006C2FC6010E94951AEC010097A9F1FC0133968490412FBC01C6010E94831A5C0189
:203D000010E06E0124E0C20ED11C912C101700F5F6014491C0913A01D0913B01C80DD91DEA
:203D200050E03701610E711CF301608170E0CE010E948E33009751F08C1B9D0BF3016181CB
:203D40009501280F311DC9010E94D7331E5FDECF81E003C08FEF01C080E0DF91CF911F9165
:203D60000F91FF90EF90DF90CF90BF90AF909F908F907F906F900895FF920F931F93CF93F9
:203D8000DF93EC018B01FF24F394809138018F1548F0A8016F2DCE010E94181E8F3F21F499
:203DA000F394F3CF8FEF01C08F2DDF91CF911F910F91FF9008951F93CF93DF93EC01162FBB
:203DC0000E94181E8F3F11F480E00DC0482F612FCE010E94371C0097B9F340E050E0BA01F2
:203DE0000E94E53381E0DF91CF911F910895BF92CF92DF92EF92FF920F931F93CF93DF932E
:203E000000D000D0CDB7DEB76C01B62E7A01FA01008111812281338109831A832B833C8322
:203E2000AE014F5F5F4F0E94DB1EF70184818C83AE014F5F5F4F6B2DC6010E94DB1E81E06A
:203E40000F900F900F900F90DF91CF911F910F91FF90EF90DF90CF90BF9008958F929F92AC
:203E6000AF92BF92CF92DF92EF92FF920F931F93CF93DF931F92CDB7DEB77C01C62EB42E87
:203E8000A9010E94181ED82E8FEFD81681F180916F018D1529F010925203D0926F0107C0F0
:203EA000809152038F3F19F480936F0122C04B2D6C2DC7010E94951A4C010097D1F0FC0190
:203EC0003396A4904D2DBC01C7010E94831A6C01780120E0E4E08E0E911CB12C6091520391
:203EE000F4018491681738F42031C9F416C08FEF36C080E034C0203181F0F801E20FF11DA7
:203F0000108281E0820FF801E80FF11D10828FEF8093520382E0820F22C080E120C070E041
:203F2000C501860F971FE0913A01F0913B01E80FF91F8081D7018D932E5F6C0D7D1D41E03E
:203F400050E0CD0129830E94B133809152038F5F80935203F2E0EF0EF11C2981BFCF0F90C2
:203F6000DF91CF911F910F91FF90EF90DF90CF90BF90AF909F908F900895CF92EF92FF9259
:203F80000F931F93CF93DF93EC018DAD811175C021E044E061E0CE0185569F4F0E94D61184
:203FA000FE01EB52FF4FF08081E0F81239C0AE01455F5F4F36976081CE010E94A31D811131
:203FC00008C0C553DF4F8DE0DE011D928A95E9F754C08F3F91F4FE01E553FF4F8DE0DF01A0
:203FE0001D928A95E9F7CE01DF91CF911F910F91FF90EF90CF900C943F1AFA86FE01E55307
:20400000FF4F608191E0960F9083CC24C394C80E7E01BAE0EB0EF11C8E0104531F4F28C0D0
:20402000E2E0FE122AC08E01055F1F4F9E012F523F4FFE01E053FF4F408131976081CE01FC
:204040000E942E1F882309F4BCCF8F3F21F2FA86FE01E553FF4F608191E0960F9083CC245E
:20406000C394C80E7E01FAE0EF0EF11C0F531F4F20E140EACE010E943919DF91CF911F9172
:204080000F91FF90EF90CF900895EF92FF920F931F93CF93DF93EC01E62E0E94581B00978F
:2040A000A9F0F12C8C010E5F1F4F0CC04F2D6E2DCE010E94371C0E94C133672B682B692BEC
:2040C00039F0F394F8018491F81680F38FEF01C08F2DDF91CF911F910F91FF90EF900895DB
:2040E000EF92FF920F931F93CF93DF93EC01E62E8A010E94181E8F3FD9F46E2DCE010E947B
:204100004520F82E8FEFF81679F04F2D6E2DCE010E94371CBC01009749F044E050E0C8019A
:204120000E94CD338F2D05C08DEF03C08FEF01C08EEFDF91CF911F910F91FF90EF90089596
:20414000EF92FF920F931F93CF93DF931F92CDB7DEB78C0149830E94581B7C01498100970F
:20416000B1F0BC01C8010E94831ABC01F701399685919491F7013496449150E00F90DF9144
:20418000CF911F910F91FF90EF900C94B1330F90DF91CF911F910F91FF90EF900895CF9212
:2041A000DF92EF92FF920F93CF93DF931F92CDB7DEB76C01790149830E94581B4981BC01ED
:2041C000C6010E94831ABC01009769F0402F50E0C7010F90DF91CF910F91FF90EF90DF9039
:2041E000CF900C94CD330F90DF91CF910F91FF90EF90DF90CF9008950F931F93CF93DF9310
:204200008A01060F171FEB01C017D10731F060E0CE010E94D7332196F7CF2FE788E391E0E2
:20422000215080409040E1F700C00000DF91CF911F910F9108959F92AF92BF92CF92DF9293
:20424000EF92FF920F931F93CF93DF937C01A0903C01B0903D01912CC0E0D0E08091390164
:204260009816B8F400E010E065018BE0989EC00CD11C1124F601E00FF11F6491CE010E94C3
:20428000BF0FEC010F5F1F4F0930110599F79394E5CF80912801909129010E94C733C817CD
:2042A000D907C9F0409132015091330160912A0170912B01C7010E94FC2040913401509196
:2042C000350160912C0170912D01C7010E94FC20C7010E945F1CBE018091280190912901AC
:2042E000DF91CF911F910F91FF90EF90DF90CF90BF90AF909F900C94ED33CF93DF93EC0184
:204300000E941B21CE010E94161BCE018E569F4F0E94E714FE01E956FF4F808180935904E2
:2043200042E050E061E675E10E94E82ECC53DF4FE0914A01F0914B01218932894389288324
:2043400039834A8348EE53E060E070E08DE593E0DF91CF910C94A915CF93DF93EC0125E002
:2043600044E062E085569F4F0E94D61160E070E080912801909129010E94ED33CE010E943D
:204380001B21CE01DF91CF910C94161B1F920F920FB60F9211248F9381E080935A048F9170
:2043A0000F900FBE0F901F901895CF92DF92EF92FF920F931F933E2DFC01A081B181C28061
:2043C000D380E480F580C70195958795E0FE0CC0FD01E80FF91F0190F081E02DEC0DFD1DCA
:2043E0000190F081E02D01C0F601E32E8A0F9B1F09951F910F91FF90EF90DF90CF9008952B
:20440000EF920F931F93CF93C0E0809138018C17B0F028E0C29FC0011124FC01E25DFD4F51
:204420002081222351F0E12C00E010E020E040E060E0805D9D4F0E94D521CF5FE6CFCF9174
:204440001F910F91EF900895CF92EF92FF920F931F93F8018701EC2C8081E8E08E9FC001D9
:204460001124FC01E25DFD4FE081EE2361F0F9012081FA014081FB016081805D9D4F0E941D
:20448000D52181E001C080E01F910F91FF90EF90CF900895CF92EF92FF920F931F939C01E6
:2044A0002D5A3F4FFC01E85BFF4FE081EB507C0144E5E40EF11CAC014E5A5F4FBC01655B98
:2044C0007F4FCE2E89010E9424221F910F91FF90EF90CF9008958F929F92AF92BF92CF9201
:2044E000EF92FF920F931F93CF93DF9300D000D01F92CDB7DEB75C01FC01E45BFF4F408170
:2045000051816281738149835A836B837C834C0182E5880E911CF40180818F708C83BE01A2
:204520006F5F7F4FC5010E94BC1E8D83882311F1AE014F5F5F4F682FC5010E94181E8F3FD2
:20454000C9F0482F6D81C5010E94A02095012D5A3F4FF501E85BFF4F80818A50B501655B92
:204560007F4FC82E79018E010B5F1F4FA401C5010E9424220F900F900F900F900F90DF91B8
:20458000CF911F910F91FF90EF90CF90BF90AF909F908F900895AF92BF92CF92DF92EF92A0
:2045A000FF920F931F93CF93DF9300D000D0CDB7DEB75C01D62E7A01FA018381882379F09A
:2045C000008111812281338109831A832B833C83AE014F5F5F4FC5010E947020182FF70199
:2045E0009481992349F09C83AE014F5F5F4F6D2DC5010E947020C82EF501E75AFF4F1083E7
:204600003196C082A5014E5A5F4F7501F7E5EF0EF11C95012D5A3F4FB501655B7F4FF4E076
:20462000CF2E8A01C5010E94242281E00F900F900F900F90DF91CF911F910F91FF90EF9039
:20464000DF90CF90BF90AF900895AF92BF92CF92EF92FF920F931F93CF93DF9300D0CDB7E0
:20466000DEB75C019C012D5A3F4FF90180818130E1F4A5014C5A5F4F31976081C5010E940A
:20468000CB22F501E65BFF4F808185FF30C1C5010F900F90DF91CF911F910F91FF90EF9000
:2046A000CF90BF90AF900C941A1A823059F4A5014C5A5F4FF501EE5AFF4F6081C5010E946B
:2046C000F71EDFCF8330C9F4F501E553FF4FD501A75BBF4F8C918083349619968C9180838C
:2046E000339716978D919D91AC9180839183A283399681E0808332962CC0843061F5F50197
:20470000E553FF4FD501A75BBF4F8C918083349619968C918083319616968C91808331961A
:2047200014978D919D910D90BC91A02D80839183A283B3833597D501A45BBF4F8D919D915E
:20474000AC9180839183A283399682E08083329681E08083CCC08530F9F4F501EE5AFF4FC6
:204760008081E358FF4F8083EB57F1094081518162817381E358FF4F40835183628373830B
:20478000E957F1098081E858FF4F808381E036968083EC58F10978CF8630C9F4F501EA52F3
:2047A000FF4F1082C50129833A830E94161BC12CE12CF12CA5014E5A5F4F8A0129813A8114
:2047C000B501655B7F4FC5010E9424225ACF883091F5F501EA52FF4F8081882339F037975D
:2047E0006081ED57F1098081681789F065E771E08DE594E00F900F90DF91CF911F910F91C0
:20480000FF90EF90CF90BF90AF900C94F72DF501E85BFF4F00810B507501F4E5EF0EF11C1D
:2048200095012F523F4FF501E053FF4F4081C5010E94571E26CF8930F1F4F5011286D501C7
:204840001B96E0914A01F0914B0133968BE001900D928A95E1F77501FAE0EF0EF11C8501E3
:20486000045B1F4FF501E75BFF4FBBE0CB2E20E140E8608129C08A3059F500914A011091D9
:204880004B01B8016D5F7F4F4AE050E0C5018C5A9F4F0E948133892B51F575018AE0E80E5F
:2048A000F11C81E1F801D70101900D928A95E1F7F50164AD81E0860F84AF8501045B1F4F0E
:2048C000A1E1CA2E20E042EAC5010E9439190FC08E3069F4A5014E5A5F4FB501655B7F4F4E
:2048E000C12CE12CF12C8A01C5010E9424220F900F90DF91CF911F910F91FF90EF90CF909D
:20490000BF90AF9008958F929F92AF92BF92CF92DF92EF92FF920F931F93CF93DF93EC018F
:204920007C018FE4E80EF11CBE016C537F4F43E050E0C7010E949B338E010C571F4FF80154
:20494000892B19F48081816002C080818E7F808343E050E065E574E0C7010E949B33F801BF
:20496000892B19F48081826002C080818D7F8083F801808180FF03C065E272E007C081FFA5
:2049800003C061E272E002C06DE172E08DE594E00E94F72D7E01F8E4EF0EF11CF701608173
:2049A0006F5F45E0C7010E948311F8018081837009F483C06E01FAE4CF0ED11CF6018081CA
:2049C00086FF24C067E072E08DE594E00E94F72D4E01F5E88F0E911C5E0189E4A80EB11C64
:2049E000F4019081F5018081981303C06EEE71E002C066ED71E08DE594E00E94F72DF40198
:204A00009081F5018081981709F457C0BE01645B7F4FCE010E94651A882331F0FE01E75B82
:204A2000FF4F8081FC968083F80180818370F1F1F601808187FF3AC0FE01E55BFF4F8081BD
:204A4000813021F4CE010E94252330C08230E1F41DAEFE01EE50FF4F8081813039F56E01BB
:204A6000FBE9CF0ED11C63E0C6010E946712FE01ED50FF4F80818130C9F421E044E061E004
:204A8000C6010E94D61112C0813121F4CE010E944A220CC0823120F0CE010E946B2206C0FD
:204AA00063EB71E08DE594E00E94F72DF801808180FF03C0CE010E94EB18F7011082DF9101
:204AC000CF911F910F91FF90EF90DF90CF90BF90AF909F908F9008950F931F93CF93DF93A9
:204AE000EC0180915B04882319F0CE010E94E317FE01E85BFF4F8081882319F0CE010E9484
:204B000083248DAD882319F0CE010E94FF17FE01E952FF4F8081882319F0CE010E94BD1FEF
:204B2000FE01EE50FF4F8081882319F0CE010E94CA1CCE010E94CB16CE010E940022CE012A
:204B400085569F4F0E948A12CE018D549F4F0E94640F80915C048823F9F00E94D12FC953D8
:204B6000DF4F088119812A813B81601B710B820B930B6C3271408105910570F010925C048E
:204B80002CE088E190E00FB6F894A895809360000FBE20936000FFCFDF91CF911F910F9161
:204BA0000895CF93DF93EC016B870E94D12F6B8F7C8F8D8F9E8F81E08A87DF91CF910895D6
:204BC0001F93CF93DF93EC01162F48EE53E060E070E089A19AA10E94A9151F3F09F451C0F3
:204BE00068A1611132C0111109C089A19AA10E946B1940E25EE460E070E00FC0123091F448
:204C000089A19AA120E043E062E085569F4F0E94D6114CE755E160E070E089A19AA10E9478
:204C2000A91525C0153051F489A19AA120E040E062E085569F4F0E94D61119C01430B9F464
:204C400089A19AA10E94AC2112C0123018F420E040E009C0123019F420E041E004C0133000
:204C600031F420E042E089A19AA10E94721BE885F985309731F0612F88A1DF91CF911F914D
:204C80000994DF91CF911F910895FC0180A1811109C01382128288E893E19583848397839B
:204CA00086830895A081B18112962C9112972F7094E6929F90011124338322838C9182954E
:204CC0008F70989FC001112495838483178216820895DF92EF92FF920F931F93CF93DF9310
:204CE00000D000D000D0CDB7DEB78C01D62E7A0162E08D2D0E944130F801F186E0861286A2
:204D000081E0838741ED55E260E070E04B835C836D837E831A830983CE0101967C01BC01CC
:204D20008D2D0E94D00FF80180A1882329F085A196A19183808303C0F801F182E082C8018C
:204D40000E94452626960FB6F894DEBF0FBECDBFDF91CF911F910F91FF90EF90DF90089509
:204D6000FC0120E0478D60A181A192A10C94EC19FC0120E0478D60A181A192A10C949D19EA
:204D8000CF92DF92EF92FF920F931F93CF93DF93EC010E94D12F6B017C018B858130D9F401
:204DA0008C858230C1F48B899C89AD89BE89B701A601481B590B6A0B7B0B8E819F81A0E0F5
:204DC000B0E0481759076A077B0728F01C8665E0CE010E94E0258A85811105C08D859E8581
:204DE000892B09F49BC04B8D5C8D6D8D7E8DD701C601841B950BA60BB70B0A97A105B10593
:204E000008F48CC01A868B85811141C0C601841B950B9E878D872C813D818217930758F1E1
:204E20008C85823041F41C861E861D8664E0CE010E94E02520C0CB8ADC8AED8AFE8A4F8569
:204E4000588969897A89411551056105710579F0D701C601841B950BA60BB70B8A3F9105DB
:204E6000A105B10540F062E0CE010E94E025CF86D88AE98AFA8A6FEFCE01DF91CF911F9193
:204E80000F91FF90EF90DF90CF900C94E025813009F044C08D859E85009709F43FC01F86D6
:204EA000188A198A1A8A4C85423019F41C8665E030C02C813D818217930748F08E819F81DD
:204EC000892B19F082E08C8727C063E022C08A819B814130A9F44F89588D698D7A8D97010D
:204EE0008601041B150B260B370BAC0160E070E0041715072607370718F41C8661E009C0E2
:204F000021E02C87CF8AD88EE98EFA8E892B21F460E0CE010E94E0251E861D86DF91CF9189
:204F20001F910F91FF90EF90DF90CF900895DF92EF92FF920F931F93CF93DF9300D000D05D
:204F400000D0CDB7DEB77C01D62ECA01F70152A341A30FE018E220E030E00B831C832D8375
:204F60003E83FA82E98287010D5D1F4F97012B5D3F4FAE014F5F5F4F0E945716F701D0A2F7
:204F800026960FB6F894DEBF0FBECDBFDF91CF911F910F91FF90EF90DF900895EF92FF92C2
:204FA0000F93CF93DF93EC017B01FB012081222319F1318189A19AA101E03323B1F020FF18
:204FC00009C02AE931E0428168A10E94CF2029E931E009C029E931E0FB01428168A10E940E
:204FE000CF202AE931E0F7010EC028E931E0FB01428168A10E94CF20F7018181882349F07F
:2050000001E028E931E0438168A189A19AA10E94CF20DF91CF910F91FF90EF900895EF922E
:205020000F931F93362F542FB8014E2D311105C01F910F91EF900C94C026313039F42630C0
:2050400071F41F910F91EF900C9445263131A9F45230E9F41F910F91EF900C94B0262E3010
:2050600029F41F910F91EF900C94B826213079F41F910F91EF900C94CE273E3340F0FC0106
:2050800081A192A11F910F91EF900C941A1A1F910F91EF900895611103C021E0FC0125A7AD
:2050A00008959F92AF92BF92CF92DF92EF92FF920F931F93CF93DF93CDB7DEB727970FB6E8
:2050C000F894DEBF0FBECDBF5C01962EFC01348F238F88EE93E0A0E0B0E0838B948BA58B65
:2050E000B68B4F830E94D12FF501678B708F818F928F81E0828B14A2158704874F81692D32
:20510000C8010E94CC0961E0F501848595850E948C09E114F10419F0F501F786E686C11417
:20512000D10411F1F501D18AC08A69E2C6010E944E06F501808991890E9459088823A1F09D
:2051400062E08EE00E9441304BE458E260E070E04B835C836D837E83BA82A982BE016F5F01
:205160007F4F8EE00E94D00F27960FB6F894DEBF0FBECDBFDF91CF911F910F91FF90EF9040
:20518000DF90CF90BF90AF909F900895CF92DF92EF92FF92CF93DF93EC018A819B810E9479
:2051A000AC166B017C018A819B810E94C7165E2D4D2D3C2D2227282B6DE67EE486EC91E4F8
:2051C0000E94F432675C7F4C8F4F9F4F682F70E080E090E060527E4F8F4F9F4FDF91CF91DB
:2051E000FF90EF90DF90CF900895CF92DF92EF92FF920F931F93CF93DF93EC014B8D5C8D7C
:205200004115510539F060E070E04B8B5C8B6D8B7E8B10C00E94C6289B01AC01AAEFB0E099
:205220000E94683362537109810991096B8B7C8B8D8B9E8B0E94D12F6F8B788F898F9A8FBC
:20524000C9A4DAA4EBA4FCA408A119A14D8D5E8D2F8D69818A819B810E94CD1B81E08A8B3F
:20526000DF91CF911F910F91FF90EF90DF90CF900895FC0120E040816181828193810C943E
:20528000EC19FC0120E040816181828193810C949D191F93CF93DF93EC01888999890E94B4
:2052A0005908182F882381F140E061E0888999890E94A9088CA181110AC0888999890E94E4
:2052C00054061EA21DA218A61FA240E017C04DA15EA1483E83E0580780F42FA138A5283EC3
:2052E00083E0380750F44436510520F461E02436310508F060E042E002C041E060E06170C5
:20530000888999890E946108812FDF91CF911F9108950F931F93CF93DF9300D000D0CDB736
:20532000DEB78C01AC01495D5F4FBC016B5D7F4FFC01808991890E940908F80184A165A100
:2053400076A147A150A581110DC0603DF7E07F0748F4403D87E0580728F481E0F801828BFE
:2053600084A326C019821A821B821C829E012F5F3F4FF801808991890E944C07882369F0DE
:2053800020E030E048EC52E469817A818B819C810E9491320E94AF3104C06CE97FEF83E6AE
:2053A00090E0F80161A772A783A794A784E0828BF801808991890E945D080F900F900F908D
:2053C0000F90DF91CF911F910F910895BF92CF92DF92EF92FF920F931F93CF93DF9300D044
:2053E000CDB7DEB78C011092BC0021E0AE014F5F5F4F60E0FC01848595850E94210BB82E89
:2054000081112AC069817A81F801848595850E94E1096B017C0120E030E040E251E40E9491
:2054200091320E94AA31F801768F658F21E0AE014F5F5F4F61E0848595850E94210B698112
:205440007A81A7019601F801848595850E94FD090E94AF31F801678FF80186859785009726
:2054600009F447C063E00E94FF0BF801868597850E940D0D2AE030E040E050E00E943A33E4
:20548000CA01B9010E94DD316B017C01F80162A173A1882777FD8095982F0E94DD312AE91C
:2054A00039E949E55FE30E9442319B01AC01C701B6010E94DA300E94AF31F80171A360A33F
:2054C0006D32714098F0BB20A1F0F801868597850E94620C20E030E040E251E40E9491328C
:2054E0000E94AA31F801768F658F03C0F80111A210A285E0F801828B0F900F90DF91CF91A3
:205500001F910F91FF90EF90DF90CF90BF9008958F929F92AF92BF92CF92DF92EF92FF92AB
:205520000F931F93CF93DF93EC018DA5882351F01DA68A89823011F483E08A8B8889998900
:205540000E9454060E94D12F0B891C892D893E89011511052105310509F466C0CF88D88C91
:20556000E98CFA8C4B015C018C189D08AE08BF0880169106A206B30608F456C002E310E04C
:2055800020E030E00B8B1C8B2D8B3E8B6F8B788F898F9A8F8A89813091F4CE010E944929CF
:2055A000882311F082E009C048EC50E064E670E049A75AA76BA77CA784E08A8B35C08230D0
:2055C00099F1833079F4CE01DF91CF911F910F91FF90EF90DF90CF90BF90AF909F908F907A
:2055E0000C948929843079F4CE01DF91CF911F910F91FF90EF90DF90CF90BF90AF909F90B0
:205600008F900C94E629853079F4CE01DF91CF911F910F91FF90EF90DF90CF90BF90AF9041
:205620009F908F900C94F528DF91CF911F910F91FF90EF90DF90CF90BF90AF909F908F9087
:205640000895DF92EF92FF920F931F93CF93DF9300D000D000D0CDB7DEB77C01D62ECA012D
:20566000F7015383428309E91BE220E030E00B831C832D833E83FA82E98287010C5F1F4FB2
:2056800097012A5F3F4FAE014F5F5F4F0E945716F701D18226960FB6F894DEBF0FBECDBFF3
:2056A000DF91CF911F910F91FF90EF90DF900895EF92FF920F93CF93DF93EC017B01FB01C3
:2056C0002081222319F131818A819B8100E03323B1F020FF09C02BE931E0428169810E94CE
:2056E000CF202BE931E009C02BE931E0FB01428169810E94CF202BE931E0F7010EC02BE96F
:2057000031E0FB01428169810E94CF20F7018181882349F000E02BE931E0438169818A81A2
:205720009B810E94CF20DF91CF910F91FF90EF900895EF920F931F93362F542FB8014E2DB0
:20574000311105C01F910F91EF900C94882A313019F4263051F421C03131A9F45230E9F4D9
:205760001F910F91EF900C9439292E3029F41F910F91EF900C944129213079F41F910F91F6
:20578000EF900C94582B3E3340F0FC01828193811F910F91EF900C941A1A1F910F91EF9040
:2057A0000895FC0173A362A30895FC01818D228D90E0805C9F4F821B91098F73992708950D
:2057C000FC01918D828D981731F0828DE80FF11D858D90E008958FEF9FEF0895FC01918DD8
:2057E000828D981761F0828DDF01A80FB11D5D968C91928D9F5F9F73928F90E008958FEF3B
:205800009FEF08958CE69DE2892B49F080E090E0892B29F00E946C2D81110C9400000895D8
:20582000FC01848DDF01A80FB11DA35ABF4F2C91848D90E001968F739927848FA689B789D1
:205840002C93A089B1898C9180648C93938D848D981306C00288F389E02D80818F7D808341
:205860000895CF93DF93EC01888D8823C9F0EA89FB89808185FD05C0A889B9898C9186FDFF
:205880000FC00FB607FCF5CF808185FFF2CFA889B9898C9185FFEDCFCE010E94102CE7CF34
:2058A000DF91CF910895CF92DF92FF920F931F93CF93DF931F92CDB7DEB76C01DC015B96EB
:2058C0009C915B975C968C915C97981307C05096ED91FC915197808185FD32C0F601038D60
:2058E00010E00F5F1F4F0F731127F02EF601848DF81211C00FB607FCF9CFD6015096ED9156
:20590000FC915197808185FFF1CFC60169830E94102C6981EBCF838DE80FF11DE35AFF4FF8
:205920006083D6015B960C935B975296ED91FC91539780818062808381E058968C930DC02D
:20594000D6015696ED91FC91579760835096ED91FC91519780818064808381E090E00F9077
:20596000DF91CF911F910F91FF90DF90CF900895BF92CF92DF92EF92FF92CF93DF93EC0117
:205980006A017B01B22E60E874E88EE190E0A70196010E9418332150310941095109569557
:2059A000479537952795E889F98982E08083211580E1380798F0E889F989108260E472E4AE
:2059C0008FE090E0A70196010E94183321503109410951095695479537952795EC85FD852B
:2059E0003083EE85FF852083188EEC89FD89B082EA89FB89808180618083EA89FB898081B3
:205A000088608083EA89FB89808180688083EA89FB8980818F7D8083DF91CF91FF90EF90D3
:205A2000DF90CF90BF9008951F920F920FB60F9211242F938F939F93EF93FF93E0916D04B3
:205A4000F0916E048081E0917304F091740482FD12C09081809176048F5F8F732091770468
:205A6000821751F0E0917604F0E0E35AFB4F958F8093760401C08081FF91EF919F918F9137
:205A80002F910F900FBE0F901F9018951F920F920FB60F9211242F933F934F935F936F9388
:205AA0007F938F939F93AF93BF93EF93FF938DE594E00E94102CFF91EF91BF91AF919F9144
:205AC0008F917F916F915F914F913F912F910F900FBE0F901F9018958DE594E00E94D52B47
:205AE00021E0892B09F420E0822F08951092600410925F0488EE93E0A0E0B0E0809361042A
:205B000090936204A0936304B09364048FE991E090935E0480935D0485EC90E090936A0463
:205B20008093690484EC90E090936C0480936B0480EC90E090936E0480936D0481EC90E01E
:205B40009093700480936F0482EC90E0909372048093710486EC90E0909374048093730422
:205B6000109276041092770410927804109279040895CF92DF92EF92FF920F931F93CF9378
:205B8000DF936C017A01EB01E60EF71E00E010E0CE15DF0561F06991D601ED91FC91019061
:205BA000F081E02DC6010995080F191FF1CFC801DF91CF911F910F91FF90EF90DF90CF902E
:205BC00008956115710581F0DB010D900020E9F7AD0141505109461B570BDC01ED91FC910E
:205BE0000280F381E02D099480E090E00895EF92FF920F931F93CF93DF938C01FB01C0E035
:205C0000D0E064917F018FEFE81AF80A662361F0D801ED91FC910190F081E02DC8010995A9
:205C2000C80FD91FF701EDCFCE01DF91CF911F910F91FF90EF900895DC01ED91FC910190CE
:205C4000F081E02D09948F929F92AF92BF92CF92DF92EF92FF920F931F93CF93DF93CDB7B5
:205C6000DEB7A1970FB6F894DEBF0FBECDBF7C01C42EE52FCB01D22E19A221E02D1510F0C3
:205C80002AE0D22E8E010F5D1F4F8D2C912CA12CB12C6C2D7E2FA50194010E9418338C2D4A
:205CA000D29E80191124015011098A3014F4805D01C0895CF80180832115310541055105F2
:205CC00021F0C22EE32FCA01E4CFB801C7010E94E12DA1960FB6F894DEBF0FBECDBFDF9114
:205CE000CF911F910F91FF90EF90DF90CF90BF90AF909F908F900895CF92DF92EF92FF92BB
:205D00000F931F93CF93DF93EC016A017B012115310579F4E881F9810190F081E02D642F29
:205D2000DF91CF911F910F91FF90EF90DF90CF9009942A303105E9F477FF1AC06DE20E941C
:205D40001C2E8C0144275527BA014C195D096E097F092AE0CE010E94232E800F911FDF9185
:205D6000CF911F910F91FF90EF90DF90CF9008952AE0B701A601CE01DF91CF911F910F91A2
:205D8000FF90EF90DF90CF900C94232E9A01AB01662757FD6095762F0C947C2E21153105BE
:205DA00041F4DC01ED91FC910190F081E02D642F09940C94232E9A01462F50E060E070E0C6
:205DC0000C94CE2E9A01AB0160E070E00C94CE2E8230E8F4E82FF0E0EE0FFF1FE650FB4FA4
:205DE00071836083813041F0809169008C7F842B80936900E89A089580916900440F551FDA
:205E0000440F551F837F842B80936900E99A0895823068F4813011F0E89801C0E998E82FD5
:205E2000F0E0EE0FFF1FE650FB4F1182108208951F920F920FB60F9211242F933F934F93D2
:205E40005F936F937F938F939F93AF93BF93EF93FF938091FA049091FB04892B29F0E091D3
:205E6000FA04F091FB040995FF91EF91BF91AF919F918F917F916F915F914F913F912F91A6
:205E80000F900FBE0F901F9018951F920F920FB60F9211242F933F934F935F936F937F9332
:205EA0008F939F93AF93BF93EF93FF938091FC049091FD04892B29F0E091FC04F091FD04F3
:205EC0000995FF91EF91BF91AF919F918F917F916F915F914F913F912F910F900FBE0F90B9
:205EE0001F90189570E09B01382BC901089508950E94DD2F0E94772F0E949302C2E0DCE266
:205F00000E943C032097E1F30E94022CF9CF1F920F920FB60F9211242F933F938F939F93A8
:205F2000AF93BF938091FF0490910005A0910105B09102053091FE0426E0230F2D3720F4A1
:205F40000296A11DB11D05C029E8230F0396A11DB11D2093FE048093FF0490930005A093CA
:205F60000105B09302058091030590910405A0910505B09106050196A11DB11D80930305C9
:205F800090930405A0930505B0930605BF91AF919F918F913F912F910F900FBE0F901F9020
:205FA00018952FB7F8946091FF047091000580910105909102052FBF0895789484B58260D7
:205FC00084BD84B5816084BD85B5826085BD85B5816085BDEEE6F0E0808181608083E1E818
:205FE000F0E01082808182608083808181608083E0E8F0E0808181608083E1EBF0E080815A
:2060000084608083E0EBF0E0808181608083EAE7F0E08081846080838081826080838081A9
:20602000816080838081806880831092C1000895833081F028F4813099F08230A1F0089536
:206040008730A9F08830B9F08430D1F4809180008F7D03C0809180008F77809380000895EF
:2060600084B58F7702C084B58F7D84BD08958091B0008F7703C08091B0008F7D8093B000E2
:206080000895CF93DF9390E0FC01E55BFD4F2491FC01E15AFD4F8491882349F190E0880F5C
:2060A000991FFC01E957FD4FA591B49183589D4FFC01C591D4919FB7611108C0F8948C916C
:2060C000209582238C93888182230AC0623051F4F8948C91322F309583238C938881822BAE
:2060E000888304C0F8948C91822B8C939FBFDF91CF9108950F931F93CF93DF931F92CDB734
:20610000DEB7282F30E0F901E95CFD4F8491F901E55BFD4F1491F901E15AFD4F049100237F
:20612000C9F0882321F069830E9418306981E02FF0E0EE0FFF1FE358FD4FA591B4919FB7D8
:20614000F8948C91611103C01095812301C0812B8C939FBF0F90DF91CF911F910F910895D2
:20616000CF93DF93282F30E0F901E95CFD4F8491F901E55BFD4FD491F901E15AFD4FC49183
:20618000CC2391F081110E941830EC2FF0E0EE0FFF1FED58FD4FA591B4912C912D2381E093
:2061A00090E021F480E002C080E090E0DF91CF9108955058BB27AA270ED075C166D130F035
:2061C0006BD120F031F49F3F11F41EF45BC10EF4E095E7FB51C1E92F77D180F3BA176207C5
:2061E00073078407950718F071F49EF58FC10EF4E0950B2EBA2FA02D0B01B90190010C01E4
:20620000CA01A0011124FF27591B99F0593F50F4503E68F11A16F040A22F232F342F4427A6
:20622000585FF3CF469537952795A795F0405395C9F77EF41F16BA0B620B730B840BBAF0DE
:206240009150A1F0FF0FBB1F661F771F881FC2F70EC0BA0F621F731F841F48F487957795B8
:206260006795B795F7959E3F08F0B3CF9395880F08F09927EE0F979587950895D9D008F4F5
:2062800081E008950CD00FC107D140F0FED030F021F45F3F19F0F0C0511139C1F3C014D1FE
:2062A00098F39923C9F35523B1F3951B550BBB27AA2762177307840738F09F5F5F4F220F79
:2062C000331F441FAA1FA9F333D00E2E3AF0E0E830D091505040E695001CCAF729D0FE2F84
:2062E00027D0660F771F881FBB1F261737074807AB07B0E809F0BB0B802DBF01FF279358CA
:206300005F4F2AF09E3F510568F0B6C000C15F3FECF3983EDCF3869577956795B795F795D6
:206320009F5FC9F7880F911D9695879597F90895E1E0660F771F881FBB1F6217730784071B
:20634000BA0720F0621B730B840BBA0BEE1F88F7E095089504D06894B111D9C00895BCD02B
:2063600088F09F5790F0B92F9927B751A0F0D1F0660F771F881F991F1AF0BA95C9F712C0D9
:20638000B13081F0C3D0B1E00895C0C0672F782F8827B85F39F0B93FCCF386957795679564
:2063A000B395D9F73EF490958095709561957F4F8F4F9F4F0895E89409C097FB3EF49095F9
:2063C0008095709561957F4F8F4F9F4F9923A9F0F92F96E9BB279395F6958795779567955E
:2063E000B795F111F8CFFAF4BB0F11F460FF1BC06F5F7F4F8F4F9F4F16C0882311F096E928
:2064000011C0772321F09EE8872F762F05C0662371F096E8862F70E060E02AF09A95660FEF
:20642000771F881FDAF7880F9695879597F90895990F0008550FAA0BE0E8FEEF161617067C
:20644000E807F907C0F012161306E407F50798F0621B730B840B950B39F40A2661F0232BC7
:20646000242B252B21F408950A2609F4A140A6958FEF811D811D089597F99F6780E870E0DD
:2064800060E008959FEF80EC089500240A941616170618060906089500240A9412161306B0
:2064A000140605060895092E0394000C11F4882352F0BB0F40F4BF2B11F460FF04C06F5F70
:2064C0007F4F8F4F9F4F089557FD9058440F551F59F05F3F71F04795880F97FB991F61F02C
:2064E0009F3F79F087950895121613061406551FF2CF4695F1DF08C0161617061806991F7A
:20650000F1CF86957105610508940895E894BB2766277727CB0197F908958ADF08F48FEF26
:2065200008950BD0C0CFB1DF28F0B6DF18F0952309F0A2CFA7CF1124EACFC6DFA0F3959F1D
:20654000D1F3950F50E0551F629FF001729FBB27F00DB11D639FAA27F00DB11DAA1F649F15
:206560006627B00DA11D661F829F2227B00DA11D621F739FB00DA11D621F839FA00D611DCD
:20658000221F749F3327A00D611D231F849F600D211D822F762F6A2F11249F5750408AF0EE
:2065A000E1F088234AF0EE0FFF1FBB1F661F771F881F91505040A9F79E3F510570F05CCF9F
:2065C000A6CF5F3FECF3983EDCF3869577956795B795F795E7959F5FC1F7FE2B880F911D89
:2065E0009695879597F90895DB018F939F930E946833BF91AF91A29F800D911DA39F900DCF
:20660000B29F900D11240895AA1BBB1B51E107C0AA1FBB1FA617B70710F0A61BB70B881FDE
:20662000991F5A95A9F780959095BC01CD010895A1E21A2EAA1BBB1BFD010DC0AA1FBB1FDD
:20664000EE1FFF1FA217B307E407F50720F0A21BB30BE40BF50B661F771F881F991F1A9413
:2066600069F760957095809590959B01AC01BD01CF010895052E97FB1EF400940E94513381
:2066800057FD07D00E94183307FC03D04EF40C94513350954095309521953F4F4F4F5F4F97
:2066A000089590958095709561957F4F8F4F9F4F0895A29FB001B39FC001A39F700D811D6F
:2066C0001124911DB29F700D811D1124911D08950E945933A59F900DB49F900DA49F800D1C
:2066E000911D11240895B7FF0C9468330E946833821B930B0895EE0FFF1F0590F491E02DD2
:206700000994FB01DC0104C08D910590801921F441505040C8F7881B990B0895FC0141508C
:20672000504030F001900616D1F73197CF010895882799270895FB01DC0104C08D910190A7
:20674000801921F441505040C8F7881B990B0895FB01DC0102C001900D9241505040D8F70C
:206760000895DC01CB01FC01F999FECF06C0F2BDE1BDF89A319600B40D9241505040B8F7E8
:206780000895A6E1B0E044E050E00C94B333A8E1B0E042E050E00C94B333DC01CB0103C00E
:2067A0002D910E94D83341505040D0F70895262FF999FECF1FBA92BD81BD20BD0FB6F894A1
:2067C000FA9AF99A0FBE01960895242F0E94D833252F0E94D8330C94ED330E94D733272FCE
:2067E0000C94D833F894FFCF00000B05800001000000110400770101FF06990101FF0E6464
:2068000002000000000001210101000000091301000002001A002500020030000B000000B7
:2068200001023E011C0101050A0B0C1214242503BC024F010000000FFFFFFFFFFFFFFFFF4B
:20684000FFFFFFFF70030100FFFFFF2300260029006B006C006D00FF30313233343536377A
:20686000383941424344454600000000C7059A056F0577058A0599053200C8003200E80373
:2068800000000000000000532CB92DD52BEE2BE02B312C00FFFFFFFFFFFFFFFFFFFFFFFF1E
:2068A000FFFFFFFFFFFFFFFFFFFFFFFFFFFFFFFFFFFFFFFFFFFFFFFFFFFFFFFFFFFFFFFFF8
:2068C000FFFFFFFFFFFFFFFFFFFFFFFFFFFFFFFFFFFFFFFFFFFFFFFFFFFFFFFFFFFFFFFFD8
:2068E000FFFFFFFFFFFFFFFFFFFFFFFFFFFFFFFFFFFFFFFFFFFFFFFFFFFFFFFFFFFFFFFFB8
:20690000FFFFFFFFFFFFFFFFFFFFFFFFFFFFFFFFFFFFFFFFFFFFFFFFFFFFFFFFFFFFFFFF97
