:020000040000FA
:200000000C9475010C9467320C9494320C941B120C94F6110C94D1110C94D5160C949D016C
:200020000C949D010C949D010C949D010C949D010C949D010C949D010C949D010C949D01D0
:200040000C94D7320C949D010C94202F0C946E2F0C949D010C949D010C949D010C949D0195
:200060000C94C9040C949D01000000000900000000C201010406050105000000CB01726550
:200080006D6F7465206576656E742C20646174613A200073746174757320726571756573D0
:2000A000742C20646174613A2000636F6E666967206368616E6765642C20646174613A20EC
:2000C0000072657365742C20646174613A2000206279746500667265654D656D3A2000537B
:2000E00074617274696E6720736B657463682E2E2E0A00006400000010030000290A0028FF
:2001000000290020286C3A004B6E6F776E20636F6D6D616E64733A00206279746573004E7A
:200120006F7420656E6F75676820646174612C206E6565642000556E7265636F676E697A50
:200140006564206368617261637465723A2000002E0206030D04E905CA063D070C0B060D39
:20016000210E650F5010C81193120315341601181819161B432156250026112D353EC32088
:200180002020777269746520646174612C20627574206E6F7420696E20636F6E6669672085
:2001A0006D6F64650A002D3E204E4120003C2D20000A554E4B4E4F574E204D4553534147B3
:2001C000452C20504C45415345205245504F5254210A0A006E6F74207265636569766564EB
:2001E000206265666F72652E2E2E0A00616C7265616479207265636569766564202D2073AF
:200200006B69700A002020207265706561746564206D6573736167653B20006C3E2000625A
:200220003E20002D3E20000A0A00202020000A0A00646174613A2000726567733A20002C22
:2002400020616464723A002C206C656E3A006964783A002C20704D61783A002C206C7374AA
:200260003A00636E6C3A0020656C656D656E74730A000A636F6E74656E74206F6620644484
:20028000656620666F72200000000000240027002A0000000000250028002B00000000001F
:2002A00023002600290004040404040404040202020202020303030303030102040810204F
:2002C0004080010204081020010204081020000000070002010000030406000000000000C9
:2002E00000007E02B2064012D13011241FBECFEFD8E0DEBFCDBF11E0A0E0B1E0E8E4FEE610
:2003000002C005900D92A23BB107D9F714E0A2EBB1E001C01D92A93FB107E1F712E0CAEEDE
:20032000D2E004C02297FE010E94E736C23ED107C9F70E94C8320C9422370C940000FB0107
:20034000DC0104C08D910590801921F441505040C8F7881B990B0895FC014150504030F099
:2003600001900616D1F73197CF010895882799270895FB01DC0104C08D910190801921F4CD
:2003800041505040C8F7881B990B0895FB01DC0102C001900D9241505040D8F70895A0E0C1
:2003A000B0E0E5EDF1E00C94F5367C01EB018A01690109C0CE012196F6010995F7018193F1
:2003C0007F010150104001151105A1F7CDB7DEB7E8E00C941137BF92CF92DF92EF92FF923A
:2003E0000F931F937B018C01FB010995B82EC8010196F7010995C82EC8010296F70109953D
:20040000D82EC8010396F7010995982F6B2D7C2D8D2D1F910F91FF90EF90DF90CF90BF90A1
:200420000895DF92EF92FF920F931F937B018C01FB010995D82EC8010196F7010995982FE2
:200440008D2D1F910F91FF90EF90DF900895A0E0B0E0EDE2F2E00C94F536EC017B018A0108
:20046000690109C0CE012196F70161917F01F60109950150104001151105A1F7CDB7DEB746
:20048000E8E00C941137BF92CF92DF92EF92FF920F931F93D52EC62EB72E79018C01642FAD
:2004A000F9010995C80101966D2DF7010995C80102966C2DF7010995C80103966B2DF70192
:2004C00009951F910F91FF90EF90DF90CF90BF900895DF92EF92FF920F931F93D72E7A010F
:2004E0008C01FA010995C80101966D2DF70109951F910F91FF90EF90DF90089588E0E2EBA7
:20050000F1E0DF01982F1D929A95E9F71092B7011092B6011092B9011092B8011092B501E3
:200520001092B4013896DF011D928A95E9F71092BF011092BE011092C1011092C0011092DC
:20054000BD011092BC0184E092E00E945D070895FF920F931F938C01F62E8AEC94E063E939
:2005600070E00E945131C8016F2D0E940B13682F8AEC94E00E9474318AEC94E06AE00E9444
:20058000743184EF91E028EC30E0F9013197F1F70197D9F71F910F91FF9008951F93CF930C
:2005A000DF93EC01162F6091C7016A3008F46AE0633308F062E386EF93E00E943C1060E015
:2005C0008091C301829586958695837009F061E08FE493E00E94E4168FE493E063E00E947F
:2005E00040278091C801882309F481E08B3008F08AE0809320019091C90180E02091CA0199
:20060000622F70E0682B792B8EEF6C30780714F46CE07EEF87E26131780714F060E177E251
:2006200089E092E00E94B92B8AEC94E06AEA70E00E945131CE01612F0E940B13682F8AEC7B
:2006400094E00E9474318AEC94E06AE00E947431DF91CF911F910895EF92FF921F937C0106
:20066000162F8AEC94E061EC70E00E945131C701612F0E940B13682F8AEC94E00E947431AA
:200680008AEC94E06AE00E9474318FE493E00E94A320F7018181882321F48FE493E00E9452
:2006A000AA221F91FF90EF9008958FE493E00E94E9270895CF92DF92EF92FF920F931F93A6
:2006C00088E10FB6F89480936000109260000FBE8AEC94E040E051EE60E070E00E94A92FCB
:2006E0008AEC94E06FED70E00E9451318AEC94E065ED70E00E9451310E942B11BC018AEC7F
:2007000094E04AE050E00E940B328AEC94E06FEC70E00E9451318AEC94E06AE00E947431F8
:2007200020EF3FE7F9018491E35EFE4780832F5F3F4FFFE72C3F3F07A9F72CEF3FE7F9015E
:200740008491EF5DFE4780832F5F3F4FFFE72F3F3F07A9F78DED93E06AE04BE02CE00DE03F
:20076000F2E0EF2ECC240E94911486EF93E062E047E021E00F2EFEE9EF2EFFEEFF2EF7E2CD
:200780000F2FFEE31F2FF02DE0E1CE2EE7E2DE2E0E94F9108FE493E00E944A288CEC91E0AF
:2007A00060E04FE453E00E94D9288CEC91E068E040E050E00E942F2B89E092E061E04FE424
:2007C00053E00E940B2C89E092E062E143E120E030E007EE11E07DEEE72E71E0F72E54E0AB
:2007E000C52E52E0D52E0E94AF2E84B714BE80E090E060E00E94CE0286EE93E064E044E074
:200800000E94741486EE93E063E043E023E00E94B0131F910F91FF90EF90DF90CF90089530
:20082000382F413210F040E042C0809134028823E1F791E090933402209336028FEF8093AC
:20084000A10210925C02415040935D024F5F9093350280913502330F832B80933502809197
:200860003702813041F410923702809135028093BB0085EC01C085EE8093BC0080913402AD
:200880008130E1F380915C02841710F440915C0220E030E00AC0FB01E20FF31FD901A45CE3
:2008A000BD4F8C9180832F5F3F4F2417A0F3842F08950F931F93582F122F413210F081E0E2
:2008C0004AC0809134028823E1F782E080933402009336028FEF8093A10210925C024093C7
:2008E0005D02ACE3B2E0FB0102C081918D938E2F861B8417D0F31092350280913502550F47
:20090000852B8093350280913702813041F410923702809135028093BB0085EC01C085EE17
:200920008093BC00112321F0809134028230E1F38091A1028F3F11F480E00DC08091A1026E
:20094000803211F482E007C08091A102803311F084E001C083E01F910F910895482F6132D0
:2009600010F081E0089580913402843011F082E0089560937F02AEE5B2E0842F9C01F9019B
:2009800002C081918D938E2F841B8617D0F380E008951F920F920FB60F9211242F933F9329
:2009A0004F935F936F937F938F939F93AF93BF93EF93FF938091B90090E0887F907080365C
:2009C000910509F4F2C081369105CCF58832910509F47BC089329105B4F48031910509F4FF
:2009E0006FC0813191053CF4009709F447C1089709F04FC165C08831910509F466C080975E
:200A000009F047C182C08034910509F4A4C08134910544F48033910509F482C0C89709F085
:200A200038C189C08035910509F489C08835910509F496C08834910509F02BC1AEC08839D7
:200A4000910509F413C189399105ECF48837910509F4ABC0893791054CF48836910509F453
:200A6000A4C08037910509F014C19FC08838910509F4FCC08039910509F49DC08038910592
:200A800009F007C198C0803B910509F4C6C0813B91054CF4803A910509F49FC0883A9105D3
:200AA00009F0F7C0BAC0803C910509F4E3C0883C910509F4DFC0883B910509F0EAC0C2C0A6
:200AC000809135028093BB00CFC090915C0280915D02981768F490915C02E92FF0E0E45CD0
:200AE000FD4F80818093BB009F5F90935C02BCC080913602882309F44BC085ED8093BC00A3
:200B00008091BC0084FDFCCFC2C080E28093A10285ED8093BC008091BC0084FDFCCFB7C051
:200B200080E38093A10285ED8093BC008091BC0084FDFCCFACC088E38093A1029BC0809149
:200B40005C029091BB00E82FF0E0E45CFD4F90838F5F80935C0290915C0280915D0282C045
:200B600080915C029091BB00E82FF0E0E45CFD4F90838F5F80935C0280913602882341F020
:200B800085ED8093BC008091BC0084FDFCCF7FC081E08093370284EA6EC085ED8093BC0032
:200BA0008091BC0084FDFCCF72C083E0809334021092A00259C08091A002803208F056C06E
:200BC0008091A0029091BB00E82FF0E0E058FD4F90838F5F8093A00247C08091A0028032F9
:200BE00030F4E091A002F0E0E058FD4F108285ED8093BC008091BC0084FDFCCF10923402A6
:200C00006091A002E0913A02F0913B0280E892E070E009951092A0022DC084E08093340230
:200C200010927E0210927F02E0913802F0913902099580917F02882329F481E080937F021B
:200C400010925E0290917E02E92FF0E0E25AFD4F80818093BB009F5F90937E0290917E0270
:200C600080917F02981710F485EC01C085E88093BC000FC085EC8093BC0009C01092A102A4
:200C800085ED8093BC008091BC0084FDFCCF10923402FF91EF91BF91AF919F918F917F9122
:200CA0006F915F914F913F912F910F900FBE0F901F9018951092340281E080933602109247
:200CC000370282E161E00E94B33383E161E00E94B333E9EBF0E080818E7F808380818D7FC0
:200CE000808380E28093B80085E48093BC00089581E08093E7026093C4021092E5021092AE
:200D0000E60208952091C30230E08091C202281B3109C90108954091C2028091C302481745
:200D200018F02FEF3FEF0AC0E42FF0E0EE55FD4F8081282F30E04F5F4093C202C90108950F
:200D4000E091C2028091C302E81718F0EFEFFFEF06C0F0E0EE55FD4F8081E82FF0E0CF01D8
:200D6000089508951092EB021092EA0288EE93E0A0E0B0E08093EC029093ED02A093EE02ED
:200D8000B093EF0288E791E09093E9028093E8020895CF92DF92EF92FF920F931F93CF93FD
:200DA000DF937C016B018A018091E7028823A1F0C0E0D0E00DC0D701ED91FC91D601AC0F85
:200DC000BD1F0190F081E02DC7016C9109952196C017D10780F304C0CB01642F0E94AE0475
:200DE000C801DF91CF911F910F91FF90EF90DF90CF900895DF93CF930F92CDB7DEB7FC0106
:200E000069838091E7028823C9F08091E602803238F081E090E09383828320E030E015C0E4
:200E20008091E502E82FF0E0EB53FD4F998190838F5F8093E5028093E60205C0CE0101960E
:200E400061E00E94AE0421E030E0C9010F90CF91DF9108950F93062F8091C40265EC72E0C5
:200E60004091E60221E00E9459041092E5021092E6021092E7020F91089561E00E942A07CA
:200E80000895413208F040E2862F62EA72E00E9410041092C2028093C302089521E00E94A1
:200EA000410708951092C2021092C3021092E5021092E6020E945A06089508956F927F921F
:200EC0008F929F92AF92BF92CF92DF92EF92FF920F931F93CF93DF93FC01EA018181928125
:200EE0008E30910539F417E1E12E15E7F12E012D112D0FC08536910531F0E12CB4E0FB2ED8
:200F0000012D112D06C0A7EEEA2EAFE0FA2E012D112D8381882339F4E4E0EE0CFF1C001FFB
:200F2000111FEA95D1F79B0140E050E0C801B7010E9475365B016C015AE0D694C794B7946D
:200F4000A7945A95D1F79E0140E050E0C801B7010E9475363B014C014AE0969487947794DF
:200F600067944A95D1F7A114B104C104D10429F480E090E0A0E0B0E00FC0C401B3013AE06C
:200F8000660F771F881F991F3A95D1F7A60195010E94A836C901DA010196A11DB11DB69580
:200FA000A7959795879581349105A105B10528F462EF71E0CEEBD1E049C081389105A105E0
:200FC000B10528F464E172E0C1EDD2E03FC0813C9105A105B10528F46FE372E0CBE7D3E075
:200FE00035C0813021E0920720E0A20720E0B20728F460E772E0CEEFD3E028C0893321E085
:20100000920720E0A20720E0B20728F46FE671E0CCEFD1E01BC08B3921E0920720E0A207C5
:2010200020E0B20728F462ED70E0CBEFD0E00EC08B599240A040B04028F060E070E0C0E036
:20104000D0E004C068E170E0C2E1D0E080E090E0A60195010E9475367B018C01BE0180E0AE
:2010600090E0A40193010E947536E61AF70A080B190BC801B7010E945C3520E030E040E856
:2010800058E30E941236DF91CF911F910F91FF90EF90DF90CF90BF90AF909F908F907F9044
:2010A0006F900895CF93DF93FC01E90181819281833B910518F08FEF9FEF08C08636910542
:2010C00018F089E391E902C087EB93E16817790719F04817590751F480E090E0A0E0B0E08E
:2010E00088839983AA83BB8380E008C0CF010E945E07688379838A839B8381E0DF91CF911C
:2011000008950F931F938C01FC016081772767FD709588EE92E00E94780688EE92E060EC30
:201120000E94FA0688EE92E00E943D07F801848390E0882309F491E0892F1F910F91089511
:20114000EF92FF920F931F93CF93DF93EC01062F7A016881772767FD709588EE92E00E943E
:20116000780610E00F701070006888EE92E0602F0E94FA0688EE92E00E943D078C838823F9
:20118000C1F46881772767FD709588EE92E041E050E00E944E0788EE92E00E9482060197D0
:2011A00041F488EE92E00E948B06F701808381E001C080E0DF91CF911F910F91FF90EF9034
:2011C0000895EF92FF920F931F93CF93DF93EC01062F7A016881772767FD709588EE92E0C3
:2011E0000E94780610E00F701070006888EE92E0602F0E94FA0688EE92E00E943D078C8382
:20120000882309F56881772767FD709588EE92E042E050E00E944E0788EE92E00E948206F2
:20122000029789F488EE92E00E948B06182F88EE92E00E948B06612F0E94C132F7019183EA
:20124000808381E001C080E0DF91CF911F910F91FF90EF9008950F931F93CF93DF93EC0129
:201260009B018A016CE0A9010E94E108882311F490E00BC0CE016EE0A8010E94E10890E01A
:20128000882309F491E081E09827892FDF91CF911F910F910895DF92EF92FF920F931F93C9
:2012A0007C01062FD42EFC016081772767FD709588EE92E00E94780610E00F701070006836
:2012C00088EE92E0602F0E94FA0688EE92E06D2D0E94FA0688EE92E00E943D07F701848304
:2012E00090E0882309F491E0892F1F910F91FF90EF90DF90089570E06370707024E0660FC7
:20130000771F2A95E1F74F70462B66E00E944B09811181E00895EF92FF920F931F93DF93CC
:20132000CF930F92CDB7DEB78C01E62EF42EFC016383442319F48EE090E006C0F1E04F179C
:2013400031F485E690E0F8019283818309C0F2E04F1719F482E991E0F6CFFC0112821182A8
:20136000C80161E0AE014F5F5F4F0E94A008882399F08981EE2011F0806101C08F7E898306
:201380004F2D437089818C7F482B4983C80161E00E944B09811181E00F90CF91DF911F91B8
:2013A0000F91FF90EF90089560E040E00E944B09089560E043E00E944B090895FC01608319
:2013C00088EE92E00E9452070895FC0184819B0140E050E080FF09C0CA01B9010E945C359F
:2013E0002AE037ED43E25DE308C0CA01B9010E945C352AE037ED43E25CE30E9412362DEC45
:201400003CEC4EE152E40E945A34E62F2E2F372F482F592FB901CA0108952F923F924F92A3
:201420005F926F927F928F929F92AF92BF92CF92DF92EF92FF920F931F9319012A01FC014B
:2014400084819B0140E050E080FF39C0CA01B9010E945C357B018C012DEB32E546E15FE3CA
:201460000E94123625EC3EEF42E050E40E945A345B016C01C801B7012BE335E246ED59EBD8
:201480000E941236A80197010E9412369B01AC01C601B5010E945B343B014C01C201B10142
:2014A00020E030E048EC51E40E945A345B016C01C801B7012CEA35EC47EA5AE338C0CA01D1
:2014C000B9010E945C357B018C012DEB32E546E15DE30E94123625EC3EEF42E050E40E9460
:2014E0005A345B016C01C801B70126EF34E246ED55EB0E941236A80197010E9412369B01C5
:20150000AC01C601B5010E945B343B014C01C201B10120E030E048EC51E40E945A345B016D
:201520006C01C801B7012CEA35EC47EA58E30E9412362AE037ED43E25CE30E945B349B01D1
:20154000AC01C601B5010E941236A40193010E945B347B018C0120E030E048EC52E40E94E8
:201560000E3618165CF40F2EF0E0EF2EF0E0FF2EF8EC0F2FF2E41F2FF02D14C0C801B701CA
:201580002DEC3CEC4CEC5DE30E94BF34882354F40F2EFDECEF2EFCECFF2EFCEC0F2FFDE3AC
:2015A0001F2FF02DB701C8011F910F91FF90EF90DF90CF90BF90AF909F908F907F906F9029
:2015C0005F904F903F902F900895FF920F931F938C01FC01808161E00E94B333F8018081DF
:2015E00061E00E94743382E0F82E8F2D8A95F1F7F801818161E00E94B3338F2D8A95F1F78F
:20160000F801808160E00E94B3338F2D8A95F1F7F801818160E00E94B33388E08A95F1F713
:20162000F801818161E00E94B3338F2D8A95F1F7F801808161E00E94B3338F2D8A95F1F79D
:20164000F801818160E00E94B333FA94F1F71F910F91FF9008950F931F93CF93DF93EC01C0
:20166000888161E00E94B333888161E00E94743388E08A95F1F710E008E0898161E00E94D1
:20168000B333802F8A95F1F7898160E00E94B333802F8A95F1F71F5F193079F7CE010E947E
:2016A000E50ADF91CF911F910F910895DF92EF92FF920F931F93CF93DF93EC01E62E18E0DA
:2016C00000E022E0F22E898161E00E94B33392E0D92E8F2D8A95F1F788810E940734000F04
:2016E000082B898160E00E94B3338F2D8A95F1F7115049F7888161E00E94743361E06E251A
:2017000088810E94B3338D2D8A95F1F7898161E00E94B33388E08A95F1F7898160E00E9449
:20172000B3338D2D8A95F1F7888160E00E947433888161E00E94B333802FDF91CF911F916F
:201740000F91FF90EF90DF9008950F931F93CF93DF93EC018B0161E00E94560B9D8198270D
:2017600028E031E397FF03C0990F932701C0990F2150C1F79D83F80180831182CE0161E041
:201780000E94560B9D81982748E021E397FF03C0990F922701C0990F4150C1F79D83282F5A
:2017A00030E0F801908180E0282B392B31832083CE0160E00E94560B382F90E028E0990F08
:2017C000832F8170982B36952150C9F78D81981711F480E006C08FEF9FEFF80191838083A3
:2017E00082E0DF91CF911F910F910895DF92EF92FF920F931F93CF93DF93EC01F62E888105
:2018000061E00E94743310E808E042E0E42E38E0D32E612F6F2188810E94B3338E2D8A9586
:20182000F1F7898161E00E94B3338D2D8A95F1F7898160E00E94B3338E2D8A95F1F71695ED
:20184000015039F7888160E00E947433888161E00E94B333898161E00E94B33388E08A9549
:20186000F1F788810E9407348C0182E08A95F1F7898160E00E94B33380E0012B09F081E0EC
:20188000DF91CF911F910F91FF90EF90DF9008951F93CF93DF93EC01162F17701C830E948E
:2018A000E50ACE0166E00E94F60B882321F4CE01612F0E94F60BDF91CF911F9108950F9300
:2018C0001F938C01842FF8016083418313821282148261E00E947433C8010E942B0BC801C3
:2018E0006EE10E94F60B1F910F910895CF92DF92EF92FF921F93CF93DF93EC01162F6A0102
:20190000F22E2C81277090E038E0990F822F8170982B26953150C9F79D83CE010E94E50A52
:20192000112311F015E001C013E0CE01612F0E94F60B882341F59D81912728E031E397FF5E
:2019400003C0990F932701C0990F2150C1F79D83FF2031F010EF60E7E62E67E1F62E0AC0E0
:20196000DB82CA8210C0115011F483E00CC0C7010197F1F788810E940734892BA1F7CE0110
:20198000B6010E94A50BDF91CF911F91FF90EF90DF90CF900895EF92FF920F931F93162F9A
:2019A000042F88EEE82E82E0F82EC70167E770E00E947806C701612F0E94FA06C701602F09
:2019C0000E94FA06C7010E943D071F910F91FF90EF900895CF92DF92EF92FF920F931F9384
:2019E000162F98EEE92E92E0F92EC70167E770E00E947806C701612F0E94FA06C7010E9482
:201A00003D07C70167E770E00E947806C70167E770E042E050E00E944E07C7010E948B0652
:201A2000182F00E0C7010E948B066C01C7010E943D070C291D29C8011F910F91FF90EF90C7
:201A4000DF90CF9008950F931F938C0164EF4EE20E94CB0C80E197E20197F1F7C80166EFC6
:201A60000E94EA0C1F910F910895CF92DF92EF92FF920F931F936C010E94230DA0E0B0E05A
:201A8000F6012589368940E050E0821B930BA40BB50B2389348940E050E0BC01CD010E9402
:201AA00075367B018C01FFE015950795F794E794FA95D1F7D6011D966D917C911E978827F7
:201AC00077FD8095982FEBE0660F771F881F991FEA95D1F71F962D913C915097442737FD74
:201AE0004095542F2E0D3F1D401F511F0E94CA3688E090E0A0E0B0E0E80EF91E0A1F1B1F2E
:201B00002E0D3F1D401F511F64E055954795379527956A95D1F7CA01B9010E945E3520E04C
:201B200030E040E251E40E94C3341F910F91FF90EF90DF90CF900895EF92FF921F93162FD3
:201B4000A8EEEA2EA2E0FA2EC70167E770E00E947806C701612F0E94FA06C7010E943D07FF
:201B6000C70167E770E00E947806C70167E770E041E050E00E944E07C7010E948B06182FEF
:201B8000C7010E943D07812F1F91FF90EF900895EF92FF920F931F93CF93DF93EC0148819C
:201BA0004295440F440F407C4C5C64EF0E94CB0C8881882319F480E197E20CC0813019F453
:201BC00080E89EE307C0823019F480E69DE602C080E29BEC0197F1F7CE0166EF0E94EA0CC6
:201BE0007C0100E010E0102F0F2DFE2CEE24CE0168EF0E949C0D282F30E040E050E02E2962
:201C00003F29402B512B688188E090E0861B910904C056954795379527958A95D2F7B901C4
:201C2000CA01DF91CF911F910F91FF90EF9008952F923F924F925F926F927F928F929F9246
:201C4000AF92BF92CF92DF92EF92FF920F931F93DF93CF93CDB7DEB72C970FB6F894DEBF1C
:201C60000FBECDBF4C010E94230D7C01C4010E94C80D2B013C0100E010E0D40155968D911C
:201C80009C915697A0E0B0E0E81AF90A0A0B1B0BF4012389348940E050E0C801B7010E9409
:201CA00075365B016C01FFE0D594C794B794A794FA95D1F7D4011F96ED90FC90509700278F
:201CC000F7FC0095102FEA0CFB1C0C1D1D1DC801B70122E030E040E050E00E94CA36F40153
:201CE00065857685882777FD8095982FEBE0660F771F881F991FEA95D1F7621B730B840BFA
:201D0000950BA6019501205A3F404040504029833A834B835C83A80197010E94CA368981DA
:201D20009A81AB81BC81820F931FA41FB51F89839A83AB83BC83BC01CD019B01AC010E9439
:201D400075369B01AC016CE055954795379527956A95D1F72F83388749875A87D401DC90CB
:201D60001596ED91FC911697FC87EB8717962D903C90189751962D913C9152973E832D835A
:201D800013962D913C911497442737FD4095542F69817A818B819C810E9475367B018C0109
:201DA0003BE015950795F794E7943A95D1F7D40111968D919C911297AA2797FDA095BA2F32
:201DC00022E0880F991FAA1FBB1F2A95D1F7E80EF91E0A1F1B1FF40121853285442737FD27
:201DE0004095542F6F81788589859A850E947536BBE09595879577956795BA95D1F7E60E30
:201E0000F71E081F191F0D2C04C0EE0CFF1C001F111F0A94D2F722E030E040E050E0E20E34
:201E2000F31E041F151FC801B70124E030E040E050E00E94CA3679018A014E185F08600A77
:201E4000710A20E533EC40E050E004C05695479537952795DA94D2F7C301B2010E94753685
:201E60005B016C01AA0CBB1CCC1CDD1C97FD56C08B859C859C01442737FD4095542F6981D2
:201E80007A818B819C810E9475367B018C01FDE015950795F794E794FA95D1F722E030E036
:201EA00040E050E0E20EF31E041F151F9101442737FD4095542F6F81788589859A850E9435
:201EC0007536BC01992777FD9095892FE60EF71E081F191F72E015950795F794E7947A9574
:201EE000D1F780E090E8A0E0B0E0E80EF91E0A1F1B1FAD81BE819D0140E050E0C801B701E6
:201F00000E9475369B01AC016FE056954795379527956A95D1F7C601B50104C0C601B50108
:201F2000A80197010E94A836C901DA015C016D015527D7FC5A954D2D3C2D2B2DCA01B90172
:201F40000E9475362EED3BE040E050E00E9475367B018C01C601B50123E433EE4FEF5FEF27
:201F60000E9475369B01AC019A01552737FD5095452F2153314F4F4F5F4F78011127F7FC43
:201F80001095012F2E0D3F1D401F511F14E055954795379527951A95D1F72A0D3B1D4C1D55
:201FA0005D1DB901CA012C960FB6F894DEBF0FBECDBFCF91DF911F910F91FF90EF90DF907C
:201FC000CF90BF90AF909F908F907F906F905F904F903F902F900895CF93DF93EC0164306A
:201FE00008F063E0688388EE92E00E945207CE016AEA0E94EA0C9A838983CE016CEA0E942D
:20200000EA0C9C838B83CE016EEA0E94EA0C9E838D83CE0160EB0E94EA0C9A8B898BCE01F3
:2020200062EB0E94EA0C9C8B8B8BCE0164EB0E94EA0C9E8B8D8BCE0166EB0E94EA0C9887B0
:202040008F83CE0168EB0E94EA0C9A878987CE016AEB0E94EA0C9C878B87CE016CEB0E94CA
:20206000EA0C9E878D87CE016EEB0E94EA0C988B8F87DF91CF910895FC01608B0895462BD5
:2020800040937C0086E880937A0020E030E040E050E080917A00806480937A0080917A000F
:2020A00086FDFCCF4A30510534F08091780090917900280F391F4F5F5F4F4A34510549F7BC
:2020C00080917A008F7780937A0086E0369527958A95E1F7C901089560E44EE00E943F1034
:2020E0009C0140E050E064EB7BE281E190E00E94A836C9010895CF92DF92EF92FF920F9308
:202100001F936C01FC01848161E00E947433F601848160E00E94B333C60160ECF601458180
:202120000E943F10A0E0B0E0BC01CD012CE434E040E050E00E9475362FEF33E040E050E0D1
:202140000E94A836CA01B9010E945C35F60126813781408551850E94C3347B018C01F601BD
:20216000848160E00E947433C801B7010E943035CB011F910F91FF90EF90DF90CF900895B4
:20218000CF93DF93EC010E942B339B01AC018B81882361F18C859D85AE85BF852817390703
:2021A0004A075B0718F1CE010E946C10CE010E947B109C0140E064E670E00E9494368889A6
:2021C00090E06817790708F441E048833A8329830E942B332A853B8540E050E0260F371FF5
:2021E000481F591F2C873D874E875F87DF91CF9108959F92AF92BF92CF92DF92EF92FF92BA
:202200000F931F93CF93DF93EC01962EB42EA22E0E942B339B82BC82AD82EE82FF82088729
:202220001987DB86CA86992021F06C877D878E879F878C81882319F060E00E947433DF9197
:20224000CF911F910F91FF90EF90DF90CF90BF90AF909F900895DF93CF9300D0CDB7DEB7DB
:202260002091720130917301CE0101962115310519F4895F944002C0821B930B9A83898344
:2022800089819A810F900F90CF91DF91089570E06827792720E041E050EACB019695879581
:2022A00060FF04C0BC016427752701C0BC012F5F283099F7CB010895EF92FF920F931F9354
:2022C000E82EF89490E0FC01EE0FFF1FDF01A559BE4F0D90BC91A02D2C91EB59FE4F019053
:2022E000F081E02D308132238C509D4FDC010C9103273C93002311F478944EC08081FF24B9
:20230000381710F0FF24F39410E040C0A12FB0E0FD0143E0EE0FFF1F4A95E1F7E950FD4FFC
:2023200080818E1591F58181801779F533E0AA0FBB1F3A95E1F7FD01E750FD4F60817181CB
:20234000A550BD4F8C9111969C911197FC01AF0112962C91129713963C9120FF0EC0F901CB
:20236000F595E795E60FF71F0190F081E02DE40FF51F80819181FC01AF0135952795CB0124
:20238000820F931F6F2DFA0109951F5F80914703181708F4BBCF78941F910F91FF90EF90CD
:2023A00008951F920F920FB60F9211242F933F934F935F936F937F938F939F93AF93BF932F
:2023C000EF93FF9382E00E945C11FF91EF91BF91AF919F918F917F916F915F914F913F91D8
:2023E0002F910F900FBE0F901F9018951F920F920FB60F9211242F933F934F935F936F935F
:202400007F938F939F93AF93BF93EF93FF9381E00E945C11FF91EF91BF91AF919F918F914E
:202420007F916F915F914F913F912F910F900FBE0F901F9018951F920F920FB60F921124D8
:202440002F933F934F935F936F937F938F939F93AF93BF93EF93FF9380E00E945C11FF9105
:20246000EF91BF91AF919F918F917F916F915F914F913F912F910F900FBE0F901F90189525
:20248000E9EFF2E0118210821382128215821482389683E0E934F807A9F70895FF920F935A
:2024A0001F93CF93DF93082FEB01883010F412E00CC08850863010F410E007C0802F8E5023
:2024C000863010F01FEF01C011E0A0914703AF5FA0934703B0E011972A813B814C815D8136
:2024E000FD0183E0EE0FFF1F8A95E1F7E550FD4F2083318342835383E3E0AA0FBB1FEA9521
:20250000E1F7FD01E750FD4F8881998191838083A950BD4F1C93E02FF0E0E654FD4FF4908B
:202520001196FC92802F62E00E947433412F50E0DA01AA0FBB1FBD016B597E4FEB01E8817A
:20254000F98180818F2980832091680081E090E002C0880F991F1A95E2F7282B2093680054
:20256000A559BE4FED91FC919081E881F981808189234C505D4FFA0180837894DF91CF9182
:202580001F910F91FF9008950F931F930AEC14E0C8016FEF70E00E9451310E942B33AB013A
:2025A000BC01C8012AE030E00E94FC31C8016CEF70E00E94513180E01F910F910895CF9266
:2025C000DF92EF92FF920F931F93E82EFF249AECC92E94E0D92EF70184E0F595E7958A9572
:2025E000E1F704E811E0E00FF11FC60160810E9474318FE0E822FF240E0D1F1DC601F80185
:2026000060810E94743180E01F910F91FF90EF90DF90CF900895DF92EF92FF920F931F9392
:20262000CF93DF93D62E8C01C0E0D0E0E62EFF240FC0F80180810E94DF122196CE15DF05D4
:202640002CF48AEC94E060E20E9474310F5F1F4FCD1578F380E0DF91CF911F910F91FF90AF
:20266000EF90DF900895FF920F931F93F62E0E940B130AEC14E0C80163E071E00E9451319B
:20268000C8016F2D4AE050E00E941C32C80161E071E00E94513180E01F910F91FF90089530
:2026A00070934903609348030895DF92EF92FF920F931F93CF93DF937C01D62EC42FD0E021
:2026C0008C010C0F1D1FF80180810E94B333F801D2822296CC0FDD1FCC0FDD1FCE0DDF1D0A
:2026E000188219821A821B82DF91CF911F910F91FF90EF90DF900895462F60E00E94551373
:2027000008951F93CF93DF93EC01162F60FF04C0CE0160E00E947C1311FF04C0CE0161E01D
:202720000E947C131C821E821A821D821F821B82DF91CF911F910895462F61E00E945513D4
:2027400008959C01FC01E60FF11D8281882321F0C9010E947C130895C9010E949C13089530
:20276000FF920F931F93CF93DF93EC01062FF42E122F0E942B33212F30E0220F331F422FC7
:2027800000FF06C0FC822E83688779878A879B8701FF06C0FD824F836C877D878E879F87DA
:2027A000DF91CF911F910F91FF9008959F92AF92BF92CF92DF92EF92FF920F931F93CF9370
:2027C000DF93982EC92E9C01E9015901DD24F501E084F18402851385E114F10401051105F4
:2027E00009F46CC00E942B336E157F058007910708F464C08C81882331F4892D9C2D6D2D74
:202800000E947C1307C0813041F4892D9C2D6D2D0E949C1300E010E020C0823019F40CE213
:2028200011E01BC0833019F406E910E016C0843019F402E310E011C0853061F78E81843020
:2028400008F01E828E81E82FF0E0EE0FFF1FEC56FE4F008111818F5F8E838C81823070F10E
:20286000892D9C2D6D2D0E94A1130E942B339801442737FD4095542F260F371F481F591FEF
:20288000F50120873187428753878E818823B1F081508E83882329F4892D9C2D6D2D0E9480
:2028A0007C130C591F4FA801662757FD6095762F80914803909149030E94B922D39484E081
:2028C00090E0A80EB91E219692E0D91609F07FCFDF91CF911F910F91FF90EF90DF90CF90A0
:2028E000BF90AF909F900895FF920F931F938C01862FF42EF801608361E00E947433C80106
:2029000060E00E947C13F801F1828F2D61E00E947433C80161E00E947C131F910F91FF907A
:202920000895EF920F93FC016083418322830383E4820F91EF9008950F931F93CF93DF93BE
:20294000EC01162F042F888160E00E94B3338A810E940734892BD9F71EBD0DB407FEFDCF68
:202960008EB50EBD0DB407FEFDCF8EB5888161E00E94B333DF91CF911F910F9108950F9343
:202980001F93CF93DF93EC01062F142F888160E00E94B3338A810E940734892BD9F7102BD4
:2029A0001EBD0DB407FEFDCF8EB51EBC0DB407FEFDCF1EB5888161E00E94B333812FDF9136
:2029C000CF911F910F91089568E340EC0E94BF140895EF92FF920F931F93CF93DF93EC01FA
:2029E000062FF72E142FE22E888160E00E94B3338A810E940734892BD9F7106C1EBD0DB4D5
:202A000007FEFDCF8EB5802F9F2D9C01F90190E007C01EBC0DB407FEFDCF8EB581939F5F98
:202A20009E15B8F3888161E00E94B333DF91CF911F910F91FF90EF900895EF92FF920F93E7
:202A40001F93CF93DF93EC01162F042FF52EE22E888160E00E94B3338A810E940734892BEB
:202A6000D9F710641EBD0DB407FEFDCF8EB5802F9F2D9C01F90190E008C080818EBD0DB40B
:202A800007FEFDCF8EB59F5F31969E15B0F3888161E00E94B333DF91CF911F910F91FF9086
:202AA000EF9008951F93CF93DF93EC01162F888160E00E94B3338A810E940734892BD9F705
:202AC0001EBD0DB407FEFDCF8EB5888161E00E94B333DF91CF911F9108950F931F938C0176
:202AE00066E30E945215C8016AE30E945215C80169E30E9452151F910F9108950F931F9306
:202B0000CF93DF93EC018B016BE340EC0E94BF14282F90E08F779070892B29F127FD23C0D7
:202B2000CE016FE340E80E94BF14282FF80180838D33D0F4B8016F5F7F4FCE014FE30E9408
:202B4000E914CE016FE340E80E94BF14CE016FE340E80E94BF14982F9F779887881F8827AA
:202B6000881F8E8302C0F8011082CE016AE30E945215CE0166E30E945215CE0164E30E9452
:202B80005215CE016CE30E945215F8018081DF91CF911F910F910895EF92FF920F931F938A
:202BA000CF93DF93EC017B01142F66E30E945215CE016AE30E945215CE016BE30E945215F8
:202BC000112371F0CE0165E30E94521580E19EE028EC30E0F9013197F1F70197D9F704C067
:202BE00080ED97E00197F1F7F70120812F5FCE016FE3A7010E941D15CE016AE30E94521588
:202C0000CE0165E30E94521510E00AE1CE0165E340EC0E94BF148D3069F0CE0165E340ECA8
:202C20000E94BF14833131F4802F8A95F1F71F5F183C61F781E0DF91CF911F910F91FF9056
:202C4000EF900895CF93DF93EC01888160E00E94B3338A810E940734892BD9F7888161E010
:202C60000E94B333CE0164E30E94521580E797E10197F1F7CE010E94E41490E026E0959545
:202C800087952A95E1F78170DF91CF9108950F931F93CF93DF93EC01888161E00E9474337B
:202CA000898161E00E9474338A8160E00E9474338B8161E00E9474338C8160E00E947433C0
:202CC000888161E00E94B3338B8161E00E94B333898160E00E94B33380E58CBD888161E083
:202CE0000E94B3338DE08A95F1F7888160E00E94B3338AE18A95F1F7888161E00E94B333C3
:202D00008DE68A95F1F7CE0160E30E94521580E29EE40197F1F700E010E0F801E15BFE4F68
:202D20006491F801E05BFE4FE491CE014E2F0E949C140E5F1F4F0033110579F7CE0163E361
:202D40000E94521512E003C0812F8A95F1F7CE0165E340EC0E94BF148130B1F7CE016EE3CD
:202D600040EC0E949C14CE0164E30E945215CE016CE30E945215DF91CF911F910F910895D2
:202D80009C01F999FECF32BD21BDF89A80B508959C01F999FECF1FBA32BD21BD60BD0FB682
:202DA000F894FA9AF99A0FBE08951F920F920FB60F9211248F9381E0809334048F910F907C
:202DC0000FBE0F901F901895FC01EC51FF4F60830895EF92FF920F931F93CF93DF93CA011E
:202DE0007901E801A62FB0E0FA012281338144815581FD0173E0EE0FFF1F7A95E1F7EA548D
:202E0000FE4F208331834283538323E0AA0FBB1F2A95E1F79D012C543E4FFC01808191818B
:202E2000F90191838083AE54BE4F81E08C9370E0ABE026C07A9FC00111242091350130917A
:202E40003601280F391FF90184918617C1F4A9014F5F5F4FFA018491833030F0F901399699
:202E60008591949199838883FA018491823038F4F901399685919491F701918380837F5F11
:202E8000809132017817B0F2DF91CF911F910F91FF90EF900895DF93CF9300D00F92CDB729
:202EA000DEB7FC01E654FF4F60817291829190E00F900F900F90CF91DF910895FC0184AD19
:202EC00081500895EF92FF920F931F93CF93DF93FF2442C0AF2DB0E0FD0183E0EE0FFF1F3D
:202EE0008A95E1F7EE54FE4F80818823A1F103E0AA0FBB1F0A95E1F7FD01EC54FE4F4081D5
:202F00005181AA54BE4F8C9111969C911197FC01EF0112962C91129713963C9120FF0EC0DD
:202F2000F901F595E795E40FF51F0190F081E02DEC0FFD1F80819181FC01EF0135952795DE
:202F4000CA01820F931F60E040E020E000E010E0EE24FE010995F394809131018F1508F01E
:202F6000B9CFDF91CF911F910F91FF90EF900895DB0111969C91119786E7982711969C93A4
:202F8000119712965C91129742E008C0FD01E20FF31F94528081982790834F5F8C91242F89
:202FA00030E0481798F3FD01E20FF31F8081852780830895DB0111969C91119786E7892754
:202FC00011968C93119742E009C0FD01E20FF31F80819452982790834F5F982F8C91242FF9
:202FE00030E0481790F3FD01E20FF31F808112969C918927808308958F929F92AF92BF92D4
:20300000CF92DF92EF92FF921F93CF93DF93EC01C25BDF4F40E010E0A7E48A2E912C880E68
:20302000991E5E01FFE4CF2ED12CC80ED91EE4E4EE2EF12CE80EF91E212F30E0F901EE0F6B
:20304000FF1FEE0FFF1FE20FF31FEF5AFE4FE081EE23D1F1D4018C91E81711F0EF3F91F5C4
:20306000F901EE0FFF1FEE0FFF1FE20FF31FEF5AFE4F9181F5018081981711F09F3F11F5EA
:20308000F901EE0FFF1FEE0FFF1FE20FF31FEF5AFE4F9281D6018C91981711F09F3F91F44D
:2030A000F901EE0FFF1FEE0FFF1FE20FF31FEF5AFE4FD7016C9169500380F481E02DCE01E5
:2030C000099541E01F5FB8CF842FDF91CF911F91FF90EF90DF90CF90BF90AF909F908F9041
:2030E0000895CF92EF92FF920F931F93CF93DF93EB01F8018081A82FB0E0FD0163E0EE0F0D
:20310000FF1F6A95E1F7EE54FE4F80818823C1F16881FA010081F901108123E0AA0FBB1F47
:203120002A95E1F7FD01EC54FE4F40815181AA54BE4F8C9111969C911197FC01EF011296A1
:203140002C91129713963C9120FF0EC0F901F595E795E40FF51F0190F081E02DEC0FFD1F79
:2031600080819181FC01EF0135952795CA01820F931F402F212F8701EC2CFE01099581E05E
:20318000DF91CF911F910F91FF90EF90CF900895CF92EF92FF920F931F93FC018C01015B58
:2031A0001F4FAC01425B5F4F70E5E72EF12CE80EF91EEC5BFF4FA081E454F040AB50CF012C
:2031C000E95BFF4FBF019801CA2E0E9471181F910F91FF90EF90CF90089520913201E09132
:2031E0003501F091360190E009C08491681761F4319684913197481739F404C09217A8F387
:20320000E0E0F0E0CF0108959F5F3B96F7CF0F931F93022F0E94ED18AC010596FC012591F5
:2032200034914C5F5F4FFA01449180913B0190913C01280F391F409F80011124200F311F52
:20324000C9011F910F91089520913201E0913501F091360190E009C08491681761F432968A
:2032600084913297882339F004C09217A8F3E0E0F0E0CF0108959F5F3B96F7CF1F93142F0D
:203280000E942419FC01009739F0112351F0329684913297181728F040E050E0CA011F9165
:2032A0000895379625913491412F50E0440F551F440F551F8091390190913A01480F591F85
:2032C000420F531FEBCFEF92FF920F931F93CF93DF937C0180914E01882309F449C010E0B9
:2032E00007E038C0109FC0011124C0914F01D0915001C80FD91F8881882331F4C70169819D
:203300004B810E943E190BC0813019F020E030E007C0C70169814A812B810E9407199C0104
:203320006C8140E014C0ED81FE81E40FF11D5491F999FECFC90101961FBA32BD21BD50BD66
:203340000FB6F894FA9AF99A0FBE4F5F9C01461750F31F5F80914E01181708F4C3CF84EF2F
:2033600091E028EC30E0F9013197F1F70197D9F7DF91CF911F910F91FF90EF9008959F92AA
:20338000AF92BF92CF92DF92EF92FF920F931F93CF93DF93EC015A01922E0E942419C05296
:2033A000DF4F99838883C05ED040892B09F448C0C653DF4F80E7888380E28A93C95CD04064
:2033C000FE01E553FF4F95013F77232F330F330BC955DF4F8881879588278795822B80835E
:2033E000A596A9929992199309938F2D9927AA27BB278993E992A701960140705070BB278D
:20340000A52F942F832F89932883C35DD040FE01E855FF4F8181CC52DF4F888321968081D1
:2034200088832A968BE08883CF5DD040FE01EE51FF4F80818F5F8083CD51DF4F81E08883D9
:20344000DF91CF911F910F91FF90EF90DF90CF90BF90AF909F900895FF920F931F93CF93CF
:20346000DF93EC01062FF42E122F0E942419C052DF4F99838883C05ED040892B09F443C02D
:20348000202F30E0CE51DF4FF90183E0EE0FFF1F8A95E1F7EE54FE4F81818883C25ED04045
:2034A000FE01E753FF4F81E0F81611F4108202C080E28083C653DF4F80E48883A39788815F
:2034C000C75AD040811111E0FF2011F480E001C080E4C553DF4F179511271795102B812BD2
:2034E0008993F90113E0EE0FFF1F1A95E1F7EE54FE4F818188838F5F8183639682E088832D
:20350000249681E08883DF91CF911F910F91FF90089581E0809335040895EF92FF920F933B
:20352000CF93DF93E42EE9010E942419AC010596FC01259134914C5F5F4FFA0144918091E2
:203540003B0190913C01280F391F4E9D700111242E0D3F1D2115310541F0C901BE01402F85
:2035600050E028EC36E10E942702DF91CF910F91FF90EF900895CF93DF93E9010E943E1953
:20358000BC01009711F480E008C0CE0144E050E020EC36E10E94CF0181E0DF91CF91089524
:2035A0001F93142F0E9424199C010097D9F00596FC01659174912C5F3F4FF90144913596F4
:2035C0008591949120913B0130913C01620F731F419F90011124620F731F50E020EC36E1C6
:2035E0000E94CF011F910895FF920F931F93CF93DF93EC01F62E0E942419FC010097A9F036
:20360000329610E004910FC0CE016F2D412F0E943E1960EC76E10E94EB0161157105810517
:20362000910521F01F5F101778F31FEF812FDF91CF911F910F91FF900895DF92EF92FF9246
:203640000F931F93CF93DF93EC01062F7A01662311F410E020C00E942419FC010097D1F013
:20366000329610E0D49014C0CE01602F412F0E943E1960EC76E10E94EB01F7012081318117
:2036800042815381621773078407950721F01F5F1D1550F31FEF812FDF91CF911F910F9197
:2036A000FF90EF90DF9008951F93CF93DF93EC01162F0E941D1B482F8F3F81F0CE01612F49
:2036C0000E943E19009751F040E050E060E070E028EC36E10E94430281E001C080E0DF9135
:2036E000CF911F910895EF92FF920F931F93CF93DF93EC01062F7A010E941D1B8F3F11F09D
:203700001EEF19C0CE01602F0E94F41A182F8F3F11F41DEF10C0CE01602F412F0E943E19F8
:20372000009711F41FEF07C0B70144E050E028EC36E10E942702812FDF91CF911F910F9146
:20374000FF90EF900895EF92FF921F93CF93DF937C01EB0111E008C0C701612FAE010E945B
:203760001D1B8F3F31F41F5F809131018117A0F71FEF812FDF91CF911F91FF90EF90089545
:20378000AF92BF92CF92DF92EF92FF920F931F93CF93DF93A22EB02E0E94ED18EC010097B2
:2037A000A1F100913301109134012396FE0184912196FE01F4902497080F111DC8016B2D74
:2037C00070E04F2D50E00E94AC01DC010097E9F0CE010596FC016591749180913B01909181
:2037E0003C01680F791FFA9CC0011124680F791F8A2F801B680F711DC6014E2D50E020EC0B
:2038000036E10E94CF0181E001C080E0DF91CF911F910F91FF90EF90DF90CF90BF90AF9013
:203820000895CF92DF92EF920F931F936C0100E01BE021C0019FC0011124209135013091DD
:203840003601280F391FC9010596FC01659174912C5F3F4FF90144913596859194912091A6
:203860003B0130913C01620F731F50E020EC36E10E94CF010F5F809132010817D8F2C601E4
:2038800060E040E020E00AE053E0E52E35E2C32E31E0D32E0E94C01B1F910F91EF90DF90C3
:2038A000CF9008958F929F92AF92BF92CF92DF92EF92FF920F931F93CF93DF93EC01162FEA
:2038C000C42EA02E4701A9010E941D1BD82E2FEF821711F48FEF53C0CE01612F4C2D0E948F
:2038E000ED18AC01009711F480E049C04D5F5F4FFA01349143505040CA010596FC010591DB
:2039000014914C5F5F4FFA01249180913B0190913C01080F191F2D9DC0011124080F191FF0
:20392000C0913301D0913401C30FD11DBC2EDD24C22E22C07401ED0CF11CF7016081CE01CC
:2039400070E04C2D50E00E94AC019C01009791F0F7016181F999FECF1FBA822F8B1998016A
:20396000280F311D32BD21BD60BD0FB6F894FA9AF99A0FBE32E0D30EDA14E0F281E0DF910F
:20398000CF911F910F91FF90EF90DF90CF90BF90AF909F908F900895AF92BF92CF92DF92BE
:2039A000EF92FF920F931F93CF93DF93EC01F62EE42E6801A9010E941D1B182F8F3F09F4AB
:2039C00072C080917101811729F0109236041093710107C0809136048F3F19F4809371011E
:2039E00008C0CE016F2D4E2D0E94ED18AC01009711F410E058C04D5F5F4FFA013491435074
:203A00005040CA010596FC01C591D4914C5F5F4FFA01249180913B0190913C01C80FD91F75
:203A2000219FC0011124C80FD91F760110E0022FA32EBB2480913604801728F5103199F1EF
:203A40009501280F311DE0913301F0913401E20FF31F8081F70181931E5F80913604BE0159
:203A6000680F711DCF0141E050E020EC36E10E94CF01809136048F5F8093360482E090E033
:203A8000E80EF91ED7CF103170F4F601E10FF11D1082812F8F5FC80ED11CF60110821E5FE0
:203AA0008FEF80933604812FDF91CF911F910F91FF90EF90DF90CF90BF90AF900895BF9213
:203AC000CF92DF92EF92FF920F931F93DF93CF9300D000D0CDB7DEB76C01B62E7A010E94B3
:203AE0002419FC0180913704909138048E179F0751F010923904F0933804E0933704329643
:203B000010E0049117C0809139048F3FC1F7109238041092370410E03AC0F701E10FF11DDA
:203B200060837183828393831C5F809139048F5F80933904409139044017A0F4103138F525
:203B4000C6016B2D0E943E1960EC76E10E94EB0169837A838B839C836115710581059105BE
:203B600021F3DBCF103198F4E10EF11C80914B0390914C03A0914D03B0914E03F7018083E1
:203B80009183A283B3831C5F8FEF80933904812F0F900F900F900F90CF91DF911F910F9121
:203BA000FF90EF90DF90CF90BF900895BF92CF92DF92EF92FF920F931F93DF93CF9300D010
:203BC00000D0CDB7DEB76C01B62E7A01FA0180819181A281B38189839A83AB83BC83C6016E
:203BE0008E010F5F1F4FA8010E94541BF70184818C83C6016B2DA8010E94541B81E00F907B
:203C00000F900F900F90CF91DF911F910F91FF90EF90DF90CF90BF900895CF92DF92EF928C
:203C2000FF920F931F93DF93CF9300D000D0CDB7DEB77C01C62E8A01FA018381882379F003
:203C400080819181A281B38189839A83AB83BC83C701AE014F5F5F4F0E94731BD82EF80162
:203C60004481442341F04C83C7016C2DAE014F5F5F4F0E94731B25E530E0E20EF31EF70169
:203C8000D1927F0180832AEA3FEFE20EF31E8701025B1F4F9701215B3F4FF701ED5AFF4F79
:203CA000C70147E450E0E40EF51EB701A8017F01E4E0CE2E0E94711881E00F900F900F90D2
:203CC0000F90CF91DF911F910F91FF90EF90DF90CF900895CF92DF92EF92FF920F931F9374
:203CE000DF93CF9300D000D00F92CDB7DEB78C01B2E0CB2ED12CCC0EDD1E085B1F4FF801E2
:203D000080819181A281B381085410408A839B83AC83BD83AEE4EA2EF12CE00EF11ED70157
:203D20008C918F708D83C801B6010E94A31B682F882329F18983C801A6010E941D1B482F4E
:203D40008F3FE9F0C80169810E94D01AFFE4CF2ED12CC00ED11E0C5B1F4FD801EC91045460
:203D60001040EA50C801095B1F4FB801A70196018E010F5F1F4F7601CE2E0E9471180F907E
:203D80000F900F900F900F90CF91DF911F910F91FF90EF90DF90CF900895CF93DF93EB014E
:203DA00085E291E06BE473E043E050E00E94B901009759F085E291E0BE0143E050E00E946E
:203DC000B9019C0180E0232B09F481E0DF91CF910895CF93DF93EC018A8185FF0DC0CE0127
:203DE00007966BE473E043E050E00E94B901009719F08091200101C081E08EAF8A8190E029
:203E000024E0959587952A95E1F78170CD5BDF4F8883C354D040BE0168547F4FCE01079693
:203E200043E050E00E94B901009771F4AE014C5B5F4F288130E02F5F3F4FCA01BE01A901CA
:203E40000E94C6011DAE07C081E08DAFEF96188219821A821B82DF91CF910895CF92EF9288
:203E6000FF920F931F93CF93DF93EC015C2D575F5883595069834A832B83DC011496FC01EE
:203E8000E854FF4F83E001900D928150E1F7DE011796F80183E001900D928150E1F79E01FC
:203EA000265F3F4FE216F30631F0C901B701452F50E00E94C601CE010E94E91EDF91CF9106
:203EC0001F910F91FF90EF90CF9008958F929F92AF92BF92CF92DF92EF92FF920F931F936C
:203EE000DF93CF9300D000D00F92CDB7DEB75C01FC0185AD882309F0EDC020EE30E0A20EE9
:203F0000B31EF5012081318140E25FEFA40EB51E80913A0490913B048217930719F582EE32
:203F200090E0A80EB91E90913F04F50180814EE15FEFA40EB51E9817A9F480913E048130D7
:203F400049F5E0913C04F0913D043296E491809140048E17F8F083EE90E0A80EB91EF5012D
:203F60001082B8C030933B0420933A0442EE50E0A40EB51EF50180814EE15FEFA40EB51E66
:203F800080933F041092400410923E0430933D0420933C0480913E04882309F07EC0E09164
:203FA0003C04F0913D043296E491809140048E1708F473C0F50164AD6F5F64AF615029ECEB
:203FC00030E0A20EB31EF501408127E33FEFA20EB31E4268EBECEE2EF12CEA0CFB1CD50143
:203FE000A152BF4FC501EAECF0E0AE0EBF1EF501208105E211E0CC900E942E1F81E080938D
:204000003E0468C02F5F2093400464C081E080933E04E0913C04F0913D0464913196E49133
:204020002F5F209340042150C5014E2F01E0EE24E3946E010894C11CD11C0E94C01BF50195
:2040400064AD6F5F64AF6150898190E08170907074E0880F991F7A95E1F729EC30E0A20EF3
:20406000B31EF501408127E33FEFA20EB31E4268482B5BECE52EF12CEA0CFB1CD501A15295
:20408000BF4FC501EAECF0E0AE0EBF1EF50120818401CC900E942E1F1DC0E0913C04F09197
:2040A0003D04E49132E0832E912C8C0E9D1EC5016E2F4091400494010E94BB1A8A819B81CA
:2040C000AC81BD81209140040097A105B10509F499CF9CCF0F900F900F900F900F90CF9142
:2040E000DF911F910F91FF90EF90DF90CF90BF90AF909F908F900895CF92EF92FF920F9396
:204100001F93DF93CF930F92CDB7DEB7FC0180E889838F01085B1F4FCF01EB5BFF4F608148
:2041200040E822E07E010894E11CF11CCC24C3940E942E1F0F90CF91DF911F910F91FF90AC
:20414000EF90CF900895CF92EF92FF920F931F93DF93CF930F92CDB7DEB7FC0119828C016A
:20416000085B1F4FEB5BFF4F608140E822E07E010894E11CF11CCC24C3940E942E1F0F90D5
:20418000CF91DF911F910F91FF90EF90CF900895CF92EF92FF920F931F93FC0181E08287C7
:2041A00063874487E955FF4F8081E75AF040879588278795822B8587EB56FF4F8081E559DE
:2041C000F04086878F01085B1F4FDF011A96CF01EB5BFF4F608140E822E07D01F5E0CF2EF2
:2041E0000E942E1F1F910F91FF90EF90CF900895CF92EF92FF920F931F93CF93DF93EC01EE
:20420000162F042FF22E85E291E06BE473E043E050E00E94B901009771F186E08A871B87CB
:204220000C87FD86CB56DF4F8881C559D0408E87C95BDF4F8881C754D040813069F4C15B1D
:20424000DF4F8881CF54D0408E3031F4CB5BDF4F6881C554D04004C06CAD6F5F6CAF615034
:20426000CE0144EA20E105E211E02A967E01A5E0CA2E0E942E1FDF91CF911F910F91FF900E
:20428000EF90CF900895CF92EF92FF920F931F93CF93DF93EC014FE4E42EF12CE80EF91EAC
:2042A000F7018081813049F4CE01C25BDF4F68812296AE010E940D1EDEC0823049F4CE0184
:2042C000C25BDF4F68812296AE010E94D61DD3C0833019F5FE01E454FF4FCB5BDF4F888178
:2042E000C554D0408083FE01E054FF4FC25BDF4F8881CE54D0408083DE01A354BF4FFE01A5
:20430000E85BFF4F83E001900D928150E1F7CA53DF4F81E0888322963DC08430E9F5FE01D3
:20432000E454FF4FCB5BDF4F8881C554D0408083FE01E054FF4FC25BDF4F8881CE54D04067
:204340008083FE01EF53FF4FCC5ADF4F8881C455D0408083FE01EE53FF4FC05BDF4F888162
:204360009981AA81BB81C055D04080839183A283B383DE01A354BF4FFE01E85BFF4F83E04E
:2043800001900D928150E1F7CA53DF4F82E08883229681E08883D6C0853031F5FE01E054C4
:2043A000FF4FC25BDF4F8881CE54D0408083FE01EE53FF4FC05BDF4F88819981AA81BB81C5
:2043C000C055D04080839183A283B383FE01EF53FF4FCC5ADF4F88818083CD58DF4F81E0A3
:2043E0008883C158D04048C08630C1F4C953DF4F1882C75CD040CE010E94111C8E01025B75
:204400001F4FCE01C95BDF4FBE01A8019701EE24FF24CC240E9471188A912FC08830A9F55D
:20442000C953DF4F8881C75CD040882351F0C054DF4F6881C257D0408881CE54D0406817FC
:2044400039F08AEC94E06FE771E00E9451317AC0FE01EF53FF4F9E012E533F4FCC5BDF4FB2
:204460000881C454D0400B50CE014081C05BDF4F7E010E94521C2A978881C654D04085FF50
:2044800061C0CE010E94A3205DC08930E1F41A86E0912301F0912401DE011B9633968BE07D
:2044A00001900D928150E1F78E01085B1F4FFE013A96CE01CB5BDF4F688140E820E17F013F
:2044C0003BE0C32E2AC08A3059F50091230110912401B8016D5F7F4FCE01805B9F4F4AE04E
:2044E00050E00E949F01892B69F58AE0E82EF12CEC0EFD1ED701F80181E101900D92815052
:20450000E1F76CAD6F5F6CAF6150CE0142EA20E0C85BDF4F8E01B1E1CB2E0E942E1F12C0E9
:204520008E3081F48E01025B1F4F9E01215B3F4FCE01C95BDF4FBE01A801EE24FF24CC2497
:204540000E947118DF91CF911F910F91FF90EF90CF9008950F931F938C010E942B330554CC
:204560001F4FF801608381E0809341041F910F910895EF92FF920F931F93CF93DF93EC0124
:204580007A018B01CD57DF4F8881C358D040882329F4CE0182579F4F0E942216CD57DF4F04
:2045A00081E088830E942B339B01AC012E0D3F1D401F511FFE01379680819181A281B381AA
:2045C000281739074A075B0720F02083318342835383DF91CF911F910F91FF90EF900895DC
:2045E000EF92FF920F931F93CF93DF93EC018C010E571F4FF8018081813009F4D4C00E9456
:204600002B335AE8E52EF12CEC0EFD1EF7012081318142815381621773078407950708F4BD
:20462000C2C08DAD882309F0BEC0F8019081923009F042C08E010D571F4FF80180818823CF
:2046400031F5CE0182579F4F0E942216882389F00E942B339B01AC01CA57DF4F88819981E5
:20466000C658D040A0E0B0E0280F391F4A1F5B1F04C00E942B339B01AC01CD57DF4F81E0CA
:2046800088832796288339834A835B838CC0813041F5CE0182579F4F0E946D15F8011082C8
:2046A0000E942B3366507F4F8F4F9F4FF701608371838283938377C0933008F474C08E0107
:2046C0000D571F4FF8018081813041F4CE0182579F4F0E946D15F801108265C0923008F400
:2046E00062C0CD57DF4F8881C358D040882309F05AC0CE0189569F4F63E00E948113CE571A
:20470000DF4F9881C258D0409250923028F48091600080648093600010927A00209164006F
:204720008FEF8093640083B7816083BF80E685BF80E485BF889583B78E7F83BF923028F451
:20474000809160008F7B8093600020936400809134048130E9F4109234042091F404309139
:20476000F5044091F6045091F704C857DF4F88819981A0E0B0E0820F931FA41FB51F80932C
:20478000F4049093F504A093F604B093F7040BC0CA57DF4F48815981C658D04060E070E01F
:2047A000CE010E94B922DF91CF911F910F91FF90EF900895CF92EF92FF920F931F93CF93B9
:2047C000DF93EC0189569F4F62E043E020E00E94B013EAE0EE2EF12CEC0EFD1ED7018091E2
:2047E0002301909124019C01F90181E101900D928150E1F76CAD6F5F6CAF6150CE0142EACF
:2048000020E005E211E071E1C72E0E942E1FDF91CF911F910F91FF90EF90CF900895CF92FF
:20482000EF92FF920F931F93CF93DF93EC018DAD882309F05BC0CE0189569F4F61E044E057
:2048400021E00E94B013CA53DF4FF880C65CD04081E0F81659F4FE01E054FF4FAE01455F6D
:204860005F4FCE0160810E945F1D14C0B2E0FB16E9F5FE01E054FF4FDE01AF53BF4F9E0158
:204880002E533F4F8E01055F1F4FCE0160814C910E94CC1C382F882351F4CE0184549F4FA5
:2048A000FC018DE0DF011D928A95E9F71FC0DE01A454BF4F8F3F41F48DE01D928A95E9F71E
:2048C000CE010E947C2012C0FA866C916F5F6C936150FE013A963F5FCE0140EA20E1C35480
:2048E000DF4F8E017F01C32E0E942E1FDF91CF911F910F91FF90EF90CF9008958F929F921F
:20490000AF92BF92CF92DF92EF92FF920F931F93CF93DF93EC010E942B335B016C019DADF9
:204920008EAD891708F495C08E01015C1F4FF80180819181A281B381A816B906CA06DB0660
:2049400008F487C09C2E8D2ECE01BE010E94B81780914A030E945432FE01ED5BFF4FCE01A6
:2049600082579F4FBE0140810E94CC1580914A0369E87AE142E050E00E943132CE01BE017E
:204980000E94DA178DAD8F5F8DAF8091210190912201A0E0B0E08A0D9B1DAC1DBD1DF801AE
:2049A00080839183A283B383CD57DF4F81E088838A91C258D0408823F1F0CA57DF4F88819E
:2049C00099817C0100E010E02496A60195012E0D3F1D401F511F88819981AA81BB81CA5867
:2049E000D04082179307A407B50728F4CE01B801A7010E94B9228AEC94E06DEA71E00E9410
:204A0000513168816F5F892D982D0E943313682F8AEC94E00E9474310E94C412682F8AECAD
:204A200094E00E947431CD51DF4F8881C35ED040813079F4CC51DF4F8881C45ED0408130E0
:204A400041F4CE0189569F4F63E044E021E00E94B0139DAD8EAD891758F480912001981766
:204A600038F41DAEEF96188219821A821B82EF979DAD8EAD8917B0F5FE01FF968081918155
:204A8000A281B381A816B906CA06DB0658F11DAE1082118212821382CD51DF4F8881C35EB9
:204AA000D040813091F48E0109561F4FC80163E00E948113CC51DF4F8881813031F4C8011F
:204AC00062E042E021E00E94B0138AEC94E066EA71E00E9451310E94C412682F8AEC94E064
:204AE0000E947431DF91CF911F910F91FF90EF90DF90CF90BF90AF909F908F9008950F9358
:204B00001F93CF93DF93EC018C01055B1F4FBC0168547F4FC80143E050E00E94B901FE0109
:204B2000E058FF4F009719F48081816002C080818E7F8083C8016BE473E043E050E00E9436
:204B4000B901FE01E058FF4F009719F48081826002C080818D7F8083C058DF4F8881C05856
:204B6000D04080FF05C08AEC94E063E272E00BC081FF05C08AEC94E06FE172E004C08AEC8A
:204B800094E06BE172E00E9451318E010C5B1F4FF80160816F5FC8010E943313682F8AEC15
:204BA00094E00E9474310E94C412682F8AEC94E00E947431C058DF4F8881C058D04080FD06
:204BC00005C081FD03C0F801108299C0CA5BDF4F8881C654D04086FF28C08AEC94E065E0C9
:204BE00072E00E945131FE01EF57FF4FCB5BDF4F90818881C554D040981729F48AEC94E05F
:204C00006CEE71E004C08AEC94E064ED71E00E945131FE01EF57FF4FCB5BDF4F9081888174
:204C2000C554D040981709F467C0BE01685B7F4FCE010E94CD1E882349F0FE01EF57FF4F55
:204C4000CB5BDF4F8881C554D0408083C058DF4F8881C058D04080FD02C081FF43C0CA5B6D
:204C6000DF4F8881C654D04087FF3CC0C95BDF4F8881C754D040813021F4CE010E94432130
:204C800031C08230E9F41DAECD51DF4F8881C35ED040813039F58E0109561F4FC80163E0FC
:204CA0000E948113CC51DF4F8881C45ED0408130C9F4C80161E044E021E00E94B01312C064
:204CC000813121F4CE010E94C8180CC0823120F0CE010E946A1E06C08AEC94E061EB71E0E7
:204CE0000E945131C058DF4F8881C058D04080FF03C0CE010E94FC17CC5BDF4F1882DF91F4
:204D0000CF911F910F9108959F92AF92BF92CF92DF92EF92FF920F931F93CF93DF935C011A
:204D2000C0903501D0903601EE24FF2400E0FBE09F2E0BC0FE016491C7010E9447117C019B
:204D40001F5F21961930B1F70F5F80913201081738F4099DE0011124CC0DDD1D10E0EACFF8
:204D6000809137019091380160EC76E10E941102E816F90609F451C06091390170913A01C6
:204D8000409141015091420120E030E010C0F999FECF1FBAC901860F971F92BD81BD10BC56
:204DA0000FB6F894FA9AF99A0FBE2F5F3F4F2417350768F384EF91E028EC30E0F9013197F6
:204DC000F1F70197D9F760913B0170913C01409143015091440120E030E010C0F999FECF9E
:204DE0001FBAC901860F971F92BD81BD10BC0FB6F894FA9AF99A0FBE2F5F3F4F2417350794
:204E000068F384EF91E028EC30E0F9013197F1F70197D9F7C5010E946319809137019091CF
:204E20003801B70148EC56E10E946902DF91CF911F910F91FF90EF90DF90CF90BF90AF907F
:204E40009F9008950F931F938C01809137019091380160E070E048EC56E10E946902C80131
:204E60000E948426C8010E94111CC80189569F4F62E044E023E00E94B0131F910F910895FD
:204E8000FF920F931F93CF93DF93EC01F62E81E0681719F483B7817F29C0E2E06E1741F5BB
:204EA000CC57DF4F88E99AE38993999388EC90E0998388830E942B33249666507F4F8F4F44
:204EC0009F4F688379838A839B838091600088618093600084E0809360008AEF90E09A9318
:204EE0008A93C858D04083B7817F846083BF13C0F3E06F1781F48091600088618093600097
:204F000084E080936000C857DF4F8AEF90E099838883C858D0408F2D83508230D8F4CC57FD
:204F2000DF4F88E99AE38993999388EC90E0998388830E942B3324966056704F8F4F9F4F07
:204F4000688379838A839B83CA58D04083B7817F846083BF8E010E571F4FF801F0828AEC6A
:204F600094E060E071E00E942E328AEC94E0F80160814AE050E00E941C328AEC94E06AE0E8
:204F80000E947431CD57DF4F81E08883DF91CF911F910F91FF90089580914A030E9454323A
:204FA0008DED93E063E973E00E947E15882331F08FE493E063E973E00E94DA171092350471
:204FC00080914A0369E87AE142E050E00E9431320895CF93DF93EC0180913504882319F014
:204FE000CE010E94CC27CC5BDF4F8881C454D040882319F0CE010E947F258DAD882319F010
:20500000CE010E947E24C853DF4F8881C85CD040882319F0CE010E940F24CD51DF4F88814A
:20502000C35ED040882319F0CE010E94661FCE010E94F022CE010E946217CE0189569F4F8C
:205040000E94D613CE0189559F4F0E94C010809141048823E1F00E942B33C554DF4F2881F6
:20506000621B7109810991096D5271408040904070F0109241042CE088E190E00FB6F89498
:20508000A895809360000FBE20936000FFCFDF91CF910895CF93DF93EC018AEC94E040E07A
:2050A00051EE60E070E00E94A92FCE010E948426CE010E94111CCE0182579F4F0E94471659
:2050C000CD56DF4F8881C359D04080934A0369E87AE142E050E00E943132E0912301F091D1
:2050E0002401DE01A854BF4F719683E001900D928150E1F7CE0189569F4FBE010E945013FF
:205100008FE493E048EE53E060E070E00E94B922DF91CF910895EF92FF920F93CF93DF933E
:20512000EC017B01FB012081222381F18181882319F18D899E8920FF0FC06C8942812CE903
:2051400031E001E00E948D1A8D899E896C89F70143812DE931E025C06C89F70142812DE954
:2051600031E001E00E948D1A8D899E896C89F70143812CE931E015C08D899E896C89F701E1
:2051800042812EE931E001E00E948D1AF7018181882349F08D899E896C8943812EE931E0FE
:2051A00001E00E948D1ADF91CF910F91FF90EF900895DF92EF92FF920F931F93DF93CF93FF
:2051C00000D000D000D0CDB7DEB77C01D62ECA01F701568B458B2DEC3AE240E050E02B831E
:2051E0003C834D835E83FA82E9829701275E3F4F8701095E1F4FAE014F5F5F4F0E94E916A4
:20520000F701D48A26960FB6F894DEBF0FBECDBFCF91DF911F910F91FF90EF90DF900895FB
:205220000F931F938C016170660FFC0182858D7F862B82870E942B33665F7F4F8F4F9F4F1E
:20524000F80163877487858796878285816082871F910F910895FC01858996896489438986
:2052600020E00E94F8200895FC01858996896489438920E00E94C82008951F93CF93DF9347
:20528000EC01162F8D899E8948EE53E060E070E00E94B9221F3F09F451C06C89662359F5F1
:2052A000112369F48D899E890E94DA238D899E8940E25EE460E070E00E94B92238C0123099
:2052C00039F48D899E8989569F4F62E044E008C0163051F48D899E8989569F4F62E040E072
:2052E00020E00E94B01323C0153009F58D899E890E9422271CC0123030F48D899E8940E05C
:2053000020E00E942C1A812F8250823038F48D899E896C8941E020E00E942C1A143039F499
:205320008D899E896C8942E020E00E942C1AE885F985309719F08C89612F0995DF91CF9163
:205340001F910895EF92FF920F931F93CF93DF93EC010E942B337B018C016A8560FF16C1AB
:205360008B859C85AD85BE85E816F9060A071B0708F40CC1862F86958170813009F0B5C0AE
:20538000862F869586958170813009F055C064FF17C08E819F81A0E0B0E02F8538894989B2
:2053A0005A89820F931FA41FB51FE816F9060A071B0730F06F7E6A87CE0166E00E943D29E5
:2053C0006A8563FF13C08A819B81A0E0B0E02F85388949895A89820F931FA41FB51FE81670
:2053E000F9060A071B0710F0677F6A878A8584FD04C083FD02C08E7F8A878A8584FF0CC092
:205400008E819F81A0E0B0E08E0D9F1DA01FB11F8B879C87AD87BE878A8583FFB7C08A81A6
:205420009B81A0E0B0E08E0D9F1DA01FB11F8B879C87AD87BE87AAC0882309F0A7C065FFD3
:2054400005C06F7D6A87CE0164E020C063FF05C0677F6A87CE0161E019C08C819D81A0E025
:20546000B0E02F85388949895A89820F931FA41FB51FE816F9060A071B0750F468606A876B
:205480008A819B81892B21F4CE0160E00E943D298A8583FF0EC08A819B81009751F0A0E027
:2054A000B0E08E0D9F1DA01FB11F8B879C87AD87BE878A8584FF0CC08E819F81A0E0B0E02B
:2054C0008E0D9F1DA01FB11F8B879C87AD87BE87EF86F88A098B1A8B8A85982F990F947086
:2054E0008B7F892B81608A8751C0882309F04EC0862F8695869581708130D1F4EF86F88AF0
:20550000098B1A8B8C819D81A0E0B0E08E0D9F1DA01FB11F8B879C87AD87BE87862F880F37
:2055200084706B7F682B61606A87CE016FEF2CC0882361F565FF11C06F7E6A878CE291E03C
:20554000A0E0B0E0E80EF91E0A1F1B1FEB86FC860D871E87CE0163E017C064FF05C06E7CA4
:205560006A87CE0165E010C060636A878C819D81A0E0B0E08E0D9F1DA01FB11F8B879C874C
:20558000AD87BE87CE0162E00E943D29DF91CF911F910F91FF90EF900895EF920F931F93D9
:2055A000DC01662321F4CD010E94A22954C0613091F52630D1F554968C915497882359F404
:2055C00013961C921E92129788E893E115969C938E9314971BC0ED91FC91119782818F7001
:2055E00024E6829FC001112413969C938E931297808182958F70829FC0011124845D9E4FEC
:2056000015969C938E93149788EE93E017969C938E93169720C06131B1F44230E1F4CD0125
:20562000B8014E2D0E94342916C02E3021F4CD010E942B2910C0213071F4CD01B8014E2DA2
:205640000E948B2808C06E3330F055968D919C9156970E94A3201F910F91EF900895CF9217
:20566000DF92FF920F931F93DF93CF93CDB7DEB729970FB6F894DEBF0FBECDBF6C01F62E4F
:205680008A01862F62E00E947433D60119961C930E9318971A968C911A97887C86601A96A2
:2056A0008C9380E199E2A0E0B0E08E839F83A887B987DD82CC828F2DBE016C5F7F4F0E94DA
:2056C0004E12F6018489882329F0818D928D918380830EC0DE011196EFE9F1E083E001906D
:2056E0000D928150E1F7CE010196D6018D939C93F6018489882349F41382128288E893E1DD
:20570000958384839783868320C0D601ED91FC91119782818F7024E6829FC0011124139611
:205720009C938E931297808182958F70829FC0011124845D9E4F15969C938E93149788EE58
:2057400093E017969C938E93169729960FB6F894DEBF0FBECDBFCF91DF911F910F91FF9077
:20576000DF90CF900895FC01662311F481E081A70895FC01778F668F0895EF92FF920F93C4
:20578000CF93DF93EC017B01FB012081222381F18181882319F18A819B8120FF0FC06981C2
:2057A000428122EA31E000E00E948D1A8A819B816981F701438122EA31E025C06981F7012F
:2057C000428122EA31E000E00E948D1A8A819B816981F701438122EA31E015C08A819B81DA
:2057E0006981F701428122EA31E000E00E948D1AF7018181882349F08A819B81698143810B
:2058000022EA31E000E00E948D1ADF91CF910F91FF90EF900895DF92EF92FF920F931F9350
:20582000DF93CF9300D000D000D0CDB7DEB77C01D62ECA01F701538342832EE73EE240E0D7
:2058400050E02B833C834D835E83FA82E98297012A5F3F4F87010C5F1F4FAE014F5F5F4FF8
:205860000E94E916F701D18226960FB6F894DEBF0FBECDBFCF91DF911F910F91FF90EF900B
:20588000DF9008959F92AF92BF92CF92DF92EF92FF920F931F93DF93CF9300D0CDB7DEB744
:2058A0006C011092BC00FC018485958560E05E010894A11CB11CA50121E00E94760C982EA7
:2058C000882341F569817A81F601848595850E94E5097B018C0120E030E040E251E40E9446
:2058E00012360E942B35F601728F618F8485958561E0A50121E00E94760C69817A81F6016B
:2059000084859585A80197010E940D0A0E943035F601638FF60186859785009709F447C0C1
:2059200063E00E94EC0FF601868597850E94180E2AE030E040E050E00E94CA36CA01B90110
:205940000E945E357B018C01F601668D778D882777FD8095982F0E945E352AE939E949E584
:205960005FE30E94C3349B01AC01C801B7010E945B340E943035F601758F648F6D527140EC
:2059800098F09920A1F0F601868597850E94350D20E030E040E251E40E9412360E942B35E0
:2059A000F601728F618F03C0F601158E148E85E0F601828B0F900F90CF91DF911F910F9139
:2059C000FF90EF90DF90CF90BF90AF909F9008950F931F93DF93CF9300D000D0CDB7DEB7B0
:2059E0008C01BC016F5D7F4FAC014D5D5F4FFC01808991890E942B09F80180A1882381F48E
:205A000081A192A1805D974058F4F80183A194A1805D974028F481E0F801828B80A32EC097
:205A200080E090E0A0E0B0E089839A83AB83BC83F80161A172A143A154A1808991899E0147
:205A40002F5F3F4F0E945208882329F46CE97FEF83E690E00CC069817A818B819C8120E0F0
:205A600030E048EC52E40E9412360E943035F80165A376A387A390A784E0828BF8018089CD
:205A800091890E94D4090F900F900F900F90CF91DF911F910F9108951F93CF93DF93EC01C1
:205AA000888999890E94D909182F882389F18889998961E040E00E947B0988A1882359F4E8
:205AC000888999890E9481081AA219A21CA21BA260E040E019C029A13AA143E0283E3407D4
:205AE00088F48BA19CA143E0883E940758F42436310528F48436910510F461E001C060E0AF
:205B000042E002C060E041E0888999890E948B09812FDF91CF911F910895FC0182819381F6
:205B20006181408120E00E94F8200895FC01828193816181408120E00E94C8200895CF922C
:205B4000DF92EF92FF920F931F936C01FC01828193810E944B177B018C01F60182819381D2
:205B60000E945E1790E00196AA2797FDA095BA2F102F0F2DFE2CEE248E299F29A02BB12BA7
:205B8000BC01CD012DE63EE446EC51E40E947536675C7F4C8F4F9F4F282F30E040E050E080
:205BA00020523E4F4F4F5F4FB901CA011F910F91FF90EF90DF90CF900895CF92DF92EF92F9
:205BC000FF920F931F93CF93DF93EC010E942B337B018C018F89988D009759F0A0E0B0E0E9
:205BE0008E0D9F1DA01FB11F8B8B9C8BAD8BBE8B19C0CE010E949F2D2EEC3FEF4FEF5FEF17
:205C0000E20EF31E041F151F2AEF30E040E050E00E947536E60EF71E081F191FEB8AFC8A03
:205C20000D8B1E8B498D5A8D0C8D1D8DCDA0DEA0EFA0F8A48A819B8169812B8D0E94BF19CA
:205C400081E08A8BDF91CF911F910F91FF90EF90DF90CF900895CF93DF93EC0189A588239B
:205C600051F019A68A89823011F483E08A8B888999890E9481080E942B332B893C894D8935
:205C80005E892115310541055105A9F1621773078407950780F12E5C3F4F4F4F5F4F2B8BD6
:205CA0003C8B4D8B5E8B8A89813091F4CE010E944C2D882311F082E009C088EC90E0A4E6E4
:205CC000B0E08DA39EA3AFA3B8A784E08A8B13C0823089F0833021F4CE010E94E82C0BC083
:205CE000843021F4CE010E94422C05C0853019F4CE010E94DD2DDF91CF910895EF920F936A
:205D00001F93FC01662321F4CF010E942B2E23C0613019F4263059F41EC06131B1F44230C0
:205D2000D1F4CF01B8014E2D0E94962D14C02E3021F4CF010E948D2D0EC0213061F4CF017E
:205D4000B8014E2D0E94BD2B06C06E3320F0828193810E94A3201F910F91EF9008958F9205
:205D60009F92AF92BF92CF92DF92EF92FF920F931F93DF93CF9300D000D000D0CDB7DEB7CB
:205D80004C01B62EA42EFC01308F278B0E942B3368517C4F8F4F9F4FF401638B748B858B50
:205DA000968B81E0828B10A215870487C8016B2D4A2D0E945F0CF4018485958561E00E949B
:205DC000480CE114F10419F0F401F786E686C114D10411F1F401D18AC08AC60169E20E94A4
:205DE000DE09F401808991890E94D9098823A1F08EE062E00E94743383EB9BE2A0E0B0E0F0
:205E00008B839C83AD83BE839A8289828EE0BE016F5F7F4F0E944E1226960FB6F894DEBF48
:205E20000FBECDBFCF91DF911F910F91FF90EF90DF90CF90BF90AF909F908F9008950895F7
:205E40001F920F920FB60F9211242F933F934F938F939F93EF93FF938091C00082FD1DC04A
:205E60004091C60020918204309183042F5F3F4F2F733070809184049091850428173907EC
:205E800071F0E0918204F0918304EE5BFB4F4083309383042093820402C08091C600FF91A0
:205EA000EF919F918F914F913F912F910F900FBE0F901F901895E091D604F091D704E05C58
:205EC000FF4F8191919120813181821B930B8F739070892B11F00E941F2F08951F920F921C
:205EE0000FB60F9211242F933F938F939F93EF93FF932091C6043091C7048091C804909106
:205F0000C9042817390731F48091C1008F7D8093C10014C0E091C804F091C904EA57FB4F74
:205F200020818091C8049091C90401968F7390709093C9048093C8042093C600FF91EF9104
:205F40009F918F913F912F910F900FBE0F901F901895AF92BF92DF92EF92FF920F931F9391
:205F6000CF93DF93EC017A018B01DD24D39491E0A92EB12CEC89FD89DD2069F0C50108A00D
:205F800002C0880F991F0A94E2F7808360E874E88EE190E005C0108260E472E48FE090E023
:205FA000A80197010E94A8362150304040405040569547953795279580E12030380720F0E0
:205FC000DD2011F0DD24D6CFE889F9893083EA89FB89208319A2EE89FF89408121E030E051
:205FE000C9010C8C02C0880F991F0A94E2F7482B4083EE89FF894081C9010D8C02C0880F05
:20600000991F0A94E2F7482B4083EE89FF894081C9010E8C02C0880F991F0A94E2F7482BFC
:206020004083EE89FF8980810F8C02C0220F331F0A94E2F7209528232083DF91CF911F9123
:206040000F91FF90EF90DF90BF90AF900895DC011C96ED91FC911D97E05CFF4F21913191AC
:2060600080819181281B390B2F733070C9010895DC011C96ED91FC911D97E05CFF4F208164
:206080003181E054F040DF01AE5BBF4F8D919C9111972817390719F42FEF3FEF07C08D9143
:2060A0009C91E80FF91F8081282F30E0C9010895DC011C96ED91FC911D97E05CFF4F20815C
:2060C0003181E054F040DF01AE5BBF4F8D919C9111972817390719F42FEF3FEF10C08D91FA
:2060E0009C911197E80FF91F20818D919C91119701968F73907011969C938E9330E0C901BE
:206100000895DC0191968C919197882339F05496ED91FC915597808186FFF9CF91961C92C1
:206120000895CF93DF93EC01EE85FF85E05CFF4F20813181E054F0402F5F3F4F2F7330706B
:20614000DF01AE5BBF4F8D919C91119728173907D1F3E05CFF4F80819181E054F040E80F1A
:20616000F91F6083EE85FF85E05CFF4F31832083EE89FF89208181E090E00F8C02C0880FE7
:20618000991F0A94E2F7282B208381E089A3EC89FD8980818064808381E090E0DF91CF91C9
:2061A00008951092CD041092CC0488EE93E0A0E0B0E08093CE049093CF04A093D004B0933F
:2061C000D10486EA91E09093CB048093CA0482E494E09093D7048093D60486E894E090936C
:2061E000D9048093D80485EC90E09093DB048093DA0484EC90E09093DD048093DC0480ECBC
:2062000090E09093DF048093DE0481EC90E09093E1048093E00482EC90E09093E30480933C
:20622000E20486EC90E09093E5048093E40484E08093E60483E08093E70487E08093E80467
:2062400085E08093E90481E08093EA040895CF92DF92EF92FF920F931F93CF93DF937C0151
:206260006B018A01C0E0D0E00FC0D6016D916D01D701ED91FC910190F081E02DC70109956D
:20628000C80FD91F015010400115110571F7CE01DF91CF911F910F91FF90EF90DF90CF902F
:2062A0000895EF92FF920F931F93CF93DF937C018B01C0E0D0E0F8010F5F1F4F649166235B
:2062C00059F0D701ED91FC910190F081E02DC7010995C80FD91FEFCFCE01DF91CF911F9141
:2062E0000F91FF90EF900895DC01ED91FC910190F081E02D09950895CF93DF93EC016115EA
:20630000710519F420E030E00FC0DB010D900020E9F71197A61BB70BE881F9810280F3819E
:20632000E02DAD0109959C01C901DF91CF9108954F925F927F928F929F92AF92BF92CF9208
:20634000DF92EF92FF920F931F93DF93CF93CDB7DEB7A1970FB6F894DEBF0FBECDBF2C01CD
:20636000742ECB01223008F42AE019A231E2C32ED12CCC0EDD1E822E9924AA24BB24672D18
:20638000752FA50194010E94A83679018A01C801B701A50194010E947536472D461B08941F
:2063A000C108D1084A3014F4405D01C0495CF6014083E114F1040105110521F07E2C5F2DAF
:2063C000C801DDCFC201B6010E947C31A1960FB6F894DEBF0FBECDBFCF91DF911F910F91E1
:2063E000FF90EF90DF90CF90BF90AF909F908F907F905F904F900895DC012115310541F4ED
:20640000ED91FC910190F081E02D642F099508950E9498310895EF92FF920F931F939A018B
:206420007B0100E010E0B801A7010E94FC311F910F91FF90EF900895EF92FF920F931F937F
:206440009A01E62EFF2400E010E0B801A7010E94FC311F910F91FF90EF9008950E947C3120
:206460000895823000F5E82FF0E0EE0FFF1FE451FB4F71836083882319F08130A1F408C0BE
:20648000809169008C7F842B80936900E89A089580916900440F551F440F551F837F842B74
:2064A00080936900E99A0895823080F4882319F0813021F402C0E89801C0E998E82FF0E035
:2064C000EE0FFF1FE451FB4F1182108208951F920F920FB60F9211242F933F934F935F930B
:2064E0006F937F938F939F93AF93BF93EF93FF938091EC049091ED04892B29F0E091EC044B
:20650000F091ED040995FF91EF91BF91AF919F918F917F916F915F914F913F912F910F906C
:206520000FBE0F901F9018951F920F920FB60F9211242F933F934F935F936F937F938F9308
:206540009F93AF93BF93EF93FF938091EE049091EF04892B29F0E091EE04F091EF04099508
:20656000FF91EF91BF91AF919F918F917F916F915F914F913F912F910F900FBE0F901F9001
:20658000189570E0382F20E0622B732BCB010895CF93DF930E9439330E945A03CBE5DFE2B1
:2065A0000E9455032097E1F30E945B2FF9CF1F920F920FB60F9211242F933F934F935F930D
:2065C0006F937F938F939F93AF93BF932091F4043091F5044091F6045091F7047091F804B8
:2065E000DA01C9010296A11DB11D672F6A5F6D3730F06D57DA01C9010396A11DB11D60932E
:20660000F8048093F4049093F504A093F604B093F7048091F0049091F104A091F204B09169
:20662000F3040196A11DB11D8093F0049093F104A093F204B093F304BF91AF919F918F91DE
:206640007F916F915F914F913F912F910F900FBE0F901F9018958FB7F8942091F404309127
:20666000F5044091F6045091F7048FBFB901CA010895789484B5826084BD84B5816084BD47
:2066800085B5826085BD85B5816085BDEEE6F0E0808181608083E1E8F0E0108280818260A8
:2066A0008083808181608083E0E8F0E0808181608083E1EBF0E0808184608083E0EBF0E056
:2066C000808181608083EAE7F0E08081846080838081826080838081816080838081806898
:2066E00080831092C1000895CF93DF93482F50E0CA0186549D4FFC0134914A555D4FFA0183
:206700008491882369F190E0880F991FFC01E857FD4FA591B491FC01EE56FD4FC591D49155
:20672000662351F42FB7F8948C91932F909589238C93888189230BC0623061F42FB7F89471
:206740008C91932F909589238C938881832B88832FBF06C09FB7F8948C91832B8C939FBFCA
:20676000DF91CF910895482F50E0CA0182539D4FFC012491CA0186549D4FFC0194914A5575
:206780005D4FFA013491332309F440C0222351F1233071F0243028F42130A1F0223011F555
:2067A00014C02630B1F02730C1F02430D9F404C0809180008F7703C0809180008F7D809317
:2067C000800010C084B58F7702C084B58F7D84BD09C08091B0008F7703C08091B0008F7DC2
:2067E0008093B000E32FF0E0EE0FFF1FEE56FD4FA591B4912FB7F894662321F48C9190957C
:20680000892302C08C91892B8C932FBF0895682F70E0CB0182539D4FFC012491CB018654C3
:206820009D4FFC0144916A557D4FFB019491992319F420E030E03CC0222351F1233071F0DE
:20684000243028F42130A1F0223011F514C02630B1F02730C1F02430D9F404C08091800045
:206860008F7703C0809180008F7D8093800010C084B58F7702C084B58F7D84BD09C08091EE
:20688000B0008F7703C08091B0008F7D8093B000892F90E0880F991F84569D4FFC01A5917F
:2068A000B4918C9120E030E0842311F021E030E0C90108955058BB27AA270ED075C166D1A0
:2068C00030F06BD120F031F49F3F11F41EF45BC10EF4E095E7FB51C1E92F77D180F3BA1707
:2068E000620773078407950718F071F49EF58FC10EF4E0950B2EBA2FA02D0B01B901900181
:206900000C01CA01A0011124FF27591B99F0593F50F4503E68F11A16F040A22F232F342FFD
