:100000000C9494000C94A02D0C94CD2D0C945810AD
:100010000C9433100C940E100C9486140C94BC00A9
:100020000C94BC000C94BC000C94BC000C94BC0060
:100030000C94BC000C94BC000C94BC000C94BC0050
:100040000C94102E0C94BC000C94B72B0C94052C23
:100050000C94BC000C94BC000C94BC000C94BC0030
:100060000C9422030C94BC0000000000050000006A
:1000700000840101040605010500000089010CF15E
:100080000248423044656661756C7470030100ABD0
:10009000CDEF00631963002E0206030D04E905CAC3
:1000A000063D070C0B060D210E650F5010C811936D
:1000B000120315341601181819161B432156250072
:1000C00026112D353EC300000000240027002A0021
:1000D00000000000250028002B0000000000230085
:1000E0002600290004040404040404040202020299
:1000F00002020303030303030102040810204080EB
:10010000010204081020010204081020000000076A
:1001100000020100000304060000000000000000CF
:10012000A6010B057D10EA2C11241FBECFEFD8E0ED
:10013000DEBFCDBF11E0A0E0B1E0EAEBF4E602C023
:1001400005900D92A437B107D9F714E0A4E7B1E008
:1001500001C01D92A23BB107E1F711E0C8E2D1E076
:1001600004C02297FE010E942032C032D107C9F795
:100170000E94012E0C945B320C940000FB01DC0108
:1001800004C08D910590801921F441505040C8F76A
:10019000881B990B0895FB01DC0102C005900D92AC
:1001A00041505040D8F70895FC014150504030F084
:1001B00001900616D1F73197CF0108958827992726
:1001C0000895FB01DC0104C08D910190801921F498
:1001D00041505040C8F7881B990B0895FB01DC0182
:1001E00002C001900D9241505040D8F70895A0E010
:1001F000B0E0EDEFF0E00C942E327C01EB018A01CF
:10020000690109C0CE012196F6010995F701819394
:100210007F010150104001151105A1F7CDB7DEB7E0
:10022000E8E00C944A32BF92CF92DF92EF92FF92B5
:100230000F931F937B018C01FB010995B82EC80118
:100240000196F7010995C82EC8010296F701099594
:10025000D82EC8010396F7010995982F6B2D7C2D98
:100260008D2D1F910F91FF90EF90DF90CF90BF9059
:100270000895DF92EF92FF920F931F937B018C0101
:10028000FB010995D82EC8010196F7010995982F11
:100290008D2D1F910F91FF90EF90DF900895A0E0BA
:1002A000B0E0E5E5F1E00C942E32EC017B018A012F
:1002B000690109C0CE012196F70161917F01F60124
:1002C00009950150104001151105A1F7CDB7DEB712
:1002D000E8E00C944A32BF92CF92DF92EF92FF9205
:1002E0000F931F93D52EC62EB72E79018C01642F44
:1002F000F9010995C80101966D2DF7010995C8010D
:1003000002966C2DF7010995C80103966B2DF70134
:1003100009951F910F91FF90EF90DF90CF90BF90C4
:100320000895DF92EF92FF920F931F93D72E7A01D9
:100330008C01FA010995C80101966D2DF701099507
:100340001F910F91FF90EF90DF90089588E0E4E710
:10035000F1E0DF01982F1D929A95E9F7109279014B
:100360001092780110927B0110927A01109277011D
:10037000109276013896DF011D928A95E9F7109266
:1003800081011092800110928301109282011092DB
:100390007F0110927E0182EC91E00E94B6050895E3
:1003A0000F931F938C018BE093E00E94461EF8018F
:1003B0008081882321F48BE093E00E948F241F9199
:1003C0000F9108958BE093E00E94CA240895AF92A4
:1003D000BF92CF92DF92EF92FF920F931F9388E12B
:1003E0000FB6F89480936000109260000FBEB9E9D8
:1003F000AB2EB3E0BB2EC5016AE04BE02CE00DE074
:10040000A2E0EA2ECC240E94421289E190E0A80EDC
:10041000B91EC50162E047E021E00F2EFEE9EF2E94
:10042000FFEEFF2EF7E20F2FFEE31F2FF02DF0E17E
:10043000CF2EF7E2DF2E0E94520FC50166E10E9427
:10044000950EEBE0EE2EE3E0FE2EC70163E00E9486
:100450004720C7010E940B250AE811E0C80160E0AF
:10046000A7010E949225C80168E040E050E00E9488
:10047000E82707EC11E0C80161E0A7010E94C0284D
:10048000C80162E143E120E030E005EA11E07BEAE7
:10049000E72E71E0F72E52ECC52E51E0D52E0E94CA
:1004A000462B84B714BE02EA13E0C80164E044E0BE
:1004B0000E942512C80163E043E023E00E9461111D
:1004C0001F910F91FF90EF90DF90CF90BF90AF9072
:1004D0000895382F413210F040E042C08091F00181
:1004E0008823E1F791E09093F0012093F2018FEFE0
:1004F00080935D02109218024150409319024F5FA1
:100500009093F1018091F101330F832B8093F101DE
:100510008091F301813041F41092F3018091F10157
:100520008093BB0085EC01C085EE8093BC00809178
:10053000F0018130E1F380911802841710F44091AA
:10054000180220E030E00AC0FB01E20FF31FD901DE
:10055000A850BE4F8C9180832F5F3F4F2417A0F38C
:10056000842F08950F931F93582F122F413210F0AC
:1005700081E04AC08091F0018823E1F782E0809316
:10058000F0010093F2018FEF80935D021092180248
:1005900040931902A8EFB1E0FB0102C081918D9355
:1005A0008E2F861B8417D0F31092F1018091F101F8
:1005B000550F852B8093F1018091F301813041F437
:1005C0001092F3018091F1018093BB0085EC01C092
:1005D00085EE8093BC00112321F08091F0018230E0
:1005E000E1F380915D028F3F11F480E00DC08091B6
:1005F0005D02803211F482E007C080915D02803399
:1006000011F084E001C083E01F910F910895482FFD
:10061000613210F081E008958091F001843011F092
:1006200082E0089560933B02AAE1B2E0842F9C012E
:10063000F90102C081918D938E2F841B8617D0F310
:1006400080E008951F920F920FB60F9211242F93FE
:100650003F934F935F936F937F938F939F93AF934A
:10066000BF93EF93FF938091B90090E0887F9070E3
:100670008036910509F4F2C081369105CCF58832B7
:10068000910509F47BC089329105B4F4803191055C
:1006900009F46FC0813191053CF4009709F447C11A
:1006A000089709F04FC165C08831910509F466C00B
:1006B000809709F047C182C08034910509F4A4C035
:1006C0008134910544F48033910509F482C0C897C0
:1006D00009F038C189C08035910509F489C0883591
:1006E000910509F496C08834910509F02BC1AEC07C
:1006F0008839910509F413C189399105ECF48837DB
:10070000910509F4ABC0893791054CF48836910501
:1007100009F4A4C08037910509F014C19FC088383E
:10072000910509F4FCC08039910509F49DC0803819
:10073000910509F007C198C0803B910509F4C6C036
:10074000813B91054CF4803A910509F49FC0883AA9
:10075000910509F0F7C0BAC0803C910509F4E3C0E7
:10076000883C910509F4DFC0883B910509F0EAC097
:10077000C2C08091F1018093BB00CFC0909118025C
:1007800080911902981768F490911802E92FF0E00F
:10079000E850FE4F80818093BB009F5F90931802CA
:1007A000BCC08091F201882309F44BC085ED809391
:1007B000BC008091BC0084FDFCCFC2C080E280936D
:1007C0005D0285ED8093BC008091BC0084FDFCCF70
:1007D000B7C080E380935D0285ED8093BC0080917B
:1007E000BC0084FDFCCFACC088E380935D029BC05D
:1007F000809118029091BB00E82FF0E0E850FE4F86
:1008000090838F5F80931802909118028091190253
:1008100082C0809118029091BB00E82FF0E0E85070
:10082000FE4F90838F5F809318028091F20188239E
:1008300041F085ED8093BC008091BC0084FDFCCF2D
:100840007FC081E08093F30184EA6EC085ED8093E0
:10085000BC008091BC0084FDFCCF72C083E080931B
:10086000F00110925C0259C080915C02803208F065
:1008700056C080915C029091BB00E82FF0E0E45CF0
:10088000FD4F90838F5F80935C0247C080915C0234
:10089000803230F4E0915C02F0E0E45CFD4F1082C5
:1008A00085ED8093BC008091BC0084FDFCCF10924C
:1008B000F00160915C02E091F601F091F7018CE3A8
:1008C00092E070E0099510925C022DC084E0809364
:1008D000F00110923A0210923B02E091F401F09183
:1008E000F501099580913B02882329F481E08093EA
:1008F0003B0210921A0290913A02E92FF0E0E65E74
:10090000FD4F80818093BB009F5F90933A0290914E
:100910003A0280913B02981710F485EC01C085E8FB
:100920008093BC000FC085EC8093BC0009C010927E
:100930005D0285ED8093BC008091BC0084FDFCCFFE
:100940001092F001FF91EF91BF91AF919F918F9124
:100950007F916F915F914F913F912F910F900FBEBB
:100960000F901F9018951092F00181E08093F20192
:100970001092F30182E161E00E94EC2E83E161E0DC
:100980000E94EC2EE9EBF0E080818E7F80838081F5
:100990008D7F808380E28093B80085E48093BC00E3
:1009A000089581E08093A302609380021092A102D7
:1009B0001092A202089520917F0230E080917E0281
:1009C000281B3109C901089540917E0280917F0260
:1009D000481718F02FEF3FEF0AC0E42FF0E0E25A7B
:1009E000FD4F8081282F30E04F5F40937E02C90188
:1009F0000895E0917E0280917F02E81718F0EFEFF2
:100A0000FFEF06C0F0E0E25AFD4F8081E82FF0E0F2
:100A1000CF01089508951092A7021092A60288EEC1
:100A200093E0A0E0B0E08093A8029093A902A09385
:100A3000AA02B093AB0289E491E09093A50280935F
:100A4000A4020895CF92DF92EF92FF920F931F932B
:100A5000CF93DF937C016B018A018091A3028823ED
:100A6000A1F0C0E0D0E00DC0D701ED91FC91D6011E
:100A7000AC0FBD1F0190F081E02DC7016C9109956D
:100A80002196C017D10780F304C0CB01642F0E94C8
:100A90000703C801DF91CF911F910F91FF90EF9055
:100AA000DF90CF900895DF93CF930F92CDB7DEB74D
:100AB000FC0169838091A3028823C9F08091A2027E
:100AC000803238F081E090E09383828320E030E050
:100AD00015C08091A102E82FF0E0EF57FD4F9981FA
:100AE00090838F5F8093A1028093A20205C0CE0104
:100AF000019661E00E94070321E030E0C9010F90F8
:100B0000CF91DF9108950F93062F8091800261E8C5
:100B100072E04091A20221E00E94B2021092A10272
:100B20001092A2021092A3020F91089561E00E9418
:100B300083050895413208F040E2862F6EE572E0A9
:100B40000E94690210927E0280937F02089521E044
:100B50000E949A05089510927E0210927F021092D0
:100B6000A1021092A2020E94B304089508956F9208
:100B70007F928F929F92AF92BF92CF92DF92EF922D
:100B8000FF920F931F93CF93DF93FC01EA018181C2
:100B900092818E30910539F417E1E12E15E7F12E9F
:100BA000012D112D0FC08536910531F0E12CB4E0F7
:100BB000FB2E012D112D06C0A7EEEA2EAFE0FA2E76
:100BC000012D112D8381882339F4E4E0EE0CFF1C04
:100BD000001F111FEA95D1F79B0140E050E0C801CA
:100BE000B7010E94AE315B016C015AE0D694C79404
:100BF000B794A7945A95D1F79E0140E050E0C80100
:100C0000B7010E94AE313B014C014AE096948794B3
:100C1000779467944A95D1F7A114B104C104D10423
:100C200029F480E090E0A0E0B0E00FC0C401B3017F
:100C30003AE0660F771F881F991F3A95D1F7A601F2
:100C400095010E94E131C901DA010196A11DB11D92
:100C5000B695A7959795879581349105A105B1051E
:100C600028F462EF71E0CEEBD1E049C08138910504
:100C7000A105B10528F464E172E0C1EDD2E03FC006
:100C8000813C9105A105B10528F46FE372E0CBE743
:100C9000D3E035C0813021E0920720E0A20720E0B8
:100CA000B20728F460E772E0CEEFD3E028C08933C2
:100CB00021E0920720E0A20720E0B20728F46FE6C7
:100CC00071E0CCEFD1E01BC08B3921E0920720E02E
:100CD000A20720E0B20728F462ED70E0CBEFD0E08D
:100CE0000EC08B599240A040B04028F060E070E008
:100CF000C0E0D0E004C068E170E0C2E1D0E080E094
:100D000090E0A60195010E94AE317B018C01BE01ED
:100D100080E090E0A40193010E94AE31E61AF70A48
:100D2000080B190BC801B7010E94953020E030E094
:100D300040E858E30E944B31DF91CF911F910F9112
:100D4000FF90EF90DF90CF90BF90AF909F908F90EB
:100D50007F906F900895CF93DF93FC01E90181812B
:100D60009281833B910518F08FEF9FEF08C0863684
:100D7000910518F089E391E902C087EB93E16817C8
:100D8000790719F04817590751F480E090E0A0E086
:100D9000B0E088839983AA83BB8380E008C0CF0139
:100DA0000E94B705688379838A839B8381E0DF9102
:100DB000CF9108950F931F938C01FC0160817727D9
:100DC00067FD709584EA92E00E94D10484EA92E083
:100DD00060EC0E94530584EA92E00E949605F801B7
:100DE000848390E0882309F491E0892F1F910F916B
:100DF0000895EF92FF920F931F93CF93DF93EC012F
:100E0000062F7A016881772767FD709584EA92E062
:100E10000E94D10410E00F701070006884EA92E024
:100E2000602F0E94530584EA92E00E9496058C830D
:100E30008823C1F46881772767FD709584EA92E082
:100E400041E050E00E94A70584EA92E00E94DB04A2
:100E5000019741F484EA92E00E94E404F701808360
:100E600081E001C080E0DF91CF911F910F91FF9051
:100E7000EF900895EF92FF920F931F93CF93DF931C
:100E8000EC01062F7A016881772767FD709584EA67
:100E900092E00E94D10410E00F701070006884EAA4
:100EA00092E0602F0E94530584EA92E00E9496052A
:100EB0008C83882309F56881772767FD709584EA1C
:100EC00092E042E050E00E94A70584EA92E00E948E
:100ED000DB04029789F484EA92E00E94E404182F6C
:100EE00084EA92E00E94E404612F0E94FA2DF70147
:100EF0009183808381E001C080E0DF91CF911F91D9
:100F00000F91FF90EF9008950F931F93CF93DF936E
:100F1000EC019B018A016CE0A9010E943A07882339
:100F200011F490E00BC0CE016EE0A8010E943A07D8
:100F300090E0882309F491E081E09827892FDF91E0
:100F4000CF911F910F910895DF92EF92FF920F932F
:100F50001F937C01062FD42EFC016081772767FD4B
:100F6000709584EA92E00E94D10410E00F70107036
:100F7000006884EA92E0602F0E94530584EA92E0C0
:100F80006D2D0E94530584EA92E00E949605F701B8
:100F9000848390E0882309F491E0892F1F910F91B9
:100FA000FF90EF90DF90089570E06370707024E020
:100FB000660F771F2A95E1F74F70462B66E00E9477
:100FC000A407811181E00895EF92FF920F931F9380
:100FD000DF93CF930F92CDB7DEB78C01E62EF42EC0
:100FE000FC016383442319F48EE090E006C0F1E035
:100FF0004F1731F485E690E0F8019283818309C0B0
:10100000F2E04F1719F482E991E0F6CFFC01128269
:101010001182C80161E0AE014F5F5F4F0E94F90687
:10102000882399F08981EE2011F0806101C08F7EC4
:1010300089834F2D437089818C7F482B4983C80158
:1010400061E00E94A407811181E00F90CF91DF91B0
:101050001F910F91FF90EF90089560E040E00E9493
:10106000A407089560E043E00E94A4070895FC01EE
:10107000608384EA92E00E94AB050895FC018481BC
:101080009B0140E050E080FF09C0CA01B9010E9405
:1010900095302AE037ED43E25DE308C0CA01B901AB
:1010A0000E9495302AE037ED43E25CE30E944B3129
:1010B0002DEC3CEC4EE152E40E94932FE62F2E2FB4
:1010C000372F482F592FB901CA0108952F923F9207
:1010D0004F925F926F927F928F929F92AF92BF9248
:1010E000CF92DF92EF92FF920F931F9319012A0183
:1010F000FC0184819B0140E050E080FF39C0CA01BF
:10110000B9010E9495307B018C012DEB32E546E15F
:101110005FE30E944B3125EC3EEF42E050E40E9439
:10112000932F5B016C01C801B7012BE335E246ED5B
:1011300059EB0E944B31A80197010E944B319B0152
:10114000AC01C601B5010E94942F3B014C01C201C4
:10115000B10120E030E048EC51E40E94932F5B01A4
:101160006C01C801B7012CEA35EC47EA5AE338C0F4
:10117000CA01B9010E9495307B018C012DEB32E54B
:1011800046E15DE30E944B3125EC3EEF42E050E446
:101190000E94932F5B016C01C801B70126EF34E276
:1011A00046ED55EB0E944B31A80197010E944B314F
:1011B0009B01AC01C601B5010E94942F3B014C017B
:1011C000C201B10120E030E048EC51E40E94932FCD
:1011D0005B016C01C801B7012CEA35EC47EA58E322
:1011E0000E944B312AE037ED43E25CE30E94942FEA
:1011F0009B01AC01C601B5010E944B31A4019301D2
:101200000E94942F7B018C0120E030E048EC52E4F6
:101210000E94473118165CF40F2EF0E0EF2EF0E03C
:10122000FF2EF8EC0F2FF2E41F2FF02D14C0C80191
:10123000B7012DEC3CEC4CEC5DE30E94F82F8823C9
:1012400054F40F2EFDECEF2EFCECFF2EFCEC0F2FD8
:10125000FDE31F2FF02DB701C8011F910F91FF90E3
:10126000EF90DF90CF90BF90AF909F908F907F9046
:101270006F905F904F903F902F900895FF920F9343
:101280001F938C01FC01808161E00E94EC2EF8012B
:10129000808161E00E94AD2E82E0F82E8F2D8A952C
:1012A000F1F7F801818161E00E94EC2E8F2D8A9583
:1012B000F1F7F801808160E00E94EC2E8F2D8A9575
:1012C000F1F7F801818160E00E94EC2E88E08A95B8
:1012D000F1F7F801818161E00E94EC2E8F2D8A9553
:1012E000F1F7F801808161E00E94EC2E8F2D8A9544
:1012F000F1F7F801818160E00E94EC2EFA94F1F799
:101300001F910F91FF9008950F931F93CF93DF9339
:10131000EC01888161E00E94EC2E888161E00E94EE
:10132000AD2E88E08A95F1F710E008E0898161E050
:101330000E94EC2E802F8A95F1F7898160E00E944F
:10134000EC2E802F8A95F1F71F5F193079F7CE01C7
:101350000E943E09DF91CF911F910F910895DF9276
:10136000EF92FF920F931F93CF93DF93EC01E62E42
:1013700018E000E022E0F22E898161E00E94EC2E6C
:1013800092E0D92E8F2D8A95F1F788810E94402F07
:10139000000F082B898160E00E94EC2E8F2D8A952A
:1013A000F1F7115049F7888161E00E94AD2E61E0AC
:1013B0006E2588810E94EC2E8D2D8A95F1F789810A
:1013C00061E00E94EC2E88E08A95F1F7898160E067
:1013D0000E94EC2E8D2D8A95F1F7888160E00E94A5
:1013E000AD2E888161E00E94EC2E802FDF91CF919D
:1013F0001F910F91FF90EF90DF9008950F931F932F
:10140000CF93DF93EC018B0161E00E94AF099D81D6
:10141000982728E031E397FF03C0990F932701C075
:10142000990F2150C1F79D83F80180831182CE016D
:1014300061E00E94AF099D81982748E021E397FF72
:1014400003C0990F922701C0990F4150C1F79D83A6
:10145000282F30E0F801908180E0282B392B318350
:101460002083CE0160E00E94AF09382F90E028E091
:10147000990F832F8170982B36952150C9F78D8154
:10148000981711F480E006C08FEF9FEFF801918369
:10149000808382E0DF91CF911F910F910895DF92B9
:1014A000EF92FF920F931F93CF93DF93EC01F62EF1
:1014B000888161E00E94AD2E10E808E042E0E42E51
:1014C00038E0D32E612F6F2188810E94EC2E8E2D63
:1014D0008A95F1F7898161E00E94EC2E8D2D8A9525
:1014E000F1F7898160E00E94EC2E8E2D8A95F1F74C
:1014F0001695015039F7888160E00E94AD2E8881F1
:1015000061E00E94EC2E898161E00E94EC2E88E06F
:101510008A95F1F788810E94402F8C0182E08A959C
:10152000F1F7898160E00E94EC2E80E0012B09F048
:1015300081E0DF91CF911F910F91FF90EF90DF90AD
:1015400008951F93CF93DF93EC01162F17701C8320
:101550000E943E09CE0166E00E944F0A882321F4D2
:10156000CE01612F0E944F0ADF91CF911F91089504
:101570000F931F938C01842FF801608341831382A2
:101580001282148261E00E94AD2EC8010E9484097B
:10159000C8016EE10E944F0A1F910F910895CF92EA
:1015A000DF92EF92FF921F93CF93DF93EC01162F00
:1015B0006A01F22E2C81277090E038E0990F822F7B
:1015C0008170982B26953150C9F79D83CE010E94DA
:1015D0003E09112311F015E001C013E0CE01612F87
:1015E0000E944F0A882341F59D81912728E031E32D
:1015F00097FF03C0990F932701C0990F2150C1F79E
:101600009D83FF2031F010EF60E7E62E67E1F62EB4
:101610000AC0DB82CA8210C0115011F483E00CC0F2
:10162000C7010197F1F788810E94402F892BA1F70C
:10163000CE01B6010E94FE09DF91CF911F91FF906C
:10164000EF90DF90CF900895EF92FF920F931F934A
:10165000162F042F84EAE82E82E0F82EC70167E7F0
:1016600070E00E94D104C701612F0E945305C70199
:10167000602F0E945305C7010E9496051F910F918C
:10168000FF90EF900895CF92DF92EF92FF920F9329
:101690001F93162F94EAE92E92E0F92EC70167E70F
:1016A00070E00E94D104C701612F0E945305C70159
:1016B0000E949605C70167E770E00E94D104C70148
:1016C00067E770E042E050E00E94A705C7010E9472
:1016D000E404182F00E0C7010E94E4046C01C70174
:1016E0000E9496050C291D29C8011F910F91FF909A
:1016F000EF90DF90CF9008950F931F938C0164EFCC
:101700004EE20E94240B80E197E20197F1F7C801B5
:1017100066EF0E94430B1F910F910895CF92DF92C5
:10172000EF92FF920F931F936C010E947C0BA0E03D
:10173000B0E0F6012589368940E050E0821B930B2A
:10174000A40BB50B2389348940E050E0BC01CD01E6
:101750000E94AE317B018C01FFE015950795F7944F
:10176000E794FA95D1F7D6011D966D917C911E975D
:10177000882777FD8095982FEBE0660F771F881FED
:10178000991FEA95D1F71F962D913C9150974427C8
:1017900037FD4095542F2E0D3F1D401F511F0E94B5
:1017A000033288E090E0A0E0B0E0E80EF91E0A1FE6
:1017B0001B1F2E0D3F1D401F511F64E0559547957F
:1017C000379527956A95D1F7CA01B9010E949730DC
:1017D00020E030E040E251E40E94FC2F1F910F9185
:1017E000FF90EF90DF90CF900895EF92FF921F93BC
:1017F000162FA4EAEA2EA2E0FA2EC70167E770E0EE
:101800000E94D104C701612F0E945305C7010E94A5
:101810009605C70167E770E00E94D104C70167E73A
:1018200070E041E050E00E94A705C7010E94E40477
:10183000182FC7010E949605812F1F91FF90EF90EE
:101840000895EF92FF920F931F93CF93DF93EC01D4
:1018500048814295440F440F407C4C5C64EF0E94E9
:10186000240B8881882319F480E197E20CC0813031
:1018700019F480E89EE307C0823019F480E69DE603
:1018800002C080E29BEC0197F1F7CE0166EF0E9467
:10189000430B7C0100E010E0102F0F2DFE2CEE24F6
:1018A000CE0168EF0E94F50B282F30E040E050E0B9
:1018B0002E293F29402B512B688188E090E0861B20
:1018C000910904C056954795379527958A95D2F783
:1018D000B901CA01DF91CF911F910F91FF90EF9055
:1018E00008952F923F924F925F926F927F928F92C4
:1018F0009F92AF92BF92CF92DF92EF92FF920F939F
:101900001F93DF93CF93CDB7DEB72C970FB6F89424
:10191000DEBF0FBECDBF4C010E947C0B7C01C40119
:101920000E94210C2B013C0100E010E0D4015596EF
:101930008D919C915697A0E0B0E0E81AF90A0A0B45
:101940001B0BF4012389348940E050E0C801B70142
:101950000E94AE315B016C01FFE0D594C794B7944F
:10196000A794FA95D1F7D4011F96ED90FC9050976B
:101970000027F7FC0095102FEA0CFB1C0C1D1D1D09
:10198000C801B70122E030E040E050E00E9403329D
:10199000F40165857685882777FD8095982FEBE0A3
:1019A000660F771F881F991FEA95D1F7621B730B8B
:1019B000840B950BA6019501205A3F4040405040B2
:1019C00029833A834B835C83A80197010E940332E9
:1019D00089819A81AB81BC81820F931FA41FB51F9F
:1019E00089839A83AB83BC83BC01CD019B01AC018D
:1019F0000E94AE319B01AC016CE05595479537953F
:101A000027956A95D1F72F83388749875A87D4015C
:101A1000DC901596ED91FC911697FC87EB87179655
:101A20002D903C90189751962D913C9152973E8362
:101A30002D8313962D913C911497442737FD4095A3
:101A4000542F69817A818B819C810E94AE317B0108
:101A50008C013BE015950795F794E7943A95D1F7FB
:101A6000D40111968D919C911297AA2797FDA0956C
:101A7000BA2F22E0880F991FAA1FBB1F2A95D1F702
:101A8000E80EF91E0A1F1B1FF40121853285442729
:101A900037FD4095542F6F81788589859A850E94FE
:101AA000AE31BBE09595879577956795BA95D1F757
:101AB000E60EF71E081F191F0D2C04C0EE0CFF1CAC
:101AC000001F111F0A94D2F722E030E040E050E0FE
:101AD000E20EF31E041F151FC801B70124E030E019
:101AE00040E050E00E94033279018A014E185F08FD
:101AF000600A710A20E533EC40E050E004C05695DE
:101B0000479537952795DA94D2F7C301B2010E9421
:101B1000AE315B016C01AA0CBB1CCC1CDD1C97FD1B
:101B200056C08B859C859C01442737FD4095542FDA
:101B300069817A818B819C810E94AE317B018C010D
:101B4000FDE015950795F794E794FA95D1F722E013
:101B500030E040E050E0E20EF31E041F151F91013B
:101B6000442737FD4095542F6F81788589859A8564
:101B70000E94AE31BC01992777FD9095892FE60E22
:101B8000F71E081F191F72E015950795F794E79443
:101B90007A95D1F780E090E8A0E0B0E0E80EF91E79
:101BA0000A1F1B1FAD81BE819D0140E050E0C801AE
:101BB000B7010E94AE319B01AC016FE0569547958D
:101BC000379527956A95D1F7C601B50104C0C601BE
:101BD000B501A80197010E94E131C901DA015C0158
:101BE0006D015527D7FC5A954D2D3C2D2B2DCA0143
:101BF000B9010E94AE312EED3BE040E050E00E9482
:101C0000AE317B018C01C601B50123E433EE4FEF09
:101C10005FEF0E94AE319B01AC019A01552737FD61
:101C20005095452F2153314F4F4F5F4F780111276A
:101C3000F7FC1095012F2E0D3F1D401F511F14E082
:101C400055954795379527951A95D1F72A0D3B1D40
:101C50004C1D5D1DB901CA012C960FB6F894DEBF6C
:101C60000FBECDBFCF91DF911F910F91FF90EF90ED
:101C7000DF90CF90BF90AF909F908F907F906F90AC
:101C80005F904F903F902F900895CF93DF93EC019A
:101C9000643008F063E0688384EA92E00E94AB0558
:101CA000CE016AEA0E94430B9A838983CE016CEAD3
:101CB0000E94430B9C838B83CE016EEA0E94430BF0
:101CC0009E838D83CE0160EB0E94430B9A8B898BA0
:101CD000CE0162EB0E94430B9C8B8B8BCE0164EB9D
:101CE0000E94430B9E8B8D8BCE0166EB0E94430BB3
:101CF00098878F83CE0168EB0E94430B9A87898770
:101D0000CE016AEB0E94430B9C878B87CE016CEB64
:101D10000E94430B9E878D87CE016EEB0E94430B82
:101D2000988B8F87DF91CF910895FC01608B089588
:101D3000462B40937C0086E880937A0020E030E0D8
:101D400040E050E080917A00806480937A00809136
:101D50007A0086FDFCCF4A30510534F0809178003E
:101D600090917900280F391F4F5F5F4F4A3451051A
:101D700049F780917A008F7780937A0086E03695D4
:101D800027958A95E1F7C901089560E44EE00E9425
:101D9000980E9C0140E050E064EB7BE281E190E032
:101DA0000E94E131C9010895CF92DF92EF92FF9234
:101DB0000F931F936C01FC01848161E00E94AD2EA2
:101DC000F601848160E00E94EC2EC60160ECF60111
:101DD00045810E94980EA0E0B0E0BC01CD012CE44A
:101DE00034E040E050E00E94AE312FEF33E040E0BD
:101DF00050E00E94E131CA01B9010E949530F6011C
:101E000026813781408551850E94FC2F7B018C0102
:101E1000F601848160E00E94AD2EC801B7010E94E6
:101E20006930CB011F910F91FF90EF90DF90CF9021
:101E30000895CF93DF93EC010E94642E9B01AC01C7
:101E40008B81882361F18C859D85AE85BF852817A0
:101E500039074A075B0718F1CE010E94C50ECE0173
:101E60000E94D40E9C0140E064E670E00E94CD31F7
:101E7000888990E06817790708F441E048833A833D
:101E800029830E94642E2A853B8540E050E0260F7E
:101E9000371F481F591F2C873D874E875F87DF916B
:101EA000CF9108959F92AF92BF92CF92DF92EF921F
:101EB000FF920F931F93CF93DF93EC01962EB42ED6
:101EC000A22E0E94642E9B82BC82AD82EE82FF8293
:101ED00008871987DB86CA86992021F06C877D8761
:101EE0008E879F878C81882319F060E00E94AD2E39
:101EF000DF91CF911F910F91FF90EF90DF90CF90E6
:101F0000BF90AF909F90089570E06827792720E0F8
:101F100041E050EACB019695879560FF04C0BC0173
:101F20006427752701C0BC012F5F283099F7CB01CA
:101F30000895EF92FF920F931F93E82EF89490E08C
:101F4000FC01EE0FFF1FDF01A25CBE4F0D90BC91A4
:101F5000A02D2C91E85CFE4F0190F081E02D3081A6
:101F6000322380559D4FDC010C9103273C930023C5
:101F700011F478944EC08081FF24381710F0FF24AC
:101F8000F39410E040C0A12FB0E0FD0143E0EE0F5C
:101F9000FF1F4A95E1F7ED54FD4F80818E1591F5B5
:101FA0008181801779F533E0AA0FBB1F3A95E1F7DD
:101FB000FD01EB54FD4F60817181A954BD4F8C919F
:101FC00011969C911197FC01AF0112962C911297DA
:101FD00013963C9120FF0EC0F901F595E795E60FA9
:101FE000F71F0190F081E02DE40FF51F80819181B2
:101FF000FC01AF0135952795CB01820F931F6F2D03
:10200000FA0109951F5F80910303181708F4BBCFED
:1020100078941F910F91FF90EF9008951F920F9267
:102020000FB60F9211242F933F934F935F936F93AB
:102030007F938F939F93AF93BF93EF93FF9382E030
:102040000E94990FFF91EF91BF91AF919F918F9156
:102050007F916F915F914F913F912F910F900FBEA4
:102060000F901F9018951F920F920FB60F92112488
:102070002F933F934F935F936F937F938F939F9390
:10208000AF93BF93EF93FF9381E00E94990FFF916D
:10209000EF91BF91AF919F918F917F916F915F91E0
:1020A0004F913F912F910F900FBE0F901F90189559
:1020B0001F920F920FB60F9211242F933F934F93BD
:1020C0005F936F937F938F939F93AF93BF93EF93A0
:1020D000FF9380E00E94990FFF91EF91BF91AF9124
:1020E0009F918F917F916F915F914F913F912F9130
:1020F0000F900FBE0F901F901895E5EBF2E0118244
:1021000010821382128215821482389683E0E530A1
:10211000F807A9F70895FF920F931F93CF93DF93CA
:10212000082FEB01883010F412E00CC08850863084
:1021300010F410E007C0802F8E50863010F01FEF93
:1021400001C011E0A0910303AF5FA0930303B0E0CF
:1021500011972A813B814C815D81FD0183E0EE0F67
:10216000FF1F8A95E1F7E954FD4F208331834283B5
:102170005383E3E0AA0FBB1FEA95E1F7FD01EB549F
:10218000FD4F8881998191838083AD54BD4F1C930D
:10219000E02FF0E0E850FF4FF4901196FC92802F72
:1021A00062E00E94AD2E412F50E0DA01AA0FBB1F62
:1021B000BD01685C7E4FEB01E881F98180818F2948
:1021C00080832091680081E090E002C0880F991F11
:1021D0001A95E2F7282B20936800A25CBE4FED9180
:1021E000FC919081E881F9818081892340555D4F80
:1021F000FA0180837894DF91CF911F910F91FF9026
:10220000089570930503609304030895DF92EF929D
:10221000FF920F931F93CF93DF937C01D62EC42F91
:10222000D0E08C010C0F1D1FF80180810E94EC2E64
:10223000F801D2822296CC0FDD1FCC0FDD1FCE0D10
:10224000DF1D188219821A821B82DF91CF911F91A4
:102250000F91FF90EF90DF900895462F60E00E946D
:10226000061108951F93CF93DF93EC01162F60FFA3
:1022700004C0CE0160E00E942D1111FF04C0CE0108
:1022800061E00E942D111C821E821A821D821F8213
:102290001B82DF91CF911F910895462F61E00E942C
:1022A000061108959C01FC01E60FF11D828188232F
:1022B00021F0C9010E942D110895C9010E944D11FC
:1022C0000895FF920F931F93CF93DF93EC01062F96
:1022D000F42E122F0E94642E212F30E0220F331F84
:1022E000422F00FF06C0FC822E83688779878A8789
:1022F0009B8701FF06C0FD824F836C877D878E8799
:102300009F87DF91CF911F910F91FF9008959F922A
:10231000AF92BF92CF92DF92EF92FF920F931F93F3
:10232000CF93DF93982EC92E9C01E9015901DD243A
:10233000F501E084F18402851385E114F1040105BF
:10234000110509F46CC00E94642E6E157F0580078C
:10235000910708F464C08C81882331F4892D9C2D69
:102360006D2D0E942D1107C0813041F4892D9C2DC7
:102370006D2D0E944D1100E010E020C0823019F454
:102380000CE211E01BC0833019F406E910E016C01E
:10239000843019F402E310E011C0853061F78E81BA
:1023A000843008F01E828E81E82FF0E0EE0FFF1FD0
:1023B000EB5AFE4F008111818F5F8E838C818230BA
:1023C00070F1892D9C2D6D2D0E9452110E94642E5A
:1023D0009801442737FD4095542F260F371F481F7B
:1023E000591FF50120873187428753878E818823C3
:1023F000B1F081508E83882329F4892D9C2D6D2D79
:102400000E942D110C591F4FA801662757FD60959A
:10241000762F80910403909105030E94B520D394F8
:1024200084E090E0A80EB91E219692E0D91609F03A
:102430007FCFDF91CF911F910F91FF90EF90DF90B1
:10244000CF90BF90AF909F900895FF920F931F93EE
:102450008C01862FF42EF801608361E00E94AD2E7E
:10246000C80160E00E942D11F801F1828F2D61E01A
:102470000E94AD2EC80161E00E942D111F910F91A5
:10248000FF900895EF920F93FC01608341832283B4
:102490000383E4820F91EF9008950F931F93CF93DE
:1024A000DF93EC01162F042F888160E00E94EC2E50
:1024B0008A810E94402F892BD9F71EBD0DB407FEDB
:1024C000FDCF8EB50EBD0DB407FEFDCF8EB5888154
:1024D00061E00E94EC2EDF91CF911F910F91089542
:1024E0000F931F93CF93DF93EC01062F142F888156
:1024F00060E00E94EC2E8A810E94402F892BD9F740
:10250000102B1EBD0DB407FEFDCF8EB51EBC0DB445
:1025100007FEFDCF1EB5888161E00E94EC2E812F61
:10252000DF91CF911F910F91089568E340EC0E94D5
:1025300070120895EF92FF920F931F93CF93DF9342
:10254000EC01062FF72E142FE22E888160E00E9406
:10255000EC2E8A810E94402F892BD9F7106C1EBD6A
:102560000DB407FEFDCF8EB5802F9F2D9C01F90184
:1025700090E007C01EBC0DB407FEFDCF8EB5819361
:102580009F5F9E15B8F3888161E00E94EC2EDF9179
:10259000CF911F910F91FF90EF900895EF92FF92CE
:1025A0000F931F93CF93DF93EC01162F042FF52E7B
:1025B000E22E888160E00E94EC2E8A810E94402FEA
:1025C000892BD9F710641EBD0DB407FEFDCF8EB563
:1025D000802F9F2D9C01F90190E008C080818EBD65
:1025E0000DB407FEFDCF8EB59F5F31969E15B0F3FB
:1025F000888161E00E94EC2EDF91CF911F910F91B5
:10260000FF90EF9008951F93CF93DF93EC01162F67
:10261000888160E00E94EC2E8A810E94402F892BE5
:10262000D9F71EBD0DB407FEFDCF8EB5888161E0E0
:102630000E94EC2EDF91CF911F9108950F931F936D
:102640008C0166E30E940313C8016AE30E9403132E
:10265000C80169E30E9403131F910F9108950F931E
:102660001F93CF93DF93EC018B016BE340EC0E944F
:102670007012282F90E08F779070892B29F127FD19
:1026800023C0CE016FE340E80E947012282FF801AA
:1026900080838D33D0F4B8016F5F7F4FCE014FE35D
:1026A0000E949A12CE016FE340E80E947012CE01A0
:1026B0006FE340E80E947012982F9F779887881FD9
:1026C0008827881F8E8302C0F8011082CE016AE33A
:1026D0000E940313CE0166E30E940313CE0164E35C
:1026E0000E940313CE016CE30E940313F801808162
:1026F000DF91CF911F910F910895EF92FF920F9369
:102700001F93CF93DF93EC017B01142F66E30E94AC
:102710000313CE016AE30E940313CE016BE30E9410
:102720000313112371F0CE0165E30E94031380E1CE
:102730009EE028EC30E0F9013197F1F70197D9F7E5
:1027400004C080ED97E00197F1F7F70120812F5F3A
:10275000CE016FE3A7010E94CE12CE016AE30E9470
:102760000313CE0165E30E94031310E00AE1CE01DA
:1027700065E340EC0E9470128D3069F0CE0165E394
:1027800040EC0E947012833131F4802F8A95F1F76A
:102790001F5F183C61F781E0DF91CF911F910F918E
:1027A000FF90EF900895CF93DF93EC01888160E074
:1027B0000E94EC2E8A810E94402F892BD9F78881B4
:1027C00061E00E94EC2ECE0164E30E94031380E7D7
:1027D00097E10197F1F7CE010E94951290E026E073
:1027E000959587952A95E1F78170DF91CF910895AE
:1027F0000F931F93CF93DF93EC01888161E00E94D8
:10280000AD2E898161E00E94AD2E8A8160E00E9438
:10281000AD2E8B8161E00E94AD2E8C8160E00E9424
:10282000AD2E888161E00E94EC2E8B8161E00E94D8
:10283000EC2E898160E00E94EC2E80E58CBD8881C1
:1028400061E00E94EC2E8DE08A95F1F7888160E0CE
:102850000E94EC2E8AE18A95F1F7888161E00E945E
:10286000EC2E8DE68A95F1F7CE0160E30E9403130A
:1028700080E29EE40197F1F700E010E0F801EA56EB
:10288000FF4F6491F801E956FF4FE491CE014E2FBE
:102890000E944D120E5F1F4F0033110579F7CE01D4
:1028A00063E30E94031312E003C0812F8A95F1F7BE
:1028B000CE0165E340EC0E9470128130B1F7CE0189
:1028C0006EE340EC0E944D12CE0164E30E940313BC
:1028D000CE016CE30E940313DF91CF911F910F9102
:1028E00008959C01F999FECF32BD21BDF89A80B5BB
:1028F00008959C01F999FECF1FBA32BD21BD60BD7C
:102900000FB6F894FA9AF99A0FBE08951F920F9293
:102910000FB60F9211248F9381E08093EE038F9175
:102920000F900FBE0F901F901895EF92FF920F938C
:102930001F93CF93DF93CA017901E801A62FB0E07E
:10294000FA012281338144815581FD0173E0EE0F4C
:10295000FF1F7A95E1F7E858FE4F208331834283C9
:10296000538323E0AA0FBB1F2A95E1F79D012A5844
:102970003E4FFC0180819181F90191838083AC58A5
:10298000BE4F81E08C9370E0ABE026C07A9FC0011F
:1029900011242091120130911301280F391FF901E0
:1029A00084918617C1F4A9014F5F5F4FFA018491AA
:1029B000833030F0F9013996859194919983888319
:1029C000FA018491823038F4F90139968591949115
:1029D000F701918380837F5F80910F017817B0F2B8
:1029E000DF91CF911F910F91FF90EF900895DF93AA
:1029F000CF9300D00F92CDB7DEB7FC01E654FF4F66
:102A000060817291829190E00F900F900F90CF9122
:102A1000DF910895FC0184AD81500895EF92FF92FB
:102A20000F931F93CF93DF93FF2442C0AF2DB0E0ED
:102A3000FD0183E0EE0FFF1F8A95E1F7EC58FE4F92
:102A400080818823A1F103E0AA0FBB1F0A95E1F75B
:102A5000FD01EA58FE4F40815181A858BE4F8C912C
:102A600011969C911197FC01EF0112962C911297EF
:102A700013963C9120FF0EC0F901F595E795E40F00
:102A8000F51F0190F081E02DEC0FFD1F80819181F9
:102A9000FC01EF0135952795CA01820F931F60E075
:102AA00040E020E000E010E0EE24FE010995F39400
:102AB00080910E018F1508F0B9CFDF91CF911F9152
:102AC0000F91FF90EF900895DB0111969C91119763
:102AD00086E7982711969C93119712965C9112970E
:102AE00042E008C0FD01E20FF31F94528081982755
:102AF00090834F5F8C91242F30E0481798F3FD01AD
:102B0000E20FF31F8081852780830895DB011196F2
:102B10009C91119786E7892711968C93119742E033
:102B200009C0FD01E20FF31F808194529827908322
:102B30004F5F982F8C91242F30E0481790F3FD01C0
:102B4000E20FF31F808112969C918927808308955C
:102B50008F929F92AF92BF92CF92DF92EF92FF92AD
:102B60001F93CF93DF93EC01C25BDF4F40E010E097
:102B7000A7E48A2E912C880E991E5E01FFE4CF2EC9
:102B8000D12CC80ED91EE4E4EE2EF12CE80EF91E6D
:102B9000212F30E0F901EE0FFF1FEE0FFF1FE20FB4
:102BA000F31FE25DFE4FE081EE23D1F1D4018C9161
:102BB000E81711F0EF3F91F5F901EE0FFF1FEE0F4F
:102BC000FF1FE20FF31FE25DFE4F9181F50180814F
:102BD000981711F09F3F11F5F901EE0FFF1FEE0F4F
:102BE000FF1FE20FF31FE25DFE4F9281D6018C9131
:102BF000981711F09F3F91F4F901EE0FFF1FEE0FB0
:102C0000FF1FE20FF31FE25DFE4FD7016C91695089
:102C10000380F481E02DCE01099541E01F5FB8CF1C
:102C2000842FDF91CF911F91FF90EF90DF90CF9095
:102C3000BF90AF909F908F900895CF92EF92FF92A8
:102C40000F931F93CF93DF93EB01F8018081A82F9F
:102C5000B0E0FD0163E0EE0FFF1F6A95E1F7EC586D
:102C6000FE4F80818823C1F16881FA010081F9015A
:102C7000108123E0AA0FBB1F2A95E1F7FD01EA5856
:102C8000FE4F40815181A858BE4F8C9111969C9166
:102C90001197FC01EF0112962C91129713963C911B
:102CA00020FF0EC0F901F595E795E40FF51F01909F
:102CB000F081E02DEC0FFD1F80819181FC01EF017F
:102CC00035952795CA01820F931F402F212F870129
:102CD000EC2CFE01099581E0DF91CF911F910F91BE
:102CE000FF90EF90CF900895CF92EF92FF920F93C5
:102CF0001F93FC018C01015B1F4FAC01425B5F4FD6
:102D000070E5E72EF12CE80EF91EEC5BFF4FA08179
:102D1000E454F040AB50CF01E95BFF4FBF01980195
:102D2000CA2E0E941D161F910F91FF90EF90CF9019
:102D3000089520910F01E0911201F091130190E0AC
:102D400009C08491681761F43196849131974817CE
:102D500039F404C09217A8F3E0E0F0E0CF01089541
:102D60009F5F3B96F7CF0F931F93022F0E949916F8
:102D7000AC010596FC01259134914C5F5F4FFA013F
:102D800044918091180190911901280F391F409F9B
:102D900080011124200F311FC9011F910F91089547
:102DA00020910F01E0911201F091130190E009C010
:102DB0008491681761F4329684913297882339F0B0
:102DC00004C09217A8F3E0E0F0E0CF0108959F5F00
:102DD0003B96F7CF1F93142F0E94D016FC0100974B
:102DE00039F0112351F0329684913297181728F058
:102DF00040E050E0CA011F91089537962591349123
:102E0000412F50E0440F551F440F551F809116016C
:102E100090911701480F591F420F531FEBCFEF92AC
:102E2000FF920F931F93CF93DF937C0180912B012F
:102E3000882309F440C010E007E038C0109FC001AB
:102E40001124C0912C01D0912D01C80FD91F888168
:102E5000882331F4C70169814B810E94EA160BC0B7
:102E6000813019F020E030E007C0C70169814A8154
:102E70002B810E94B3169C016C8140E014C0ED814F
:102E8000FE81E40FF11D5491F999FECFC90101961D
:102E90001FBA32BD21BD50BD0FB6F894FA9AF99A07
:102EA0000FBE4F5F9C01461750F31F5F80912B01AF
:102EB000181708F4C3CFDF91CF911F910F91FF90A6
:102EC000EF9008959F92AF92BF92CF92DF92EF92D0
:102ED000FF920F931F93CF93DF93EC015A01922E31
:102EE0000E94D016C152DF4F99838883CF5DD040B6
:102EF000892B09F448C0C753DF4F80E7888380E2FD
:102F00008A93C85CD040FE01E653FF4F95013F779E
:102F1000232F330F330BC955DF4F888187958827BF
:102F20008795822B8083A496A992999219930993ED
:102F30008F2D9927AA27BB278993E992A70196018C
:102F400040705070BB27A52F942F832F899328831F
:102F5000C25DD040FE01E855FF4F8181CD52DF4F69
:102F600088832196808188832A968BE08883CE5D32
:102F7000D040FE01EF51FF4F80818F5F8083CE51A3
:102F8000DF4F81E08883DF91CF911F910F91FF90F8
:102F9000EF90DF90CF90BF90AF909F900895FF92F9
:102FA0000F931F93CF93DF93EC01062FF42E122F74
:102FB0000E94D016C152DF4F99838883CF5DD040E5
:102FC000892B09F443C0202F30E0CF51DF4FF901A6
:102FD00083E0EE0FFF1F8A95E1F7EC58FE4F8181E9
:102FE0008883C15ED040FE01E853FF4F81E0F816B0
:102FF00011F4108202C080E28083C753DF4F80E467
:103000008883A2978881C75AD040811111E0FF20A0
:1030100011F480E001C080E4C653DF4F17951127FB
:103020001795102B812B8993F90113E0EE0FFF1FE9
:103030001A95E1F7EC58FE4F818188838F5F818379
:10304000639682E08883249681E08883DF91CF9124
:103050001F910F91FF90089581E08093EF030895F1
:10306000EF92FF920F93CF93DF93E42EE9010E943A
:10307000D016AC010596FC01259134914C5F5F4F51
:10308000FA0144918091180190911901280F391F7C
:103090004E9D700111242E0D3F1D2115310541F06B
:1030A000C901BE01402F50E029E734E10E944F01E1
:1030B000DF91CF910F91FF90EF900895CF93DF9321
:1030C000E9010E94EA16BC01009711F480E008C0F3
:1030D000CE0144E050E021E734E10E94F70081E0B6
:1030E000DF91CF9108951F93142F0E94D0169C0159
:1030F0000097D9F00596FC01659174912C5F3F4FC4
:10310000F90144913596859194912091180130915F
:103110001901620F731F419F90011124620F731FE9
:1031200050E021E734E10E94F7001F910895FF92DB
:103130000F931F93CF93DF93EC01F62E0E94D016CE
:10314000FC010097A9F0329610E004910FC0CE0167
:103150006F2D412F0E94EA1661E774E10E9413016E
:10316000611571058105910521F01F5F101778F336
:103170001FEF812FDF91CF911F910F91FF90089545
:10318000DF92EF92FF920F931F93CF93DF93EC01A7
:10319000062F7A01662311F410E020C00E94D01699
:1031A000FC010097D1F0329610E0D49014C0CE010B
:1031B000602F412F0E94EA1661E774E10E9413011B
:1031C000F70120813181428153816217730784079F
:1031D000950721F01F5F1D1550F31FEF812FDF9121
:1031E000CF911F910F91FF90EF90DF9008951F9363
:1031F000CF93DF93EC01162F0E94C018482F8F3F0A
:1032000081F0CE01612F0E94EA16009751F040E054
:1032100050E060E070E029E734E10E946B0181E05A
:1032200001C080E0DF91CF911F910895EF92FF924E
:103230000F931F93CF93DF93EC01062F7A010E9427
:10324000C0188F3F11F01EEF19C0CE01602F0E94F1
:103250009718182F8F3F11F41DEF10C0CE01602F6B
:10326000412F0E94EA16009711F41FEF07C0B70123
:1032700044E050E029E734E10E944F01812FDF91C3
:10328000CF911F910F91FF90EF900895EF92FF92D1
:103290001F93CF93DF937C01EB0111E008C0C701BE
:1032A000612FAE010E94C0188F3F31F41F5F8091E3
:1032B0000E018117A0F71FEF812FDF91CF911F9192
:1032C000FF90EF900895AF92BF92CF92DF92EF926E
:1032D000FF920F931F93CF93DF93A22EB02E0E94E5
:1032E0009916EC010097A1F10091100110911101C4
:1032F0002396FE0184912196FE01F4902497080FF5
:10330000111DC8016B2D70E04F2D50E00E94D400BC
:10331000DC010097E9F0CE010596FC0165917491FE
:103320008091180190911901680F791FFA9CC001D2
:103330001124680F791F8A2F801B680F711DC60129
:103340004E2D50E021E734E10E94F70081E001C0FA
:1033500080E0DF91CF911F910F91FF90EF90DF9070
:10336000CF90BF90AF900895CF92DF92EF920F93DE
:103370001F936C0100E01BE021C0019FC0011124DC
:103380002091120130911301280F391FC9010596B0
:10339000FC01659174912C5F3F4FF9014491359682
:1033A000859194912091180130911901620F731F3A
:1033B00050E021E734E10E94F7000F5F80910F0198
:1033C0000817D8F2C60160E040E020E00AE053E0D0
:1033D000E52E35E0C32E31E0D32E0E9463191F91F4
:1033E0000F91EF90DF90CF9008958F929F92AF92C0
:1033F000BF92CF92DF92EF92FF920F931F93CF93E2
:10340000DF93EC01162FC42EA02E4701A9010E94C4
:10341000C018D82E2FEF821711F48FEF53C0CE01B2
:10342000612F4C2D0E949916AC01009711F480E099
:1034300049C04D5F5F4FFA01349143505040CA017B
:103440000596FC01059114914C5F5F4FFA012491A0
:103450008091180190911901080F191F2D9DC0012D
:103460001124080F191FC0911001D0911101C30F31
:10347000D11DBC2EDD24C22E22C07401ED0CF11C26
:10348000F7016081CE0170E04C2D50E00E94D40025
:103490009C01009791F0F7016181F999FECF1FBA65
:1034A000822F8B199801280F311D32BD21BD60BDBF
:1034B0000FB6F894FA9AF99A0FBE32E0D30EDA14E6
:1034C000E0F281E0DF91CF911F910F91FF90EF909B
:1034D000DF90CF90BF90AF909F908F900895AF9264
:1034E000BF92CF92DF92EF92FF920F931F93CF93F1
:1034F000DF93EC01F62EE42E6801A9010E94C018AA
:10350000182F8F3F09F472C080914401811729F070
:103510001092F0031093440107C08091F0038F3F95
:1035200019F48093440108C0CE016F2D4E2D0E94E6
:103530009916AC01009711F410E058C04D5F5F4F31
:10354000FA01349143505040CA010596FC01C591DF
:10355000D4914C5F5F4FFA012491809118019091B2
:103560001901C80FD91F219FC0011124C80FD91FED
:10357000760110E0022FA32EBB248091F003801768
:1035800028F5103199F19501280F311DE0911001B6
:10359000F0911101E20FF31F8081F70181931E5F0B
:1035A0008091F003BE01680F711DCF0141E050E032
:1035B00021E734E10E94F7008091F0038F5F809350
:1035C000F00382E090E0E80EF91ED7CF103170F4DE
:1035D000F601E10FF11D1082812F8F5FC80ED11C03
:1035E000F60110821E5F8FEF8093F003812FDF9131
:1035F000CF911F910F91FF90EF90DF90CF90BF90F0
:10360000AF900895BF92CF92DF92EF92FF920F9307
:103610001F93DF93CF9300D000D0CDB7DEB76C01FE
:10362000B62E7A010E94D016FC018091F103909190
:10363000F2038E179F0751F01092F303F093F203F9
:10364000E093F103329610E0049117C08091F303E8
:103650008F3FC1F71092F2031092F10310E03AC0CD
:10366000F701E10FF11D60837183828393831C5FF7
:103670008091F3038F5F8093F3034091F30340172E
:10368000A0F4103138F5C6016B2D0E94EA1661E7EF
:1036900074E10E94130169837A838B839C83611593
:1036A00071058105910521F3DBCF103198F4E10E0E
:1036B000F11C8091070390910803A0910903B09138
:1036C0000A03F70180839183A283B3831C5F8FEF8A
:1036D0008093F303812F0F900F900F900F90CF9155
:1036E000DF911F910F91FF90EF90DF90CF90BF90EF
:1036F0000895BF92CF92DF92EF92FF920F931F93A4
:10370000DF93CF9300D000D0CDB7DEB76C01B62EDB
:103710007A01FA0180819181A281B38189839A83A0
:10372000AB83BC83C6018E010F5F1F4FA8010E94AF
:10373000F718F70184818C83C6016B2DA8010E94C4
:10374000F71881E00F900F900F900F90CF91DF91BD
:103750001F910F91FF90EF90DF90CF90BF90089551
:10376000CF92DF92EF92FF920F931F93DF93CF934D
:1037700000D000D0CDB7DEB77C01C62E8A01FA0199
:103780008381882379F080819181A281B3818983AB
:103790009A83AB83BC83C701AE014F5F5F4F0E942A
:1037A0001619D82EF8014481442341F04C83C701F7
:1037B0006C2DAE014F5F5F4F0E94161925E530E07A
:1037C000E20EF31EF701D1927F0180832AEA3FEFD8
:1037D000E20EF31E8701025B1F4F9701215B3F4FF3
:1037E000F701ED5AFF4FC70147E450E0E40EF51E24
:1037F000B701A8017F01E4E0CE2E0E941D1681E0F2
:103800000F900F900F900F90CF91DF911F910F911C
:10381000FF90EF90DF90CF900895CF92DF92EF92DC
:10382000FF920F931F93DF93CF9300D000D00F929E
:10383000CDB7DEB78C01B2E0CB2ED12CCC0EDD1E85
:10384000085B1F4FF80180819181A281B3810854E8
:1038500010408A839B83AC83BD83AEE4EA2EF12CB7
:10386000E00EF11ED7018C918F708D83C801B601D7
:103870000E944619682F882329F18983C801A6016F
:103880000E94C018482F8F3FE9F0C80169810E944B
:103890007318FFE4CF2ED12CC00ED11E0C5B1F4F2E
:1038A000D801EC9104541040EA50C801095B1F4F45
:1038B000B801A70196018E010F5F1F4F7601CE2E32
:1038C0000E941D160F900F900F900F900F90CF91A8
:1038D000DF911F910F91FF90EF90DF90CF900895AF
:1038E000CF93DF93EB0185E091E067E073E043E085
:1038F00050E00E94E100009759F085E091E0BE01A0
:1039000043E050E00E94E1009C0180E0232B09F499
:1039100081E0DF91CF910895CF93DF93EC018A810D
:1039200085FF0DC0CE01079667E073E043E050E0ED
:103930000E94E100009719F08091000101C081E030
:103940008EAF8A8190E024E0959587952A95E1F7DE
:103950008170CD5BDF4F8883C354D040BE01685473
:103960007F4FCE01079643E050E00E94E1000097B0
:1039700071F4AE014C5B5F4F288130E02F5F3F4F09
:10398000CA01BE01A9010E94EE001DAE07C081E080
:103990008DAFEF96188219821A821B82DF91CF9128
:1039A0000895CF92EF92FF920F931F93CF93DF93DF
:1039B000EC015C2D575F5883595069834A832B83F0
:1039C000DC011496FC01E854FF4F83E001900D9256
:1039D0008150E1F7DE011796F80183E001900D9226
:1039E0008150E1F79E01265F3F4FE216F30631F06A
:1039F000C901B701452F50E00E94EE00CE010E94A0
:103A00008C1CDF91CF911F910F91FF90EF90CF9081
:103A100008958F929F92AF92BF92CF92DF92EF92D2
:103A2000FF920F931F93DF93CF9300D000D00F929C
:103A3000CDB7DEB75C01FC0185AD882309F0EDC090
:103A40002FED30E0A20EB31EF5012081318141E25D
:103A50005FEFA40EB51E8091F4039091F5038217D9
:103A6000930719F581EE90E0A80EB91E9091F90325
:103A7000F50180814FE15FEFA40EB51E9817A9F400
:103A80008091F803813049F5E091F603F091F70356
:103A90003296E4918091FA038E17F8F082EE90E06E
:103AA000A80EB91EF5011082B8C03093F50320931B
:103AB000F40341EE50E0A40EB51EF50180814FE104
:103AC0005FEFA40EB51E8093F9031092FA031092D3
:103AD000F8033093F7032093F6038091F8038823CB
:103AE00009F07EC0E091F603F091F7033296E4917D
:103AF0008091FA038E1708F473C0F50164AD6F5F0F
:103B000064AF615028EC30E0A20EB31EF501408195
:103B100028E33FEFA20EB31E4268EAECEE2EF12C32
:103B2000EA0CFB1CD501A252BF4FC501E9ECF0E045
:103B3000AE0EBF1EF501208105E011E0CC900E9481
:103B4000D11C81E08093F80368C02F5F2093FA03B3
:103B500064C081E08093F803E091F603F091F703ED
:103B600064913196E4912F5F2093FA032150C501AF
:103B70004E2F01E0EE24E3946E010894C11CD11C89
:103B80000E946319F50164AD6F5F64AF6150898174
:103B900090E08170907074E0880F991F7A95E1F73A
:103BA00028EC30E0A20EB31EF501408128E33FEF80
:103BB000A20EB31E4268482B5AECE52EF12CEA0CFB
:103BC000FB1CD501A252BF4FC501E9ECF0E0AE0EDF
:103BD000BF1EF50120818401CC900E94D11C1DC024
:103BE000E091F603F091F703E49132E0832E912CFB
:103BF0008C0E9D1EC5016E2F4091FA0394010E9408
:103C00005E188A819B81AC81BD812091FA03009767
:103C1000A105B10509F499CF9CCF0F900F900F909B
:103C20000F900F90CF91DF911F910F91FF90EF9028
:103C3000DF90CF90BF90AF909F908F900895CF92DC
:103C4000EF92FF920F931F93DF93CF930F92CDB715
:103C5000DEB7FC0180E889838F01085B1F4FCF012D
:103C6000EB5BFF4F608140E822E07E010894E11C9D
:103C7000F11CCC24C3940E94D11C0F90CF91DF91F2
:103C80001F910F91FF90EF90CF900895CF92EF92F8
:103C9000FF920F931F93DF93CF930F92CDB7DEB7B1
:103CA000FC0119828C01085B1F4FEB5BFF4F6081A9
:103CB00040E822E07E010894E11CF11CCC24C3946E
:103CC0000E94D11C0F90CF91DF911F910F91FF9017
:103CD000EF90CF900895CF92EF92FF920F931F93A2
:103CE000FC0181E0828763874487E955FF4F80812B
:103CF000E75AF040879588278795822B8587EB5672
:103D0000FF4F8081E559F04086878F01085B1F4F88
:103D1000DF011A96CF01EB5BFF4F608140E822E0A4
:103D20007D01F5E0CF2E0E94D11C1F910F91FF90D5
:103D3000EF90CF900895CF92EF92FF920F931F9341
:103D4000CF93DF93EC01162F042FF22E85E091E044
:103D500067E073E043E050E00E94E100009771F1FA
:103D600086E08A871B870C87FD86CB56DF4F8881CC
:103D7000C559D0408E87C95BDF4F8881C754D0407A
:103D8000813069F4C15BDF4F8881CF54D0408E30E1
:103D900031F4CB5BDF4F6881C554D04004C06CADBB
:103DA0006F5F6CAF6150CE0144EA20E105E011E0A5
:103DB0002A967E01A5E0CA2E0E94D11CDF91CF91E8
:103DC0001F910F91FF90EF90CF900895CF92EF92B7
:103DD000FF920F931F93CF93DF93EC014FE4E42EF8
:103DE000F12CE80EF91EF7018081813049F4CE01F3
:103DF000C25BDF4F68812296AE010E94B01BD9C022
:103E0000823049F4CE01C25BDF4F68812296AE0159
:103E10000E94791BCEC0833019F5FE01E554FF4F97
:103E2000CB5BDF4F8881C554D0408083FE01E154D5
:103E3000FF4FC25BDF4F8881CE54D0408083DE01CC
:103E4000A454BF4FFE01E85BFF4F83E001900D9249
:103E50008150E1F7CB53DF4F81E0888322963DC04C
:103E60008430E9F5FE01E554FF4FCB5BDF4F8881DD
:103E7000C554D0408083FE01E154FF4FC25BDF4F49
:103E80008881CE54D0408083FE01E054FF4FCC5A4D
:103E9000DF4F8881C455D0408083FE01EF53FF4F30
:103EA000C05BDF4F88819981AA81BB81C055D0401A
:103EB00080839183A283B383DE01A454BF4FFE01AC
:103EC000E85BFF4F83E001900D928150E1F7CB5307
:103ED000DF4F82E08883229681E08883D0C08530DE
:103EE00031F5FE01E154FF4FC25BDF4F8881CE54B4
:103EF000D0408083FE01EF53FF4FC05BDF4F8881CE
:103F00009981AA81BB81C055D04080839183A283CF
:103F1000B383FE01E054FF4FCC5ADF4F888180838A
:103F2000CE58DF4F81E08883C058D04043C08630F0
:103F3000C1F4CA53DF4F1882C65CD040CE010E9444
:103F4000B4198E01025B1F4FCE01C95BDF4FBE016A
:103F5000A8019701EE24FF24CC240E941D168A910B
:103F60002AC0883081F5CA53DF4F8881C65CD040B3
:103F7000882309F484C0C154DF4F6881C157D04001
:103F80008881CE54D040681709F079C0FE01E05412
:103F9000FF4F9E012F533F4FCC5BDF4F0881C4542E
:103FA000D0400B50CE014081C05BDF4F7E010E94AC
:103FB000F5192A978881C654D04085FF60C0CE018C
:103FC0000E94461E5CC08930E1F41A8660910301AC
:103FD000709104016D5F7F4FCE010B964BE050E076
:103FE0000E94CB008E01085B1F4FFE013A96CE0166
:103FF000CB5BDF4F688140E820E17F013BE0C32ECF
:1040000029C08A3051F50091030110910401B801D3
:104010006D5F7F4FCE01805B9F4F4AE050E00E9472
:10402000BE00892B61F58AE0E82EF12CEC0EFD1E16
:10403000C701B80141E150E00E94CB006CAD6F5F59
:104040006CAF6150CE0142EA20E0C85BDF4F8E01C9
:10405000B1E1CB2E0E94D11C12C08E3081F48E01B2
:10406000025B1F4F9E01215B3F4FCE01C95BDF4FBB
:10407000BE01A801EE24FF24CC240E941D16DF916E
:10408000CF911F910F91FF90EF90CF9008951F93C4
:10409000CF93DF93EC01162F613019F483B7817F42
:1040A00028C0623041F5CC57DF4F88E99AE3899305
:1040B000999380ED97E0998388830E94642E2496DB
:1040C00066507F4F8F4F9F4F688379838A839B838E
:1040D0008091600088618093600084E0809360003C
:1040E0008AEF90E09A938A93C858D04083B7817F33
:1040F000846083BF12C0633081F480916000886166
:104100008093600084E080936000C857DF4F8AEF9F
:1041100090E099838883C858D040812F83508230A3
:10412000D8F4CC57DF4F88E99AE3899399938AE0D2
:1041300090E0998388830E94642E24966056704F85
:104140008F4F9F4F688379838A839B83CA58D0405F
:1041500083B7817F846083BFCE57DF4F199381E09F
:104160008883DF91CF911F910895EF92FF920F9373
:104170001F93CF93DF93EC017A018B01CD57DF4F73
:104180008881C358D040882329F4CE0182579F4F9D
:104190000E94D313CD57DF4F81E088830E94642EA5
:1041A0009B01AC012E0D3F1D401F511FFE01379694
:1041B00080819181A281B381281739074A075B0763
:1041C00020F02083318342835383DF91CF911F916D
:1041D0000F91FF90EF900895EF92FF920F931F932E
:1041E000CF93DF93EC018C010E571F4FF8018081B4
:1041F000882309F4D4C00E94642E5AE8E52EF12CDD
:10420000EC0EFD1EF701208131814281538162173E
:1042100073078407950708F4C2C08DAD882309F0A1
:10422000BEC0F8019081923009F042C08E010D5756
:104230001F4FF8018081882331F5CE0182579F4FAF
:104240000E94D313882389F00E94642E9B01AC0145
:10425000CA57DF4F88819981C658D040A0E0B0E0AE
:10426000280F391F4A1F5B1F04C00E94642E9B0148
:10427000AC01CD57DF4F81E08883279628833983AF
:104280004A835B838CC0813041F5CE0182579F4FBA
:104290000E941E13F80110820E94642E66507F4F08
:1042A0008F4F9F4FF701608371838283938377C021
:1042B000933008F474C08E010D571F4FF8018081B0
:1042C000813041F4CE0182579F4F0E941E13F801A6
:1042D000108265C0923008F462C0CD57DF4F8881EC
:1042E000C358D040882309F05AC0CE0189569F4F49
:1042F00063E00E943211CE57DF4F9881C258D04000
:104300009250923028F48091600080648093600025
:1043100010927A00209164008FEF8093640083B73D
:10432000816083BF80E685BF80E485BF889583B7C1
:104330008E7F83BF923028F4809160008F7B8093C2
:104340006000209364008091EE038130E9F41092C4
:10435000EE032091AD043091AE044091AF04509132
:10436000B004C857DF4F88819981A0E0B0E0820F88
:10437000931FA41FB51F8093AD049093AE04A09328
:10438000AF04B093B0040BC0CA57DF4F48815981C6
:10439000C658D04060E070E0CE010E94B520DF91A9
:1043A000CF911F910F91FF90EF9008950F931F935E
:1043B000CF93DF93EC018C01055B1F4FBC01685468
:1043C0007F4FC80143E050E00E94E100FE01E05849
:1043D000FF4F009719F48081816002C080818E7F39
:1043E0008083C80167E073E043E050E00E94E10091
:1043F000FE01E058FF4F009719F48081826002C0EF
:1044000080818D7F8083C058DF4F8881C058D04025
:1044100080FD02C081FF6CC0CA5BDF4F8881C6543B
:10442000D04086FF0CC0FE01EF57FF4FCB5BDF4F44
:1044300090818881C554D040981709F459C0BE01B5
:10444000685B7F4FCE010E94701C882349F0FE01FB
:10445000EF57FF4FCB5BDF4F8881C554D04080833F
:10446000C058DF4F8881C058D04080FD02C081FF16
:1044700035C0CA5BDF4F8881C654D04087FF2EC04D
:10448000C95BDF4F8881C754D040813021F4CE0111
:104490000E94E61E23C08230B1F41DAECE51DF4F24
:1044A0008881C25ED0408130C9F48E0109561F4F09
:1044B000C80163E00E943211C80161E044E021E0DC
:1044C0000E9461110BC0813121F4CE010E9474164B
:1044D00005C0823118F0CE010E940D1CC058DF4F7C
:1044E0008881C058D04080FF03C0CE010E94A8152B
:1044F000CC5BDF4F1882DF91CF911F910F91089510
:10450000CF92EF92FF920F931F938C0189569F4F8A
:1045100062E043E020E00E946111EAE0EE2EF12C1F
:10452000E00EF11E6091030170910401C70141E1A9
:1045300050E00E94CB00F80164AD6F5F64AF615042
:10454000C80142EA20E005E011E071E1C72E0E94B7
:10455000D11C1F910F91FF90EF90CF900895CF92B3
:10456000EF92FF920F931F93CF93DF93EC018DADEA
:10457000882309F05BC0CE0189569F4F61E044E07B
:1045800021E00E946111CB53DF4FF880C55CD04021
:1045900081E0F81659F4FE01E154FF4FAE01455F8A
:1045A0005F4FCE0160810E94021B14C0B2E0FB1677
:1045B000E9F5FE01E154FF4FDE01A054BF4F9E011B
:1045C0002F533F4F8E01055F1F4FCE0160814C91ED
:1045D0000E946F1A382F882351F4CE0185549F4FC3
:1045E000FC018DE0DF011D928A95E9F71FC0DE0115
:1045F000A554BF4F8F3F41F48DE01D928A95E9F796
:10460000CE010E941F1E12C0FA866C916F5F6C93E0
:104610006150FE013A963F5FCE0140EA20E1C4546A
:10462000DF4F8E017F01C32E0E94D11CDF91CF91FD
:104630001F910F91FF90EF90CF900895AF92BF928E
:10464000CF92DF92EF92FF920F931F93CF93DF935E
:10465000EC010E94642E5B016C019DAD8EAD89174B
:1046600008F474C08E01015C1F4FF80180819181B4
:10467000A281B381A816B906CA06DB0608F466C093
:10468000CE01BE010E946415809106030E948D2D0B
:10469000FE01ED5BFF4FCE0182579F4FBE0140816F
:1046A0000E947D13809106036CE278E142E050E0C5
:1046B0000E946A2DCE01BE010E9486158DAD8F5FCE
:1046C0008DAF8091010190910201A0E0B0E08A0DD0
:1046D0009B1DAC1DBD1DF80180839183A283B38314
:1046E000CD57DF4F81E088838A91C258D04088231C
:1046F000F1F0CA57DF4F888199817C0100E010E01A
:104700002496A60195012E0D3F1D401F511F888143
:104710009981AA81BB81CA58D04082179307A40708
:10472000B50728F4CE01B801A7010E94B520CE51EB
:10473000DF4F8881C25ED040813041F4CE0189567E
:104740009F4F63E044E021E00E9461119DAD8EAD7A
:10475000891758F480910001981738F41DAEEF9630
:10476000188219821A821B82EF979DAD8EAD891730
:1047700020F5FE01FF9680819181A281B381A81668
:10478000B906CA06DB06C8F01DAE1082118212827D
:104790001382CE51DF4F8881C25ED040813069F4F0
:1047A0008E0109561F4FC80163E00E943211C801F3
:1047B00062E042E021E00E946111DF91CF911F9100
:1047C0000F91FF90EF90DF90CF90BF90AF90089542
:1047D0009F92AF92BF92CF92DF92EF92FF920F9390
:1047E0001F93CF93DF935C01C0901201D09013010F
:1047F000EE24FF2400E0FBE09F2E0BC0FE0164913D
:10480000C7010E94840F7C011F5F21961930B1F708
:104810000F5F80910F01081738F4099DE001112402
:10482000CC0DDD1D10E0EACF8091140190911501AF
:1048300061E774E10E943901E816F90609F45AC0EB
:10484000609116017091170140911E0150911F0156
:1048500020E030E010C0F999FECF1FBAC901860FE1
:10486000971F92BD81BD10BC0FB6F894FA9AF99AC1
:104870000FBE2F5F3F4F2417350768F384EF91E099
:1048800028EC30E0F9013197F1F70197D9F7609101
:10489000180170911901409120015091210120E0EF
:1048A00030E010C0F999FECF1FBAC901860F971FDB
:1048B00092BD81BD10BC0FB6F894FA9AF99A0FBE5A
:1048C0002F5F3F4F2417350768F384EF91E028EC02
:1048D00030E0F9013197F1F70197D9F7C5010E944E
:1048E0000F1784EF91E028EC30E0F9013197F1F7F0
:1048F0000197D9F78091140190911501B70149E70B
:1049000054E10E949101DF91CF911F910F91FF908F
:10491000EF90DF90CF90BF90AF909F9008950F934E
:104920001F938C01809114019091150160E070E05B
:1049300049E754E10E949101C8010E94E823C8019F
:104940000E94B419C80189569F4F62E044E025E0F7
:104950000E9461111F910F910895809106030E949A
:104960008D2D89E993E06FE473E00E942F13882373
:1049700031F08BE093E06FE473E00E9486151092B3
:10498000EF03809106036CE278E142E050E00E9480
:104990006A2D0895CF93DF93EC018091EF03882374
:1049A00019F0CE010E94AD24CC5BDF4F8881C45446
:1049B000D040882319F0CE010E94D6218DAD8823E6
:1049C00019F0CE010E941E23C953DF4F8881C75CB6
:1049D000D040882319F0CE010E94AF22CE51DF4F84
:1049E0008881C25ED040882319F0CE010E94091D43
:1049F000CE010E94EC20CE010E940E15CE018956F8
:104A00009F4F0E948711CE0189559F4F0E94190F19
:104A1000DF91CF9108950F931F938C010E94E8239B
:104A2000C8010E94B419C80182579F4F0E94F81311
:104A30000D561F4FF80180810359104080930603E3
:104A40006CE278E142E050E00E946A2D609103013F
:104A5000709104016F5E7F4FC80188549F4F43E0FF
:104A600050E00E94CB00C80189569F4FB8010E94B8
:104A700001118BE093E048EE53E060E070E00E94AB
:104A8000B5201F910F910895EF92FF920F93CF934E
:104A9000DF93EC017B01FB012081222381F18181E5
:104AA000882319F18D899E8920FF0FC06C8942816E
:104AB0002DE531E001E00E9430188D899E896C89D6
:104AC000F70143812EE531E025C06C89F701428171
:104AD0002EE531E001E00E9430188D899E896C89B5
:104AE000F70143812DE531E015C08D899E896C89E0
:104AF000F70142812FE531E001E00E943018F70113
:104B00008181882349F08D899E896C8943812FE5B5
:104B100031E001E00E943018DF91CF910F91FF90BA
:104B2000EF900895DF92EF92FF920F931F93DF9320
:104B3000CF9300D000D000D0CDB7DEB77C01D62E09
:104B4000CA01F701568B458B26E837E240E050E07A
:104B50002B833C834D835E83FA82E9829701275E33
:104B60003F4F8701095E1F4FAE014F5F5F4F0E94AD
:104B70009514F701D48A26960FB6F894DEBF0FBEBF
:104B8000CDBFCF91DF911F910F91FF90EF90DF90FC
:104B900008950F931F938C016170660FFC0182854D
:104BA0008D7F862B82870E94642E665F7F4F8F4F9A
:104BB0009F4FF80163877487858796878285816018
:104BC00082871F910F910895FC01858996896489D8
:104BD000438920E00E949B1E0895FC0185899689E7
:104BE0006489438920E00E946B1E08951F93CF9330
:104BF000DF93EC01162F8D899E8948EE53E060E02B
:104C000070E00E94B5201F3F09F451C06C896623F3
:104C100059F5112369F48D899E890E9480228D891E
:104C20009E8940E25EE460E070E00E94B52038C0FA
:104C3000123039F48D899E8989569F4F62E044E095
:104C400008C0163051F48D899E8989569F4F62E0C5
:104C500040E020E00E94611123C0153009F58D89E4
:104C60009E890E948F241CC0123030F48D899E8949
:104C700040E020E00E94CF17812F8250823038F42C
:104C80008D899E896C8941E020E00E94CF17143005
:104C900039F48D899E896C8942E020E00E94CF170B
:104CA000E885F985309719F08C89612F0995DF9196
:104CB000CF911F910895EF92FF920F931F93CF937F
:104CC000DF93EC010E94642E7B018C016A8560FFFA
:104CD00016C18B859C85AD85BE85E816F9060A0749
:104CE0001B0708F40CC1862F86958170813009F06E
:104CF000B5C0862F869586958170813009F055C0A4
:104D000064FF17C08E819F81A0E0B0E02F853889B5
:104D100049895A89820F931FA41FB51FE816F90607
:104D20000A071B0730F06F7E6A87CE0166E00E949B
:104D3000F6256A8563FF13C08A819B81A0E0B0E0FD
:104D40002F85388949895A89820F931FA41FB51F5F
:104D5000E816F9060A071B0710F0677F6A878A853D
:104D600084FD04C083FD02C08E7F8A878A8584FF0C
:104D70000CC08E819F81A0E0B0E08E0D9F1DA01F12
:104D8000B11F8B879C87AD87BE878A8583FFB7C09D
:104D90008A819B81A0E0B0E08E0D9F1DA01FB11FF6
:104DA0008B879C87AD87BE87AAC0882309F0A7C0E0
:104DB00065FF05C06F7D6A87CE0164E020C063FF98
:104DC00005C0677F6A87CE0161E019C08C819D8133
:104DD000A0E0B0E02F85388949895A89820F931F56
:104DE000A41FB51FE816F9060A071B0750F46860F0
:104DF0006A878A819B81892B21F4CE0160E00E9421
:104E0000F6258A8583FF0EC08A819B81009751F029
:104E1000A0E0B0E08E0D9F1DA01FB11F8B879C8767
:104E2000AD87BE878A8584FF0CC08E819F81A0E0FC
:104E3000B0E08E0D9F1DA01FB11F8B879C87AD8793
:104E4000BE87EF86F88A098B1A8B8A85982F990F6F
:104E500094708B7F892B81608A8751C0882309F0E9
:104E60004EC0862F8695869581708130D1F4EF866D
:104E7000F88A098B1A8B8C819D81A0E0B0E08E0DA1
:104E80009F1DA01FB11F8B879C87AD87BE87862F74
:104E9000880F84706B7F682B61606A87CE016FEF2B
:104EA0002CC0882361F565FF11C06F7E6A878CE294
:104EB00091E0A0E0B0E0E80EF91E0A1F1B1FEB8690
:104EC000FC860D871E87CE0163E017C064FF05C016
:104ED0006E7C6A87CE0165E010C060636A878C8152
:104EE0009D81A0E0B0E08E0D9F1DA01FB11F8B879C
:104EF0009C87AD87BE87CE0162E00E94F625DF91D8
:104F0000CF911F910F91FF90EF900895EF920F9323
:104F10001F93DC01662321F4CD010E945B2654C05F
:104F2000613091F52630D1F554968C9154978823B1
:104F300059F413961C921E92129788E893E11596E5
:104F40009C938E9314971BC0ED91FC9111978281D5
:104F50008F7024E6829FC001112413969C938E9338
:104F60001297808182958F70829FC0011124845D89
:104F70009E4F15969C938E93149788EE93E0179608
:104F80009C938E93169720C06131B1F44230E1F4C6
:104F9000CD01B8014E2D0E94ED2516C02E3021F412
:104FA000CD010E94E42510C0213071F4CD01B8017B
:104FB0004E2D0E94442508C06E3330F055968D91D9
:104FC0009C9156970E94461E1F910F91EF90089555
:104FD000CF92DF92FF920F931F93DF93CF93CDB7C2
:104FE000DEB729970FB6F894DEBF0FBECDBF6C01B8
:104FF000F62E8A01862F62E00E94AD2ED601199608
:105000001C930E9318971A968C911A97887C866039
:105010001A968C9389EC95E2A0E0B0E08E839F8392
:10502000A887B987DD82CC828F2DBE016C5F7F4F50
:105030000E948B10F6018489882329F0818D928D3E
:10504000918380830EC0DE011196E0E6F1E083E0FB
:1050500001900D928150E1F7CE010196D6018D931A
:105060009C93F6018489882349F41382128288E88C
:1050700093E1958384839783868320C0D601ED9145
:10508000FC91119782818F7024E6829FC0011124C8
:1050900013969C938E931297808182958F70829F36
:1050A000C0011124845D9E4F15969C938E93149796
:1050B00088EE93E017969C938E93169729960FB6D9
:1050C000F894DEBF0FBECDBFCF91DF911F910F913E
:1050D000FF90DF90CF900895FC01662311F481E0EA
:1050E00087A30895EF92FF920F93CF93DF93EC0184
:1050F0007B01FB012081222381F18181882319F129
:105100008A819B8120FF0FC06981428123E631E0C3
:1051100000E00E9430188A819B816981F7014381F8
:1051200023E631E025C06981F701428123E631E0C1
:1051300000E00E9430188A819B816981F7014381D8
:1051400023E631E015C08A819B816981F7014281A4
:1051500023E631E000E00E943018F70181818823C6
:1051600049F08A819B816981438123E631E000E037
:105170000E943018DF91CF910F91FF90EF9008952A
:10518000DF92EF92FF920F931F93DF93CF9300D0A4
:1051900000D000D0CDB7DEB77C01D62ECA01F70112
:1051A0005383428325E13BE240E050E02B833C8384
:1051B0004D835E83FA82E98297012A5F3F4F870120
:1051C0000C5F1F4FAE014F5F5F4F0E949514F701B8
:1051D000D18226960FB6F894DEBF0FBECDBFCF9119
:1051E000DF911F910F91FF90EF90DF9008959F92B4
:1051F000AF92BF92CF92DF92EF92FF920F931F93E5
:10520000DF93CF9300D0CDB7DEB76C011092BC0016
:10521000FC018485958560E05E010894A11CB11CA9
:10522000A50121E00E94CF0A982E882341F56981CB
:105230007A81F601848595850E943E087B018C0168
:1052400020E030E040E251E40E944B310E946430A3
:10525000F601728F618F8485958561E0A50121E05B
:105260000E94CF0A69817A81F60184859585A8011B
:1052700097010E9466080E946930F601638FF6016B
:1052800086859785009751F163E00E94450EF601EF
:10529000868597850E94710C2AE030E040E050E05E
:1052A0000E940332F601358F248F2D52314098F041
:1052B0009920A1F0F601868597850E948E0B20E04B
:1052C00030E040E251E40E944B310E946430F6012C
:1052D000728F618F03C0F601158E148E85E0F60182
:1052E000828B0F900F90CF91DF911F910F91FF90C4
:1052F000EF90DF90CF90BF90AF909F9008950F9365
:105300001F93DF93CF9300D000D0CDB7DEB78C01D1
:10531000BC01615E7F4FAC014F5D5F4FFC01808936
:1053200091890E948407F801868D882381F4878DF6
:1053300090A1805D974058F4F80181A192A1805D11
:10534000974028F481E0F801828B868F2EC080E0A0
:1053500090E0A0E0B0E089839A83AB83BC83F8013E
:10536000678D70A141A152A1808991899E012F5F13
:105370003F4F0E94AB06882329F46CE97FEF83E658
:1053800090E00CC069817A818B819C8120E030E0C3
:1053900048EC52E40E944B310E946930F80163A34B
:1053A00074A385A396A384E0828BF80180899189F8
:1053B0000E942D080F900F900F900F90CF91DF91CA
:1053C0001F910F9108951F93CF93DF93EC0188896C
:1053D00099890E943208182F882389F18889998930
:1053E00061E040E00E94D4078E8D882359F48889BB
:1053F00099890E94DA0618A21F8E1AA219A260E0EB
:1054000040E019C02F8D38A143E0283E340788F4CE
:1054100089A19AA143E0883E940758F424363105C7
:1054200028F48436910510F461E001C060E042E0A8
:1054300002C060E041E0888999890E94E407812FD9
:10544000DF91CF911F910895FC0182819381618149
:10545000408120E00E949B1E0895FC01828193817F
:105460006181408120E00E946B1E0895CF92DF92FF
:10547000EF92FF920F931F936C01FC018281938145
:105480000E94F7147B018C01F601828193810E94B6
:105490000A1590E00196AA2797FDA095BA2F102F24
:1054A0000F2DFE2CEE248E299F29A02BB12BBC01A1
:1054B000CD012DE63EE446EC51E40E94AE31675C3E
:1054C0007F4C8F4F9F4F282F30E040E050E020521C
:1054D0003E4F4F4F5F4FB901CA011F910F91FF908F
:1054E000EF90DF90CF900895CF92DF92EF92FF92EE
:1054F0000F931F93CF93DF93EC010E94642E7B01E7
:105500008C018F89988D009759F0A0E0B0E08E0D46
:105510009F1DA01FB11F8B8B9C8BAD8BBE8B19C0A9
:10552000CE010E94362A2EEC3FEF4FEF5FEFE20EE6
:10553000F31E041F151F2AEF30E040E050E00E94E8
:10554000AE31E60EF71E081F191FEB8AFC8A0D8B81
:105550001E8B498D5A8D0C8D1D8DCBA0DCA0EDA02E
:10556000FEA08A819B8169812B8D0E94621781E058
:105570008A8BDF91CF911F910F91FF90EF90DF9079
:10558000CF900895CF93DF93EC018FA1882351F042
:105590001FA28A89823011F483E08A8B88899989D5
:1055A0000E94DA060E94642E2B893C894D895E890F
:1055B0002115310541055105A9F1621773078407CB
:1055C000950780F12E5C3F4F4F4F5F4F2B8B3C8BED
:1055D0004D8B5E8B8A89813091F4CE010E94E32944
:1055E000882311F082E009C088EC90E0A4E6B0E0E6
:1055F0008BA39CA3ADA3BEA384E08A8B13C082308F
:1056000089F0833021F4CE010E947F290BC08430C1
:1056100021F4CE010E94F72805C0853019F4CE018F
:105620000E94742ADF91CF910895EF920F931F93F8
:10563000FC01662321F4CF010E94C22A23C06130FD
:1056400019F4263059F41EC06131B1F44230D1F45E
:10565000CF01B8014E2D0E942D2A14C02E3021F406
:10566000CF010E94242A0EC0213061F4CF01B8017D
:105670004E2D0E94722806C06E3320F082819381E5
:105680000E94461E1F910F91EF9008958F929F9256
:10569000AF92BF92CF92DF92EF92FF920F931F9340
:1056A000DF93CF9300D000D000D0CDB7DEB74C0150
:1056B000B62EA42EFC01308F278B0E94642E6851D9
:1056C0007C4F8F4F9F4FF401638B748B858B968B30
:1056D00081E0828B168E15870487C8016B2D4A2DB9
:1056E0000E94B80AF4018485958561E00E94A10AB0
:1056F000E114F10419F0F401F786E686C114D1042F
:1057000011F1F401D18AC08AC60169E20E9437080A
:10571000F401808991890E9432088823A1F08EE0EB
:1057200062E00E94AD2E8CE698E2A0E0B0E08B83B0
:105730009C83AD83BE839A8289828EE0BE016F5FB7
:105740007F4F0E948B1026960FB6F894DEBF0FBED7
:10575000CDBFCF91DF911F910F91FF90EF90DF9020
:10576000CF90BF90AF909F908F90089508951F9213
:105770000F920FB60F9211242F933F934F938F9355
:105780009F93EF93FF938091C00082FD1DC04091D5
:10579000C60020913B0430913C042F5F3F4F2F7394
:1057A000307080913D0490913E042817390771F0C4
:1057B000E0913B04F0913C04E550FC4F4083309372
:1057C0003C0420933B0402C08091C600FF91EF91FE
:1057D0009F918F914F913F912F910F900FBE0F90FE
:1057E0001F901895E0918F04F0919004E05CFF4FBA
:1057F0008191919120813181821B930B8F739070E5
:10580000892B11F00E94B62B08951F920F920FB6AC
:105810000F9211242F933F938F939F93EF93FF93B6
:1058200020917F04309180048091810490918204C2
:105830002817390731F48091C1008F7D8093C10012
:1058400014C0E0918104F0918204E15CFB4F20815F
:10585000809181049091820401968F73907090934F
:105860008204809381042093C600FF91EF919F9161
:105870008F913F912F910F900FBE0F901F90189511
:10588000DC011C96ED91FC911D97E05CFF4F21918E
:10589000319180819181281B390B2F733070C901A0
:1058A0000895DC011C96ED91FC911D97E05CFF4F83
:1058B00020813181E054F040DF01AE5BBF4F8D911C
:1058C0009C9111972817390719F42FEF3FEF07C064
:1058D0008D919C91E80FF91F8081282F30E0C9013C
:1058E0000895DC011C96ED91FC911D97E05CFF4F43
:1058F00020813181E054F040DF01AE5BBF4F8D91DC
:105900009C9111972817390719F42FEF3FEF10C01A
:105910008D919C911197E80FF91F20818D919C9199
:10592000119701968F73907011969C938E9330E02F
:10593000C9010895DC0191968C919197882339F0E3
:105940005496ED91FC915597808186FFF9CF919601
:105950001C920895CF93DF93EC01EE85FF85E05C08
:10596000FF4F20813181E054F0402F5F3F4F2F7374
:105970003070DF01AE5BBF4F8D919C91119728175E
:105980003907D1F3E05CFF4F80819181E054F04012
:10599000E80FF91F6083EE85FF85E05CFF4F3183E0
:1059A0002083EE89FF89208181E090E00F8C02C086
:1059B000880F991F0A94E2F7282B208381E089A39E
:1059C000EC89FD8980818064808381E090E0DF91B3
:1059D000CF910895109286041092850488EE93E08A
:1059E000A0E0B0E08093870490938804A09389049A
:1059F000B0938A0487E691E09093840480938304B3
:105A00008BEF93E09093900480938F048FE394E066
:105A1000909392048093910485EC90E09093940489
:105A20008093930484EC90E0909396048093950483
:105A300080EC90E0909398048093970481EC90E040
:105A400090939A048093990482EC90E090939C0444
:105A500080939B0486EC90E090939E0480939D0439
:105A600084E080939F0483E08093A00487E0809388
:105A7000A10485E08093A20481E08093A3040895AB
:105A8000CF92DF92EF92FF920F931F93CF93DF930A
:105A90007C016B018A01C0E0D0E00FC0D6016D919E
:105AA0006D01D701ED91FC910190F081E02DC701CE
:105AB0000995C80FD91F015010400115110571F744
:105AC000CE01DF91CF911F910F91FF90EF90DF906A
:105AD000CF900895823000F5E82FF0E0EE0FFF1F21
