:100000000C9444010C94C1300C94EE300C947F108D
:100010000C945A100C9435100C943C150C946C01F3
:100020000C946C010C946C010C946C010C946C019C
:100030000C946C010C946C010C946C010C946C018C
:100040000C9431310C946C010C948B2D0C94D92DA3
:100050000C946C010C946C010C946C010C946C016C
:100060000C94D0030C946C0100000000050000000B
:1000700000BE01010406050105000000C3010600E1
:100080003D55575330303030303031700301006F00
:10009000B75D00631963290A002800290020286C35
:1000A0003A004B6E6F776E20636F6D6D616E647397
:1000B0003A00206279746573004E6F7420656E6F2C
:1000C00075676820646174612C206E65656420002A
:1000D000556E7265636F676E697A656420636861E7
:1000E0007261637465723A2000002E012E020603CD
:1000F0000D04E905CA063D070C0B060D210E650F20
:100100006A10C81193120315341601173018181904
:10011000161B432156250026112D353EC3202020D5
:10012000777269746520646174612C206275742033
:100130006E6F7420696E20636F6E666967206D6FE5
:1001400064650A002D3E204E4120003C2D20000A0F
:10015000554E4B4E4F574E204D4553534147452C1E
:1001600020504C45415345205245504F5254210A8E
:100170000A006E6F7420726563656976656420623B
:1001800065666F72652E2E2E0A00616C7265616461
:1001900079207265636569766564202D20736B69CB
:1001A000700A002020207265706561746564206D9E
:1001B0006573736167653B20006C3E2000623E20E2
:1001C000002D3E20000A0A00202020000A0A0064B8
:1001D0006174613A2000726567733A20002C2061D7
:1001E0006464723A002C206C656E3A006964783A57
:1001F000002C20704D61783A002C206C73743A000A
:10020000636E6C3A0020656C656D656E74730A00F0
:100210000A636F6E74656E74206F66206444656651
:1002200020666F72200000000000240027002A00D2
:1002300000000000250028002B0000000000230023
:100240002600290004040404040404040202020237
:100250000202030303030303010204081020408089
:100260000102040810200102040810200000000709
:10027000000201000003040600000000000000006E
:100280005602B905A4103C2F11241FBECFEFD8E0B1
:10029000DEBFCDBF11E0A0E0B1E0EAE9FAE602C0BE
:1002A00005900D92AE3AB107D9F714E0AEEAB1E08D
:1002B00001C01D92AF3EB107E1F712E0C8E8D2E0FD
:1002C00004C02297FE010E941035C038D107C9F73B
:1002D0000E9422310C944B350C940000FB01DC0190
:1002E00004C08D910590801921F441505040C8F709
:1002F000881B990B0895FB01DC0102C005900D924B
:1003000041505040D8F70895FC014150504030F022
:1003100001900616D1F73197CF01089588279927C4
:100320000895FB01DC0104C08D910190801921F436
:1003300041505040C8F7881B990B0895FB01DC0120
:1003400002C001900D9241505040D8F70895A0E0AE
:10035000B0E0EDEAF1E00C941E357C01EB018A017E
:10036000690109C0CE012196F6010995F701819333
:100370007F010150104001151105A1F7CDB7DEB77F
:10038000E8E00C943A35BF92CF92DF92EF92FF9261
:100390000F931F937B018C01FB010995B82EC801B7
:1003A0000196F7010995C82EC8010296F701099533
:1003B000D82EC8010396F7010995982F6B2D7C2D37
:1003C0008D2D1F910F91FF90EF90DF90CF90BF90F8
:1003D0000895DF92EF92FF920F931F937B018C01A0
:1003E000FB010995D82EC8010196F7010995982FB0
:1003F0008D2D1F910F91FF90EF90DF900895A0E059
:10040000B0E0E5E0F2E00C941E35EC017B018A01DE
:10041000690109C0CE012196F70161917F01F601C2
:1004200009950150104001151105A1F7CDB7DEB7B0
:10043000E8E00C943A35BF92CF92DF92EF92FF92B0
:100440000F931F93D52EC62EB72E79018C01642FE2
:10045000F9010995C80101966D2DF7010995C801AB
:1004600002966C2DF7010995C80103966B2DF701D3
:1004700009951F910F91FF90EF90DF90CF90BF9063
:100480000895DF92EF92FF920F931F93D72E7A0178
:100490008C01FA010995C80101966D2DF7010995A6
:1004A0001F910F91FF90EF90DF90089588E0EEEAA2
:1004B000F1E0DF01982F1D929A95E9F71092B301B0
:1004C0001092B2011092B5011092B4011092B101D4
:1004D0001092B0013896DF011D928A95E9F71092CB
:1004E000BB011092BA011092BD011092BC01109292
:1004F000B9011092B8018CEF91E00E946406089552
:100500000F931F938C0188E493E00E949E1FF801D3
:100510008081882321F488E493E00E9462261F9161
:100520000F91089588E493E00E949D260895AF926C
:10053000BF92CF92DF92EF92FF920F931F9316ED2F
:10054000A12E13E0B12EC5016AE04BE02CE00DE0D6
:10055000B2E0EB2ECC240E94F8128501075F1F4FFA
:10056000C80164E044E00E94DB12C80163E043E09C
:1005700023E00E94141289E190E0A80EB91EC50183
:1005800062E047E021E00F2EFEE9EF2EFFEEFF2EA6
:10059000F7E20F2FFEE31F2FF02DA0E1CA2EA7E2F6
:1005A000DA2E0E94760FC50166E10E94B90EF8E4CA
:1005B000EF2EF3E0FF2EC70163E00E94A421C701E4
:1005C0000E94DE2604EC11E0C80160E0A7010E9451
:1005D0006E27C80168E040E050E00E94C429E1E0D5
:1005E000AE2EE2E0BE2EC50161E0A7010E94992A6D
:1005F000C50162E143E120E030E00FED11E075EE6E
:10060000E72E71E0F72E5CEFC52E51E0D52E0E944B
:10061000432D64B714BEC5010E94482A1F910F9153
:10062000FF90EF90DF90CF90BF90AF900895382F5C
:10063000413210F040E042C080912D028823E1F762
:1006400091E090932D0220932F028FEF80939A02D6
:10065000109255024150409356024F5F90932E02E4
:1006600080912E02330F832B80932E0280913002D3
:10067000813041F41092300280912E028093BB00B1
:1006800085EC01C085EE8093BC0080912D02813005
:10069000E1F380915502841710F44091550220E057
:1006A00030E00AC0FB01E20FF31FD901AB5CBD4F84
:1006B0008C9180832F5F3F4F2417A0F3842F0895E0
:1006C0000F931F93582F122F413210F081E04AC030
:1006D00080912D028823E1F782E080932D02009320
:1006E0002F028FEF80939A02109255024093560288
:1006F000A5E3B2E0FB0102C081918D938E2F861B92
:100700008417D0F310922E0280912E02550F852B64
:1007100080932E0280913002813041F41092300299
:1007200080912E028093BB0085EC01C085EE809302
:10073000BC00112321F080912D028230E1F38091E1
:100740009A028F3F11F480E00DC080919A028032AE
:1007500011F482E007C080919A02803311F084E0A6
:1007600001C083E01F910F910895482F613210F06E
:1007700081E0089580912D02843011F082E0089587
:1007800060937802A7E5B2E0842F9C01F90102C0D2
:1007900081918D938E2F841B8617D0F380E008956E
:1007A0001F920F920FB60F9211242F933F934F93E6
:1007B0005F936F937F938F939F93AF93BF93EF93C9
:1007C000FF938091B90090E0887F9070803691050A
:1007D00009F4F2C081369105CCF58832910509F40F
:1007E0007BC089329105B4F48031910509F46FC062
:1007F000813191053CF4009709F447C1089709F04D
:100800004FC165C08831910509F466C0809709F031
:1008100047C182C08034910509F4A4C08134910598
:1008200044F48033910509F482C0C89709F038C1B7
:1008300089C08035910509F489C08835910509F48E
:1008400096C08834910509F02BC1AEC08839910556
:1008500009F413C189399105ECF48837910509F43D
:10086000ABC0893791054CF48836910509F4A4C0D2
:100870008037910509F014C19FC08838910509F4AB
:10088000FCC08039910509F49DC08038910509F0BC
:1008900007C198C0803B910509F4C6C0813B910512
:1008A0004CF4803A910509F49FC0883A910509F00B
:1008B000F7C0BAC0803C910509F4E3C0883C9105BB
:1008C00009F4DFC0883B910509F0EAC0C2C08091FD
:1008D0002E028093BB00CFC09091550280915602AA
:1008E000981768F490915502E92FF0E0EB5CFD4F0A
:1008F00080818093BB009F5F90935502BCC0809124
:100900002F02882309F44BC085ED8093BC008091B1
:10091000BC0084FDFCCFC2C080E280939A0285EDCA
:100920008093BC008091BC0084FDFCCFB7C080E305
:1009300080939A0285ED8093BC008091BC0084FD79
:10094000FCCFACC088E380939A029BC08091550293
:100950009091BB00E82FF0E0EB5CFD4F90838F5F40
:1009600080935502909155028091560282C08091E9
:1009700055029091BB00E82FF0E0EB5CFD4F9083B7
:100980008F5F8093550280912F02882341F085ED7F
:100990008093BC008091BC0084FDFCCF7FC081E0CF
:1009A0008093300284EA6EC085ED8093BC00809114
:1009B000BC0084FDFCCF72C083E080932D021092B6
:1009C000990259C080919902803208F056C08091F6
:1009D00099029091BB00E82FF0E0E758FD4F90831B
:1009E0008F5F8093990247C080919902803230F4E2
:1009F000E0919902F0E0E758FD4F108285ED809379
:100A0000BC008091BC0084FDFCCF10922D0260914F
:100A10009902E0913302F091340289E792E070E0AC
:100A20000995109299022DC084E080932D021092B6
:100A3000770210927802E0913102F091320209952A
:100A400080917802882329F481E0809378021092C3
:100A5000570290917702E92FF0E0E95AFD4F80812B
:100A60008093BB009F5F9093770290917702809173
:100A70007802981710F485EC01C085E88093BC00DB
:100A80000FC085EC8093BC0009C010929A0285EDDE
:100A90008093BC008091BC0084FDFCCF10922D029D
:100AA000FF91EF91BF91AF919F918F917F916F9146
:100AB0005F914F913F912F910F900FBE0F901F901C
:100AC000189510922D0281E080932F02109230022F
:100AD00082E161E00E940D3283E161E00E940D320B
:100AE000E9EBF0E080818E7F808380818D7F808341
:100AF00080E28093B80085E48093BC00089581E093
:100B00008093E0026093BD021092DE021092DF0239
:100B100008952091BC0230E08091BB02281B31096E
:100B2000C90108954091BB028091BC02481718F09A
:100B30002FEF3FEF0AC0E42FF0E0E556FD4F808134
:100B4000282F30E04F5F4093BB02C9010895E09128
:100B5000BB028091BC02E81718F0EFEFFFEF06C070
:100B6000F0E0E556FD4F8081E82FF0E0CF010895D9
:100B700008951092E4021092E30288EE93E0A0E060
:100B8000B0E08093E5029093E602A093E702B09371
:100B9000E80283E791E09093E2028093E1020895F6
:100BA000CF92DF92EF92FF920F931F93CF93DF9339
:100BB0007C016B018A018091E0028823A1F0C0E0F2
:100BC000D0E00DC0D701ED91FC91D601AC0FBD1F57
:100BD0000190F081E02DC7016C9109952196C01715
:100BE000D10780F304C0CB01642F0E94B503C80174
:100BF000DF91CF911F910F91FF90EF90DF90CF90F9
:100C00000895DF93CF930F92CDB7DEB7FC016983D0
:100C10008091E0028823C9F08091DF02803238F0B1
:100C200081E090E09383828320E030E015C08091E2
:100C3000DE02E82FF0E0E254FD4F998190838F5F50
:100C40008093DE028093DF0205C0CE01019661E051
:100C50000E94B50321E030E0C9010F90CF91DF91F0
:100C600008950F93062F8091BD026EEB72E04091C4
:100C7000DF0221E00E9460031092DE021092DF0288
:100C80001092E0020F91089561E00E9431060895EC
:100C9000413208F040E2862F6BE972E00E941703B0
:100CA0001092BB028093BC02089521E00E94480686
:100CB00008951092BB021092BC021092DE021092B4
:100CC000DF020E94610508950895FC018481089562
:100CD0006F927F928F929F92AF92BF92CF92DF924C
:100CE000EF92FF920F931F93CF93DF93FC01EA01E2
:100CF000818192818E30910539F417E1E12E15E75B
:100D0000F12E012D112D0FC08536910531F0E12C0A
:100D1000B4E0FB2E012D112D06C0A7EEEA2EAFE0A8
:100D2000FA2E012D112D8381882339F4E4E0EE0C95
:100D3000FF1C001F111FEA95D1F79B0140E050E016
:100D4000C801B7010E949E345B016C015AE0D69441
:100D5000C794B794A7945A95D1F79E0140E050E00C
:100D6000C801B7010E949E343B014C014AE09694B1
:100D70008794779467944A95D1F7A114B104C1047C
:100D8000D10429F480E090E0A0E0B0E00FC0C401FD
:100D9000B3013AE0660F771F881F991F3A95D1F784
:100DA000A60195010E94D134C901DA010196A11D65
:100DB000B11DB695A7959795879581349105A105A5
:100DC000B10528F462EF71E0CEEBD1E049C0813883
:100DD0009105A105B10528F464E172E0C1EDD2E00E
:100DE0003FC0813C9105A105B10528F46FE372E095
:100DF000CBE7D3E035C0813021E0920720E0A207A5
:100E000020E0B20728F460E772E0CEEFD3E028C01C
:100E1000893321E0920720E0A20720E0B20728F4FE
:100E20006FE671E0CCEFD1E01BC08B3921E0920777
:100E300020E0A20720E0B20728F462ED70E0CBEFDB
:100E4000D0E00EC08B599240A040B04028F060E046
:100E500070E0C0E0D0E004C068E170E0C2E1D0E042
:100E600080E090E0A60195010E949E347B018C01F8
:100E7000BE0180E090E0A40193010E949E34E61A36
:100E8000F70A080B190BC801B7010E94AD3320E027
:100E900030E040E858E30E943B34DF91CF911F914E
:100EA0000F91FF90EF90DF90CF90BF90AF909F9009
:100EB0008F907F906F900895CF93DF93FC01E901AD
:100EC00081819281833B910518F08FEF9FEF08C0DD
:100ED0008636910518F089E391E902C087EB93E12A
:100EE0006817790719F04817590751F480E090E026
:100EF000A0E0B0E088839983AA83BB8380E008C028
:100F0000CF010E946806688379838A839B8381E08E
:100F1000DF91CF910895EF92FF920F931F93CF939C
:100F2000DF93EC01062F7A016881772767FD7095C2
:100F300081EE92E00E947F0510E00F701070006853
:100F400081EE92E0602F0E94010681EE92E00E9405
:100F500044068C838823C1F46881772767FD7095E8
:100F600081EE92E041E050E00E94550681EE92E071
:100F70000E948905019741F481EE92E00E9492055A
:100F8000F701808381E001C080E0DF91CF911F9164
:100F90000F91FF90EF900895EF92FF920F931F93A0
:100FA000CF93DF93EC01062F7A016881772767FDE5
:100FB000709581EE92E00E947F0510E00F70107036
:100FC000006881EE92E0602F0E94010681EE92E0BF
:100FD0000E9444068C83882309F56881772767FD82
:100FE000709581EE92E042E050E00E94550681EE5D
:100FF00092E00E948905029789F481EE92E00E94B6
:101000009205182F81EE92E00E949205612F0E94B6
:101010001B31F7019183808381E001C080E0DF9183
:10102000CF911F910F91FF90EF9008950F931F9311
:10103000CF93DF93EC019B018A016CE0A9010E9430
:10104000CC07882311F490E00BC0CE016EE0A8011C
:101050000E94CC0790E0882309F491E081E0982772
:10106000892FDF91CF911F910F910895DF92EF9219
:10107000FF920F931F937C01062FD42EFC016081F9
:10108000772767FD709581EE92E00E947F0510E062
:101090000F701070006881EE92E0602F0E940106D0
:1010A00081EE92E06D2D0E94010681EE92E00E9499
:1010B0004406F701848390E0882309F491E0892FA6
:1010C0001F910F91FF90EF90DF900895EF92FF92A4
:1010D0000F931F93DF93CF930F92CDB7DEB78C01A1
:1010E000E62EF42EFC016383442319F48EE090E095
:1010F00006C0F1E04F1731F485E690E0F8019283E5
:10110000818309C0F2E04F1719F482E991E0F6CF2C
:10111000FC0112821182C80161E0AE014F5F5F4F96
:101120000E948B07882399F08981EE2011F080615D
:1011300001C08F7E89834F2D437089818C7F482B1E
:101140004983C80161E00E943608811181E00F9057
:10115000CF91DF911F910F91FF90EF90089560E084
:1011600040E00E943608089560E043E00E9436089F
:101170000895CF92DF92EF92FF920F931F93DF9328
:10118000CF9300D000D0CDB7DEB78C016B017A01D0
:1011900080E090E0A0E0B0E089839A83AB83BC83D9
:1011A00089E2F801808381EE92E00E945906C8012D
:1011B0000E94B408C80160E040E00E94660884EF25
:1011C00091E028EC30E0F9013197F1F70197D9F778
:1011D000C801B601A7010E941608F601808191811D
:1011E000F3E0883E9F0708F5F70120813181F3E0A5
:1011F000283E3F07E8F48436910510F060E007C010
:1012000060E02436310508F061E081E06827C8011C
:1012100042E00E94660884E991E128EC30E0F9019F
:101220003197F1F70197D9F717C0805D9740C8F45F
:10123000F70180819181805D974098F4C80160E05A
:1012400041E00E9466088CED95E028EC30E0F90161
:101250003197F1F70197D9F7C801B601A7010E94AC
:101260001608F60160817181F70140815181C80142
:101270009E012F5F3F4F0E945C07882329F480E086
:1012800090E5A3E4B8E404C089819A81AB81BC8174
:1012900089839A83AB83BC83C8010E94AF082981EC
:1012A0003A814B815C81B901CA010F900F900F9078
:1012B0000F90CF91DF911F910F91FF90EF90DF90F2
:1012C000CF900895FF920F931F938C01FC018081B2
:1012D00061E00E940D32F801808161E00E94CE3110
:1012E00082E0F82E8F2D8A95F1F7F801818161E077
:1012F0000E940D328F2D8A95F1F7F801808160E010
:101300000E940D328F2D8A95F1F7F801818160E0FE
:101310000E940D3288E08A95F1F7F801818161E041
:101320000E940D328F2D8A95F1F7F801808161E0DE
:101330000E940D328F2D8A95F1F7F801818160E0CE
:101340000E940D32FA94F1F71F910F91FF900895CA
:101350000F931F93CF93DF93EC01888161E00E948C
:101360000D32888161E00E94CE3188E08A95F1F7E4
:1013700010E008E0898161E00E940D32802F8A959B
:10138000F1F7898160E00E940D32802F8A95F1F794
:101390001F5F193079F7CE010E946209DF91CF916A
:1013A0001F910F910895DF92EF92FF920F931F9379
:1013B000CF93DF93EC01E62E18E000E022E0F22E5E
:1013C000898161E00E940D3292E0D92E8F2D8A959D
:1013D000F1F788810E946132000F082B898160E05B
:1013E0000E940D328F2D8A95F1F7115049F78881AF
:1013F00061E00E94CE3161E06E2588810E940D324D
:101400008D2D8A95F1F7898161E00E940D3288E087
:101410008A95F1F7898160E00E940D328D2D8A95C1
:10142000F1F7888160E00E94CE31888161E00E94FE
:101430000D32802FDF91CF911F910F91FF90EF9090
:10144000DF9008950F931F93CF93DF93EC018B01EF
:1014500061E00E94D3099D81982728E031E397FF3E
:1014600003C0990F932701C0990F2150C1F79D83A5
:10147000F80180831182CE0161E00E94D3099D8131
:10148000982748E021E397FF03C0990F922701C0F6
:10149000990F4150C1F79D83282F30E0F8019081CA
:1014A00080E0282B392B31832083CE0160E00E941D
:1014B000D309382F90E028E0990F832F8170982B63
:1014C00036952150C9F78D81981711F480E006C038
:1014D0008FEF9FEFF8019183808382E0DF91CF91BE
:1014E0001F910F910895DF92EF92FF920F931F9338
:1014F000CF93DF93EC01F62E888161E00E94CE311C
:1015000010E808E042E0E42E38E0D32E612F6F218E
:1015100088810E940D328E2D8A95F1F7898161E0D4
:101520000E940D328D2D8A95F1F7898160E00E942D
:101530000D328E2D8A95F1F71695015039F7888175
:1015400060E00E94CE31888161E00E940D32898185
:1015500061E00E940D3288E08A95F1F788810E944F
:1015600061328C0182E08A95F1F7898160E00E9406
:101570000D3280E0012B09F081E0DF91CF911F91C6
:101580000F91FF90EF90DF9008951F93CF93DF931B
:10159000EC01162F17701C830E946209CE0166E0D1
:1015A0000E94730A882321F4CE01612F0E94730ADE
:1015B000DF91CF911F9108950F931F938C01842F7A
:1015C000F8016083418313821282148261E00E94D9
:1015D000CE31C8010E94A809C8016EE10E94730AB9
:1015E0001F910F910895CF92DF92EF92FF921F9378
:1015F000CF93DF93EC01162F6A01F22E2C81277016
:1016000090E038E0990F822F8170982B2695315009
:10161000C9F79D83CE010E946209112311F015E0E4
:1016200001C013E0CE01612F0E94730A882341F5A7
:101630009D81912728E031E397FF03C0990F9327FD
:1016400001C0990F2150C1F79D83FF2031F010EFA9
:1016500060E7E62E67E1F62E0AC0DB82CA8210C080
:10166000115011F483E00CC0C7010197F1F7888194
:101670000E946132892BA1F7CE01B6010E94220A95
:10168000DF91CF911F91FF90EF90DF90CF90089561
:10169000EF92FF920F931F93162F042F81EEE82EE7
:1016A00082E0F82EC70167E770E00E947F05C7015E
:1016B000612F0E940106C701602F0E940106C70129
:1016C0000E9444061F910F91FF90EF900895CF92D2
:1016D000DF92EF92FF920F931F93162F91EEE92E58
:1016E00092E0F92EC70167E770E00E947F05C7010D
:1016F000612F0E940106C7010E944406C70167E7E7
:1017000070E00E947F05C70167E770E042E050E0AB
:101710000E945506C7010E949205182F00E0C701DC
:101720000E9492056C01C7010E9444060C291D29E4
:10173000C8011F910F91FF90EF90DF90CF90089517
:101740000F931F938C0164EF4EE20E94480B80E1DF
:1017500097E20197F1F7C80166EF0E94670B1F91AE
:101760000F910895CF92DF92EF92FF920F931F9304
:101770006C010E94A00BA0E0B0E0F601258936893B
:1017800040E050E0821B930BA40BB50B23893489F6
:1017900040E050E0BC01CD010E949E347B018C01F1
:1017A000FFE015950795F794E794FA95D1F7D601E0
:1017B0001D966D917C911E97882777FD8095982FB7
:1017C000EBE0660F771F881F991FEA95D1F71F96E8
:1017D0002D913C915097442737FD4095542F2E0D65
:1017E0003F1D401F511F0E94F33488E090E0A0E0AD
:1017F000B0E0E80EF91E0A1F1B1F2E0D3F1D401FF3
:10180000511F64E055954795379527956A95D1F70F
:10181000CA01B9010E94AF3320E030E040E251E458
:101820000E9419331F910F91FF90EF90DF90CF909E
:101830000895EF92FF921F93162FA1EEEA2EA2E0D9
:10184000FA2EC70167E770E00E947F05C701612F8C
:101850000E940106C7010E944406C70167E770E0C5
:101860000E947F05C70167E770E041E050E00E94F9
:101870005506C7010E949205182FC7010E94440611
:10188000812F1F91FF90EF900895EF92FF920F9399
:101890001F93CF93DF93EC0148814295440F440F8F
:1018A000407C4C5C64EF0E94480B8881882319F4CB
:1018B00080E197E20CC0813019F480E89EE307C014
:1018C000823019F480E69DE602C080E29BEC01972D
:1018D000F1F7CE0166EF0E94670B7C0100E010E09B
:1018E000102F0F2DFE2CEE24CE0168EF0E94190C54
:1018F000282F30E040E050E02E293F29402B512B8B
:10190000688188E090E0861B910904C05695479550
:10191000379527958A95D2F7B901CA01DF91CF9102
:101920001F910F91FF90EF9008952F923F924F9249
:101930005F926F927F928F929F92AF92BF92CF925F
:10194000DF92EF92FF920F931F93DF93CF93CDB768
:10195000DEB72C970FB6F894DEBF0FBECDBF4C019B
:101960000E94A00B7C01C4010E94450C2B013C018C
:1019700000E010E0D40155968D919C915697A0E01F
:10198000B0E0E81AF90A0A0B1B0BF4012389348929
:1019900040E050E0C801B7010E949E345B016C0139
:1019A000FFE0D594C794B794A794FA95D1F7D401E2
:1019B0001F96ED90FC9050970027F7FC0095102F94
:1019C000EA0CFB1C0C1D1D1DC801B70122E030E014
:1019D00040E050E00E94F334F40165857685882765
:1019E00077FD8095982FEBE0660F771F881F991F72
:1019F000EA95D1F7621B730B840B950BA601950139
:101A0000205A3F404040504029833A834B835C83B7
:101A1000A80197010E94F33489819A81AB81BC812E
:101A2000820F931FA41FB51F89839A83AB83BC8346
:101A3000BC01CD019B01AC010E949E349B01AC0115
:101A40006CE055954795379527956A95D1F72F8383
:101A5000388749875A87D401DC901596ED91FC911F
:101A60001697FC87EB8717962D903C901897519608
:101A70002D913C9152973E832D8313962D913C914D
:101A80001497442737FD4095542F69817A818B81C3
:101A90009C810E949E347B018C013BE0159507954B
:101AA000F794E7943A95D1F7D40111968D919C91D2
:101AB0001297AA2797FDA095BA2F22E0880F991FA9
:101AC000AA1FBB1F2A95D1F7E80EF91E0A1F1B1F7C
:101AD000F40121853285442737FD4095542F6F81CD
:101AE000788589859A850E949E34BBE09595879577
:101AF00077956795BA95D1F7E60EF71E081F191F5F
:101B00000D2C04C0EE0CFF1C001F111F0A94D2F70D
:101B100022E030E040E050E0E20EF31E041F151F0B
:101B2000C801B70124E030E040E050E00E94F33407
:101B300079018A014E185F08600A710A20E533ECCA
:101B400040E050E004C05695479537952795DA94C4
:101B5000D2F7C301B2010E949E345B016C01AA0C52
:101B6000BB1CCC1CDD1C97FD56C08B859C859C0145
:101B7000442737FD4095542F69817A818B819C8160
:101B80000E949E347B018C01FDE015950795F7942A
:101B9000E794FA95D1F722E030E040E050E0E20E21
:101BA000F31E041F151F9101442737FD4095542F44
:101BB0006F81788589859A850E949E34BC0199271A
:101BC00077FD9095892FE60EF71E081F191F72E00A
:101BD00015950795F794E7947A95D1F780E090E80A
:101BE000A0E0B0E0E80EF91E0A1F1B1FAD81BE8108
:101BF0009D0140E050E0C801B7010E949E349B0166
:101C0000AC016FE056954795379527956A95D1F7C2
:101C1000C601B50104C0C601B501A80197010E9423
:101C2000D134C901DA015C016D015527D7FC5A9501
:101C30004D2D3C2D2B2DCA01B9010E949E342EED55
:101C40003BE040E050E00E949E347B018C01C601E5
:101C5000B50123E433EE4FEF5FEF0E949E349B010A
:101C6000AC019A01552737FD5095452F2153314F2F
:101C70004F4F5F4F78011127F7FC1095012F2E0D64
:101C80003F1D401F511F14E05595479537952795E7
:101C90001A95D1F72A0D3B1D4C1D5D1DB901CA01D6
:101CA0002C960FB6F894DEBF0FBECDBFCF91DF915B
:101CB0001F910F91FF90EF90DF90CF90BF90AF906A
:101CC0009F908F907F906F905F904F903F902F905C
:101CD0000895CF93DF93EC01643008F063E06883EC
:101CE00081EE92E00E945906CE016AEA0E94670BDB
:101CF0009A838983CE016CEA0E94670B9C838B8355
:101D0000CE016EEA0E94670B9E838D83CE0160EB4D
:101D10000E94670B9A8B898BCE0162EB0E94670B46
:101D20009C8B8B8BCE0164EB0E94670B9E8B8D8B03
:101D3000CE0166EB0E94670B98878F83CE0168EB1C
:101D40000E94670B9A878987CE016AEB0E94670B16
:101D50009C878B87CE016CEB0E94670B9E878D87DB
:101D6000CE016EEB0E94670B988B8F87DF91CF912E
:101D70000895FC01608B0895462B40937C0086E813
:101D800080937A0020E030E040E050E080917A00DB
:101D9000806480937A0080917A0086FDFCCF4A307F
:101DA000510534F08091780090917900280F391F07
:101DB0004F5F5F4F4A34510549F780917A008F7722
:101DC00080937A0086E0369527958A95E1F7C901D8
:101DD000089560E44EE00E94BC0E9C0140E050E09B
:101DE00064EB7BE281E190E00E94D134C901089567
:101DF000CF92DF92EF92FF920F931F936C01FC0141
:101E0000848161E00E94CE31F601848160E00E940D
:101E10000D32C60160ECF60145810E94BC0EA0E0C7
:101E2000B0E0BC01CD012CE434E040E050E00E9481
:101E30009E342FEF33E040E050E00E94D134CA01DD
:101E4000B9010E94AD33F601268137814085518565
:101E50000E9419337B018C01F601848160E00E94AD
:101E6000CE31C801B7010E948133CB011F910F9180
:101E7000FF90EF90DF90CF900895CF93DF93EC0128
:101E80000E9485319B01AC018B81882361F18C8597
:101E90009D85AE85BF85281739074A075B0718F16E
:101EA000CE010E94E90ECE010E94F80E9C0140E096
:101EB00064E670E00E94BD34888990E06817790775
:101EC00008F441E048833A8329830E9485312A85BA
:101ED0003B8540E050E0260F371F481F591F2C87D5
:101EE0003D874E875F87DF91CF9108959F92AF9294
:101EF000BF92CF92DF92EF92FF920F931F93CF93F7
:101F0000DF93EC01962EB42EA22E0E9485319B8287
:101F1000BC82AD82EE82FF8208871987DB86CA8683
:101F2000992021F06C877D878E879F878C818823FD
:101F300019F060E00E94CE31DF91CF911F910F9197
:101F4000FF90EF90DF90CF90BF90AF909F9008955B
:101F500070E06827792720E030E041E050EACB01CB
:101F60009695879560FF04C0BC016427752701C062
:101F7000BC012F5F3F4F2830310589F7CB01089511
:101F8000EF92FF920F931F93E82EF89490E0FC01DC
:101F9000EE0FFF1FDF01A859BE4F0D90BC91A02D81
:101FA0002C91EE59FE4F0190F081E02D30813223CB
:101FB00083519D4FDC010C9103273C93002311F4C6
:101FC00078944EC08081FF24381710F0FF24F394DA
:101FD00010E040C0A12FB0E0FD0143E0EE0FFF1F75
:101FE0004A95E1F7E051FD4F80818E1591F5818191
:101FF000801779F533E0AA0FBB1F3A95E1F7FD0191
:10200000EE50FD4F60817181AC50BD4F8C911196A7
:102010009C911197FC01AF0112962C911297139687
:102020003C9120FF0EC0F901F595E795E60FF71FEB
:102030000190F081E02DE40FF51F80819181FC017A
:10204000AF0135952795CB01820F931F6F2DFA01B4
:1020500009951F5F80914003181708F4BBCF78944F
:102060001F910F91FF90EF9008951F920F920FB65E
:102070000F9211242F933F934F935F936F937F930E
:102080008F939F93AF93BF93EF93FF9382E00E9450
:10209000C00FFF91EF91BF91AF919F918F917F9171
:1020A0006F915F914F913F912F910F900FBE0F90C5
:1020B0001F9018951F920F920FB60F9211242F9315
:1020C0003F934F935F936F937F938F939F93AF93C0
:1020D000BF93EF93FF9381E00E94C00FFF91EF91B8
:1020E000BF91AF919F918F917F916F915F914F9130
:1020F0003F912F910F900FBE0F901F9018951F9238
:102100000F920FB60F9211242F933F934F935F932B
:102110006F937F938F939F93AF93BF93EF93FF93AF
:1021200080E00E94C00FFF91EF91BF91AF919F910E
:102130008F917F916F915F914F913F912F910F9070
:102140000FBE0F901F901895E2EFF2E011821082FF
:102150001382128215821482389683E0E234F807E3
:10216000A9F70895FF920F931F93CF93DF93082F42
:10217000EB01883010F412E00CC08850863010F467
:1021800010E007C0802F8E50863010F01FEF01C086
:1021900011E0A0914003AF5FA0934003B0E011971E
:1021A0002A813B814C815D81FD0183E0EE0FFF1FA1
:1021B0008A95E1F7EC50FD4F2083318342835383AE
:1021C000E3E0AA0FBB1FEA95E1F7FD01EE50FD4FDA
:1021D0008881998191838083A051BD4F1C93E02F0A
:1021E000F0E0E85AFD4FF4901196FC92802F62E0E7
:1021F0000E94CE31412F50E0DA01AA0FBB1FBD0172
:102200006E597E4FEB01E881F98180818F298083AF
:102210002091680081E090E002C0880F991F1A9514
:10222000E2F7282B20936800A859BE4FED91FC914E
:102230009081E881F9818081892343515D4FFA01C2
:1022400080837894DF91CF911F910F91FF90089533
:102250000F931F9300EC14E0C80169E970E00E943D
:10226000BC2F0E948531AB01BC01C8012AE030E0DF
:102270000E946730C80166E970E00E94BC2F80E0D0
:102280001F910F910895CF92DF92EF92FF920F93DB
:102290001F93E82EFF2490ECC92E94E0D92EF7016D
:1022A00084E0F595E7958A95E1F70FE711E0E00FF7
:1022B000F11FC60160810E94DF2F8FE0E822FF241A
:1022C0000E0D1F1DC601F80160810E94DF2F80E006
:1022D0001F910F91FF90EF90DF90CF900895DF92C4
:1022E000EF92FF920F931F93CF93DF93D62E8C0123
:1022F000C0E0D0E0E62EFF240FC0F80180810E94EC
:1023000043112196CE15DF052CF480EC94E060E2B9
:102310000E94DF2F0F5F1F4FCD1578F380E0DF9114
:10232000CF911F910F91FF90EF90DF900895FF9252
:102330000F931F93F62E0E946F1100EC14E0C8015A
:102340006DE970E00E94BC2FC8016F2D4AE050E09B
:102350000E947630C8016BE970E00E94BC2F80E0DB
:102360001F910F91FF900895709342036093410372
:102370000895DF92EF92FF920F931F93CF93DF9315
:102380007C01D62EC42FD0E08C010C0F1D1FF8014C
:1023900080810E940D32F801D2822296CC0FDD1F7F
:1023A000CC0FDD1FCE0DDF1D188219821A821B8211
:1023B000DF91CF911F910F91FF90EF90DF900895E3
:1023C000462F60E00E94B91108951F93CF93DF93C9
:1023D000EC01162F60FF04C0CE0160E00E94E01106
:1023E00011FF04C0CE0161E00E94E0111C821E8238
:1023F0001A821D821F821B82DF91CF911F91089547
:10240000462F61E00E94B91108959C01FC01E60F7E
:10241000F11D8281882321F0C9010E94E0110895F5
:10242000C9010E9400120895FF920F931F93CF934A
:10243000DF93EC01062FF42E122F0E948531212FFD
:1024400030E0220F331F422F00FF06C0FC822E8394
:10245000688779878A879B8701FF06C0FD824F8343
:102460006C877D878E879F87DF91CF911F910F911A
:10247000FF900895BF92CF92DF92EF92FF920F9359
:102480001F93CF93DF93B82EE92E9C018901690138
:10249000FF240E948531F6012085318542855385D0
:1024A000211531054105510509F470C06217730704
:1024B0008407950708F46AC0F8018481882331F401
:1024C0008B2D9E2D6F2D0E94E01107C0813041F4AD
:1024D0008B2D9E2D6F2D0E940012C0E0D0E023C0F6
:1024E000823019F4C8E5D2E01EC0833019F4CCE282
:1024F000D1E019C0843019F4C4E6D0E014C08530AE
:1025000061F7F8018681843008F01682F80186812F
:10251000E82FF0E0EE0FFF1FE157FE4FC081D181A1
:102520008F5FF8018683F8018481823078F18B2DEA
:102530009E2D6F2D0E9405120E9485319E01442719
:1025400037FD4095542F260F371F481F591FF6019E
:102550002087318742875387F80186818823B1F02D
:1025600081508683882329F48B2D9E2D6F2D0E9408
:10257000E011CC59DF4FAE01662757FD6095762FED
:1025800080914103909142030E941222F39484E0CF
:1025900090E0C80ED91E0F5F1F4F92E0F91609F0A8
:1025A00078CFDF91CF911F910F91FF90EF90DF9047
:1025B000CF90BF900895FF920F931F938C01862FA9
:1025C000F42EF801608361E00E94CE31C80160E022
:1025D0000E94E011F801F1828F2D61E00E94CE315E
:1025E000C80161E00E94E0111F910F91FF900895D2
:1025F000EF920F93FC016083418322830383E48283
:102600000F91EF9008950F931F93CF93DF93EC01F9
:10261000162F042F888160E00E940D328A810E946B
:102620006132892BD9F71EBD0DB407FEFDCF8EB5E3
:102630000EBD0DB407FEFDCF8EB5888161E00E940E
:102640000D32DF91CF911F910F9108950F931F933A
:10265000CF93DF93EC01062F142F888160E00E9456
:102660000D328A810E946132892BD9F7102B1EBD51
:102670000DB407FEFDCF8EB51EBC0DB407FEFDCF19
:102680001EB5888161E00E940D32812FDF91CF91CC
:102690001F910F91089568E340EC0E94261308955E
:1026A000EF92FF920F931F93CF93DF93EC01062FCE
:1026B000F72E142FE22E888160E00E940D328A816D
:1026C0000E946132892BD9F7106C1EBD0DB407FE34
:1026D000FDCF8EB5802F9F2D9C01F90190E007C0A2
:1026E0001EBC0DB407FEFDCF8EB581939F5F9E1576
:1026F000B8F3888161E00E940D32DF91CF911F9184
:102700000F91FF90EF900895EF92FF920F931F9318
:10271000CF93DF93EC01162F042FF52EE22E888144
:1027200060E00E940D328A810E946132892BD9F7C4
:1027300010641EBD0DB407FEFDCF8EB5802F9F2DFA
:102740009C01F90190E008C080818EBD0DB407FEA8
:10275000FDCF8EB59F5F31969E15B0F3888161E005
:102760000E940D32DF91CF911F910F91FF90EF905A
:1027700008951F93CF93DF93EC01162F888160E0BB
:102780000E940D328A810E946132892BD9F71EBDC9
:102790000DB407FEFDCF8EB5888161E00E940D3239
:1027A000DF91CF911F9108950F931F938C0166E3E2
:1027B0000E94B913C8016AE30E94B913C80169E312
:1027C0000E94B9131F910F9108950F931F93CF93F8
:1027D000DF93EC018B016BE340EC0E942613282F62
:1027E00090E08F779070892B29F127FD23C0CE01CF
:1027F0006FE340E80E942613282FF80180838D3371
:10280000D0F4B8016F5F7F4FCE014FE30E945013A9
:10281000CE016FE340E80E942613CE016FE340E84B
:102820000E942613982F9F779887881F8827881FD4
:102830008E8302C0F8011082CE016AE30E94B913B0
:10284000CE0166E30E94B913CE0164E30E94B9137E
:10285000CE016CE30E94B913F8018081DF91CF9122
:102860001F910F910895EF92FF920F931F93CF93B3
:10287000DF93EC017B01142F66E30E94B913CE01B4
:102880006AE30E94B913CE016BE30E94B9131123CE
:1028900071F0CE0165E30E94B91380E19EE028EC5F
:1028A00030E0F9013197F1F70197D9F704C080EDD5
:1028B00097E00197F1F7F70120812F5FCE016FE3D9
:1028C000A7010E948413CE016AE30E94B913CE01CE
:1028D00065E30E94B91310E00AE1CE0165E340EC24
:1028E0000E9426138D3069F0CE0165E340EC0E9412
:1028F0002613833131F4802F8A95F1F71F5F183C3E
:1029000061F781E0DF91CF911F910F91FF90EF90E0
:102910000895CF93DF93EC01888160E00E940D322F
:102920008A810E946132892BD9F7888161E00E94F7
:102930000D32CE0164E30E94B91380E797E101975D
:10294000F1F7CE010E944B1390E026E09595879514
:102950002A95E1F78170DF91CF9108950F931F932E
:10296000CF93DF93EC01888161E00E94CE318981B1
:1029700061E00E94CE318A8160E00E94CE318B817D
:1029800061E00E94CE318C8160E00E94CE3188816E
:1029900061E00E940D328B8161E00E940D328981DD
:1029A00060E00E940D3280E58CBD888161E00E946C
:1029B0000D328DE08A95F1F7888160E00E940D323A
:1029C0008AE18A95F1F7888161E00E940D328DE6F7
:1029D0008A95F1F7CE0160E30E94B91380E29EE48C
:1029E0000197F1F700E010E0F801E751FF4F649123
:1029F000F801E651FF4FE491CE014E2F0E940313E0
:102A00000E5F1F4F0433110579F7CE0163E30E9477
:102A1000B91312E003C0812F8A95F1F7CE0165E367
:102A200040EC0E9426138130B1F7CE016EE340ECFA
:102A30000E940313CE0164E30E94B913CE016CE33C
:102A40000E94B913DF91CF911F910F9108959C01BE
:102A5000F999FECF32BD21BDF89A80B508959C0149
:102A6000F999FECF1FBA32BD21BD60BD0FB6F894F3
:102A7000FA9AF99A0FBE08951F920F920FB60F920D
:102A800011248F9381E080932B048F910F900FBEC0
:102A90000F901F901895EF92FF920F931F93CF9373
:102AA000DF93CA017901E801A62FB0E0FA01228183
:102AB000338144815581FD0173E0EE0FFF1F7A954C
:102AC000E1F7EE54FE4F208331834283538323E0AA
:102AD000AA0FBB1F2A95E1F79D0120553E4FFC012F
:102AE00080819181F90191838083A255BE4F81E05D
:102AF0008C9370E0ABE026C07A9FC0011124209136
:102B00003C0130913D01280F391FF901849186174E
:102B1000C1F4A9014F5F5F4FFA018491833030F017
:102B2000F90139968591949199838883FA0184916A
:102B3000823038F4F901399685919491F7019183A7
:102B400080837F5F809139017817B0F2DF91CF9158
:102B50001F910F91FF90EF900895DF93CF9300D0D6
:102B60000F92CDB7DEB7FC01E654FF4F6081729142
:102B7000829190E00F900F900F90CF91DF91089588
:102B8000FC0184AD81500895EF92FF920F931F9343
:102B9000CF93DF93FF2442C0AF2DB0E0FD0183E06F
:102BA000EE0FFF1F8A95E1F7E255FE4F80818823E3
:102BB000A1F103E0AA0FBB1F0A95E1F7FD01E05563
:102BC000FE4F40815181AE54BE4F8C9111969C9125
:102BD0001197FC01EF0112962C91129713963C91DC
:102BE00020FF0EC0F901F595E795E40FF51F019060
:102BF000F081E02DEC0FFD1F80819181FC01EF0140
:102C000035952795CA01820F931F60E040E020E0D0
:102C100000E010E0EE24FE010995F3948091380164
:102C20008F1508F0B9CFDF91CF911F910F91FF90D1
:102C3000EF900895DB0111969C91119786E79827F4
:102C400011969C93119712965C91129742E008C0DE
:102C5000FD01E20FF31F94528081982790834F5F0C
:102C60008C91242F30E0481798F3FD01E20FF31FF9
:102C70008081852780830895DB0111969C911197AF
:102C800086E7892711968C93119742E009C0FD01D0
:102C9000E20FF31F80819452982790834F5F982F03
:102CA0008C91242F30E0481790F3FD01E20FF31FC1
:102CB000808112969C918927808308958F929F929C
:102CC000AF92BF92CF92DF92EF92FF921F93CF937A
:102CD000DF93EC01C25BDF4F40E010E0A7E48A2EF7
:102CE000912C880E991E5E01FFE4CF2ED12CC80EC8
:102CF000D91EE4E4EE2EF12CE80EF91E212F30E06F
:102D0000F901EE0FFF1FEE0FFF1FE20FF31FE85A4E
:102D1000FE4FE081EE23D1F1D4018C91E81711F040
:102D2000EF3F91F5F901EE0FFF1FEE0FFF1FE20FCE
:102D3000F31FE85AFE4F9181F5018081981711F039
:102D40009F3F11F5F901EE0FFF1FEE0FFF1FE20F7E
:102D5000F31FE85AFE4F9281D6018C91981711F01B
:102D60009F3F91F4F901EE0FFF1FEE0FFF1FE20FDF
:102D7000F31FE85AFE4FD7016C9169500380F4812C
:102D8000E02DCE01099541E01F5FB8CF842FDF9180
:102D9000CF911F91FF90EF90DF90CF90BF90AF90B9
:102DA0009F908F900895CF92EF92FF920F931F9371
:102DB000CF93DF93EB01F8018081A82FB0E0FD01F4
:102DC00063E0EE0FFF1F6A95E1F7E255FE4F808149
:102DD0008823C1F16881FA010081F901108123E0A3
:102DE000AA0FBB1F2A95E1F7FD01E055FE4F408178
:102DF0005181AE54BE4F8C9111969C911197FC015C
:102E0000EF0112962C91129713963C9120FF0EC061
:102E1000F901F595E795E40FF51F0190F081E02D9C
:102E2000EC0FFD1F80819181FC01EF013595279505
:102E3000CA01820F931F402F212F8701EC2CFE0126
:102E4000099581E0DF91CF911F910F91FF90EF9055
:102E5000CF900895CF92EF92FF920F931F93FC01B2
:102E60008C01015B1F4FAC01425B5F4F70E5E72EA9
:102E7000F12CE80EF91EEC5BFF4FA081E454F0400A
:102E8000AB50CF01E95BFF4FBF019801CA2E0E94F2
:102E9000D3161F910F91FF90EF90CF90089520913E
:102EA0003901E0913C01F0913D0190E009C084912D
:102EB000681761F4319684913197481739F404C04A
:102EC0009217A8F3E0E0F0E0CF0108959F5F3B96F2
:102ED000F7CF0F931F93022F0E944F17AC01059657
:102EE000FC01259134914C5F5F4FFA014491809130
:102EF000420190914301280F391F409F8001112406
:102F0000200F311FC9011F910F91089520913901A0
:102F1000E0913C01F0913D0190E009C08491681777
:102F200061F4329684913297882339F004C0921765
:102F3000A8F3E0E0F0E0CF0108959F5F3B96F7CF64
:102F40001F93142F0E948617FC01009739F011235C
:102F500051F0329684913297181728F040E050E0F3
:102F6000CA011F910895379625913491412F50E061
:102F7000440F551F440F551F80914001909141010E
:102F8000480F591F420F531FEBCFEF92FF920F9341
:102F90001F93CF93DF937C0180915501882309F41F
:102FA00040C010E007E038C0109FC0011124C0915C
:102FB0005601D0915701C80FD91F8881882331F459
:102FC000C70169814B810E94A0170BC0813019F0A5
:102FD00020E030E007C0C70169814A812B810E944F
:102FE00069179C016C8140E014C0ED81FE81E40F03
:102FF000F11D5491F999FECFC90101961FBA32BD56
:1030000021BD50BD0FB6F894FA9AF99A0FBE4F5FE2
:103010009C01461750F31F5F80915501181708F463
:10302000C3CFDF91CF911F910F91FF90EF90089543
:103030002F923F924F925F926F927F928F929F92C8
:10304000AF92BF92CF92DF92EF92FF920F931F93B6
:10305000DF93CF9300D00F92CDB7DEB73C014A8308
:103060005B832983288C398C4A8C5B8C0E94861761
:103070002FED30E0620E731ED3018D939C93E1E23D
:10308000FFEF6E0E7F1E892B09F494C029EC30E00F
:10309000620E731E80E7D3018C9380E2F30182936A
:1030A0003F0128E33FEF620E731EF301E653FF4F2B
:1030B00087EA90E0680E791ED3018C918795882766
:1030C0008795BB818B2B8083E4E2F0E06E0E7F1E40
:1030D000D301EA81ED93E981ED931D93FD01019305
:1030E0008F2D9927AA27BB278193DF01ED923D0100
:1030F000A701960140705070BB27A52F942F832FF6
:10310000F30181933F0120832EE23FEF620E731E95
:10311000F301E855FF4F8181A3EDB0E06A0E7B1EFD
:10312000D3018C930894611C711C8081F3018193FD
:103130008B2D9927AA27BB278193DF01AD923D01F3
:10314000A501940140705070BB27A52F942F832FA9
:10315000F3018193DF012D933D01852D9927AA2746
:10316000BB27F3018193DF014D923D01A201910143
:1031700040705070BB27A52F942F832FF3018193AC
:103180003F01208322E030E0620E731E83E1D30111
:103190008C93E2E2FFEF6E0E7F1EF301EF51FF4FC3
:1031A00080818F5F808322EE30E0620E731E81E0AB
:1031B000D3018C930F900F900F90CF91DF911F91BF
:1031C0000F91FF90EF90DF90CF90BF90AF909F90C6
:1031D0008F907F906F905F904F903F902F900895C9
:1031E000FF920F931F93CF93DF93EC01062FF42EE2
:1031F000122F0E948617C152DF4F99838883CF5DBB
:10320000D040892B09F443C0202F30E0CF51DF4F4D
:10321000F90143E0EE0FFF1F4A95E1F7E255FE4F3B
:1032200081818883C15ED040FE01E853FF4F81E079
:10323000F81611F4108202C080E28083C753DF4F7A
:1032400080E48883A2978881C75AD040811111E019
:10325000FF2011F480E001C080E4C653DF4F1795D2
:1032600011271795102B812B8993F90193E0EE0F0D
:10327000FF1F9A95E1F7E255FE4F818188838F5FAA
:103280008183639682E08883249681E08883DF913E
:10329000CF911F910F91FF90089581E080932C04AE
:1032A0000895EF92FF920F93CF93DF93E42EE901FD
:1032B0000E948617AC010596FC01259134914C5F64
:1032C0005F4FFA0144918091420190914301280F90
:1032D000391F4E9D700111242E0D3F1D2115310502
:1032E00041F0C901BE01402F50E02FE235E10E94BC
:1032F000FF01DF91CF910F91FF90EF900895CF9351
:10330000DF93E9010E94A017BC01009711F480E04F
:1033100008C0CE0144E050E027E235E10E94A70159
:1033200081E0DF91CF9108951F93142F0E9486179B
:103330009C010097D9F00596FC01659174912C5F72
:103340003F4FF90144913596859194912091420126
:1033500030914301620F731F419F90011124620F4E
:10336000731F50E027E235E10E94A7011F910895E5
:10337000FF920F931F93CF93DF93EC01F62E0E94E1
:103380008617FC010097A9F0329610E004910FC057
:10339000CE016F2D412F0E94A01767E275E10E94B8
:1033A000C301611571058105910521F01F5F10179B
:1033B00078F31FEF812FDF91CF911F910F91FF9035
:1033C0000895DF92EF92FF920F931F93CF93DF93B5
:1033D000EC01062F7A01662311F410E020C00E9450
:1033E0008617FC010097D1F0329610E0D49014C0FB
:1033F000CE01602F412F0E94A01767E275E10E9465
:10340000C301F70120813181428153816217730723
:103410008407950721F01F5F1D1550F31FEF812FC3
:10342000DF91CF911F910F91FF90EF90DF90089562
:103430001F93CF93DF93EC01162F0E94E119482FC1
:103440008F3F81F0CE01612F0E94A017009751F0AD
:1034500040E050E060E070E02FE235E10E941B02A6
:1034600081E001C080E0DF91CF911F910895EF923C
:10347000FF920F931F93CF93DF93EC01062F7A01F6
:103480000E94E1198F3F11F01EEF19C0CE01602F8D
:103490000E94B819182F8F3F11F41DEF10C0CE01F4
:1034A000602F412F0E94A017009711F41FEF07C053
:1034B000B70144E050E02FE235E10E94FF01812F87
:1034C000DF91CF911F910F91FF90EF900895EF92B0
:1034D000FF921F93CF93DF937C01EB0111E008C0B3
:1034E000C701612FAE010E94E1198F3F31F41F5FC8
:1034F000809138018117A0F71FEF812FDF91CF91C5
:103500001F91FF90EF900895AF92BF92CF92DF92FC
:10351000EF92FF920F931F93CF93DF93A22EB02EC3
:103520000E944F17EC010097A1F100913A01109110
:103530003B012396FE0184912196FE01F49024978D
:10354000080F111DC8016B2D70E04F2D50E00E9437
:103550008401DC010097E9F0CE010596FC0165913C
:1035600074918091420190914301680F791FFA9CF8
:10357000C0011124680F791F8A2F801B680F711DED
:10358000C6014E2D50E027E235E10E94A70181E0FF
:1035900001C080E0DF91CF911F910F91FF90EF90DC
:1035A000DF90CF90BF90AF900895CF92DF92EF92CF
:1035B0000F931F936C0100E01BE021C0019FC0012D
:1035C000112420913C0130913D01280F391FC90180
:1035D0000596FC01659174912C5F3F4FF901449170
:1035E0003596859194912091420130914301620F6B
:1035F000731F50E027E235E10E94A7010F5F809121
:1036000039010817D8F2C60160E040E020E00AE086
:1036100073E0E72E5FE2C52E51E0D52E0E94841A9A
:103620001F910F91EF90DF90CF9008958F929F920E
:10363000AF92BF92CF92DF92EF92FF920F931F93C0
:10364000CF93DF93EC01162FC42EA02E4701A901C2
:103650000E94E119D82E2FEF821711F48FEF53C07B
:10366000CE01612F4C2D0E944F17AC01009711F431
:1036700080E049C04D5F5F4FFA01349143505040A4
:10368000CA010596FC01059114914C5F5F4FFA0148
:1036900024918091420190914301080F191F2D9DA3
:1036A000C0011124080F191FC0913A01D0913B01AC
:1036B000C30FD11DBC2EDD24C22E22C07401ED0C1F
:1036C000F11CF7016081CE0170E04C2D50E00E94AA
:1036D00084019C01009791F0F7016181F999FECF77
:1036E0001FBA822F8B199801280F311D32BD21BDC1
:1036F00060BD0FB6F894FA9AF99A0FBE32E0D30E75
:10370000DA14E0F281E0DF91CF911F910F91FF90E9
:10371000EF90DF90CF90BF90AF909F908F900895E3
:10372000AF92BF92CF92DF92EF92FF920F931F93CF
:10373000CF93DF93EC01F62EE42E6801A9010E94DD
:10374000E119182F8F3F09F472C080916E01811723
:1037500029F010922D0410936E0107C080912D0462
:103760008F3F19F480936E0108C0CE016F2D4E2D4E
:103770000E944F17AC01009711F410E058C04D5F44
:103780005F4FFA01349143505040CA010596FC0145
:10379000C591D4914C5F5F4FFA0124918091420111
:1037A00090914301C80FD91F219FC0011124C80F58
:1037B000D91F760110E0022FA32EBB2480912D0487
:1037C000801728F5103199F19501280F311DE091EE
:1037D0003A01F0913B01E20FF31F8081F7018193E1
:1037E0001E5F80912D04BE01680F711DCF0141E065
:1037F00050E027E235E10E94A70180912D048F5F00
:1038000080932D0482E090E0E80EF91ED7CF1031AE
:1038100070F4F601E10FF11D1082812F8F5FC80E49
:10382000D11CF60110821E5F8FEF80932D04812F33
:10383000DF91CF911F910F91FF90EF90DF90CF908C
:10384000BF90AF900895BF92CF92DF92EF92FF9218
:103850000F931F93DF93CF9300D000D0CDB7DEB787
:103860006C01B62E7A010E948617FC0180912E040D
:1038700090912F048E179F0751F010923004F0930F
:103880002F04E0932E04329610E0049117C080912B
:1038900030048F3FC1F710922F0410922E0410E0D5
:1038A0003AC0F701E10FF11D608371838283938336
:1038B0001C5F809130048F5F80933004409130040E
:1038C0004017A0F4103138F5C6016B2D0E94A017E7
:1038D00067E275E10E94C30169837A838B839C83CD
:1038E000611571058105910521F3DBCF103198F445
:1038F000E10EF11C8091440390914503A091460391
:10390000B0914703F70180839183A283B3831C5F47
:103910008FEF80933004812F0F900F900F900F90B6
:10392000CF91DF911F910F91FF90EF90DF90CF909B
:10393000BF900895BF92CF92DF92EF92FF920F93C4
:103940001F93DF93CF9300D000D0CDB7DEB76C01CB
:10395000B62E7A01FA0180819181A281B381898397
:103960009A83AB83BC83C6018E010F5F1F4FA801F2
:103970000E94181AF70184818C83C6016B2DA8015F
:103980000E94181A81E00F900F900F900F90CF9126
:10399000DF911F910F91FF90EF90DF90CF90BF903C
:1039A0000895CF92DF92EF92FF920F931F93DF93D0
:1039B000CF9300D000D0CDB7DEB77C01C62E8A01F0
:1039C000FA018381882379F080819181A281B3817A
:1039D00089839A83AB83BC83C701AE014F5F5F4F7E
:1039E0000E94371AD82EF8014481442341F04C83B9
:1039F000C7016C2DAE014F5F5F4F0E94371A25E55E
:103A000030E0E20EF31EF701D1927F0180832AEAB3
:103A10003FEFE20EF31E8701025B1F4F9701215B10
:103A20003F4FF701ED5AFF4FC70147E450E0E40E66
:103A3000F51EB701A8017F01E4E0CE2E0E94D31647
:103A400081E00F900F900F900F90CF91DF911F9119
:103A50000F91FF90EF90DF90CF900895CF92DF927B
:103A6000EF92FF920F931F93DF93CF9300D000D07C
:103A70000F92CDB7DEB78C01B2E0CB2ED12CCC0E9D
:103A8000DD1E085B1F4FF80180819181A281B38107
:103A9000085410408A839B83AC83BD83AEE4EA2E36
:103AA000F12CE00EF11ED7018C918F708D83C8012F
:103AB000B6010E94671A682F882329F18983C801FB
:103AC000A6010E94E119482F8F3FE9F0C8016981E2
:103AD0000E949419FFE4CF2ED12CC00ED11E0C5B96
:103AE0001F4FD801EC9104541040EA50C801095B03
:103AF0001F4FB801A70196018E010F5F1F4F76017E
:103B0000CE2E0E94D3160F900F900F900F900F9013
:103B1000CF91DF911F910F91FF90EF90DF90CF90A9
:103B20000895CF93DF93EB018FE291E064E473E0BB
:103B300043E050E00E949101009759F08FE291E03C
:103B4000BE0143E050E00E9491019C0180E0232BE4
:103B500009F481E0DF91CF910895CF92DF92EF9247
:103B6000FF920F931F93DF93CF9300D00F92CDB7A7
:103B7000DEB77B0100E010E06E010894C11CD11C8F
:103B800019C06091400170914101600F711FC60121
:103B900043E050E027E235E10E94A701C701B601EA
:103BA00043E050E00E949101009711F481E00AC0C7
:103BB0000C5F1F4F80914801909149010817190728
:103BC00000F380E00F900F900F90CF91DF911F9145
:103BD0000F91FF90EF90DF90CF900895CF93DF93F8
:103BE000EC018A8185FF03C080912A0101C081E038
:103BF0008EAF8A8190E024E0959587952A95E1F72C
:103C00008170CD5BDF4F8883C354D040BE016854C0
:103C10007F4FCE01079643E050E00E94910100974C
:103C200071F4AE014C5B5F4F288130E02F5F3F4F56
:103C3000CA01BE01A9010E949E011DAE07C081E01C
:103C40008DAFEF96188219821A821B82DF91CF9175
:103C50000895CF92EF92FF920F931F93CF93DF932C
:103C6000EC015C2D575F5883595069834A832B833D
:103C7000DC011496FC01E854FF4F83E001900D92A3
:103C80008150E1F7DE011796F80183E001900D9273
:103C90008150E1F79E01265F3F4FE216F30631F0B7
:103CA000C901B701452F50E00E949E01CE010E943C
:103CB000EE1DDF91CF911F910F91FF90EF90CF906C
:103CC00008958F929F92AF92BF92CF92DF92EF9220
:103CD000FF920F931F93DF93CF9300D000D00F92EA
:103CE000CDB7DEB75C01FC0185AD882309F0EDC0DE
:103CF0002FED30E0A20EB31EF5012081318141E2AB
:103D00005FEFA40EB51E80913104909132048217AA
:103D1000930719F581EE90E0A80EB91E9091360434
:103D2000F50180814FE15FEFA40EB51E9817A9F44D
:103D300080913504813049F5E0913304F0913404E9
:103D40003296E491809137048E17F8F082EE90E07D
:103D5000A80EB91EF5011082B8C03093320420932A
:103D6000310441EE50E0A40EB51EF50180814FE113
:103D70005FEFA40EB51E80933604109237041092A4
:103D80003504309334042093330480913504882320
:103D900009F07EC0E0913304F09134043296E4914E
:103DA000809137048E1708F473C0F50164AD6F5F1E
:103DB00064AF615028EC30E0A20EB31EF5014081E3
:103DC00028E33FEFA20EB31E4268EAECEE2EF12C80
:103DD000EA0CFB1CD501A252BF4FC501E9ECF0E093
:103DE000AE0EBF1EF50120810FE211E0CC900E94C3
:103DF000291E81E08093350468C02F5F209337042B
:103E000064C081E080933504E0913304F091340480
:103E100064913196E4912F5F209337042150C501BE
:103E20004E2F01E0EE24E3946E010894C11CD11CD6
:103E30000E94841AF50164AD6F5F64AF615089819F
:103E400090E08170907074E0880F991F7A95E1F787
:103E500028EC30E0A20EB31EF501408128E33FEFCD
:103E6000A20EB31E4268482B5AECE52EF12CEA0C48
:103E7000FB1CD501A252BF4FC501E9ECF0E0AE0E2C
:103E8000BF1EF50120818401CC900E94291E1DC017
:103E9000E0913304F0913404E49132E0832E912CCC
:103EA0008C0E9D1EC5016E2F4091370494010E9417
:103EB0007F198A819B81AC81BD8120913704009755
:103EC000A105B10509F499CF9CCF0F900F900F90E9
:103ED0000F900F90CF91DF911F910F91FF90EF9076
:103EE000DF90CF90BF90AF909F908F900895CF922A
:103EF000EF92FF920F931F93DF93CF930F92CDB763
:103F0000DEB7FC0180E889838F01085B1F4FCF017A
:103F1000EB5BFF4F608140E822E07E010894E11CEA
:103F2000F11CCC24C3940E94291E0F90CF91DF91E5
:103F30001F910F91FF90EF90CF900895CF92EF9245
:103F4000FF920F931F93DF93CF930F92CDB7DEB7FE
:103F5000FC0119828C01085B1F4FEB5BFF4F6081F6
:103F600040E822E07E010894E11CF11CCC24C394BB
:103F70000E94291E0F90CF91DF911F910F91FF900A
:103F8000EF90CF900895CF92EF92FF920F931F93EF
:103F9000FC0181E0828763874487E955FF4F808178
:103FA000E75AF040879588278795822B8587EB56BF
:103FB000FF4F8081E559F04086878F01085B1F4FD6
:103FC000DF011A96CF01EB5BFF4F608140E822E0F2
:103FD0007D01F5E0CF2E0E94291E1F910F91FF90C9
:103FE000EF90CF900895CF92EF92FF920F931F938F
:103FF000CF93DF93EC01162F042FF22E8FE291E086
:1040000064E473E043E050E00E949101009771F195
:1040100086E08A871B870C87FD86CB56DF4F888119
:10402000C559D0408E87C95BDF4F8881C754D040C7
:10403000813069F4C15BDF4F8881CF54D0408E302E
:1040400031F4CB5BDF4F6881C554D04004C06CAD08
:104050006F5F6CAF6150CE0144EA20E10FE211E0E6
:104060002A967E01A5E0CA2E0E94291EDF91CF91DB
:104070001F910F91FF90EF90CF900895CF92EF9204
:10408000FF920F931F93CF93DF93EC014FE4E42E45
:10409000F12CE80EF91EF7018081813049F4CE0140
:1040A000C25BDF4F68812296AE010E94D11CDEC048
:1040B000823049F4CE01C25BDF4F68812296AE01A7
:1040C0000E949A1CD3C0833019F5FE01E554FF4FBE
:1040D000CB5BDF4F8881C554D0408083FE01E15423
:1040E000FF4FC25BDF4F8881CE54D0408083DE011A
:1040F000A454BF4FFE01E85BFF4F83E001900D9297
:104100008150E1F7CB53DF4F81E0888322963DC099
:104110008430E9F5FE01E554FF4FCB5BDF4F88812A
:10412000C554D0408083FE01E154FF4FC25BDF4F96
:104130008881CE54D0408083FE01E054FF4FCC5A9A
:10414000DF4F8881C455D0408083FE01EF53FF4F7D
:10415000C05BDF4F88819981AA81BB81C055D04067
:1041600080839183A283B383DE01A454BF4FFE01F9
:10417000E85BFF4F83E001900D928150E1F7CB5354
:10418000DF4F82E08883229681E08883D5C0853026
:1041900031F5FE01E154FF4FC25BDF4F8881CE5401
:1041A000D0408083FE01EF53FF4FC05BDF4F88811B
:1041B0009981AA81BB81C055D04080839183A2831D
:1041C000B383FE01E054FF4FCC5ADF4F88818083D8
:1041D000CE58DF4F81E08883C058D04048C0863039
:1041E000C1F4CA53DF4F1882C65CD040CE010E9492
:1041F000D51A8E01025B1F4FCE01C95BDF4FBE0196
:10420000A8019701EE24FF24CC240E94D3168A91A2
:104210002FC08830A9F5CA53DF4F8881C65CD040D3
:10422000882351F0C154DF4F6881C157D040888145
:10423000CE54D040681739F080EC94E06DE171E025
:104240000E94BC2F79C0FE01E054FF4F9E012F5306
:104250003F4FCC5BDF4F0881C454D0400B50CE01A0
:104260004081C05BDF4F7E010E94161B2A97888128
:10427000C654D04085FF60C0CE010E949E1F5CC026
:104280008930E1F41A8660912D0170912E016D5FE5
:104290007F4FCE010B964BE050E00E947B018E01D8
:1042A000085B1F4FFE013A96CE01CB5BDF4F688162
:1042B00040E820E17F013BE0C32E29C08A3051F560
:1042C00000912D0110912E01B8016D5F7F4FCE013D
:1042D000805B9F4F4AE050E00E946E01892B61F5A0
:1042E0008AE0E82EF12CEC0EFD1EC701B80141E179
:1042F00050E00E947B016CAD6F5F6CAF6150CE01EE
:1043000042EA20E0C85BDF4F8E01B1E1CB2E0E9474
:10431000291E12C08E3081F48E01025B1F4F9E0158
:10432000215B3F4FCE01C95BDF4FBE01A801EE24E8
:10433000FF24CC240E94D316DF91CF911F910F91BF
:10434000FF90EF90CF9008951F93CF93DF93EC01F0
:10435000162F613019F483B7817F28C0623041F590
:10436000CC57DF4F88E99AE38993999380ED97E0E2
:10437000998388830E948531249666507F4F8F4FA2
:104380009F4F688379838A839B83809160008861D3
:104390008093600084E0809360008AEF90E09A93BD
:1043A0008A93C858D04083B7817F846083BF12C08E
:1043B000633081F48091600088618093600084E0C4
:1043C00080936000C857DF4F8AEF90E0998388831D
:1043D000C858D040812F83508230D8F4CC57DF4F5B
:1043E00088E99AE38993999388EE93E09983888387
:1043F0000E94853124966056704F8F4F9F4F68837F
:1044000079838A839B83CA58D04083B7817F846035
:1044100083BFCE57DF4F199381E08883DF91CF911F
:104420001F910895EF92FF920F931F93CF93DF9305
:10443000EC017A018B01CD57DF4F8881C358D04002
:10444000882329F4CE0182579F4F0E948914CD57AB
:10445000DF4F81E088830E9485319B01AC012E0DE6
:104460003F1D401F511FFE01379680819181A2811F
:10447000B381281739074A075B0720F0208331836F
:1044800042835383DF91CF911F910F91FF90EF9063
:104490000895EF92FF920F931F93CF93DF93EC0158
:1044A0008C010E571F4FF8018081882309F4D4C076
:1044B0000E9485315AE8E52EF12CEC0EFD1EF70125
:1044C00020813181428153816217730784079507E8
:1044D00008F4C2C08DAD882309F0BEC0F8019081F8
:1044E000923009F042C08E010D571F4FF8018081B4
:1044F000882331F5CE0182579F4F0E94891488236B
:1045000089F00E9485319B01AC01CA57DF4F888139
:104510009981C658D040A0E0B0E0280F391F4A1F4B
:104520005B1F04C00E9485319B01AC01CD57DF4F5A
:1045300081E088832796288339834A835B838CC0F4
:10454000813041F5CE0182579F4F0E94D413F8016C
:1045500010820E94853166507F4F8F4F9F4FF70129
:10456000608371838283938377C0933008F474C02F
:104570008E010D571F4FF8018081813041F4CE012B
:1045800082579F4F0E94D413F801108265C0923069
:1045900008F462C0CD57DF4F8881C358D0408823CC
:1045A00009F05AC0CE0189569F4F63E00E94E51181
:1045B000CE57DF4F9881C258D0409250923028F4A5
:1045C0008091600080648093600010927A00209156
:1045D00064008FEF8093640083B7816083BF80E6BF
:1045E00085BF80E485BF889583B78E7F83BF923077
:1045F00028F4809160008F7B80936000209364009A
:1046000080912B048130E9F410922B042091EA046C
:104610003091EB044091EC045091ED04C857DF4F0A
:1046200088819981A0E0B0E0820F931FA41FB51F7D
:104630008093EA049093EB04A093EC04B093ED0410
:104640000BC0CA57DF4F48815981C658D04060E03F
:1046500070E0CE010E941222DF91CF911F910F9145
:10466000FF90EF900895CF92EF92FF920F931F93D8
:104670008C0189569F4F62E043E020E00E941412B3
:10468000EAE0EE2EF12CE00EF11E60912D0170910A
:104690002E01C70141E150E00E947B01F80164ADA9
:1046A0006F5F64AF6150C80142EA20E00FE211E0A1
:1046B00071E1C72E0E94291E1F910F91FF90EF906C
:1046C000CF900895CF92EF92FF920F931F93CF93C5
:1046D000DF93EC018DAD882309F05BC0CE018956D4
:1046E0009F4F61E044E021E00E941412CB53DF4F62
:1046F000F880C55CD04081E0F81659F4FE01E15421
:10470000FF4FAE01455F5F4FCE0160810E94231CC9
:1047100014C0B2E0FB16E9F5FE01E154FF4FDE01E3
:10472000A054BF4F9E012F533F4F8E01055F1F4F77
:10473000CE0160814C910E94901B382F882351F448
:10474000CE0185549F4FFC018DE0DF011D928A95BB
:10475000E9F71FC0DE01A554BF4F8F3F41F48DE044
:104760001D928A95E9F7CE010E94771F12C0FA8642
:104770006C916F5F6C936150FE013A963F5FCE0182
:1047800040EA20E1C454DF4F8E017F01C32E0E9416
:10479000291EDF91CF911F910F91FF90EF90CF9045
:1047A00008958F929F92AF92BF92CF92DF92EF9235
:1047B000FF920F931F93CF93DF93EC010E948531FB
:1047C0005B016C019DAD8EAD891708F48EC08E0122
:1047D000015C1F4FF80180819181A281B381A816ED
:1047E000B906CA06DB0608F480C09C2E8D2ECE01C9
:1047F000BE010E941A16809143030E94AE30FE0152
:10480000ED5BFF4FCE0182579F4FBE0140810E945A
:104810003314809143036DE479E142E050E00E945B
:104820008B30CE01BE010E943C168DAD8F5F8DAFE7
:1048300080912B0190912C01A0E0B0E08A0D9B1D8E
:10484000AC1DBD1DF80180839183A283B383CD5736
:10485000DF4F81E088838A91C258D0408823F1F0ED
:10486000CA57DF4F888199817C0100E010E02496CF
:10487000A60195012E0D3F1D401F511F8881998172
:10488000AA81BB81CA58D04082179307A407B507F5
:1048900028F4CE01B801A7010E94122280EC94E016
:1048A0006BE471E00E94BC2F68816F5F892D982DA9
:1048B0000E949711682F80EC94E00E94DF2F0E94E5
:1048C0002811682F80EC94E00E94DF2FCE51DF4F3B
:1048D0008881C25ED040813041F4CE0189569F4F1D
:1048E00063E044E021E00E9414129DAD8EAD891773
:1048F00058F480912A01981738F41DAEEF9618826B
:1049000019821A821B82EF979DAD8EAD891788F5AB
:10491000FE01FF9680819181A281B381A816B9061C
:10492000CA06DB0630F11DAE10821182128213829C
:10493000CE51DF4F8881C25ED040813069F48E0154
:1049400009561F4FC80163E00E94E511C80162E0EB
:1049500042E021E00E94141280EC94E064E471E0F3
:104960000E94BC2F0E942811682F80EC94E00E94C6
:10497000DF2FDF91CF911F910F91FF90EF90DF908C
:10498000CF90BF90AF909F908F9008950F931F93FB
:10499000CF93DF93EC018C01055B1F4FBC01685482
:1049A0007F4FC80143E050E00E949101FE01E058B2
:1049B000FF4F009719F48081816002C080818E7F53
:1049C0008083C80164E473E043E050E00E949101F9
:1049D000FE01E058FF4F009719F48081826002C009
:1049E00080818D7F8083C058DF4F8881C058D04040
:1049F00080FF05C080EC94E061EC71E00BC081FFAA
:104A000005C080EC94E06DEB71E004C080EC94E0B4
:104A100069EB71E00E94BC2F8E010C5B1F4FF80107
:104A200060816F5FC8010E949711682F80EC94E04D
:104A30000E94DF2F0E942811682F80EC94E00E94D2
:104A4000DF2FC058DF4F8881C058D04080FD05C09F
:104A500081FD03C0F8011082AAC08E01085B1F4FC0
:104A6000CE01B8010E94911D882309F098C0CE01A3
:104A7000B8010E94AD1D882309F091C080EC94E03C
:104A800060E071E00E94883086C080EC94E063EAC8
:104A900071E00E94BC2FFE01EF57FF4FCB5BDF4F51
:104AA00090818881C554D040981729F480EC94E017
:104AB0006AE871E004C080EC94E062E771E00E9473
:104AC000BC2FFE01EF57FF4FCB5BDF4F90818881FA
:104AD000C554D040981709F45EC0CE01B8010E94B9
:104AE000911D882349F0FE01EF57FF4FCB5BDF4F4D
:104AF0008881C554D0408083C058DF4F8881C0581A
:104B0000D04080FD02C081FF3CC0CA5BDF4F88817E
:104B1000C654D04087FF35C0C95BDF4F8881C7547A
:104B2000D040813021F4CE010E943E202AC0823044
:104B3000B1F41DAECE51DF4F8881C25ED0408130CE
:104B400001F58E0109561F4FC80163E00E94E5116F
:104B5000C80161E044E021E00E94141212C08131DA
:104B600021F4CE010E942A170CC0823120F0CE0120
:104B70000E942E1D06C080EC94E06FE471E00E945C
:104B8000BC2FC058DF4F8881C058D04080FF03C081
:104B9000CE010E945E16CC5BDF4F188208C0CA5B54
:104BA000DF4F8881C654D04086FD6FCF96CFDF910E
:104BB000CF911F910F9108959F92AF92BF92CF9284
:104BC000DF92EF92FF920F931F93CF93DF935C01DD
:104BD000C0903C01D0903D01EE24FF2400E0FBE0BA
:104BE0009F2E0BC0FE016491C7010E94A80F7C019B
:104BF0001F5F21961930B1F70F5F809139010817B7
:104C000038F4099DE0011124CC0DDD1D10E0EACF40
:104C100080913E0190913F0167E275E10E94E901B8
:104C2000E816F90609F439C080EC94E06DE171E012
:104C30000E9488306091400170914101409148018B
:104C40005091490120E030E010C0F999FECF1FBA21
:104C5000C901860F971F92BD81BD10BC0FB6F89495
:104C6000FA9AF99A0FBE2F5F3F4F2417350768F362
:104C700084EF91E028EC30E0F9013197F1F70197EA
:104C8000D9F7C5010E94C51784EF91E028EC30E008
:104C9000F9013197F1F70197D9F780913E01909191
:104CA0003F01B7014FE255E10E944102DF91CF91F0
:104CB0001F910F91FF90EF90DF90CF90BF90AF903A
:104CC0009F9008950F931F938C0180913E019091C6
:104CD0003F0160E070E04FE255E10E944102C801EF
:104CE0000E94DC25C8010E94D51AC80189569F4F31
:104CF00062E044E025E00E9414121F910F91089594
:104D0000809143030E94AE3086ED93E06CE873E03F
:104D10000E94E513882331F088E493E06CE873E0A7
:104D20000E943C1610922C04809143036DE479E1BB
:104D300042E050E00E948B300895CF93DF93EC0166
:104D400080912C04882319F0CE010E948026CC5B30
:104D5000DF4F8881C454D040882319F0CE010E94CF
:104D6000C6248DAD882319F0CE010E94D123C953EA
:104D7000DF4F8881C75CD040882319F0CE010E94A4
:104D80006223CE51DF4F8881C25ED040882319F064
:104D9000CE010E94611ECE010E944922CE010E94D6
:104DA000C415CE0189569F4F0E943A12CE018955F3
:104DB0009F4F0E943D0FDF91CF9108950F931F9356
:104DC0008C0180EC94E040E051EE60E070E00E94E5
:104DD000142EC8010E94DC25C8010E94D51AC80102
:104DE00082579F4F0E94AE140D561F4FF8018081CD
:104DF00003591040809343036DE479E142E050E0B1
:104E00000E948B3060912D0170912E016F5E7F4F5B
:104E1000C80188549F4F43E050E00E947B01C801C5
:104E200089569F4FB8010E94B41188E493E048EE80
:104E300053E060E070E00E9412221F910F910895EC
:104E4000EF92FF920F93CF93DF93EC017B01FB0175
:104E50002081222381F18181882319F18D899E8906
:104E600020FF0FC06C89428127E931E001E00E94F8
:104E700051198D899E896C89F701438128E931E0B8
:104E800025C06C89F701428128E931E001E00E94E8
:104E900051198D899E896C89F701438127E931E099
:104EA00015C08D899E896C89F701428129E931E01D
:104EB00001E00E945119F7018181882349F08D8911
:104EC0009E896C89438129E931E001E00E945119F2
:104ED000DF91CF910F91FF90EF900895DF92EF92C5
:104EE000FF920F931F93DF93CF9300D000D000D099
:104EF000CDB7DEB77C01D62ECA01F701568B458BA4
:104F000022E639E240E050E02B833C834D835E8310
:104F1000FA82E9829701275E3F4F8701095E1F4FA2
:104F2000AE014F5F5F4F0E944B15F701D48A269662
:104F30000FB6F894DEBF0FBECDBFCF91DF911F91AA
:104F40000F91FF90EF90DF9008950F931F938C01C6
:104F50006170660FFC0182858D7F862B82870E949F
:104F60008531665F7F4F8F4F9F4FF801638774874E
:104F7000858796878285816082871F910F9108952A
:104F8000FC01858996896489438920E00E94F31F8A
:104F90000895FC01858996896489438920E00E94EF
:104FA000C31F08951F93CF93DF93EC01162F8D89B4
:104FB0009E8948EE53E060E070E00E9412221F3F9D
:104FC00009F451C06C89662359F5112369F48D8960
:104FD0009E890E9433238D899E8940E25EE460E0D1
:104FE00070E00E94122238C0123039F48D899E89F7
:104FF00089569F4F62E044E008C0163051F48D8915
:105000009E8989569F4F62E040E020E00E94141282
:1050100023C0153009F58D899E890E9462261CC027
:10502000123030F48D899E8940E020E00E94F01813
:10503000812F8250823038F48D899E896C8941E0BD
:1050400020E00E94F018143039F48D899E896C8913
:1050500042E020E00E94F018E885F985309719F0C9
:105060008C89612F0995DF91CF911F910895EF925F
:10507000FF920F931F93CF93DF93EC010E94853132
:105080007B018C016A8560FF16C18B859C85AD858F
:10509000BE85E816F9060A071B0708F40CC1862F1F
:1050A00086958170813009F0B5C0862F86958695EA
:1050B0008170813009F055C064FF17C08E819F81D7
:1050C000A0E0B0E02F85388949895A89820F931F63
:1050D000A41FB51FE816F9060A071B0730F06F7EFC
:1050E0006A87CE0166E00E94D2276A8563FF13C0FB
:1050F0008A819B81A0E0B0E02F85388949895A894F
:10510000820F931FA41FB51FE816F9060A071B0795
:1051100010F0677F6A878A8584FD04C083FD02C022
:105120008E7F8A878A8584FF0CC08E819F81A0E054
:10513000B0E08E0D9F1DA01FB11F8B879C87AD8790
:10514000BE878A8583FFB7C08A819B81A0E0B0E0DB
:105150008E0D9F1DA01FB11F8B879C87AD87BE87BB
:10516000AAC0882309F0A7C065FF05C06F7D6A87C4
:10517000CE0164E020C063FF05C0677F6A87CE016F
:1051800061E019C08C819D81A0E0B0E02F85388955
:1051900049895A89820F931FA41FB51FE816F90683
:1051A0000A071B0750F468606A878A819B81892BF4
:1051B00021F4CE0160E00E94D2278A8583FF0EC0D1
:1051C0008A819B81009751F0A0E0B0E08E0D9F1D79
:1051D000A01FB11F8B879C87AD87BE878A8584FF00
:1051E0000CC08E819F81A0E0B0E08E0D9F1DA01F9E
:1051F000B11F8B879C87AD87BE87EF86F88A098BA6
:105200001A8B8A85982F990F94708B7F892B8160D8
:105210008A8751C0882309F04EC0862F86958695CF
:1052200081708130D1F4EF86F88A098B1A8B8C81DA
:105230009D81A0E0B0E08E0D9F1DA01FB11F8B8748
:105240009C87AD87BE87862F880F84706B7F682B05
:1052500061606A87CE016FEF2CC0882361F565FF1E
:1052600011C06F7E6A878CE291E0A0E0B0E0E80EAA
:10527000F91E0A1F1B1FEB86FC860D871E87CE01B9
:1052800063E017C064FF05C06E7C6A87CE0165E0ED
:1052900010C060636A878C819D81A0E0B0E08E0DB4
:1052A0009F1DA01FB11F8B879C87AD87BE87CE0136
:1052B00062E00E94D227DF91CF911F910F91FF9062
:1052C000EF900895EF920F931F93DC01662321F472
:1052D000CD010E94372854C0613091F52630D1F5B8
:1052E00054968C915497882359F413961C921E92CD
:1052F000129788E893E115969C938E9314971BC0A0
:10530000ED91FC91119782818F7024E6829FC001FC
:10531000112413969C938E931297808182958F709F
:10532000829FC0011124845D9E4F15969C938E939D
:10533000149788EE93E017969C938E93169720C04F
:105340006131B1F44230E1F4CD01B8014E2D0E943B
:10535000C92716C02E3021F4CD010E94C02710C0ED
:10536000213071F4CD01B8014E2D0E94202708C0D4
:105370006E3330F055968D919C9156970E949E1FEA
:105380001F910F91EF900895CF92DF92FF920F93AC
:105390001F93DF93CF93CDB7DEB729970FB6F8945D
:1053A000DEBF0FBECDBF6C01F62E8A01862F62E0F4
:1053B0000E94CE31D60119961C930E9318971A9617
:1053C0008C911A97887C86601A968C9385EA97E26E
:1053D000A0E0B0E08E839F83A887B987DD82CC826E
:1053E0008F2DBE016C5F7F4F0E94B210F601848941
:1053F000882329F0818D928D918380830EC0DE01F8
:105400001196EAE9F1E083E001900D928150E1F715
:10541000CE010196D6018D939C93F6018489882351
:1054200049F41382128288E893E1958384839783F9
:10543000868320C0D601ED91FC91119782818F70F7
:1054400024E6829FC001112413969C938E93129799
:10545000808182958F70829FC0011124845D9E4F50
:1054600015969C938E93149788EE93E017969C93D1
:105470008E93169729960FB6F894DEBF0FBECDBF58
:10548000CF91DF911F910F91FF90DF90CF90089502
:10549000FC0160870895EF92FF920F93CF93DF9303
:1054A000EC017B01FB012081222381F18181882392
:1054B00019F18A819B8120FF0FC0698142812DE90A
:1054C00031E000E00E9451198A819B816981F701D6
:1054D00043812DE931E025C06981F70142812DE941
:1054E00031E000E00E9451198A819B816981F701B6
:1054F00043812DE931E015C08A819B816981F701E3
:1055000042812DE931E000E00E945119F7018181CB
:10551000882349F08A819B81698143812DE931E0AB
:1055200000E00E945119DF91CF910F91FF90EF9011
:105530000895DF92EF92FF920F931F93DF93CF9323
:1055400000D000D000D0CDB7DEB77C01D62ECA0186
:10555000F7015383428322E13DE240E050E02B8398
:105560003C834D835E83FA82E98297012A5F3F4F35
:1055700087010C5F1F4FAE014F5F5F4F0E944B15BD
:10558000F701D18226960FB6F894DEBF0FBECDBFCD
:10559000CF91DF911F910F91FF90EF90DF900895D1
:1055A000FC01828193816181408120E00E94F31F90
:1055B0000895FC01828193816181408120E00E94F5
:1055C000C31F0895CF92DF92EF92FF920F931F9324
:1055D0006C01FC01828193810E94AD157B018C01DD
:1055E000F601828193810E94C01590E0A0E0B0E0B6
:1055F000102F0F2DFE2CEE248E299F29A02BB12BCE
:10560000BC01CD012DE63EE446EC51E40E949E34FF
:10561000675C7F4C8F4F9F4F282F30E040E050E079
:1056200020523E4F4F4F5F4FB901CA011F910F915A
:10563000FF90EF90DF90CF9008954F925F926F921E
:105640007F928F929F92AF92BF92CF92DF92EF9212
:10565000FF920F931F93CF93DF93EC010E9485314C
:105660007B018C01888D998D009759F0A0E0B0E006
:105670008E0D9F1DA01FB11F8C8B9D8BAE8BBF8B82
:1056800019C0CE010E94E22A28E13CEF4FEF5FEF04
:10569000E20EF31E041F151F2AEF30E040E050E039
:1056A0000E949E34E60EF71E081F191FEC8AFD8A21
:1056B0000E8B1F8B8DE68B8B00D000D08A819B8157
:1056C0004A8D5B8D0D8D1E8DCF8CD8A0E9A0FAA0E0
:1056D0008BA09CA0ADA0BEA04FA058A469A47AA4A2
:1056E000EDB7FEB7418252826382748269812C8D4C
:1056F0000E9418180F900F900F900F90DF91CF918C
:105700001F910F91FF90EF90DF90CF90BF90AF90DF
:105710009F908F907F906F905F904F9008953F92F1
:105720004F925F926F927F928F929F92AF92BF92B1
:10573000CF92DF92EF92FF920F931F93DF93CF935D
:1057400000D000D000D0CDB7DEB72C01FC01848999
:105750009589A689B78988519C4FAF4FBF4F848BDD
:10576000958BA68BB78B84E7838B1092BC008585C5
:10577000968560E0AE014F5F5F4F21E00E94F30A23
:10578000382E882309F0A8C089819A819C0140E0C5
:1057900050E08E5D9340B8F4CA01B9010E94AD3368
:1057A0002DEC3CEC4CEC5EE30E943B3420E030E01E
:1057B00046EC53E40E94B4329B01AC0160E070E01F
:1057C00080E896E40EC0CA01B9010E94AD332DEC09
:1057D0003CEC4CEC5EE30E943B3420E030E046ECD5
:1057E00053E40E94B4320E948133F201738F628FBE
:1057F000F2018585968561E0AE014F5F5F4F21E044
:105800000E94F30A69817A8180E090E00E94AD33C2
:105810005B016C012DEB32E546E15FE30E943B3416
:1058200025EC3EEF42E050E40E94B4327B018C0153
:10583000C601B5012BE335E246ED59EB0E943B343E
:10584000A60195010E943B349B01AC01C801B70140
:105850000E94B5320E948133E62EF201648F628D80
:10586000738D80E090E00E94AD3320E030E040E2B4
:1058700051E40E94193320E030E048EC51E40E94EA
:10588000B4323B014C01C601B5012CEA35EC47EAC4
:105890005AE30E943B342AE037ED43E25CE30E9486
:1058A000B5329B01AC01C401B3010E943B345B01E2
:1058B0006C01FF240027F7FC0095102FC801B701E9
:1058C0000E94AF339B01AC01C601B5010E94B53205
:1058D0000E948133F201648FF201878590890097DD
:1058E00051F160E00E94690EF201878590890E9463
:1058F000950C24E630E040E050E00E94F334F201E1
:10590000368F258F2D52314098F03320A1F0F201CF
:10591000878590890E94B20B20E030E040E251E49C
:105920000E943B340E948133F201738F628F03C067
:10593000F201168E158EF20181899289BE016D5F8A
:105940007F4FAE014B5F5F4F0E94B90820E030E00F
:1059500048EC52E40E943B340E948133F201678F8D
:1059600070A381A392A3818992890E9465068823EE
:1059700071F0F201178E10A211A212A213A214A2AA
:1059800015A216A217A210A611A612A611C08B81ED
:105990009C81A0E0B0E0F20183A394A3A5A3B6A3E9
:1059A0008D819E81A0E0B0E087A390A7A1A7B2A7B8
:1059B00026960FB6F894DEBF0FBECDBFCF91DF9114
:1059C0001F910F91FF90EF90DF90CF90BF90AF901D
:1059D0009F908F907F906F905F904F903F90089531
:1059E000CF93DF93EC010E9485312C893D894E894C
:1059F0005F89211531054105510589F0621773074B
:105A00008407950760F08B898D3621F4CE010E94C2
:105A10008F2B05C0843719F4CE010E941D2BDF9116
:105A2000CF910895EF920F931F93FC01662321F409
:105A3000CF010E94F02C23C0613019F4263059F4B4
:105A40001EC06131B1F44230D1F4CF01B8014E2D06
:105A50000E94D92A14C02E3021F4CF010E94D02AEE
:105A60000EC0213061F4CF01B8014E2D0E944B2AA7
:105A700006C06E3320F0828193810E949E1F1F9189
:105A80000F91EF900895AF92BF92CF92DF92EF9275
:105A9000FF920F931F93CF93DF93EC01B62EA42EAA
:105AA000398F288F0E94853168517C4F8F4F9F4FCF
:105AB0006C8B7D8B8E8B9F8B8DE68B8B1E870D87E2
:105AC000C8016B2D4A2D0E94DC0A8D859E8561E000
:105AD0000E94C50AE114F10411F0F88AEF86C1149E
