:100000000C9444010C94D6300C9403310C94881059
:100010000C9463100C943E100C9445150C946C01D8
:100020000C946C010C946C010C946C010C946C019C
:100030000C946C010C946C010C946C010C946C018C
:100040000C9446310C946C010C94A02D0C94EE2D64
:100050000C946C010C946C010C946C010C946C016C
:100060000C94D9030C946C01000000000500000002
:1000700000BE01010406050105000000C3010500E2
:100080003D55575330303030303031700301006F00
:10009000B75D00631963290A002800290020286C35
:1000A0003A004B6E6F776E20636F6D6D616E647397
:1000B0003A00206279746573004E6F7420656E6F2C
:1000C00075676820646174612C206E65656420002A
:1000D000556E7265636F676E697A656420636861E7
:1000E0007261637465723A2000002E012E020603CD
:1000F0000D04E905CA063D070C0B060D210E650F20
:100100006A10C81193120315341601173018181904
:10011000161B432156250026112D353EC3202020D5
:10012000777269746520646174612C206275742033
:100130006E6F7420696E20636F6E666967206D6FE5
:1001400064650A002D3E204E4120003C2D20000A0F
:10015000554E4B4E4F574E204D4553534147452C1E
:1001600020504C45415345205245504F5254210A8E
:100170000A006E6F7420726563656976656420623B
:1001800065666F72652E2E2E0A00616C7265616461
:1001900079207265636569766564202D20736B69CB
:1001A000700A002020207265706561746564206D9E
:1001B0006573736167653B20006C3E2000623E20E2
:1001C000002D3E20000A0A00202020000A0A0064B8
:1001D0006174613A2000726567733A20002C2061D7
:1001E0006464723A002C206C656E3A006964783A57
:1001F000002C20704D61783A002C206C73743A000A
:10020000636E6C3A0020656C656D656E74730A00F0
:100210000A636F6E74656E74206F66206444656651
:1002200020666F72200000000000240027002A00D2
:1002300000000000250028002B0000000000230023
:100240002600290004040404040404040202020237
:100250000202030303030303010204081020408089
:100260000102040810200102040810200000000709
:10027000000201000003040600000000000000006E
:100280005602C205AD10512F11241FBECFEFD8E08A
:10029000DEBFCDBF11E0A0E0B1E0E4ECFAE602C0C1
:1002A00005900D92AE3AB107D9F714E0AEEAB1E08D
:1002B00001C01D92A03FB107E1F712E0C8E8D2E00B
:1002C00004C02297FE010E942535C038D107C9F726
:1002D0000E9437310C9460350C940000FB01DC0166
:1002E00004C08D910590801921F441505040C8F709
:1002F000881B990B0895FB01DC0102C005900D924B
:1003000041505040D8F70895FC014150504030F022
:1003100001900616D1F73197CF01089588279927C4
:100320000895FB01DC0104C08D910190801921F436
:1003300041505040C8F7881B990B0895FB01DC0120
:1003400002C001900D9241505040D8F70895A0E0AE
:10035000B0E0EDEAF1E00C9433357C01EB018A0169
:10036000690109C0CE012196F6010995F701819333
:100370007F010150104001151105A1F7CDB7DEB77F
:10038000E8E00C944F35BF92CF92DF92EF92FF924C
:100390000F931F937B018C01FB010995B82EC801B7
:1003A0000196F7010995C82EC8010296F701099533
:1003B000D82EC8010396F7010995982F6B2D7C2D37
:1003C0008D2D1F910F91FF90EF90DF90CF90BF90F8
:1003D0000895DF92EF92FF920F931F937B018C01A0
:1003E000FB010995D82EC8010196F7010995982FB0
:1003F0008D2D1F910F91FF90EF90DF900895A0E059
:10040000B0E0E5E0F2E00C943335EC017B018A01C9
:10041000690109C0CE012196F70161917F01F601C2
:1004200009950150104001151105A1F7CDB7DEB7B0
:10043000E8E00C944F35BF92CF92DF92EF92FF929B
:100440000F931F93D52EC62EB72E79018C01642FE2
:10045000F9010995C80101966D2DF7010995C801AB
:1004600002966C2DF7010995C80103966B2DF701D3
:1004700009951F910F91FF90EF90DF90CF90BF9063
:100480000895DF92EF92FF920F931F93D72E7A0178
:100490008C01FA010995C80101966D2DF7010995A6
:1004A0001F910F91FF90EF90DF90089588E0EEEAA2
:1004B000F1E0DF01982F1D929A95E9F71092B301B0
:1004C0001092B2011092B5011092B4011092B101D4
:1004D0001092B0013896DF011D928A95E9F71092CB
:1004E000BB011092BA011092BD011092BC01109292
:1004F000B9011092B8018CEF91E00E946D06089549
:100500000F931F938C018AE493E00E94A31FF801CC
:100510008081882321F48AE493E00E946D261F9154
:100520000F9108958AE493E00E948B260895AF927C
:10053000BF92CF92DF92EF92FF920F931F9314BE60
:1005400088E10FB6F89480936000109260000FBEAF
:1005500018EDA12E13E0B12EC5016AE04BE02CE0AE
:100560000DE0B2E0EB2ECC240E9401138501075F61
:100570001F4FC80164E044E00E94E412C80163E038
:1005800043E023E00E941D1289E190E0A80EB91E0D
:10059000C50162E047E021E00F2EFEE9EF2EFFEEFD
:1005A000FF2EF7E20F2FFEE31F2FF02DA0E1CA2E42
:1005B000A7E2DA2E0E947F0FC50166E10E94C20EFB
:1005C000FAE4EF2EF3E0FF2EC70163E00E94A921B9
:1005D000C7010E94E72604EC11E0C80160E0A70112
:1005E0000E947B27C80168E040E050E00E94D129CA
:1005F000E1E0AE2EE2E0BE2EC50161E0A7010E945F
:10060000A62AC50162E143E120E030E00FED11E0F0
:1006100075EEE72E71E0F72E5CEFC52E51E0D52E7A
:100620000E94582D64B714BEC5010E94552A1F911F
:100630000F91FF90EF90DF90CF90BF90AF90089513
:10064000382F413210F040E042C080912D028823C3
:10065000E1F791E090932D0220932F028FEF80938A
:100660009A02109255024150409356024F5F909368
:100670002E0280912E02330F832B80932E028091C5
:100680003002813041F41092300280912E0280932A
:10069000BB0085EC01C085EE8093BC0080912D02EB
:1006A0008130E1F380915502841710F44091550296
:1006B00020E030E00AC0FB01E20FF31FD901AB5C80
:1006C000BD4F8C9180832F5F3F4F2417A0F3842F61
:1006D00008950F931F93582F122F413210F081E08D
:1006E0004AC080912D028823E1F782E080932D0299
:1006F00000932F028FEF80939A021092550240933D
:100700005602A5E3B2E0FB0102C081918D938E2FCA
:10071000861B8417D0F310922E0280912E02550F63
:10072000852B80932E0280913002813041F410920B
:10073000300280912E028093BB0085EC01C085EED3
:100740008093BC00112321F080912D028230E1F3CF
:1007500080919A028F3F11F480E00DC080919A023F
:10076000803211F482E007C080919A02803311F048
:1007700084E001C083E01F910F910895482F6132FA
:1007800010F081E0089580912D02843011F082E014
:10079000089560937802A7E5B2E0842F9C01F901E7
:1007A00002C081918D938E2F841B8617D0F380E039
:1007B00008951F920F920FB60F9211242F933F931B
:1007C0004F935F936F937F938F939F93AF93BF9359
:1007D000EF93FF938091B90090E0887F907080360E
:1007E000910509F4F2C081369105CCF58832910566
:1007F00009F47BC089329105B4F48031910509F484
:100800006FC0813191053CF4009709F447C1089706
:1008100009F04FC165C08831910509F466C0809721
:1008200009F047C182C08034910509F4A4C0813425
:10083000910544F48033910509F482C0C89709F00A
:1008400038C189C08035910509F489C08835910582
:1008500009F496C08834910509F02BC1AEC08839DF
:10086000910509F413C189399105ECF48837910594
:1008700009F4ABC0893791054CF48836910509F429
:10088000A4C08037910509F014C19FC08838910534
:1008900009F4FCC08039910509F49DC080389105A8
:1008A00009F007C198C0803B910509F4C6C0813B9F
:1008B00091054CF4803A910509F49FC0883A91055E
:1008C00009F0F7C0BAC0803C910509F4E3C0883C48
:1008D000910509F4DFC0883B910509F0EAC0C2C068
:1008E00080912E028093BB00CFC0909155028091E1
:1008F0005602981768F490915502E92FF0E0EB5CEE
:10090000FD4F80818093BB009F5F90935502BCC0D8
:1009100080912F02882309F44BC085ED8093BC00A1
:100920008091BC0084FDFCCFC2C080E280939A021B
:1009300085ED8093BC008091BC0084FDFCCFB7C0E6
:1009400080E380939A0285ED8093BC008091BC0087
:1009500084FDFCCFACC088E380939A029BC0809159
:1009600055029091BB00E82FF0E0EB5CFD4F9083C7
:100970008F5F80935502909155028091560282C0FC
:10098000809155029091BB00E82FF0E0EB5CFD4FA9
:1009900090838F5F8093550280912F02882341F0CE
:1009A00085ED8093BC008091BC0084FDFCCF7FC0AE
:1009B00081E08093300284EA6EC085ED8093BC00B4
:1009C0008091BC0084FDFCCF72C083E080932D0237
:1009D0001092990259C080919902803208F056C055
:1009E000809199029091BB00E82FF0E0E758FD4F0D
:1009F00090838F5F8093990247C0809199028032E3
:100A000030F4E0919902F0E0E758FD4F108285ED57
:100A10008093BC008091BC0084FDFCCF10922D021D
:100A200060919902E0913302F091340289E792E0FB
:100A300070E00995109299022DC084E080932D02F8
:100A40001092770210927802E0913102F091320216
:100A5000099580917802882329F481E080937802B7
:100A60001092570290917702E92FF0E0E95AFD4F7A
:100A700080818093BB009F5F909377029091770273
:100A800080917802981710F485EC01C085E8809376
:100A9000BC000FC085EC8093BC0009C010929A0284
:100AA00085ED8093BC008091BC0084FDFCCF10924A
:100AB0002D02FF91EF91BF91AF919F918F917F9107
:100AC0006F915F914F913F912F910F900FBE0F90BB
:100AD0001F90189510922D0281E080932F021092A2
:100AE000300282E161E00E94223283E161E00E94F3
:100AF0002232E9EBF0E080818E7F808380818D7FE0
:100B0000808380E28093B80085E48093BC000895E0
:100B100081E08093E0026093BD021092DE021092A9
:100B2000DF0208952091BC0230E08091BB02281BB7
:100B30003109C90108954091BB028091BC02481758
:100B400018F02FEF3FEF0AC0E42FF0E0E556FD4F1D
:100B50008081282F30E04F5F4093BB02C901089588
:100B6000E091BB028091BC02E81718F0EFEFFFEFB5
:100B700006C0F0E0E556FD4F8081E82FF0E0CF01A0
:100B8000089508951092E4021092E30288EE93E033
:100B9000A0E0B0E08093E5029093E602A093E70224
:100BA000B093E80283E791E09093E2028093E10240
:100BB0000895CF92DF92EF92FF920F931F93CF93FE
:100BC000DF937C016B018A018091E0028823A1F010
:100BD000C0E0D0E00DC0D701ED91FC91D601AC0F83
:100BE000BD1F0190F081E02DC7016C910995219600
:100BF000C017D10780F304C0CB01642F0E94BE034D
:100C0000C801DF91CF911F910F91FF90EF90DF907E
:100C1000CF900895DF93CF930F92CDB7DEB7FC014D
:100C200069838091E0028823C9F08091DF028032DD
:100C300038F081E090E09383828320E030E015C0BB
:100C40008091DE02E82FF0E0E254FD4F998190831D
:100C50008F5F8093DE028093DF0205C0CE01019694
:100C600061E00E94BE0321E030E0C9010F90CF9106
:100C7000DF9108950F93062F8091BD026EEB72E015
:100C80004091DF0221E00E9469031092DE0210927F
:100C9000DF021092E0020F91089561E00E943A068F
:100CA0000895413208F040E2862F6BE972E00E941D
:100CB00020031092BB028093BC02089521E00E94A1
:100CC000510608951092BB021092BC021092DE02EF
:100CD0001092DF020E946A0508950895FC01848144
:100CE00008956F927F928F929F92AF92BF92CF9210
:100CF000DF92EF92FF920F931F93CF93DF93FC014C
:100D0000EA01818192818E30910539F417E1E12E5B
:100D100015E7F12E012D112D0FC08536910531F00B
:100D2000E12CB4E0FB2E012D112D06C0A7EEEA2E1A
:100D3000AFE0FA2E012D112D8381882339F4E4E0F0
:100D4000EE0CFF1C001F111FEA95D1F79B0140E03C
:100D500050E0C801B7010E94B3345B016C015AE056
:100D6000D694C794B794A7945A95D1F79E0140E0C2
:100D700050E0C801B7010E94B3343B014C014AE086
:100D800096948794779467944A95D1F7A114B10407
:100D9000C104D10429F480E090E0A0E0B0E00FC0ED
:100DA000C401B3013AE0660F771F881F991F3A9577
:100DB000D1F7A60195010E94E634C901DA01019636
:100DC000A11DB11DB695A79597958795813491057D
:100DD000A105B10528F462EF71E0CEEBD1E049C086
:100DE00081389105A105B10528F464E172E0C1EDF7
:100DF000D2E03FC0813C9105A105B10528F46FE325
:100E000072E0CBE7D3E035C0813021E0920720E0EB
:100E1000A20720E0B20728F460E772E0CEEFD3E04B
:100E200028C0893321E0920720E0A20720E0B20722
:100E300028F46FE671E0CCEFD1E01BC08B3921E0E4
:100E4000920720E0A20720E0B20728F462ED70E0EC
:100E5000CBEFD0E00EC08B599240A040B04028F0BC
:100E600060E070E0C0E0D0E004C068E170E0C2E1A2
:100E7000D0E080E090E0A60195010E94B3347B01B0
:100E80008C01BE0180E090E0A40193010E94B33484
:100E9000E61AF70A080B190BC801B7010E94C23302
:100EA00020E030E040E858E30E945034DF91CF91D9
:100EB0001F910F91FF90EF90DF90CF90BF90AF9078
:100EC0009F908F907F906F900895CF93DF93FC0158
:100ED000E90181819281833B910518F08FEF9FEFAB
:100EE00008C08636910518F089E391E902C087EBC6
:100EF00093E16817790719F04817590751F480E012
:100F000090E0A0E0B0E088839983AA83BB8380E06F
:100F100008C0CF010E947106688379838A839B830E
:100F200081E0DF91CF910895EF92FF920F931F938D
:100F3000CF93DF93EC01062F7A016881772767FD55
:100F4000709581EE92E00E94880510E00F7010709D
:100F5000006881EE92E0602F0E940A0681EE92E026
:100F60000E944D068C838823C1F46881772767FD32
:100F7000709581EE92E041E050E00E945E0681EEC5
:100F800092E00E949205019741F481EE92E00E9466
:100F90009B05F701808381E001C080E0DF91CF9164
:100FA0001F910F91FF90EF900895EF92FF920F9392
:100FB0001F93CF93DF93EC01062F7A016881772787
:100FC00067FD709581EE92E00E94880510E00F7039
:100FD0001070006881EE92E0602F0E940A0681EE98
:100FE00092E00E944D068C83882309F5688177275B
:100FF00067FD709581EE92E042E050E00E945E064F
:1010000081EE92E00E949205029789F481EE92E0CF
:101010000E949B05182F81EE92E00E949B05612F94
:101020000E943031F7019183808381E001C080E02C
:10103000DF91CF911F910F91FF90EF9008950F9343
:101040001F93CF93DF93EC019B018A016CE0A90110
:101050000E94D507882311F490E00BC0CE016EE00A
:10106000A8010E94D50790E0882309F491E081E06F
:101070009827892FDF91CF911F910F910895DF92CB
:10108000EF92FF920F931F937C01062FD42EFC0149
:101090006081772767FD709581EE92E00E94880558
:1010A00010E00F701070006881EE92E0602F0E94D7
:1010B0000A0681EE92E06D2D0E940A0681EE92E012
:1010C0000E944D06F701848390E0882309F491E0A3
:1010D000892F1F910F91FF90EF90DF900895EF926D
:1010E000FF920F931F93DF93CF930F92CDB7DEB78D
:1010F0008C01E62EF42EFC016383442319F48EE068
:1011000090E006C0F1E04F1731F485E690E0F80179
:101110009283818309C0F2E04F1719F482E991E0CC
:10112000F6CFFC0112821182C80161E0AE014F5F6F
:101130005F4F0E949407882399F08981EE2011F077
:10114000806101C08F7E89834F2D437089818C7FA0
:10115000482B4983C80161E00E943F08811181E06A
:101160000F90CF91DF911F910F91FF90EF90089515
:1011700060E040E00E943F08089560E043E00E9484
:101180003F080895CF92DF92EF92FF920F931F9343
:10119000DF93CF9300D000D0CDB7DEB78C016B01C9
:1011A0007A0180E090E0A0E0B0E089839A83AB838D
:1011B000BC8389E2F801808381EE92E00E9462069E
:1011C000C8010E94BD08C80160E040E00E946F08AD
:1011D00084EF91E028EC30E0F9013197F1F70197C5
:1011E000D9F7C801B601A7010E941F08F601808146
:1011F0009181F3E0883E9F0708F5F7012081318156
:10120000F3E0283E3F07E8F48436910510F060E0F3
:1012100007C060E02436310508F061E081E068270E
:10122000C80142E00E946F0884E991E128EC30E0B7
:10123000F9013197F1F70197D9F717C0805D974011
:10124000C8F4F70180819181805D974098F4C801CE
:1012500060E041E00E946F088CED95E028EC30E002
:10126000F9013197F1F70197D9F7C801B601A70144
:101270000E941F08F60160817181F7014081518150
:10128000C8019E012F5F3F4F0E946507882329F404
:1012900080E090E5A3E4B8E404C089819A81AB8141
:1012A000BC8189839A83AB83BC83C8010E94B80840
:1012B00029813A814B815C81B901CA010F900F905D
:1012C0000F900F90CF91DF911F910F91FF90EF90B2
:1012D000DF90CF900895FF920F931F938C01FC0134
:1012E000808161E00E942232F801808161E00E94E9
:1012F000E33182E0F82E8F2D8A95F1F7F801818194
:1013000061E00E9422328F2D8A95F1F7F8018081E9
:1013100060E00E9422328F2D8A95F1F7F8018181D9
:1013200060E00E94223288E08A95F1F7F80181811D
:1013300061E00E9422328F2D8A95F1F7F8018081B9
:1013400061E00E9422328F2D8A95F1F7F8018181A8
:1013500060E00E942232FA94F1F71F910F91FF9002
:1013600008950F931F93CF93DF93EC01888161E081
:101370000E942232888161E00E94E33188E08A95F0
:10138000F1F710E008E0898161E00E942232802FAD
:101390008A95F1F7898160E00E942232802F8A9538
:1013A000F1F71F5F193079F7CE010E946B09DF91C9
:1013B000CF911F910F910895DF92EF92FF920F93BB
:1013C0001F93CF93DF93EC01E62E18E000E022E0BC
:1013D000F22E898161E00E94223292E0D92E8F2D77
:1013E0008A95F1F788810E947632000F082B898157
:1013F00060E00E9422328F2D8A95F1F7115049F753
:10140000888161E00E94E33161E06E2588810E945D
:1014100022328D2D8A95F1F7898161E00E94223276
:1014200088E08A95F1F7898160E00E9422328D2D53
:101430008A95F1F7888160E00E94E331888161E05C
:101440000E942232802FDF91CF911F910F91FF9048
:10145000EF90DF9008950F931F93CF93DF93EC01EC
:101460008B0161E00E94DC099D81982728E031E32F
:1014700097FF03C0990F932701C0990F2150C1F71F
:101480009D83F80180831182CE0161E00E94DC0916
:101490009D81982748E021E397FF03C0990F922789
:1014A00001C0990F4150C1F79D83282F30E0F8010A
:1014B000908180E0282B392B31832083CE0160E09E
:1014C0000E94DC09382F90E028E0990F832F81706B
:1014D000982B36952150C9F78D81981711F480E02B
:1014E00006C08FEF9FEFF8019183808382E0DF9148
:1014F000CF911F910F910895DF92EF92FF920F937A
:101500001F93CF93DF93EC01F62E888161E00E9458
:10151000E33110E808E042E0E42E38E0D32E612FFA
:101520006F2188810E9422328E2D8A95F1F7898160
:1015300061E00E9422328D2D8A95F1F7898160E069
:101540000E9422328E2D8A95F1F71695015039F7B7
:10155000888160E00E94E331888161E00E9422324C
:10156000898161E00E94223288E08A95F1F78881C2
:101570000E9476328C0182E08A95F1F7898160E0E1
:101580000E94223280E0012B09F081E0DF91CF91AF
:101590001F910F91FF90EF90DF9008951F93CF93CD
:1015A000DF93EC01162F17701C830E946B09CE018C
:1015B00066E00E947C0A882321F4CE01612F0E94FC
:1015C0007C0ADF91CF911F9108950F931F938C0197
:1015D000842FF8016083418313821282148261E0B8
:1015E0000E94E331C8010E94B109C8016EE10E9466
:1015F0007C0A1F910F910895CF92DF92EF92FF9294
:101600001F93CF93DF93EC01162F6A01F22E2C81EA
:10161000277090E038E0990F822F8170982B2695E3
:101620003150C9F79D83CE010E946B09112311F03F
:1016300015E001C013E0CE01612F0E947C0A8823CF
:1016400041F59D81912728E031E397FF03C0990F71
:10165000932701C0990F2150C1F79D83FF2031F0DE
:1016600010EF60E7E62E67E1F62E0AC0DB82CA8241
:1016700010C0115011F483E00CC0C7010197F1F7BD
:1016800088810E947632892BA1F7CE01B6010E9493
:101690002B0ADF91CF911F91FF90EF90DF90CF90B9
:1016A0000895EF92FF920F931F93162F042F81EE50
:1016B000E82E82E0F82EC70167E770E00E948805F7
:1016C000C701612F0E940A06C701602F0E940A0607
:1016D000C7010E944D061F910F91FF90EF90089552
:1016E000CF92DF92EF92FF920F931F93162F91EEFE
:1016F000E92E92E0F92EC70167E770E00E948805A5
:10170000C701612F0E940A06C7010E944D06C7014A
:1017100067E770E00E948805C70167E770E042E074
:1017200050E00E945E06C7010E949B05182F00E052
:10173000C7010E949B056C01C7010E944D060C2940
:101740001D29C8011F910F91FF90EF90DF90CF905E
:1017500008950F931F938C0164EF4EE20E94510B8A
:1017600080E197E20197F1F7C80166EF0E94700BE4
:101770001F910F910895CF92DF92EF92FF920F93F6
:101780001F936C010E94A90BA0E0B0E0F60125892F
:10179000368940E050E0821B930BA40BB50B2389E4
:1017A000348940E050E0BC01CD010E94B3347B019C
:1017B0008C01FFE015950795F794E794FA95D1F71A
:1017C000D6011D966D917C911E97882777FD809597
:1017D000982FEBE0660F771F881F991FEA95D1F7C6
:1017E0001F962D913C915097442737FD4095542FDB
:1017F0002E0D3F1D401F511F0E94083588E090E0CC
:10180000A0E0B0E0E80EF91E0A1F1B1F2E0D3F1DC1
:10181000401F511F64E055954795379527956A9568
:10182000D1F7CA01B9010E94C43320E030E040E2A0
:1018300051E40E942E331F910F91FF90EF90DF90A3
:10184000CF900895EF92FF921F93162FA1EEEA2EEC
:10185000A2E0FA2EC70167E770E00E948805C70181
:10186000612F0E940A06C7010E944D06C70167E763
:1018700070E00E948805C70167E770E041E050E032
:101880000E945E06C7010E949B05182FC7010E9497
:101890004D06812F1F91FF90EF900895EF92FF92D8
:1018A0000F931F93CF93DF93EC0148814295440F30
:1018B000440F407C4C5C64EF0E94510B888188236C
:1018C00019F480E197E20CC0813019F480E89EE3BE
:1018D00007C0823019F480E69DE602C080E29BECEE
:1018E0000197F1F7CE0166EF0E94700B7C0100E0DA
:1018F00010E0102F0F2DFE2CEE24CE0168EF0E9479
:10190000220C282F30E040E050E02E293F29402BC8
:10191000512B688188E090E0861B910904C05695A0
:101920004795379527958A95D2F7B901CA01DF9176
:10193000CF911F910F91FF90EF9008952F923F92BA
:101940004F925F926F927F928F929F92AF92BF92CF
:10195000CF92DF92EF92FF920F931F93DF93CF937B
:10196000CDB7DEB72C970FB6F894DEBF0FBECDBF54
:101970004C010E94A90B7C01C4010E944E0C2B015A
:101980003C0100E010E0D40155968D919C91569752
:10199000A0E0B0E0E81AF90A0A0B1B0BF401238956
:1019A000348940E050E0C801B7010E94B3345B01C4
:1019B0006C01FFE0D594C794B794A794FA95D1F73A
:1019C000D4011F96ED90FC9050970027F7FC0095EE
:1019D000102FEA0CFB1C0C1D1D1DC801B70122E0D5
:1019E00030E040E050E00E940835F40165857685DE
:1019F000882777FD8095982FEBE0660F771F881F6B
:101A0000991FEA95D1F7621B730B840B950BA60106
:101A10009501205A3F404040504029833A834B83F0
:101A20005C83A80197010E94083589819A81AB8166
:101A3000BC81820F931FA41FB51F89839A83AB8338
:101A4000BC83BC01CD019B01AC010E94B3349B015E
:101A5000AC016CE055954795379527956A95D1F778
:101A60002F83388749875A87D401DC901596ED91EA
:101A7000FC911697FC87EB8717962D903C90189752
:101A800051962D913C9152973E832D8313962D9123
:101A90003C911497442737FD4095542F69817A81F2
:101AA0008B819C810E94B3347B018C013BE01595B6
:101AB0000795F794E7943A95D1F7D40111968D9153
:101AC0009C911297AA2797FDA095BA2F22E0880F24
:101AD000991FAA1FBB1F2A95D1F7E80EF91E0A1FEE
:101AE0001B1FF40121853285442737FD4095542F73
:101AF0006F81788589859A850E94B334BBE095957E
:101B0000879577956795BA95D1F7E60EF71E081F6A
:101B1000191F0D2C04C0EE0CFF1C001F111F0A948E
:101B2000D2F722E030E040E050E0E20EF31E041F66
:101B3000151FC801B70124E030E040E050E00E94EA
:101B4000083579018A014E185F08600A710A20E59C
:101B500033EC40E050E004C0569547953795279503
:101B6000DA94D2F7C301B2010E94B3345B016C0175
:101B7000AA0CBB1CCC1CDD1C97FD56C08B859C851C
:101B80009C01442737FD4095542F69817A818B81D0
:101B90009C810E94B3347B018C01FDE01595079573
:101BA000F794E794FA95D1F722E030E040E050E076
:101BB000E20EF31E041F151F9101442737FD4095C7
:101BC000542F6F81788589859A850E94B334BC0132
:101BD000992777FD9095892FE60EF71E081F191F8C
:101BE00072E015950795F794E7947A95D1F780E020
:101BF00090E8A0E0B0E0E80EF91E0A1F1B1FAD81BF
:101C0000BE819D0140E050E0C801B7010E94B3349D
:101C10009B01AC016FE056954795379527956A95DE
:101C2000D1F7C601B50104C0C601B501A8019701ED
:101C30000E94E634C901DA015C016D015527D7FC29
:101C40005A954D2D3C2D2B2DCA01B9010E94B3345C
:101C50002EED3BE040E050E00E94B3347B018C016C
:101C6000C601B50123E433EE4FEF5FEF0E94B334BA
:101C70009B01AC019A01552737FD5095452F215303
:101C8000314F4F4F5F4F78011127F7FC1095012F0F
:101C90002E0D3F1D401F511F14E055954795379558
:101CA00027951A95D1F72A0D3B1D4C1D5D1DB901D5
:101CB000CA012C960FB6F894DEBF0FBECDBFCF91F0
:101CC000DF911F910F91FF90EF90DF90CF90BF9029
:101CD000AF909F908F907F906F905F904F903F90CC
:101CE0002F900895CF93DF93EC01643008F063E008
:101CF000688381EE92E00E946206CE016AEA0E9449
:101D0000700B9A838983CE016CEA0E94700B9C83CE
:101D10008B83CE016EEA0E94700B9E838D83CE0171
:101D200060EB0E94700B9A8B898BCE0162EB0E9454
:101D3000700B9C8B8B8BCE0164EB0E94700B9E8B87
:101D40008D8BCE0166EB0E94700B98878F83CE013E
:101D500068EB0E94700B9A878987CE016AEB0E941C
:101D6000700B9C878B87CE016CEB0E94700B9E875B
:101D70008D87CE016EEB0E94700B988B8F87DF9161
:101D8000CF910895FC01608B0895462B40937C0011
:101D900086E880937A0020E030E040E050E08091D7
:101DA0007A00806480937A0080917A0086FDFCCF6F
:101DB0004A30510534F08091780090917900280FD5
:101DC000391F4F5F5F4F4A34510549F780917A00C0
:101DD0008F7780937A0086E0369527958A95E1F78C
:101DE000C901089560E44EE00E94C50E9C0140E0E8
:101DF00050E064EB7BE281E190E00E94E634C901AF
:101E00000895CF92DF92EF92FF920F931F936C0190
:101E1000FC01848161E00E94E331F601848160E08D
:101E20000E942232C60160ECF60145810E94C50E77
:101E3000A0E0B0E0BC01CD012CE434E040E050E093
:101E40000E94B3342FEF33E040E050E00E94E634CC
:101E5000CA01B9010E94C233F6012681378140854B
:101E600051850E942E337B018C01F601848160E054
:101E70000E94E331C801B7010E949633CB011F9144
:101E80000F91FF90EF90DF90CF900895CF93DF9365
:101E9000EC010E949A319B01AC018B81882361F196
:101EA0008C859D85AE85BF85281739074A075B0756
:101EB00018F1CE010E94F20ECE010E94010F9C018A
:101EC00040E064E670E00E94D234888990E06817B0
:101ED000790708F441E048833A8329830E949A31C4
:101EE0002A853B8540E050E0260F371F481F591FC9
:101EF0002C873D874E875F87DF91CF9108959F9212
:101F0000AF92BF92CF92DF92EF92FF920F931F9307
:101F1000CF93DF93EC01962EB42EA22E0E949A311D
:101F20009B82BC82AD82EE82FF8208871987DB86A6
:101F3000CA86992021F06C877D878E879F878C8148
:101F4000882319F060E00E94E331DF91CF911F9167
:101F50000F91FF90EF90DF90CF90BF90AF909F9048
:101F6000089570E06827792720E030E041E050EAEA
:101F7000CB019695879560FF04C0BC016427752747
:101F800001C0BC012F5F3F4F2830310589F7CB01DD
:101F90000895EF92FF920F931F93E82EF89490E02C
:101FA000FC01EE0FFF1FDF01A859BE4F0D90BC9141
:101FB000A02D2C91EE59FE4F0190F081E02D308143
:101FC000322383519D4FDC010C9103273C93002366
:101FD00011F478944EC08081FF24381710F0FF244C
:101FE000F39410E040C0A12FB0E0FD0143E0EE0FFC
:101FF000FF1F4A95E1F7E051FD4F80818E1591F565
:102000008181801779F533E0AA0FBB1F3A95E1F77C
:10201000FD01EE50FD4F60817181AC50BD4F8C9140
:1020200011969C911197FC01AF0112962C91129779
:1020300013963C9120FF0EC0F901F595E795E60F48
:10204000F71F0190F081E02DE40FF51F8081918151
:10205000FC01AF0135952795CB01820F931F6F2DA2
:10206000FA0109951F5F80914003181708F4BBCF50
:1020700078941F910F91FF90EF9008951F920F9207
:102080000FB60F9211242F933F934F935F936F934B
:102090007F938F939F93AF93BF93EF93FF9382E0D0
:1020A0000E94C90FFF91EF91BF91AF919F918F91C6
:1020B0007F916F915F914F913F912F910F900FBE44
:1020C0000F901F9018951F920F920FB60F92112428
:1020D0002F933F934F935F936F937F938F939F9330
:1020E000AF93BF93EF93FF9381E00E94C90FFF91DD
:1020F000EF91BF91AF919F918F917F916F915F9180
:102100004F913F912F910F900FBE0F901F901895F8
:102110001F920F920FB60F9211242F933F934F935C
:102120005F936F937F938F939F93AF93BF93EF933F
:10213000FF9380E00E94C90FFF91EF91BF91AF9193
:102140009F918F917F916F915F914F913F912F91CF
:102150000F900FBE0F901F901895E2EFF2E01182E2
:1021600010821382128215821482389683E0E23440
:10217000F807A9F70895FF920F931F93CF93DF936A
:10218000082FEB01883010F412E00CC08850863024
:1021900010F410E007C0802F8E50863010F01FEF33
:1021A00001C011E0A0914003AF5FA0934003B0E0F5
:1021B00011972A813B814C815D81FD0183E0EE0F07
:1021C000FF1F8A95E1F7EC50FD4F20833183428356
:1021D0005383E3E0AA0FBB1FEA95E1F7FD01EE5040
:1021E000FD4F8881998191838083A051BD4F1C93BD
:1021F000E02FF0E0E85AFD4FF4901196FC92802F0A
:1022000062E00E94E331412F50E0DA01AA0FBB1FC8
:10221000BD016E597E4FEB01E881F98180818F29E4
:1022200080832091680081E090E002C0880F991FB0
:102230001A95E2F7282B20936800A859BE4FED911C
:10224000FC919081E881F9818081892343515D4F20
:10225000FA0180837894DF91CF911F910F91FF90C5
:1022600008950F931F9301EC14E0C80169E970E031
:102270000E94D12F0E949A31AB01BC01C8012AE013
:1022800030E00E947C30C80166E970E00E94D12FE6
:1022900080E01F910F910895CF92DF92EF92FF920D
:1022A0000F931F93E82EFF2491ECC92E94E0D92EB2
:1022B000F70184E0F595E7958A95E1F70FE711E0DE
:1022C000E00FF11FC60160810E94F42F8FE0E82229
:1022D000FF240E0D1F1DC601F80160810E94F42F1E
:1022E00080E01F910F91FF90EF90DF90CF900895C5
:1022F000DF92EF92FF920F931F93CF93DF93D62E2F
:102300008C01C0E0D0E0E62EFF240FC0F8018081F0
:102310000E944C112196CE15DF052CF481EC94E03F
:1023200060E20E94F42F0F5F1F4FCD1578F380E01D
:10233000DF91CF911F910F91FF90EF90DF90089563
:10234000FF920F931F93F62E0E94781101EC14E078
:10235000C8016DE970E00E94D12FC8016F2D4AE0DD
:1023600050E00E948B30C8016BE970E00E94D12FD1
:1023700080E01F910F91FF90089570934203609346
:1023800041030895DF92EF92FF920F931F93CF9333
:10239000DF937C01D62EC42FD0E08C010C0F1D1FC3
:1023A000F80180810E942232F801D2822296CC0F5D
:1023B000DD1FCC0FDD1FCE0DDF1D188219821A82A2
:1023C0001B82DF91CF911F910F91FF90EF90DF90D3
:1023D0000895462F60E00E94C21108951F93CF9385
:1023E000DF93EC01162F60FF04C0CE0160E00E9475
:1023F000E91111FF04C0CE0161E00E94E9111C82C5
:102400001E821A821D821F821B82DF91CF911F9133
:102410000895462F61E00E94C21108959C01FC01BD
:10242000E60FF11D8281882321F0C9010E94E91184
:102430000895C9010E9409120895FF920F931F93F6
:10244000CF93DF93EC01062FF42E122F0E949A31C6
:10245000212F30E0220F331F422F00FF06C0FC82E5
:102460002E83688779878A879B8701FF06C0FD8254
:102470004F836C877D878E879F87DF91CF911F91D8
:102480000F91FF900895BF92CF92DF92EF92FF924B
:102490000F931F93CF93DF93B82EE92E9C018901F0
:1024A0006901FF240E949A31F60120853185428519
:1024B0005385211531054105510509F470C0621796
:1024C00073078407950708F46AC0F801848188239C
:1024D00031F48B2D9E2D6F2D0E94E91107C08130A4
:1024E00041F48B2D9E2D6F2D0E940912C0E0D0E08B
:1024F00023C0823019F4C8E5D2E01EC0833019F43D
:10250000CCE2D1E019C0843019F4C4E6D0E014C0A4
:10251000853061F7F8018681843008F01682F80171
:102520008681E82FF0E0EE0FFF1FE157FE4FC081DC
:10253000D1818F5FF8018683F8018481823078F140
:102540008B2D9E2D6F2D0E940E120E949A319E019E
:10255000442737FD4095542F260F371F481F591F1A
:10256000F6012087318742875387F80186818823C7
:10257000B1F081508683882329F48B2D9E2D6F2DF9
:102580000E94E911CC59DF4FAE01662757FD6095D7
:10259000762F80914103909142030E941D22F39473
:1025A00084E090E0C80ED91E0F5F1F4F92E0F9162D
:1025B00009F078CFDF91CF911F910F91FF90EF90AD
:1025C000DF90CF90BF900895FF920F931F938C01DF
:1025D000862FF42EF801608361E00E94E331C80188
:1025E00060E00E94E911F801F1828F2D61E00E9404
:1025F000E331C80161E00E94E9111F910F91FF9042
:102600000895EF920F93FC0160834183228303833B
:10261000E4820F91EF9008950F931F93CF93DF9370
:10262000EC01162F042F888160E00E9422328A81FB
:102630000E947632892BD9F71EBD0DB407FEFDCF5F
:102640008EB50EBD0DB407FEFDCF8EB5888161E05D
:102650000E942232DF91CF911F910F9108950F9325
:102660001F93CF93DF93EC01062F142F888160E036
:102670000E9422328A810E947632892BD9F7102B50
:102680001EBD0DB407FEFDCF8EB51EBC0DB407FEFA
:10269000FDCF1EB5888161E00E942232812FDF913B
:1026A000CF911F910F91089568E340EC0E942F1382
:1026B0000895EF92FF920F931F93CF93DF93EC0156
:1026C000062FF72E142FE22E888160E00E9422321E
:1026D0008A810E947632892BD9F7106C1EBD0DB409
:1026E00007FEFDCF8EB5802F9F2D9C01F90190E054
:1026F00007C01EBC0DB407FEFDCF8EB581939F5F52
:102700009E15B8F3888161E00E942232DF91CF915B
:102710001F910F91FF90EF900895EF92FF920F930A
:102720001F93CF93DF93EC01162F042FF52EE22E8B
:10273000888160E00E9422328A810E947632892B51
:10274000D9F710641EBD0DB407FEFDCF8EB5802FE6
:102750009F2D9C01F90190E008C080818EBD0DB4D1
:1027600007FEFDCF8EB59F5F31969E15B0F3888131
:1027700061E00E942232DF91CF911F910F91FF9073
:10278000EF9008951F93CF93DF93EC01162F88816C
:1027900060E00E9422328A810E947632892BD9F72A
:1027A0001EBD0DB407FEFDCF8EB5888161E00E948D
:1027B0002232DF91CF911F9108950F931F938C01C7
:1027C00066E30E94C213C8016AE30E94C213C801F3
:1027D00069E30E94C2131F910F9108950F931F93F5
:1027E000CF93DF93EC018B016BE340EC0E942F133E
:1027F000282F90E08F779070892B29F127FD23C037
:10280000CE016FE340E80E942F13282FF801808348
:102810008D33D0F4B8016F5F7F4FCE014FE30E943C
:102820005913CE016FE340E80E942F13CE016FE3EE
:1028300040E80E942F13982F9F779887881F88273A
:10284000881F8E8302C0F8011082CE016AE30E94C5
:10285000C213CE0166E30E94C213CE0164E30E945C
:10286000C213CE016CE30E94C213F8018081DF9194
:10287000CF911F910F910895EF92FF920F931F93A5
:10288000CF93DF93EC017B01142F66E30E94C21308
:10289000CE016AE30E94C213CE016BE30E94C21311
:1028A000112371F0CE0165E30E94C21380E19EE026
:1028B00028EC30E0F9013197F1F70197D9F704C01E
:1028C00080ED97E00197F1F7F70120812F5FCE01AE
:1028D0006FE3A7010E948D13CE016AE30E94C21329
:1028E000CE0165E30E94C21310E00AE1CE0165E368
:1028F00040EC0E942F138D3069F0CE0165E340EC6F
:102900000E942F13833131F4802F8A95F1F71F5FD6
:10291000183C61F781E0DF91CF911F910F91FF90FB
:10292000EF900895CF93DF93EC01888160E00E94DF
:1029300022328A810E947632892BD9F7888161E020
:102940000E942232CE0164E30E94C21380E797E125
:102950000197F1F7CE010E94541390E026E095957F
:1029600087952A95E1F78170DF91CF9108950F93B4
:102970001F93CF93DF93EC01888161E00E94E331E4
:10298000898161E00E94E3318A8160E00E94E33145
:102990008B8161E00E94E3318C8160E00E94E33131
:1029A000888161E00E9422328B8161E00E942232A4
:1029B000898160E00E94223280E58CBD888161E0DF
:1029C0000E9422328DE08A95F1F7888160E00E94B2
:1029D00022328AE18A95F1F7888161E00E942232F1
:1029E0008DE68A95F1F7CE0160E30E94C21380E282
:1029F0009EE40197F1F700E010E0F801E751FF4F86
:102A00006491F801E651FF4FE491CE014E2F0E94F0
:102A10000C130E5F1F4F0433110579F7CE0163E3EA
:102A20000E94C21312E003C0812F8A95F1F7CE01F4
:102A300065E340EC0E942F138130B1F7CE016EE3C5
:102A400040EC0E940C13CE0164E30E94C213CE013D
:102A50006CE30E94C213DF91CF911F910F910895F3
:102A60009C01F999FECF32BD21BDF89A80B5089539
:102A70009C01F999FECF1FBA32BD21BD60BD0FB6D2
:102A8000F894FA9AF99A0FBE08951F920F920FB612
:102A90000F9211248F9381E080932D048F910F90DA
:102AA0000FBE0F901F901895EF92FF920F931F93F8
:102AB000CF93DF93CA017901E801A62FB0E0FA01B4
:102AC0002281338144815581FD0173E0EE0FFF1FA8
:102AD0007A95E1F7EE54FE4F20833183428353838E
:102AE00023E0AA0FBB1F2A95E1F79D0120553E4F19
:102AF000FC0180819181F90191838083A255BE4FB1
:102B000081E08C9370E0ABE026C07A9FC001112475
:102B100020913C0130913D01280F391FF90184912A
:102B20008617C1F4A9014F5F5F4FFA01849183308A
:102B300030F0F90139968591949199838883FA014F
:102B40008491823038F4F901399685919491F70196
:102B5000918380837F5F809139017817B0F2DF9194
:102B6000CF911F910F91FF90EF900895DF93CF9336
:102B700000D00F92CDB7DEB7FC01E654FF4F608165
:102B80007291829190E00F900F900F90CF91DF9112
:102B90000895FC0184AD81500895EF92FF920F9348
:102BA0001F93CF93DF93FF2442C0AF2DB0E0FD0110
:102BB00083E0EE0FFF1F8A95E1F7E255FE4F80811B
:102BC0008823A1F103E0AA0FBB1F0A95E1F7FD01DD
:102BD000E055FE4F40815181AE54BE4F8C9111960D
:102BE0009C911197FC01EF0112962C91129713966C
:102BF0003C9120FF0EC0F901F595E795E40FF51F14
:102C00000190F081E02DEC0FFD1F80819181FC018E
:102C1000EF0135952795CA01820F931F60E040E0D0
:102C200020E000E010E0EE24FE010995F39480918D
:102C300038018F1508F0B9CFDF91CF911F910F9117
:102C4000FF90EF900895DB0111969C91119786E714
:102C5000982711969C93119712965C91129742E0D7
:102C600008C0FD01E20FF31F9452808198279083E2
:102C70004F5F8C91242F30E0481798F3FD01E20F4D
:102C8000F31F8081852780830895DB0111969C9135
:102C9000119786E7892711968C93119742E009C016
:102CA000FD01E20FF31F80819452982790834F5FBC
:102CB000982F8C91242F30E0481790F3FD01E20FFC
:102CC000F31F808112969C918927808308958F92AB
:102CD0009F92AF92BF92CF92DF92EF92FF921F939B
:102CE000CF93DF93EC01C25BDF4F40E010E0A7E43D
:102CF0008A2E912C880E991E5E01FFE4CF2ED12CD6
:102D0000C80ED91EE4E4EE2EF12CE80EF91E212F98
:102D100030E0F901EE0FFF1FEE0FFF1FE20FF31F70
:102D2000E85AFE4FE081EE23D1F1D4018C91E817EF
:102D300011F0EF3F91F5F901EE0FFF1FEE0FFF1FAE
:102D4000E20FF31FE85AFE4F9181F5018081981739
:102D500011F09F3F11F5F901EE0FFF1FEE0FFF1F5E
:102D6000E20FF31FE85AFE4F9281D6018C9198171B
:102D700011F09F3F91F4F901EE0FFF1FEE0FFF1FBF
:102D8000E20FF31FE85AFE4FD7016C9169500380A0
:102D9000F481E02DCE01099541E01F5FB8CF842F6B
:102DA000DF91CF911F91FF90EF90DF90CF90BF9078
:102DB000AF909F908F900895CF92EF92FF920F93D4
:102DC0001F93CF93DF93EB01F8018081A82FB0E030
:102DD000FD0163E0EE0FFF1F6A95E1F7E255FE4F3C
:102DE00080818823C1F16881FA010081F901108195
:102DF00023E0AA0FBB1F2A95E1F7FD01E055FE4F26
:102E000040815181AE54BE4F8C9111969C91119787
:102E1000FC01EF0112962C91129713963C9120FF22
:102E20000EC0F901F595E795E40FF51F0190F081CB
:102E3000E02DEC0FFD1F80819181FC01EF013595A4
:102E40002795CA01820F931F402F212F8701EC2C59
:102E5000FE01099581E0DF91CF911F910F91FF90C5
:102E6000EF90CF900895CF92EF92FF920F931F9320
:102E7000FC018C01015B1F4FAC01425B5F4F70E5B1
:102E8000E72EF12CE80EF91EEC5BFF4FA081E45415
:102E9000F040AB50CF01E95BFF4FBF019801CA2E54
:102EA0000E94DC161F910F91FF90EF90CF90089534
:102EB00020913901E0913C01F0913D0190E009C081
:102EC0008491681761F4319684913197481739F4E9
:102ED00004C09217A8F3E0E0F0E0CF0108959F5FEF
:102EE0003B96F7CF0F931F93022F0E945817AC0108
:102EF0000596FC01259134914C5F5F4FFA01449196
:102F00008091420190914301280F391F409F800119
:102F10001124200F311FC9011F910F910895209195
:102F20003901E0913C01F0913D0190E009C08491AC
:102F3000681761F4329684913297882339F004C07F
:102F40009217A8F3E0E0F0E0CF0108959F5F3B9671
:102F5000F7CF1F93142F0E948F17FC01009739F0B1
:102F6000112351F0329684913297181728F040E0DF
:102F700050E0CA011F910895379625913491412F51
:102F800050E0440F551F440F551F80914001909110
:102F90004101480F591F420F531FEBCFEF92FF9291
:102FA0000F931F93CF93DF937C018091550188236A
:102FB00009F440C010E007E038C0109FC0011124A0
:102FC000C0915601D0915701C80FD91F888188231D
:102FD00031F4C70169814B810E94A9170BC0813070
:102FE00019F020E030E007C0C70169814A812B81D8
:102FF0000E9472179C016C8140E014C0ED81FE813B
:10300000E40FF11D5491F999FECFC90101961FBA41
:1030100032BD21BD50BD0FB6F894FA9AF99A0FBE91
:103020004F5F9C01461750F31F5F809155011817A1
:1030300008F4C3CFDF91CF911F910F91FF90EF90D4
:1030400008952F923F924F925F926F927F928F924C
:103050009F92AF92BF92CF92DF92EF92FF920F9327
:103060001F93DF93CF9300D00F92CDB7DEB73C0113
:103070004A835B832983288C398C4A8C5B8C0E9421
:103080008F172FED30E0620E731ED3018D939C934A
:10309000E1E2FFEF6E0E7F1E892B09F494C029EC4C
:1030A00030E0620E731E80E7D3018C9380E2F3015F
:1030B00082933F0128E33FEF620E731EF301E65354
:1030C000FF4F87EA90E0680E791ED3018C918795B7
:1030D00088278795BB818B2B8083E4E2F0E06E0E1E
:1030E0007F1ED301EA81ED93E981ED931D93FD01EC
:1030F00001938F2D9927AA27BB278193DF01ED929A
:103100003D01A701960140705070BB27A52F942F59
:10311000832FF30181933F0120832EE23FEF620E64
:10312000731EF301E855FF4F8181A3EDB0E06A0EF5
:103130007B1ED3018C930894611C711C8081F30168
:1031400081938B2D9927AA27BB278193DF01AD920D
:103150003D01A501940140705070BB27A52F942F0D
:10316000832FF3018193DF012D933D01852D992755
:10317000AA27BB27F3018193DF014D923D01A201F4
:10318000910140705070BB27A52F942F832FF3011E
:1031900081933F01208322E030E0620E731E83E1C1
:1031A000D3018C93E2E2FFEF6E0E7F1EF301EF512D
:1031B000FF4F80818F5F808322EE30E0620E731EAE
:1031C00081E0D3018C930F900F900F90CF91DF91FE
:1031D0001F910F91FF90EF90DF90CF90BF90AF9035
:1031E0009F908F907F906F905F904F903F902F9027
:1031F0000895FF920F931F93CF93DF93EC01062F57
:10320000F42E122F0E948F17C152DF4F99838883AB
:10321000CF5DD040892B09F443C0202F30E0CF513F
:10322000DF4FF90143E0EE0FFF1F4A95E1F7E2554A
:10323000FE4F81818883C15ED040FE01E853FF4F7D
:1032400081E0F81611F4108202C080E28083C75337
:10325000DF4F80E48883A2978881C75AD0408111CC
:1032600011E0FF2011F480E001C080E4C653DF4F7D
:10327000179511271795102B812B8993F90193E04E
:10328000EE0FFF1F9A95E1F7E255FE4F818188838B
:103290008F5F8183639682E08883249681E08883B0
:1032A000DF91CF911F910F91FF900895EF92FF92C0
:1032B0000F93CF93DF93E42EE9010E948F17AC01A7
:1032C0000596FC01259134914C5F5F4FFA014491C2
:1032D0008091420190914301280F391F4E9D70014A
:1032E00011242E0D3F1D2115310541F0C901BE01EC
:1032F000402F50E028E335E10E94FF01DF91CF919C
:103300000F91FF90EF900895CF93DF93E9010E9412
:10331000A917BC01009711F480E008C0CE0144E079
:1033200050E020E335E10E94A70181E0DF91CF91D9
:1033300008951F93142F0E948F179C010097D9F0B6
:103340000596FC01659174912C5F3F4FF901449102
:103350003596859194912091420130914301620FFD
:10336000731F419F90011124620F731F50E020E3EF
:1033700035E10E94A7011F910895FF920F931F93BB
:10338000CF93DF93EC01F62E0E948F17FC0100977C
:10339000A9F0329610E004910FC0CE016F2D412F9D
:1033A0000E94A91760E375E10E94C30161157105D0
:1033B0008105910521F01F5F101778F31FEF812F12
:1033C000DF91CF911F910F91FF900895DF92EF92BF
:1033D000FF920F931F93CF93DF93EC01062F7A0197
:1033E000662311F410E020C00E948F17FC010097A3
:1033F000D1F0329610E0D49014C0CE01602F412F4E
:103400000E94A91760E375E10E94C301F7012081C2
:10341000318142815381621773078407950721F038
:103420001F5F1D1550F31FEF812FDF91CF911F916B
:103430000F91FF90EF90DF9008951F93CF93DF934C
:10344000EC01162F0E94E619482F8F3F81F0CE0124
:10345000612F0E94A917009751F040E050E060E012
:1034600070E028E335E10E941B0281E001C080E0AA
:10347000DF91CF911F910895EF92FF920F931F93C9
:10348000CF93DF93EC01062F7A010E94E6198F3F5C
:1034900011F01EEF19C0CE01602F0E94BD19182F28
:1034A0008F3F11F41DEF10C0CE01602F412F0E94FD
:1034B000A917009711F41FEF07C0B70144E050E0CF
:1034C00028E335E10E94FF01812FDF91CF911F9109
:1034D0000F91FF90EF900895EF92FF921F93CF937B
:1034E000DF937C01EB0111E008C0C701612FAE0141
:1034F0000E94E6198F3F31F41F5F809138018117D8
:10350000A0F71FEF812FDF91CF911F91FF90EF90D8
:103510000895AF92BF92CF92DF92EF92FF920F93F6
:103520001F93CF93DF93A22EB02E0E945817EC0169
:103530000097A1F100913A0110913B012396FE0101
:1035400084912196FE01F4902497080F111DC80163
:103550006B2D70E04F2D50E00E948401DC0100973C
:10356000E9F0CE010596FC016591749180914201CC
:1035700090914301680F791FFA9CC0011124680FD4
:10358000791F8A2F801B680F711DC6014E2D50E0D8
:1035900020E335E10E94A70181E001C080E0DF91D6
:1035A000CF911F910F91FF90EF90DF90CF90BF9040
:1035B000AF900895CF92DF92EF920F931F936C011B
:1035C00000E01BE021C0019FC001112420913C01BB
:1035D00030913D01280F391FC9010596FC01659105
:1035E00074912C5F3F4FF9014491359685919491E8
:1035F0002091420130914301620F731F50E020E39C
:1036000035E10E94A7010F5F809139010817D8F2B8
:10361000C60160E040E020E00AE073E0E72E5FE2F0
:10362000C52E51E0D52E0E94891A1F910F91EF905F
:10363000DF90CF9008958F929F92AF92BF92CF92DA
:10364000DF92EF92FF920F931F93CF93DF93EC01E2
:10365000162FC42EA02E4701A9010E94E619D82ECC
:103660002FEF821711F48FEF53C0CE01612F4C2D35
:103670000E945817AC01009711F480E049C04D5FDB
:103680005F4FFA01349143505040CA010596FC0146
:10369000059114914C5F5F4FFA0124918091420192
:1036A00090914301080F191F2D9DC0011124080F8F
:1036B000191FC0913A01D0913B01C30FD11DBC2EFF
:1036C000DD24C22E22C07401ED0CF11CF7016081D3
:1036D000CE0170E04C2D50E00E9484019C010097C7
:1036E00091F0F7016181F999FECF1FBA822F8B19F2
:1036F0009801280F311D32BD21BD60BD0FB6F89471
:10370000FA9AF99A0FBE32E0D30EDA14E0F281E0B1
:10371000DF91CF911F910F91FF90EF90DF90CF90AD
:10372000BF90AF909F908F900895AF92BF92CF922D
:10373000DF92EF92FF920F931F93CF93DF93EC01F1
:10374000F62EE42E6801A9010E94E619182F8F3F7A
:1037500009F472C080916E01811729F010922E0435
:1037600010936E0107C080912E048F3F19F480934F
:103770006E0108C0CE016F2D4E2D0E945817AC016E
:10378000009711F410E058C04D5F5F4FFA0134917B
:1037900043505040CA010596FC01C591D4914C5F3D
:1037A0005F4FFA0124918091420190914301C80F2B
:1037B000D91F219FC0011124C80FD91F760110E025
:1037C000022FA32EBB2480912E04801728F51031E0
:1037D00099F19501280F311DE0913A01F0913B01DB
:1037E000E20FF31F8081F70181931E5F80912E0409
:1037F000BE01680F711DCF0141E050E020E335E1CB
:103800000E94A70180912E048F5F80932E0482E096
:1038100090E0E80EF91ED7CF103170F4F601E10FF9
:10382000F11D1082812F8F5FC80ED11CF60110820E
:103830001E5F8FEF80932E04812FDF91CF911F9118
:103840000F91FF90EF90DF90CF90BF90AF900895D1
:10385000BF92CF92DF92EF92FF920F931F93DF936D
:10386000CF9300D000D0CDB7DEB76C01B62E7A0171
:103870000E948F17FC0180912F04909130048E17C5
:103880009F0751F010923104F0933004E0932F041D
:10389000329610E0049117C0809131048F3FC1F738
:1038A0001092300410922F0410E03AC0F701E10F9B
:1038B000F11D60837183828393831C5F8091310447
:1038C0008F5F80933104409131044017A0F4103190
:1038D00038F5C6016B2D0E94A91760E375E10E94BF
:1038E000C30169837A838B839C836115710581058C
:1038F000910521F3DBCF103198F4E10EF11C80919A
:10390000460390914703A0914803B0914903F70102
:1039100080839183A283B3831C5F8FEF80933104F4
:10392000812F0F900F900F900F90CF91DF911F91EB
:103930000F91FF90EF90DF90CF90BF900895BF92CE
:10394000CF92DF92EF92FF920F931F93DF93CF936B
:1039500000D000D0CDB7DEB76C01B62E7A01FA01E7
:1039600080819181A281B38189839A83AB83BC8357
:10397000C6018E010F5F1F4FA8010E941D1AF7019B
:1039800084818C83C6016B2DA8010E941D1A81E0E1
:103990000F900F900F900F90CF91DF911F910F918B
:1039A000FF90EF90DF90CF90BF900895CF92DF927D
:1039B000EF92FF920F931F93DF93CF9300D000D02D
:1039C000CDB7DEB77C01C62E8A01FA018381882338
:1039D00079F080819181A281B38189839A83AB83BD
:1039E000BC83C701AE014F5F5F4F0E943C1AD82EC7
:1039F000F8014481442341F04C83C7016C2DAE0192
:103A00004F5F5F4F0E943C1A25E530E0E20EF31E47
:103A1000F701D1927F0180832AEA3FEFE20EF31E85
:103A20008701025B1F4F9701215B3F4FF701ED5A62
:103A3000FF4FC70147E450E0E40EF51EB701A801AF
:103A40007F01E4E0CE2E0E94DC1681E00F900F9003
:103A50000F900F90CF91DF911F910F91FF90EF90FA
:103A6000DF90CF900895CF92DF92EF92FF920F9365
:103A70001F93DF93CF9300D000D00F92CDB7DEB766
:103A80008C01B2E0CB2ED12CCC0EDD1E085B1F4F7B
:103A9000F80180819181A281B381085410408A830A
:103AA0009B83AC83BD83AEE4EA2EF12CE00EF11EC5
:103AB000D7018C918F708D83C801B6010E946C1A5A
:103AC000682F882329F18983C801A6010E94E6197D
:103AD000482F8F3FE9F0C80169810E949919FFE4DE
:103AE000CF2ED12CC00ED11E0C5B1F4FD801EC91F4
:103AF00004541040EA50C801095B1F4FB801A701E8
:103B000096018E010F5F1F4F7601CE2E0E94DC16AC
:103B10000F900F900F900F900F90CF91DF911F910A
:103B20000F91FF90EF90DF90CF900895CF93DF93A8
:103B3000EB018FE291E066E473E043E050E00E9425
:103B40009101009759F08FE291E0BE0143E050E00F
:103B50000E9491019C0180E0232B09F481E0DF9118
:103B6000CF910895CF92DF92EF92FF920F931F9320
:103B7000DF93CF9300D00F92CDB7DEB77B0100E08B
:103B800010E06E010894C11CD11C19C06091400165
:103B900070914101600F711FC60143E050E020E3C6
:103BA00035E10E94A701C701B60143E050E00E9441
:103BB0009101009711F481E00AC00C5F1F4F8091C2
:103BC0004801909149010817190700F380E00F9010
:103BD0000F900F90CF91DF911F910F91FF90EF9079
:103BE000DF90CF900895CF93DF93EC018A8185FF1A
:103BF00003C080912A0101C081E08EAF8A8190E0EC
:103C000024E0959587952A95E1F78170CD5BDF4F8C
:103C10008883C354D040BE0168547F4FCE010796BD
:103C200043E050E00E949101009771F4AE014C5BBB
:103C30005F4F288130E02F5F3F4FCA01BE01A901CD
:103C40000E949E011DAE07C081E08DAFEF961882E5
:103C500019821A821B82DF91CF910895CF92EF9241
:103C6000FF920F931F93CF93DF93EC015C2D575F6F
:103C70005883595069834A832B83DC011496FC01D5
:103C8000E854FF4F83E001900D928150E1F7DE018F
:103C90001796F80183E001900D928150E1F79E01A3
:103CA000265F3F4FE216F30631F0C901B701452FF9
:103CB00050E00E949E01CE010E94F31DDF91CF9142
:103CC0001F910F91FF90EF90CF9008958F929F9248
:103CD000AF92BF92CF92DF92EF92FF920F931F931A
:103CE000DF93CF9300D000D00F92CDB7DEB75C0149
:103CF000FC0185AD882309F0EDC02FED30E0A20E68
:103D0000B31EF5012081318141E25FEFA40EB51EA3
:103D100080913204909133048217930719F581EE54
:103D200090E0A80EB91E90913704F50180814FE113
:103D30005FEFA40EB51E9817A9F480913604813068
:103D400049F5E0913404F09135043296E491809184
:103D500038048E17F8F082EE90E0A80EB91EF50137
:103D60001082B8C0309333042093320441EE50E007
:103D7000A40EB51EF50180814FE15FEFA40EB51EC4
:103D8000809337041092380410923604309335042F
:103D90002093340480913604882309F07EC0E0919A
:103DA0003404F09135043296E491809138048E17F2
:103DB00008F473C0F50164AD6F5F64AF615028EC27
:103DC00030E0A20EB31EF501408128E33FEFA20EC2
:103DD000B31E4268EAECEE2EF12CEA0CFB1CD50176
:103DE000A252BF4FC501E9ECF0E0AE0EBF1EF501D7
:103DF00020810FE211E0CC900E942E1E81E0809382
:103E0000360468C02F5F2093380464C081E080933B
:103E10003604E0913404F091350464913196E491D4
:103E20002F5F209338042150C5014E2F01E0EE246E
:103E3000E3946E010894C11CD11C0E94891AF501FB
:103E400064AD6F5F64AF6150898190E08170907064
:103E500074E0880F991F7A95E1F728EC30E0A20E04
:103E6000B31EF501408128E33FEFA20EB31E426866
:103E7000482B5AECE52EF12CEA0CFB1CD501A25282
:103E8000BF4FC501E9ECF0E0AE0EBF1EF501208189
:103E90008401CC900E942E1E1DC0E0913404F0914C
:103EA0003504E49132E0832E912C8C0E9D1EC501C9
:103EB0006E2F4091380494010E9484198A819B815D
:103EC000AC81BD81209138040097A105B10509F4AA
:103ED00099CF9CCF0F900F900F900F900F90CF9194
:103EE000DF911F910F91FF90EF90DF90CF90BF90E7
:103EF000AF909F908F900895CF92EF92FF920F9383
:103F00001F93DF93CF930F92CDB7DEB7FC0180E80C
:103F100089838F01085B1F4FCF01EB5BFF4F6081EF
:103F200040E822E07E010894E11CF11CCC24C394FB
:103F30000E942E1E0F90CF91DF911F910F91FF9045
:103F4000EF90CF900895CF92EF92FF920F931F932F
:103F5000DF93CF930F92CDB7DEB7FC0119828C01AE
:103F6000085B1F4FEB5BFF4F608140E822E07E0162
:103F70000894E11CF11CCC24C3940E942E1E0F90C7
:103F8000CF91DF911F910F91FF90EF90CF90089507
:103F9000CF92EF92FF920F931F93FC0181E08287F3
:103FA00063874487E955FF4F8081E75AF040879542
:103FB00088278795822B8587EB56FF4F8081E559AF
:103FC000F04086878F01085B1F4FDF011A96CF01F3
:103FD000EB5BFF4F608140E822E07D01F5E0CF2EF2
:103FE0000E942E1E1F910F91FF90EF90CF90089589
:103FF000CF92EF92FF920F931F93CF93DF93EC0139
:10400000162F042FF22E8FE291E066E473E043E076
:1040100050E00E949101009771F186E08A871B872A
:104020000C87FD86CB56DF4F8881C559D0408E87DF
:10403000C95BDF4F8881C754D040813069F4C15BD0
:10404000DF4F8881CF54D0408E3031F4CB5BDF4FCF
:104050006881C554D04004C06CAD6F5F6CAF6150D7
:10406000CE0144EA20E10FE211E02A967E01A5E0AC
:10407000CA2E0E942E1EDF91CF911F910F91FF90AB
:10408000EF90CF900895CF92EF92FF920F931F93EE
:10409000CF93DF93EC014FE4E42EF12CE80EF91EF0
:1040A000F7018081813049F4CE01C25BDF4F688126
:1040B0002296AE010E94D61CDEC0823049F4CE01A9
:1040C000C25BDF4F68812296AE010E949F1CD3C065
:1040D000833019F5FE01E554FF4FCB5BDF4F88813C
:1040E000C554D0408083FE01E154FF4FC25BDF4FD7
:1040F0008881CE54D0408083DE01A454BF4FFE019E
:10410000E85BFF4F83E001900D928150E1F7CB53C4
:10411000DF4F81E0888322963DC08430E9F5FE01BF
:10412000E554FF4FCB5BDF4F8881C554D04080837F
:10413000FE01E154FF4FC25BDF4F8881CE54D04077
:104140008083FE01E054FF4FCC5ADF4F8881C45575
:10415000D0408083FE01EF53FF4FC05BDF4F88816B
:104160009981AA81BB81C055D04080839183A2836D
:10417000B383DE01A454BF4FFE01E85BFF4F83E031
:1041800001900D928150E1F7CB53DF4F82E088839D
:10419000229681E08883D5C0853031F5FE01E15457
:1041A000FF4FC25BDF4F8881CE54D0408083FE0139
:1041B000EF53FF4FC05BDF4F88819981AA81BB819C
:1041C000C055D04080839183A283B383FE01E05425
:1041D000FF4FCC5ADF4F88818083CE58DF4F81E07C
:1041E0008883C058D04048C08630C1F4CA53DF4FDE
:1041F0001882C65CD040CE010E94DA1A8E01025BA2
:104200001F4FCE01C95BDF4FBE01A8019701EE240D
:10421000FF24CC240E94DC168A912FC08830A9F597
:10422000CA53DF4F8881C65CD040882351F0C15407
:10423000DF4F6881C157D0408881CE54D040681785
:1042400039F081EC94E06DE171E00E94D12F79C0EA
:10425000FE01E054FF4F9E012F533F4FCC5BDF4FD9
:104260000881C454D0400B50CE014081C05BDF4F69
:104270007E010E941B1B2A978881C654D04085FF6F
:1042800060C0CE010E94A31F5CC08930E1F41A8691
:1042900060912D0170912E016D5F7F4FCE010B96C5
:1042A0004BE050E00E947B018E01085B1F4FFE0136
:1042B0003A96CE01CB5BDF4F688140E820E17F0179
:1042C0003BE0C32E29C08A3051F500912D01109199
:1042D0002E01B8016D5F7F4FCE01805B9F4F4AE09A
:1042E00050E00E946E01892B61F58AE0E82EF12CE6
:1042F000EC0EFD1EC701B80141E150E00E947B01B8
:104300006CAD6F5F6CAF6150CE0142EA20E0C85BDC
:10431000DF4F8E01B1E1CB2E0E942E1E12C08E30D7
:1043200081F48E01025B1F4F9E01215B3F4FCE0146
:10433000C95BDF4FBE01A801EE24FF24CC240E94FC
:10434000DC16DF91CF911F910F91FF90EF90CF90EE
:1043500008951F93CF93DF93EC01162F613019F46A
:1043600083B7817F2BC0623059F5CC57DF4F88E986
:104370009AE38993999380ED97E0998388830E94CB
:104380009A31249666507F4F8F4F9F4F6883798371
:104390008A839B8384B7877F84BF80916000886114
:1043A0008093600084E08093600080E091E09A93C5
:1043B0008A93C858D04083B7817F846083BF15C07B
:1043C000633099F484B7877F84BF809160008861EF
:1043D0008093600084E080936000C857DF4F8AEFCD
:1043E00090E099838883C858D040812F83508230D1
:1043F000D8F4CC57DF4F88E99AE38993999388EEF4
:1044000093E0998388830E949A3124966056704F76
:104410008F4F9F4F688379838A839B83CA58D0408C
:1044200083B7817F846083BFCE57DF4F199381E0CC
:104430008883DF91CF911F910895EF92FF920F93A0
:104440001F93CF93DF93EC017A018B01CD57DF4FA0
:104450008881C358D040882329F4CE0182579F4FCA
:104460000E949214CD57DF4F81E088830E949A31D9
:104470009B01AC012E0D3F1D401F511FFE013796C1
:1044800080819181A281B381281739074A075B0790
:1044900020F02083318342835383DF91CF911F919A
:1044A0000F91FF90EF900895EF92FF920F931F935B
:1044B000CF93DF93EC018C010E571F4FF8018081E1
:1044C000882309F4D4C00E949A315AE8E52EF12CD1
:1044D000EC0EFD1EF701208131814281538162176C
:1044E00073078407950708F4C2C08DAD882309F0CF
:1044F000BEC0F8019081923009F042C08E010D5784
:104500001F4FF8018081882331F5CE0182579F4FDC
:104510000E949214882389F00E949A319B01AC0179
:10452000CA57DF4F88819981C658D040A0E0B0E0DB
:10453000280F391F4A1F5B1F04C00E949A319B013C
:10454000AC01CD57DF4F81E08883279628833983DC
:104550004A835B838CC0813041F5CE0182579F4FE7
:104560000E94DD13F80110820E949A3166507F4F3D
:104570008F4F9F4FF701608371838283938377C04E
:10458000933008F474C08E010D571F4FF8018081DD
:10459000813041F4CE0182579F4F0E94DD13F80114
:1045A000108265C0923008F462C0CD57DF4F888119
:1045B000C358D040882309F05AC0CE0189569F4F76
:1045C00063E00E94EE11CE57DF4F9881C258D04071
:1045D0009250923028F48091600080648093600053
:1045E00010927A00209164008FEF8093640083B76B
:1045F000816083BF80E685BF80E485BF889583B7EF
:104600008E7F83BF923028F4809160008F7B8093EF
:1046100060002093640080912D048130E9F41092B1
:104620002D042091EB043091EC044091ED04509165
:10463000EE04C857DF4F88819981A0E0B0E0820F77
:10464000931FA41FB51F8093EB049093EC04A093D9
:10465000ED04B093EE040BC0CA57DF4F4881598177
:10466000C658D04060E070E0CE010E941D22DF916C
:10467000CF911F910F91FF90EF900895CF92EF92FD
:10468000FF920F931F938C0189569F4F62E043E086
:1046900020E00E941D12EAE0EE2EF12CE00EF11E49
:1046A00060912D0170912E01C70141E150E00E94FF
:1046B0007B01F80164AD6F5F64AF6150C80142EAED
:1046C00020E00FE211E071E1C72E0E942E1E1F9123
:1046D0000F91FF90EF90CF900895CF92EF92FF92BD
:1046E0000F931F93CF93DF93EC018DAD882309F0D7
:1046F0005BC0CE0189569F4F61E044E021E00E94FB
:104700001D12CB53DF4FF880C55CD04081E0F81616
:1047100059F4FE01E154FF4FAE01455F5F4FCE01FA
:1047200060810E94281C14C0B2E0FB16E9F5FE016E
:10473000E154FF4FDE01A054BF4F9E012F533F4F66
:104740008E01055F1F4FCE0160814C910E94951B29
:10475000382F882351F4CE0185549F4FFC018DE002
:10476000DF011D928A95E9F71FC0DE01A554BF4FF6
:104770008F3F41F48DE01D928A95E9F7CE010E94AA
:104780007C1F12C0FA866C916F5F6C936150FE01C2
:104790003A963F5FCE0140EA20E1C454DF4F8E01DC
:1047A0007F01C32E0E942E1EDF91CF911F910F918A
:1047B000FF90EF90CF9008958F929F92AF92BF920B
:1047C000CF92DF92EF92FF920F931F93CF93DF93DD
:1047D000EC010E949A315B016C019DAD8EAD891791
:1047E00008F48EC08E01015C1F4FF8018081918119
:1047F000A281B381A816B906CA06DB0608F480C0F8
:104800009C2E8D2ECE01BE010E9423168091430363
:104810000E94C330FE01ED5BFF4FCE0182579F4FD8
:10482000BE0140810E943C148091430364ED76E216
:1048300042E050E00E94A030CE01BE010E94451629
:104840008DAD8F5F8DAF80912B0190912C01A0E0F9
:10485000B0E08A0D9B1DAC1DBD1DF80180839183C6
:10486000A283B383CD57DF4F81E088838A91C258FA
:10487000D0408823F1F0CA57DF4F888199817C01AD
:1048800000E010E02496A60195012E0D3F1D401F6B
:10489000511F88819981AA81BB81CA58D040821753
:1048A0009307A407B50728F4CE01B801A7010E9419
:1048B0001D2281EC94E06BE471E00E94D12F6881AD
:1048C0006F5F892D982D0E94A011682F81EC94E0D4
:1048D0000E94F42F0E943111682F81EC94E00E9415
:1048E000F42FCE51DF4F8881C25ED040813041F439
:1048F000CE0189569F4F63E044E021E00E941D12E3
:104900009DAD8EAD891758F480912A01981738F41F
:104910001DAEEF96188219821A821B82EF979DAD09
:104920008EAD891788F5FE01FF9680819181A28165
:10493000B381A816B906CA06DB0630F11DAE108297
:10494000118212821382CE51DF4F8881C25ED04025
:10495000813069F48E0109561F4FC80163E00E943F
:10496000EE11C80162E042E021E00E941D1281ECDC
:1049700094E064E471E00E94D12F0E943111682F0D
:1049800081EC94E00E94F42FDF91CF911F910F9161
:10499000FF90EF90DF90CF90BF90AF909F908F905F
:1049A00008950F931F93CF93DF93EC018C01055B68
:1049B0001F4FBC0168547F4FC80143E050E00E9484
:1049C0009101FE01E058FF4F009719F4808181604A
:1049D00002C080818E7F8083C80166E473E043E07B
:1049E00050E00E949101FE01E058FF4F009719F43A
:1049F0008081826002C080818D7F8083C058DF4FBC
:104A00008881C058D04080FF05C081EC94E061EC03
:104A100071E00BC081FF05C081EC94E06DEB71E0AB
:104A200004C081EC94E069EB71E00E94D12F8E010B
:104A30000C5B1F4FF80160816F5FC8010E94A011DD
:104A4000682F81EC94E00E94F42F0E943111682FAE
:104A500081EC94E00E94F42FC058DF4F8881C05849
:104A6000D04080FD05C081FD03C0F8011082AAC0BE
:104A70008E01085B1F4FCE01B8010E94961D88234E
:104A800009F098C0CE01B8010E94B21D882309F038
:104A900091C081EC94E060E071E00E949D3086C09E
:104AA00081EC94E063EA71E00E94D12FFE01EF57A0
:104AB000FF4FCB5BDF4F90818881C554D040981762
:104AC00029F481EC94E06AE871E004C081EC94E0A0
:104AD00062E771E00E94D12FFE01EF57FF4FCB5BE1
:104AE000DF4F90818881C554D040981709F45EC08B
:104AF000CE01B8010E94961D882349F0FE01EF57B0
:104B0000FF4FCB5BDF4F8881C554D0408083C058B6
:104B1000DF4F8881C058D04080FD02C081FF3CC07B
:104B2000CA5BDF4F8881C654D04087FF35C0C95B60
:104B3000DF4F8881C754D040813021F4CE010E94DC
:104B400043202AC08230B1F41DAECE51DF4F8881A0
:104B5000C25ED040813001F58E0109561F4FC80159
:104B600063E00E94EE11C80161E044E021E00E9490
:104B70001D1212C0813121F4CE010E9433170CC0E6
:104B8000823120F0CE010E94331D06C081EC94E0FA
:104B90006FE471E00E94D12FC058DF4F8881C05868
:104BA000D04080FF03C0CE010E946716CC5BDF4F70
:104BB000188208C0CA5BDF4F8881C654D04086FD8A
:104BC0006FCF96CFDF91CF911F910F9108959F9254
:104BD000AF92BF92CF92DF92EF92FF920F931F930B
:104BE000CF93DF935C01C0903C01D0903D01EE2457
:104BF000FF2400E0FBE09F2E0BC0FE016491C70183
:104C00000E94B10F7C011F5F21961930B1F70F5F31
:104C100080913901081738F4099DE0011124CC0D69
:104C2000DD1D10E0EACF80913E0190913F0160E3ED
:104C300075E10E94E901E816F90609F439C081EC32
:104C400094E06DE171E00E949D30609140017091AF
:104C50004101409148015091490120E030E010C0ED
:104C6000F999FECF1FBAC901860F971F92BD81BD6A
:104C700010BC0FB6F894FA9AF99A0FBE2F5F3F4F07
:104C80002417350768F384EF91E028EC30E0F90150
:104C90003197F1F70197D9F7C5010E94CE1784EF3C
:104CA00091E028EC30E0F9013197F1F70197D9F75D
:104CB00080913E0190913F01B70148E355E10E9488
:104CC0004102DF91CF911F910F91FF90EF90DF9004
:104CD000CF90BF90AF909F9008950F931F938C013A
:104CE00080913E0190913F0160E070E048E355E122
:104CF0000E944102C8010E94E725C8010E94DA1AF9
:104D0000C80189569F4F62E044E025E00E941D12D1
:104D10001F910F910895CF93DF93EC01CC5BDF4F90
:104D20008881C454D040882319F0CE010E94D12438
:104D30008DAD882319F0CE010E94DC23C953DF4FCB
:104D40008881C75CD040882319F0CE010E946D2372
:104D5000CE51DF4F8881C25ED040882319F0CE014A
:104D60000E94661ECE010E945422CE010E94CD15E3
:104D7000CE0189569F4F0E944312CE0189559F4F05
:104D80000E94460FDF91CF91089588ED93E06EE881
:104D900073E00E94EE13882331F08AE493E06EE81A
:104DA00073E00E9445160895809143030E94C3302A
:104DB00080914403909145030E94C526809143034E
:104DC00064ED76E242E050E00E94A03008950F9337
:104DD0001F938C0181EC94E040E051EE60E070E0C4
:104DE0000E94292EC8010E94E725C8010E94DA1AF4
:104DF000C80182579F4F0E94B7140D561F4FF801EC
:104E0000808103591040809343031093450300931E
:104E1000440364ED76E242E050E00E94A0306091ED
:104E20002D0170912E016F5E7F4FC80188549F4FF6
:104E300043E050E00E947B01C80189569F4FB801B2
:104E40000E94BD118AE493E048EE53E060E070E018
:104E50000E941D221F910F910895EF92FF920F93D0
:104E6000CF93DF93EC017B01FB012081222381F1B1
:104E70008181882319F18D899E8920FF0FC06C895B
:104E8000428127E931E001E00E9456198D899E890F
:104E90006C89F701438128E931E025C06C89F7016D
:104EA000428128E931E001E00E9456198D899E89EE
:104EB0006C89F701438127E931E015C08D899E890E
:104EC0006C89F701428129E931E001E00E9456191D
:104ED000F7018181882349F08D899E896C894381FE
:104EE00029E931E001E00E945619DF91CF910F913D
:104EF000FF90EF900895DF92EF92FF920F931F9330
:104F0000DF93CF9300D000D000D0CDB7DEB77C01C7
:104F1000D62ECA01F701568B458B2FE639E240E0C9
:104F200050E02B833C834D835E83FA82E9829701B4
:104F3000275E3F4F8701095E1F4FAE014F5F5F4FF6
:104F40000E945415F701D48A26960FB6F894DEBF56
:104F50000FBECDBFCF91DF911F910F91FF90EF90CA
:104F6000DF9008950F931F938C016170660FFC0111
:104F700082858D7F862B82870E949A31665F7F4F64
:104F80008F4F9F4FF8016387748785879687828547
:104F9000816082871F910F910895FC018589968910
:104FA0006489438920E00E94F81F0895FC018589E7
:104FB00096896489438920E00E94C81F08951F9341
:104FC000CF93DF93EC01162F8D899E8948EE53E035
:104FD00060E070E00E941D221F3F09F451C06C89FF
:104FE000662359F5112369F48D899E890E943E2319
:104FF0008D899E8940E25EE460E070E00E941D229F
:1050000038C0123039F48D899E8989569F4F62E0ED
:1050100044E008C0163051F48D899E8989569F4F0F
:1050200062E040E020E00E941D1223C0153009F527
:105030008D899E890E946D261CC0123030F48D89A6
:105040009E8940E020E00E94F918812F8250823032
:1050500038F48D899E896C8941E020E00E94F9181E
:10506000143039F48D899E896C8942E020E00E94D9
:10507000F918E885F985309719F08C89612F099521
:10508000DF91CF911F910895EF92FF920F931F939D
:10509000CF93DF93EC010E949A317B018C016A85EA
:1050A00060FF16C18B859C85AD85BE85E816F90627
:1050B0000A071B0708F40CC1862F86958170813082
:1050C00009F0B5C0862F869586958170813009F0EC
:1050D00055C064FF17C08E819F81A0E0B0E02F858E
:1050E000388949895A89820F931FA41FB51FE81672
:1050F000F9060A071B0730F06F7E6A87CE0166E06B
:105100000E94DF276A8563FF13C08A819B81A0E02C
:10511000B0E02F85388949895A89820F931FA41FCF
:10512000B51FE816F9060A071B0710F0677F6A87A4
:105130008A8584FD04C083FD02C08E7F8A878A85AC
:1051400084FF0CC08E819F81A0E0B0E08E0D9F1D7A
:10515000A01FB11F8B879C87AD87BE878A8583FF81
:10516000B7C08A819B81A0E0B0E08E0D9F1DA01F7B
:10517000B11F8B879C87AD87BE87AAC0882309F0A3
:10518000A7C065FF05C06F7D6A87CE0164E020C0BF
:1051900063FF05C0677F6A87CE0161E019C08C811B
:1051A0009D81A0E0B0E02F85388949895A89820F16
:1051B000931FA41FB51FE816F9060A071B0750F432
:1051C00068606A878A819B81892B21F4CE0160E027
:1051D0000E94DF278A8583FF0EC08A819B8100970A
:1051E00051F0A0E0B0E08E0D9F1DA01FB11F8B8776
:1051F0009C87AD87BE878A8584FF0CC08E819F8186
:10520000A0E0B0E08E0D9F1DA01FB11F8B879C8773
:10521000AD87BE87EF86F88A098B1A8B8A85982F0F
:10522000990F94708B7F892B81608A8751C0882366
:1052300009F04EC0862F8695869581708130D1F415
:10524000EF86F88A098B1A8B8C819D81A0E0B0E0F3
:105250008E0D9F1DA01FB11F8B879C87AD87BE87BA
:10526000862F880F84706B7F682B61606A87CE0100
:105270006FEF2CC0882361F565FF11C06F7E6A87D0
:105280008CE291E0A0E0B0E0E80EF91E0A1F1B1FBF
:10529000EB86FC860D871E87CE0163E017C064FF96
:1052A00005C06E7C6A87CE0165E010C060636A87C6
:1052B0008C819D81A0E0B0E08E0D9F1DA01FB11FCD
:1052C0008B879C87AD87BE87CE0162E00E94DF2777
:1052D000DF91CF911F910F91FF90EF900895EF9282
:1052E0000F931F93DC01662321F4CD010E94442813
:1052F00054C0613091F52630D1F554968C91549775
:10530000882359F413961C921E92129788E893E111
:1053100015969C938E9314971BC0ED91FC91119759
:1053200082818F7024E6829FC001112413969C9382
:105330008E931297808182958F70829FC001112475
:10534000845D9E4F15969C938E93149788EE93E000
:1053500017969C938E93169720C06131B1F442301A
:10536000E1F4CD01B8014E2D0E94D62716C02E3093
:1053700021F4CD010E94CD2710C0213071F4CD0160
:10538000B8014E2D0E942D2708C06E3330F055967F
:105390008D919C9156970E94A31F1F910F91EF90A2
:1053A0000895CF92DF92FF920F931F93DF93CF93D5
:1053B000CDB7DEB729970FB6F894DEBF0FBECDBFCD
:1053C0006C01F62E8A01862F62E00E94E331D6013D
:1053D00019961C930E9318971A968C911A97887C9D
:1053E00086601A968C9382EB97E2A0E0B0E08E8301
:1053F0009F83A887B987DD82CC828F2DBE016C5F29
:105400007F4F0E94BB10F6018489882329F0818D8B
:10541000928D918380830EC0DE011196EAE9F1E05E
:1054200083E001900D928150E1F7CE010196D60103
:105430008D939C93F6018489882349F41382128208
:1054400088E893E1958384839783868320C0D6017F
:10545000ED91FC91119782818F7024E6829FC001AB
:10546000112413969C938E931297808182958F704E
:10547000829FC0011124845D9E4F15969C938E934C
:10548000149788EE93E017969C938E93169729961F
:105490000FB6F894DEBF0FBECDBFCF91DF911F9145
:1054A0000F91FF90DF90CF900895FC0160870895E1
:1054B000EF92FF920F93CF93DF93EC017B01FB01FF
:1054C0002081222381F18181882319F18A819B81A6
:1054D00020FF0FC0698142812DE931E000E00E9488
:1054E00056198A819B816981F70143812DE931E059
:1054F00025C06981F70142812DE931E000E00E9479
:1055000056198A819B816981F70143812DE931E038
:1055100015C08A819B816981F70142812DE931E0C3
:1055200000E00E945619F7018181882349F08A81A1
:105530009B81698143812DE931E000E00E94561989
:10554000DF91CF910F91FF90EF900895DF92EF924E
:10555000FF920F931F93DF93CF9300D000D000D022
:10556000CDB7DEB77C01D62ECA01F7015383428343
:1055700027E23DE240E050E02B833C834D835E8395
:10558000FA82E98297012A5F3F4F87010C5F1F4F24
:10559000AE014F5F5F4F0E945415F701D1822696EE
:1055A0000FB6F894DEBF0FBECDBFCF91DF911F9134
:1055B0000F91FF90EF90DF900895FC01828193811D
:1055C0006181408120E00E94F81F0895FC018281E2
:1055D00093816181408120E00E94C81F0895CF928D
:1055E000DF92EF92FF920F931F936C01FC01828177
:1055F00093810E94B6157B018C01F6018281938113
:105600000E94C91590E0A0E0B0E0102F0F2DFE2CF5
:10561000EE248E299F29A02BB12BBC01CD012DE6B4
:105620003EE446EC51E40E94B334675C7F4C8F4FFC
:105630009F4F282F30E040E050E020523E4F4F4F28
:105640005F4FB901CA011F910F91FF90EF90DF905A
:10565000CF9008954F925F926F927F928F929F9218
:10566000AF92BF92CF92DF92EF92FF920F931F9370
:10567000CF93DF93EC010E949A315B016C01888D1E
:10568000998D009759F0A0E0B0E08A0D9B1DAC1DEC
:10569000BD1D8C8B9D8BAE8BBF8B1DC0CE010E9420
:1056A000EF2A38E1E32E3CEFF32E3FEF032F3FEFDD
:1056B000132FEA0CFB1C0C1D1D1D2AEF30E040E0EF
:1056C00050E00E94B334E60EF71E081F191FEC8A43
:1056D000FD8A0E8B1F8B88E893E1A0E0B0E0A80E56
:1056E000B91ECA1EDB1EAC8ABD8ACE8ADF8A8DE651
:1056F0008B8B00D000D08A819B814A8D5B8D0D8D74
:105700001E8DCF8CD8A0E9A0FAA08BA09CA0ADA044
:10571000BEA04FA058A469A47AA4ADB7BEB7119695
:105720004D925D926D927C92149769812C8D0E94AE
:1057300021180F900F900F900F90DF91CF911F9134
:105740000F91FF90EF90DF90CF90BF90AF909F9020
:105750008F907F906F905F904F9008953F924F92FF
:105760005F926F927F928F929F92AF92BF92CF92F1
:10577000DF92EF92FF920F931F93DF93CF9300D0AE
:1057800000D000D0CDB7DEB72C01FC01848995890B
:10579000A689B78988519C4FAF4FBF4F848B958B9B
:1057A000A68BB78B84E7838B1092BC00858596858A
:1057B00060E0AE014F5F5F4F21E00E94FC0A382E8F
:1057C000882309F0A8C089819A819C0140E050E0BB
:1057D0008E5D9340B8F4CA01B9010E94C2332DEC2A
:1057E0003CEC4CEC5EE30E94503420E030E046ECB0
:1057F00053E40E94C9329B01AC0160E070E080E894
:1058000096E40EC0CA01B9010E94C2332DEC3CECF3
:105810004CEC5EE30E94503420E030E046EC53E470
:105820000E94C9320E949633F201738F628FF20197
:105830008585968561E0AE014F5F5F4F21E00E9454
:10584000FC0A69817A8180E090E00E94C2335B01AA
:105850006C012DEB32E546E15FE30E94503425EC0C
:105860003EEF42E050E40E94C9327B018C01C60148
:10587000B5012BE335E246ED59EB0E945034A60109
:1058800095010E9450349B01AC01C801B7010E94F0
:10589000CA320E949633E62EF201648F628D738DB8
:1058A00080E090E00E94C23320E030E040E251E42A
:1058B0000E942E3320E030E048EC51E40E94C932CF
:1058C0003B014C01C601B5012CEA35EC47EA5AE32D
:1058D0000E9450342AE037ED43E25CE30E94CA3272
:1058E0009B01AC01C401B3010E9450345B016C0107
:1058F000FF240027F7FC0095102FC801B7010E9474
:10590000C4339B01AC01C601B5010E94CA320E949A
:105910009633F201648FF20187859089009751F1E7
:1059200060E00E94720EF201878590890E949E0CB1
:1059300024E630E040E050E00E940835F201368F66
:10594000258F2D52314098F03320A1F0F201878548
:1059500090890E94BB0B20E030E040E251E40E94BD
:1059600050340E949633F201738F628F03C0F201AC
:10597000168E158EF20181899289BE016D5F7F4F6F
:10598000AE014B5F5F4F0E94C20820E030E048EC60
:1059900052E40E9450340E949633F201678F70A344
:1059A00081A392A38B819C81A0E0B0E083A394A308
:1059B000A5A3B6A38D819E81A0E0B0E087A390A7A8
:1059C000A1A7B2A7818992890E946E06882329F037
:1059D000F201178E10A211A212A226960FB6F89409
:1059E000DEBF0FBECDBFCF91DF911F910F91FF9012
:1059F000EF90DF90CF90BF90AF909F908F907F906F
:105A00006F905F904F903F900895CF93DF93EC019C
:105A10000E949A312C893D894E895F892115310573
:105A20004105510589F0621773078407950760F0F7
:105A30008B898D3621F4CE010E94AE2B05C08437B0
:105A400019F4CE010E942A2BDF91CF910895EF9295
:105A50000F931F93FC01662321F4CF010E94052DB3
:105A600023C0613019F4263059F41EC06131B1F4FD
:105A70004230D1F4CF01B8014E2D0E94E62A14C065
:105A80002E3021F4CF010E94DD2A0EC0213061F4B6
:105A9000CF01B8014E2D0E94582A06C06E3320F067
:105AA000828193810E94A31F1F910F91EF9008950F
:105AB000AF92BF92CF92DF92EF92FF920F931F931C
:105AC000CF93DF93EC01B62EA42E398F288F0E943E
:105AD0009A3168517C4F8F4F9F4F6C8B7D8B8E8B93
