:107800000C94343C0C94513C0C94513C0C94513CE1
:107810000C94513C0C94513C0C94513C0C94513CB4
:107820000C94513C0C94513C0C94513C0C94513CA4
:107830000C94513C0C94513C0C94513C0C94513C94
:107840000C94513C0C94513C0C94513C0C94513C84
:107850000C94513C0C94513C0C94513C0C94513C74
:107860000C94513C0C94513C11241FBECFEFD8E036
:10787000DEBFCDBF11E0A0E0B1E0E8ECFFE702C061
:1078800005900D92A230B107D9F712E0A2E0B1E065
:1078900001C01D92AD30B107E1F70E942D3D0C945F
:1078A000E23F0C94003C982F95959595959595956C
:1078B000905D8F708A307CF0282F295A8091C0000B
:1078C00085FFFCCF9093C6008091C00085FFFCCF60
:1078D0002093C6000895282F205DF0CF982F809127
:1078E000C00085FFFCCF9093C6000895EF92FF92F1
:1078F0000F931F93EE24FF2487018091C00087FD22
:1079000017C00894E11CF11C011D111D81E4E8164B
:1079100082E4F8068FE0080780E0180770F3E09132
:107920000401F091050109958091C00087FFE9CF1E
:107930008091C6001F910F91FF90EF9008950E94D3
:10794000763C982F8091C00085FFFCCF9093C600B5
:1079500091362CF490330CF09053892F089597555D
:10796000892F08951F930E949F3C182F0E949F3CCF
:107970001295107F810F1F9108951F93182F882350
:1079800021F00E94763C1150E1F71F9108951F935A
:10799000182F0E94763C803249F0809103018F5F5E
:1079A000809303018530C1F01F9108958091C0003C
:1079B00085FFFCCF84E18093C6008091C00085FFE5
:1079C000FCCF1093C6008091C00085FFFCCF80E102
:1079D0008093C6001F910895E0910401F091050184
:1079E00009951F9108950E94763C803241F0809164
:1079F00003018F5F80930301853081F008958091AA
:107A0000C00085FFFCCF84E18093C6008091C00058
:107A100085FFFCCF80E18093C6000895E0910401CA
:107A2000F09105010995089540E951E08823A1F0FE
:107A30005C9A28EE33E0FA013197F1F7215030409B
:107A4000D1F75C9828EE33E0FA013197F1F7215035
:107A50003040D1F7815061F708952F923F924F92B5
:107A60005F926F927F928F929F92AF92BF92CF92CE
:107A7000DF92EF92FF920F931F93CF93DF9394B710
:107A800014BE809160008861809360001092600055
:107A900091FF1EC280E18093C4001092C50088E16E
:107AA0008093C10086E08093C2005098589A549AFF
:107AB00081E00E94143D0E94763C51E0E52EF12CBD
:107AC00044E1D42E3EE1C32E25E9B22E9FE0A92E3B
:107AD00000E1902E8824839411E4712EB6E56B2E7C
:107AE000A2E55A2EF0E24F2EE9E43E2E73E5272E52
:107AF000803309F441C0813309F445C0803409F46E
:107B00007EC0813409F485C0823409F494C0853480
:107B100009F497C0803581F1823571F1813509F41E
:107B2000C7C1853509F493C0863509F49BC08436F6
:107B300009F43AC1843709F4CDC0853709F4A4C0EB
:107B4000863709F474C0809103018F5F809303012D
:107B5000853009F493C00E94763C0894E11CF11C26
:107B600097E0E916F10424F24C9B09C05C98EE24DE
:107B7000FF24803309F0BFCF0E94F33CECCF5C9A26
:107B8000EE24FF24B5CF0E94763C8032E1F680914E
:107B9000C00085FFFCCFD092C6008091C00085FF59
:107BA000FCCF7092C6008091C00085FFFCCF609230
:107BB000C6008091C00085FFFCCF5092C600809126
:107BC000C00085FFFCCF4092C6008091C00085FFB9
:107BD000FCCF3092C6008091C00085FFFCCF209280
:107BE000C6008091C00085FFFCCF80E58093C60071
:107BF0008091C00085FFFCCF9092C600ACCF0E9460
:107C0000763C863808F4B8CF0E94763C0E94F33C5C
:107C1000A2CF0E94763C803809F435C1813809F43E
:107C20002EC1823809F44AC1883909F44FC080E076
:107C30000E94C73C90CF84E10E94BD3C0E94F33C6F
:107C40008ACF85E00E94BD3C0E94F33C84CF0E9415
:107C5000763C809306010E94763C809307010E9447
:107C6000F33C79CF0E94763C803309F410C183E065
:107C70000E94BD3C80E00E94C73C6DCFE0910401B2
:107C8000F0910501099567CF0E94763C803209F09A
:107C90005ACF8091C00085FFFCCFD092C600809162
:107CA000C00085FFFCCFC092C6008091C00085FF58
:107CB000FCCFB092C6008091C00085FFFCCFA0929F
:107CC000C6008091C00085FFFCCF96CF83E00E9464
:107CD000C73C41CF0E94763C809309020E94763CCB
:107CE000809308028091060190910701880F991FE7
:107CF00090930701809306010E94763C853409F435
:107D0000E1C080910C028E7F80930C020E94763C31
:107D1000803209F020CF8091C00085FFFCCFD09247
:107D2000C600009108021091090201151105B9F170
:107D300080910C02B82FB170A82FA695A170E09188
:107D40000601F09107019F012F5F3F4FB90140E00D
:107D500050E0BB23A9F4AA2339F494918091C00088
:107D600085FFFCCF9093C6004F5F5F4FCB0101961C
:107D7000F9014017510778F4BC012F5F3F4FE9CF5D
:107D8000F999FECFF2BDE1BDF89A90B58091C0009F
:107D900085FFFCCFE7CF70930701609306018091C8
:107DA000C00085FFFCCF28CF0E94763C809309025B
:107DB0000E94763C8093080280910C028E7F809313
:107DC0000C020E94763C853429F480910C0281607B
:107DD00080930C028091080290910902892B89F00E
:107DE00000E010E00E94763CF801E85FFE4F8083DF
:107DF0000F5F1F4F80910802909109020817190721
:107E000088F30E94763C803209F09DCE80910C026E
:107E100080FF64C04091060150910701440F551F37
:107E20005093070140930601609108027091090286
:107E300061157105C9F0E8E0F1E09A01DB01AE0FD0
:107E4000BF1FF999FECF32BD21BD819180BDFA9A45
:107E5000F99A2F5F3F4FEA17FB0799F7460F571F15
:107E600050930701409306018091C00085FFFCCF2D
:107E7000D092C6008091C00085FFFCCFBDCE81E0CE
:107E80000E94C73C68CE82E00E94C73C64CE0E943C
:107E9000763C0E94763C182F0E94763C112309F410
:107EA0008DC0113009F486C08FE00E94C73C53CECC
:107EB0000E94F33C88E080936000FFCF80E10E9445
:107EC000C73C49CE80910C02816080930C021ECF8A
:107ED000E0910401F09105010995DCCD8091070145
:107EE0008823880F880B882180930B0280910601DC
:107EF00090910701880F991F9093070180930601C5
:107F00008091080280FF09C08091080290910902C7
:107F100001969093090280930802F894F999FECF94
:107F20001127E0910601F0910701C8E0D1E08091AE
:107F3000080290910902103091F4009157000170ED
:107F40000130D9F303E000935700E8950091570002
:107F500001700130D9F301E100935700E8950990D1
:107F600019900091570001700130D9F301E000939E
:107F70005700E8951395103498F011270091570099
:107F800001700130D9F305E000935700E8950091A6
:107F9000570001700130D9F301E100935700E895D3
:107FA0003296029709F0C7CF103011F00296E5CF54
:107FB00011245ACF85E90E94C73CCDCD8EE10E94A5
:087FC000C73CC9CDF894FFCFC6
:027FC800800037
:040000030000780081
:00000001FF
