:107800000C94343C0C94513C0C94513C0C94513CE1
:107810000C94513C0C94513C0C94513C0C94513CB4
:107820000C94513C0C94513C0C94513C0C94513CA4
:107830000C94513C0C94513C0C94513C0C94513C94
:107840000C94513C0C94513C0C94513C0C94513C84
:107850000C94513C0C94513C0C94513C0C94513C74
:107860000C94513C0C94513C11241FBECFEFD8E036
:10787000DEBFCDBF11E0A0E0B1E0E2EBFFE702C068
:1078800005900D92A230B107D9F712E0A2E0B1E065
:1078900001C01D92AD30B107E1F70E942D3D0C945F
:1078A000D73F0C94003C982F959595959595959577
:1078B000905D8F708A307CF0282F295A8091C0000B
:1078C00085FFFCCF9093C6008091C00085FFFCCF60
:1078D0002093C6000895282F205DF0CF982F809127
:1078E000C00085FFFCCF9093C6000895EF92FF92F1
:1078F0000F931F93EE24FF2487018091C00087FD22
:1079000017C00894E11CF11C011D111D81E4E8164B
:1079100082E4F8068FE0080780E0180770F3E09132
:107920000401F091050109958091C00087FFE9CF1E
:107930008091C6001F910F91FF90EF9008950E94D3
:10794000763C982F8091C00085FFFCCF9093C600B5
:1079500091362CF490330CF09053892F089597555D
:10796000892F08951F930E949F3C182F0E949F3CCF
:107970001295107F810F1F9108951F93182F882350
:1079800021F00E94763C1150E1F71F9108951F935A
:10799000182F0E94763C803249F0809103018F5F5E
:1079A000809303018530C1F01F9108958091C0003C
:1079B00085FFFCCF84E18093C6008091C00085FFE5
:1079C000FCCF1093C6008091C00085FFFCCF80E102
:1079D0008093C6001F910895E0910401F091050184
:1079E00009951F9108950E94763C803241F0809164
:1079F00003018F5F80930301853081F008958091AA
:107A0000C00085FFFCCF84E18093C6008091C00058
:107A100085FFFCCF80E18093C6000895E0910401CA
:107A2000F09105010995089540E951E08823A1F0FE
:107A30005C9A28EE33E0FA013197F1F7215030409B
:107A4000D1F75C9828EE33E0FA013197F1F7215035
:107A50003040D1F7815061F708952F923F924F92B5
:107A60005F926F927F928F929F92AF92BF92CF92CE
:107A7000DF92EF92FF920F931F93CF93DF9300005B
:107A800080E18093C4001092C50088E18093C1001A
:107A900086E08093C2005098589A549A81E00E94E0
:107AA000143D0E94763C31E0E32EF12C24E1D22EED
:107AB0009EE1C92E05E9B02E1FE0A12EB0E19B2E5C
:107AC00088248394A1E47A2EF6E56F2EE2E55E2EFB
:107AD00070E2472E69E4362E53E5252E803309F4F3
:107AE0003FC0813309F443C0803409F47CC0813441
:107AF00009F483C0823409F492C0853409F495C036
:107B0000803571F1823561F1813551F1853509F4A6
:107B100098C0863509F4A0C0843609F4A9C084371A
:107B200009F416C1853709F485C1863709F473C095
:107B3000809103018F5F80930301853009F47BC03E
:107B40000E94763C0894E11CF11C97E0E916F104D0
:107B50002CF24C9B08C05C98EE24FF24803309F67D
:107B60000E94F33CEDCF5C9AEE24FF24B7CF0E9435
:107B7000763C8032E9F68091C00085FFFCCFD09240
:107B8000C6008091C00085FFFCCF7092C600809136
:107B9000C00085FFFCCF6092C6008091C00085FFC9
:107BA000FCCF5092C6008091C00085FFFCCF409270
:107BB000C6008091C00085FFFCCF3092C600809146
:107BC000C00085FFFCCF2092C6008091C00085FFD9
:107BD000FCCF80E58093C6008091C00085FFFCCF7C
:107BE0009092C600ADCF0E94763C863808F4B8CF9C
:107BF0000E94763C0E94F33CA3CF0E94763C8038E2
:107C000009F4A2C0813809F411C1823809F436C1DF
:107C1000883909F495C080E00E94C73C91CF84E187
:107C20000E94BD3C0E94F33C8BCF85E00E94BD3C8E
:107C30000E94F33C85CFE0910401F0910501099584
:107C40007FCF0E94763C809306010E94763C809311
:107C500007010E94F33C74CF0E94763C803309F404
:107C600011C183E00E94BD3C80E00E94C73C68CF08
:107C70000E94763C809309020E94763C8093080221
:107C800080910C028E7F80930C020E94763C85349A
:107C900009F409C18091080290910902892B89F0A9
:107CA00000E010E00E94763CF801E85FFE4F808320
:107CB0000F5F1F4F80910802909109020817190762
:107CC00088F30E94763C803209F032CF80910C021A
:107CD00080FFF5C06091060170910701660F771F64
:107CE0007093070160930601A0910802B091090208
:107CF0001097C9F0E8E0F1E09B01AD014E0F5F1F66
:107D0000F999FECF32BD21BD819180BDFA9AF99AD1
:107D10002F5F3F4FE417F50799F76A0F7B1F7093AA
:107D20000701609306018091C00085FFFCCFD092CF
:107D3000C6008091C00085FFFCCF9092C60000CFA6
:107D400083E00E94C73CFCCE82E00E94C73CF8CE94
:107D50000E94763C809309020E94763C8093080240
:107D60008091060190910701880F991F9093070158
:107D7000809306010E94763C853409F49AC0809174
:107D80000C028E7F80930C020E94763C803209F0B8
:107D9000D7CE8091C00085FFFCCFD092C600A091C5
:107DA0000802B09109021097C1F180910C02082FCE
:107DB0000170182F16951170E0910601F0910701DE
:107DC000AF014F5F5F4FBA0120E030E00023B1F414
:107DD000112339F494918091C00085FFFCCF9093DA
:107DE000C6002F5F3F4FCB010196FA012A173B07D0
:107DF00080F4BC014F5F5F4F002351F3F999FECF30
:107E0000F2BDE1BDF89A90B58091C00085FFFCCF2E
:107E1000E6CF70930701609306018091C00085FD55
:107E2000DFCE8091C00085FFF8CFDACE81E00E94DE
:107E3000C73C86CE0E94763C803209F079CE809194
:107E4000C00085FFFCCFD092C6008091C00085FFA6
:107E5000FCCFC092C6008091C00085FFFCCFB092DD
:107E6000C6008091C00085FFFCCFA092C600809123
:107E7000C00085FFFCCF9092C60062CE80E10E94D8
:107E8000C73C5ECE0E94763C0E94763C182F0E9432
:107E9000763C112309F483C0113009F484C08FE0CB
:107EA0000E94C73C4DCE80910C02816080930C02F1
:107EB000F1CE80910C02816080930C0265CF80919D
:107EC00007018823880F880B882180930B028091FB
:107ED000060190910701880F991F909307018093E5
:107EE00006018091080280FF09C0809108029091EC
:107EF000090201969093090280930802F894F99977
:107F0000FECF1127E0910601F0910701C8E0D1E012
:107F10008091080290910902103091F4009157006D
:107F200001700130D9F303E000935700E895009108
:107F3000570001700130D9F301E100935700E89533
:107F4000099019900091570001700130D9F301E0B8
:107F500000935700E8951395103498F0112700917D
:107F6000570001700130D9F305E000935700E89500
:107F70000091570001700130D9F301E100935700DF
:107F8000E8953296029709F0C7CF103011F00296AB
:107F9000E5CF11248091C00085FFC5CEC8CE8EE10B
:107FA0000E94C73CCDCD85E90E94C73CC9CDF8945D
:027FB000FFCF01
:027FB20080004D
:040000030000780081
:00000001FF
