:100000000C944B010C94E32F0C9410300C949D1025
:100010000C9478100C9453100C945A150C94730192
:100020000C9473010C9473010C9473010C94730180
:100030000C9473010C9473010C9473010C94730170
:100040000C9453300C9473010C94AD2C0C94FB2C39
:100050000C9473010C9473010C9473010C94730150
:100060000C94EE030C9473010000000005000000E6
:1000700000A001010406050105000000A50172654C
:100080007365742C20646174613A200008F10248A1
:10009000423044656661756C7470030100ABCDEF4E
:1000A00000631963290A002800290020286C3A00FF
:1000B0004B6E6F776E20636F6D6D616E64733A0087
:1000C000206279746573004E6F7420656E6F75677A
:1000D0006820646174612C206E6565642000556E33
:1000E0007265636F676E697A6564206368617261C7
:1000F000637465723A2000002E012E0206030D047F
:10010000E905CA063D070C0B060D210E650F6A10A6
:10011000C811931203153416011730181819161B3D
:10012000432156250026112D353EC320202077720D
:1001300069746520646174612C20627574206E6F2F
:100140007420696E20636F6E666967206D6F6465E9
:100150000A002D3E204E4120003C2D20000A554E25
:100160004B4E4F574E204D4553534147452C205041
:100170004C45415345205245504F5254210A0A00E4
:100180006E6F74207265636569766564206265666A
:100190006F72652E2E2E0A00616C72656164792083
:1001A0007265636569766564202D20736B69700ADA
:1001B000002020207265706561746564206D657330
:1001C000736167653B20006C3E2000623E20002D7D
:1001D0003E20000A0A00202020000A0A0064617400
:1001E000613A2000726567733A20002C20616464D4
:1001F000723A002C206C656E3A006964783A002CE3
:1002000020704D61783A002C206C73743A00636E54
:100210006C3A0020656C656D656E74730A000A6344
:100220006F6E74656E74206F662064446566206628
:100230006F72200000000000240027002A00000048
:100240000000250028002B000000000023002600ED
:100250002900040404040404040402020202020249
:10026000030303030303010204081020408001027A
:1002700004081020010204081020000000070002FA
:1002800001000003040600000000000000005D0201
:10029000D705C2105E2E11241FBECFEFD8E0DEBFFF
:1002A000CDBF11E0A0E0B1E0EEEDF8E602C00590B0
:1002B0000D92A039B107D9F714E0A0E9B1E001C06F
:1002C0001D92A93CB107E1F712E0C6E9D2E004C0F3
:1002D0002297FE010E943234CE38D107C9F70E941E
:1002E00044300C946D340C940000FB01DC0104C01C
:1002F0008D910590801921F441505040C8F7881B1A
:10030000990B0895FB01DC0102C005900D9241504C
:100310005040D8F70895FC014150504030F0019012
:100320000616D1F73197CF010895882799270895A8
:10033000FB01DC0104C08D910190801921F4415032
:100340005040C8F7881B990B0895FB01DC0102C0DF
:1003500001900D9241505040D8F70895A0E0B0E0D0
:10036000E4EBF1E00C9440347C01EB018A0169017B
:1003700009C0CE012196F6010995F70181937F010D
:100380000150104001151105A1F7CDB7DEB7E8E027
:100390000C945C34BF92CF92DF92EF92FF920F9356
:1003A0001F937B018C01FB010995B82EC8010196B2
:1003B000F7010995C82EC8010296F7010995D82EB4
:1003C000C8010396F7010995982F6B2D7C2D8D2D73
:1003D0001F910F91FF90EF90DF90CF90BF90089505
:1003E000DF92EF92FF920F931F937B018C01FB0131
:1003F0000995D82EC8010196F7010995982F8D2DE2
:100400001F910F91FF90EF90DF900895A0E0B0E072
:10041000ECE0F2E00C944034EC017B018A016901CC
:1004200009C0CE012196F70161917F01F60109957E
:100430000150104001151105A1F7CDB7DEB7E8E076
:100440000C945C34BF92CF92DF92EF92FF920F93A5
:100450001F93D52EC62EB72E79018C01642FF9017A
:100460000995C80101966D2DF7010995C8010296FD
:100470006C2DF7010995C80103966B2DF7010995BD
:100480001F910F91FF90EF90DF90CF90BF90089554
:10049000DF92EF92FF920F931F93D72E7A018C0178
:1004A000FA010995C80101966D2DF70109951F9173
:1004B0000F91FF90EF90DF90089588E0E0E9F1E080
:1004C000DF01982F1D929A95E9F7109295011092ED
:1004D000940110929701109296011092930110923C
:1004E00092013896DF011D928A95E9F710929D01DD
:1004F00010929C0110929F0110929E0110929B01FC
:1005000010929A018EED91E00E9482060895EF927A
:10051000FF921F937C01162F8AE994E06EE770E04A
:100520000E94DE2EC701612F0E948D11682F8AE97B
:1005300094E00E94012F8AE994E06AE00E94012F72
:1005400082E293E00E940C1FF7018081882321F44E
:1005500082E293E00E94B8251F91FF90EF900895EA
:1005600082E293E00E94F3250895AF92BF92CF926A
:10057000DF92EF92FF920F931F9310EBA12E13E0E7
:10058000B12EC5016AE04BE02CE00DE0B2E0EB2EAD
:10059000CC240E9416138501075F1F4FC80164E039
:1005A00044E00E94F912C80163E043E023E00E94A6
:1005B000321289E190E0A80EB91EC50162E047E061
:1005C00021E00F2EFEE9EF2EFFEEFF2EF7E20F2FB8
:1005D000FEE31F2FF02DA0E1CA2EA7E2DA2E0E9423
:1005E000940FC50166E10E94D70EF2E2EF2EF3E010
:1005F000FF2EC70163E00E941221C7010E9434262A
:1006000006EA11E0C80160E0A7010E94C426C80103
:1006100068E040E050E00E941A29E3EEAE2EE1E0EF
:10062000BE2EC50161E0A7010E94EF29C50162E16C
:1006300043E120E030E001EC11E077ECE72E71E0DF
:10064000F72E5EEDC52E51E0D52E0E94652C64B7C5
:1006500014BEC5010E949E291F910F91FF90EF903B
:10066000DF90CF90BF90AF900895382F413210F0B7
:1006700040E042C0809107028823E1F791E0909327
:100680000702209309028FEF8093740210922F02C9
:100690004150409330024F5F9093080280910802CE
:1006A000330F832B8093080280910A02813041F43A
:1006B00010920A02809108028093BB0085EC01C071
:1006C00085EE8093BC00809107028130E1F3809138
:1006D0002F02841710F440912F0220E030E00AC06E
:1006E000FB01E20FF31FD901A15FBD4F8C91808305
:1006F0002F5F3F4F2417A0F3842F08950F931F936C
:10070000582F122F413210F081E04AC08091070229
:100710008823E1F782E080930702009309028FEFBC
:100720008093740210922F0240933002AFE0B2E047
:10073000FB0102C081918D938E2F861B8417D0F30D
:100740001092080280910802550F852B80930802B1
:1007500080910A02813041F410920A0280910802CD
:100760008093BB0085EC01C085EE8093BC00112313
:1007700021F0809107028230E1F3809174028F3F73
:1007800011F480E00DC080917402803211F482E097
:1007900007C080917402803311F084E001C083E0CF
:1007A0001F910F910895482F613210F081E0089554
:1007B00080910702843011F082E008956093520224
:1007C000A1E3B2E0842F9C01F90102C081918D93D5
:1007D0008E2F841B8617D0F380E008951F920F920E
:1007E0000FB60F9211242F933F934F935F936F9304
:1007F0007F938F939F93AF93BF93EF93FF938091DA
:10080000B90090E0887F90708036910509F4F2C0BD
:1008100081369105CCF58832910509F47BC0893287
:100820009105B4F48031910509F46FC081319105CF
:100830003CF4009709F447C1089709F04FC165C01F
:100840008831910509F466C0809709F047C182C0DC
:100850008034910509F4A4C08134910544F48033B7
:10086000910509F482C0C89709F038C189C0803564
:10087000910509F489C08835910509F496C088343A
:10088000910509F02BC1AEC08839910509F413C157
:1008900089399105ECF48837910509F4ABC08937A3
:1008A00091054CF48836910509F4A4C08037910570
:1008B00009F014C19FC08838910509F4FCC0803943
:1008C000910509F49DC08038910509F007C198C0D1
:1008D000803B910509F4C6C0813B91054CF4803AF8
:1008E000910509F49FC0883A910509F0F7C0BAC094
:1008F000803C910509F4E3C0883C910509F4DFC010
:10090000883B910509F0EAC0C2C08091080280933B
:10091000BB00CFC090912F0280913002981768F4ED
:1009200090912F02E92FF0E0E15FFD4F80818093ED
:10093000BB009F5F90932F02BCC080910902882367
:1009400009F44BC085ED8093BC008091BC0084FD10
:10095000FCCFC2C080E28093740285ED8093BC001E
:100960008091BC0084FDFCCFB7C080E3809374020B
:1009700085ED8093BC008091BC0084FDFCCFACC0B1
:1009800088E3809374029BC080912F029091BB00FA
:10099000E82FF0E0E15FFD4F90838F5F80932F029F
:1009A00090912F028091300282C080912F0290910D
:1009B000BB00E82FF0E0E15FFD4F90838F5F8093F5
:1009C0002F0280910902882341F085ED8093BC00BD
:1009D0008091BC0084FDFCCF7FC081E080930A023F
:1009E00084EA6EC085ED8093BC008091BC0084FDDC
:1009F000FCCF72C083E0809307021092730259C04B
:100A000080917302803208F056C0809173029091F9
:100A1000BB00E82FF0E0ED5AFD4F90838F5F80938D
:100A2000730247C080917302803230F4E091730208
:100A3000F0E0ED5AFD4F108285ED8093BC0080916F
:100A4000BC0084FDFCCF1092070260917302E0911C
:100A50000D02F0910E0283E592E070E0099510928C
:100A600073022DC084E0809307021092510210920D
:100A70005202E0910B02F0910C0209958091520212
:100A8000882329F481E080935202109231029091E0
:100A90005102E92FF0E0EF5CFD4F80818093BB00B5
:100AA0009F5F90935102909151028091520298174A
:100AB00010F485EC01C085E88093BC000FC085EC84
:100AC0008093BC0009C01092740285ED8093BC0035
:100AD0008091BC0084FDFCCF10920702FF91EF9142
:100AE000BF91AF919F918F917F916F915F914F9146
:100AF0003F912F910F900FBE0F901F90189510925D
:100B0000070281E08093090210920A0282E161E00B
:100B10000E942F3183E161E00E942F31E9EBF0E088
:100B200080818E7F808380818D7F808380E280932F
:100B3000B80085E48093BC00089581E08093BA02F8
:100B4000609397021092B8021092B9020895209112
:100B5000960230E080919502281B3109C901089561
:100B60004091950280919602481718F02FEF3FEFC1
:100B70000AC0E42FF0E0EB58FD4F8081282F30E0D1
:100B80004F5F40939502C9010895E09195028091CD
:100B90009602E81718F0EFEFFFEF06C0F0E0EB5811
:100BA000FD4F8081E82FF0E0CF0108950895109265
:100BB000BE021092BD0288EE93E0A0E0B0E0809308
:100BC000BF029093C002A093C102B093C20286E517
:100BD00091E09093BC028093BB020895CF92DF9284
:100BE000EF92FF920F931F93CF93DF937C016B01E2
:100BF0008A018091BA028823A1F0C0E0D0E00DC044
:100C0000D701ED91FC91D601AC0FBD1F0190F08191
:100C1000E02DC7016C9109952196C017D10780F38B
:100C200004C0CB01642F0E94D303C801DF91CF9190
:100C30001F910F91FF90EF90DF90CF900895DF9379
:100C4000CF930F92CDB7DEB7FC0169838091BA02D2
:100C50008823C9F08091B902803238F081E090E0B9
:100C60009383828320E030E015C08091B802E82FA2
:100C7000F0E0E856FD4F998190838F5F8093B80232
:100C80008093B90205C0CE01019661E00E94D303B2
:100C900021E030E0C9010F90CF91DF9108950F93CB
:100CA000062F8091970268E972E04091B90221E035
:100CB0000E947E031092B8021092B9021092BA02FA
:100CC0000F91089561E00E944F060895413208F0A7
:100CD00040E2862F65E772E00E943503109295028C
:100CE00080939602089521E00E946606089510926E
:100CF0009502109296021092B8021092B9020E94C8
:100D00007F0508950895FC01848108956F927F9274
:100D10008F929F92AF92BF92CF92DF92EF92FF920B
:100D20000F931F93CF93DF93FC01EA01818192819E
:100D30008E30910539F417E1E12E15E7F12E012DE2
:100D4000112D0FC08536910531F0E12CB4E0FB2E5A
:100D5000012D112D06C0A7EEEA2EAFE0FA2E012DCF
:100D6000112D8381882339F4E4E0EE0CFF1C001F71
:100D7000111FEA95D1F79B0140E050E0C801B7018F
:100D80000E94C0335B016C015AE0D694C794B794BB
:100D9000A7945A95D1F79E0140E050E0C801B701F1
:100DA0000E94C0333B014C014AE0969487947794AB
:100DB00067944A95D1F7A114B104C104D10429F470
:100DC00080E090E0A0E0B0E00FC0C401B3013AE0E1
:100DD000660F771F881F991F3A95D1F7A6019501D5
:100DE0000E94F333C901DA010196A11DB11DB69528
:100DF000A7959795879581349105A105B10528F4AC
:100E000062EF71E0CEEBD1E049C081389105A105D8
:100E1000B10528F464E172E0C1EDD2E03FC0813C4D
:100E20009105A105B10528F46FE372E0CBE7D3E0AB
:100E300035C0813021E0920720E0A20720E0B20710
:100E400028F460E772E0CEEFD3E028C0893321E0D8
:100E5000920720E0A20720E0B20728F46FE671E0D5
:100E6000CCEFD1E01BC08B3921E0920720E0A20734
:100E700020E0B20728F462ED70E0CBEFD0E00EC0C6
:100E80008B599240A040B04028F060E070E0C0E094
:100E9000D0E004C068E170E0C2E1D0E080E090E022
:100EA000A60195010E94C0337B018C01BE0180E048
:100EB00090E0A40193010E94C033E61AF70A080BE0
:100EC000190BC801B7010E94CF3220E030E040E8A2
:100ED00058E30E945D33DF91CF911F910F91FF90F6
:100EE000EF90DF90CF90BF90AF909F908F907F90CA
:100EF0006F900895CF93DF93FC01E9018181928186
:100F0000833B910518F08FEF9FEF08C0863691055F
:100F100018F089E391E902C087EB93E1681779073C
:100F200019F04817590751F480E090E0A0E0B0E0D4
:100F300088839983AA83BB8380E008C0CF010E9485
:100F40008606688379838A839B8381E0DF91CF91D2
:100F50000895EF92FF920F931F93CF93DF93EC01CD
:100F6000062F7A016881772767FD70958BEB92E0F9
:100F70000E949D0510E00F70107000688BEB92E0EE
:100F8000602F0E941F068BEB92E00E9462068C830A
:100F90008823C1F46881772767FD70958BEB92E019
:100FA00041E050E00E9473068BEB92E00E94A7059F
:100FB000019741F48BEB92E00E94B005F70180832A
:100FC00081E001C080E0DF91CF911F910F91FF90F0
:100FD000EF900895EF92FF920F931F93CF93DF93BB
:100FE000EC01062F7A016881772767FD70958BEBFE
:100FF00092E00E949D0510E00F70107000688BEB6E
:1010000092E0602F0E941F068BEB92E00E94620626
:101010008C83882309F56881772767FD70958BEBB2
:1010200092E042E050E00E9473068BEB92E00E9457
:10103000A705029789F48BEB92E00E94B005182F68
:101040008BEB92E00E94B005612F0E943D30F701CA
:101050009183808381E001C080E0DF91CF911F9177
:101060000F91FF90EF9008950F931F93CF93DF930D
:10107000EC019B018A016CE0A9010E94EA07882328
:1010800011F490E00BC0CE016EE0A8010E94EA07C7
:1010900090E0882309F491E081E09827892FDF917F
:1010A000CF911F910F910895DF92EF92FF920F93CE
:1010B0001F937C01062FD42EFC016081772767FDEA
:1010C00070958BEB92E00E949D0510E00F70107000
:1010D00000688BEB92E0602F0E941F068BEB92E082
:1010E0006D2D0E941F068BEB92E00E946206F701B5
:1010F000848390E0882309F491E0892F1F910F9158
:10110000FF90EF90DF900895EF92FF920F931F935F
:10111000DF93CF930F92CDB7DEB78C01E62EF42E7E
:10112000FC016383442319F48EE090E006C0F1E0F3
:101130004F1731F485E690E0F8019283818309C06E
:10114000F2E04F1719F482E991E0F6CFFC01128228
:101150001182C80161E0AE014F5F5F4F0E94A90795
:10116000882399F08981EE2011F0806101C08F7E83
:1011700089834F2D437089818C7F482B4983C80117
:1011800061E00E945408811181E00F90CF91DF91BE
:101190001F910F91FF90EF90089560E040E00E9452
:1011A0005408089560E043E00E9454080895CF92E7
:1011B000DF92EF92FF920F931F93DF93CF9300D0B4
:1011C00000D0CDB7DEB78C016B017A0180E090E0F2
:1011D000A0E0B0E089839A83AB83BC8389E2F80105
:1011E00080838BEB92E00E947706C8010E94D208B0
:1011F000C80160E040E00E94840884EF91E028ECA0
:1012000030E0F9013197F1F70197D9F7C801B6013C
:10121000A7010E943408F60180819181F3E0883EA5
:101220009F0708F5F70120813181F3E0283E3F0751
:10123000E8F48436910510F060E007C060E02436E1
:10124000310508F061E081E06827C80142E00E94B2
:10125000840884E991E128EC30E0F9013197F1F755
:101260000197D9F717C0805D9740C8F4F7018081D6
:101270009181805D974098F4C80160E041E00E9450
:1012800084088CED95E028EC30E0F9013197F1F716
:101290000197D9F7C801B601A7010E943408F601E9
:1012A00060817181F70140815181C8019E012F5FEA
:1012B0003F4F0E947A07882329F480E890E0A0E855
:1012C000B7E404C089819A81AB81BC8189839A8308
:1012D000AB83BC83C8010E94CD0829813A814B8130
:1012E0005C81B901CA010F900F900F900F90CF91C0
:1012F000DF911F910F91FF90EF90DF90CF900895B5
:10130000FF920F931F938C01FC01808161E00E948A
:101310002F31F801808161E00E94F03082E0F82EE8
:101320008F2D8A95F1F7F801818161E00E942F31BC
:101330008F2D8A95F1F7F801808160E00E942F31AE
:101340008F2D8A95F1F7F801818160E00E942F319D
:1013500088E08A95F1F7F801818161E00E942F31E0
:101360008F2D8A95F1F7F801808161E00E942F317D
:101370008F2D8A95F1F7F801818160E00E942F316D
:10138000FA94F1F71F910F91FF9008950F931F9317
:10139000CF93DF93EC01888161E00E942F31888137
:1013A00061E00E94F03088E08A95F1F710E008E0F3
:1013B000898161E00E942F31802F8A95F1F7898120
:1013C00060E00E942F31802F8A95F1F71F5F19305E
:1013D00079F7CE010E948009DF91CF911F910F9183
:1013E0000895DF92EF92FF920F931F93CF93DF93B5
:1013F000EC01E62E18E000E022E0F22E898161E0A7
:101400000E942F3192E0D92E8F2D8A95F1F7888195
:101410000E948331000F082B898160E00E942F31E8
:101420008F2D8A95F1F7115049F7888161E00E946C
:10143000F03061E06E2588810E942F318D2D8A95D4
:10144000F1F7898161E00E942F3188E08A95F1F7F8
:10145000898160E00E942F318D2D8A95F1F7888176
:1014600060E00E94F030888161E00E942F31802F7F
:10147000DF91CF911F910F91FF90EF90DF90089532
:101480000F931F93CF93DF93EC018B0161E00E94D8
:10149000F1099D81982728E031E397FF03C0990F58
:1014A000932701C0990F2150C1F79D83F8018083D4
:1014B0001182CE0161E00E94F1099D81982748E0E8
:1014C00021E397FF03C0990F922701C0990F415064
:1014D000C1F79D83282F30E0F801908180E0282B10
:1014E000392B31832083CE0160E00E94F109382F2F
:1014F00090E028E0990F832F8170982B369521502A
:10150000C9F78D81981711F480E006C08FEF9FEF27
:10151000F8019183808382E0DF91CF911F910F9139
:101520000895DF92EF92FF920F931F93CF93DF9373
:10153000EC01F62E888161E00E94F03010E808E0AE
:1015400042E0E42E38E0D32E612F6F2188810E9483
:101550002F318E2D8A95F1F7898161E00E942F311C
:101560008D2D8A95F1F7898160E00E942F318E2DB3
:101570008A95F1F71695015039F7888160E00E944D
:10158000F030888161E00E942F31898161E00E9402
:101590002F3188E08A95F1F788810E9483318C0190
:1015A00082E08A95F1F7898160E00E942F3180E026
:1015B000012B09F081E0DF91CF911F910F91FF90F6
:1015C000EF90DF9008951F93CF93DF93EC01162FD8
:1015D00017701C830E948009CE0166E00E94910A68
:1015E000882321F4CE01612F0E94910ADF91CF91CF
:1015F0001F9108950F931F938C01842FF80160832E
:10160000418313821282148261E00E94F030C8018B
:101610000E94C609C8016EE10E94910A1F910F91B4
:101620000895CF92DF92EF92FF921F93CF93DF93B3
:10163000EC01162F6A01F22E2C81277090E038E021
:10164000990F822F8170982B26953150C9F79D8371
:10165000CE010E948009112311F015E001C013E0B2
:10166000CE01612F0E94910A882341F59D81912727
:1016700028E031E397FF03C0990F932701C0990F2A
:101680002150C1F79D83FF2031F010EF60E7E62E77
:1016900067E1F62E0AC0DB82CA8210C0115011F435
:1016A00083E00CC0C7010197F1F788810E94833164
:1016B000892BA1F7CE01B6010E94400ADF91CF919C
:1016C0001F91FF90EF90DF90CF900895EF92FF92DF
:1016D0000F931F93162F042F8BEBE82E82E0F82E2A
:1016E000C70167E770E00E949D05C701612F0E9456
:1016F0001F06C701602F0E941F06C7010E946206D5
:101700001F910F91FF90EF900895CF92DF92EF928B
:10171000FF920F931F93162F9BEBE92E92E0F92E69
:10172000C70167E770E00E949D05C701612F0E9415
:101730001F06C7010E946206C70167E770E00E94AA
:101740009D05C70167E770E042E050E00E94730624
:10175000C7010E94B005182F00E0C7010E94B00524
:101760006C01C7010E9462060C291D29C8011F9146
:101770000F91FF90EF90DF90CF9008950F931F93FC
:101780008C0164EF4EE20E94660B80E197E20197C4
:10179000F1F7C80166EF0E94850B1F910F91089524
:1017A000CF92DF92EF92FF920F931F936C010E94F2
:1017B000BE0BA0E0B0E0F6012589368940E050E09C
:1017C000821B930BA40BB50B2389348940E050E0B6
:1017D000BC01CD010E94C0337B018C01FFE0159557
:1017E0000795F794E794FA95D1F7D6011D966D9178
:1017F0007C911E97882777FD8095982FEBE0660FE8
:10180000771F881F991FEA95D1F71F962D913C915C
:101810005097442737FD4095542F2E0D3F1D401FF4
:10182000511F0E94153488E090E0A0E0B0E0E80E7F
:10183000F91E0A1F1B1F2E0D3F1D401F511F64E084
:1018400055954795379527956A95D1F7CA01B901FE
:101850000E94D13220E030E040E251E40E943B326D
:101860001F910F91FF90EF90DF90CF900895EF922E
:10187000FF921F93162FABEBEA2EA2E0FA2EC701C0
:1018800067E770E00E949D05C701612F0E941F0657
:10189000C7010E946206C70167E770E00E949D05CC
:1018A000C70167E770E041E050E00E947306C7019E
:1018B0000E94B005182FC7010E946206812F1F9158
:1018C000FF90EF900895EF92FF920F931F93CF93A5
:1018D000DF93EC0148814295440F440F407C4C5CFF
:1018E00064EF0E94660B8881882319F480E197E2F7
:1018F0000CC0813019F480E89EE307C0823019F4EF
:1019000080E69DE602C080E29BEC0197F1F7CE01F4
:1019100066EF0E94850B7C0100E010E0102F0F2D78
:10192000FE2CEE24CE0168EF0E94370C282F30E009
:1019300040E050E02E293F29402B512B688188E060
:1019400090E0861B910904C05695479537952795D9
:101950008A95D2F7B901CA01DF91CF911F910F91FA
:10196000FF90EF9008952F923F924F925F926F9267
:101970007F928F929F92AF92BF92CF92DF92EF921F
:10198000FF920F931F93DF93CF93CDB7DEB72C97C2
:101990000FB6F894DEBF0FBECDBF4C010E94BE0B48
:1019A0007C01C4010E94630C2B013C0100E010E0AB
:1019B000D40155968D919C915697A0E0B0E0E81A1D
:1019C000F90A0A0B1B0BF4012389348940E050E02B
:1019D000C801B7010E94C0335B016C01FFE0D594E0
:1019E000C794B794A794FA95D1F7D4011F96ED90B8
:1019F000FC9050970027F7FC0095102FEA0CFB1C79
:101A00000C1D1D1DC801B70122E030E040E050E090
:101A10000E941534F40165857685882777FD8095C9
:101A2000982FEBE0660F771F881F991FEA95D1F773
:101A3000621B730B840B950BA6019501205A3F4046
:101A40004040504029833A834B835C83A80197012F
:101A50000E94153489819A81AB81BC81820F931FCA
:101A6000A41FB51F89839A83AB83BC83BC01CD01BE
:101A70009B01AC010E94C0339B01AC016CE0559509
:101A80004795379527956A95D1F72F8338874987EA
:101A90005A87D401DC901596ED91FC911697FC873E
:101AA000EB8717962D903C90189751962D913C916D
:101AB00052973E832D8313962D913C911497442782
:101AC00037FD4095542F69817A818B819C810E94DA
:101AD000C0337B018C013BE015950795F794E794A3
:101AE0003A95D1F7D40111968D919C911297AA271E
:101AF00097FDA095BA2F22E0880F991FAA1FBB1F40
:101B00002A95D1F7E80EF91E0A1F1B1FF401218543
:101B10003285442737FD4095542F6F81788589851C
:101B20009A850E94C033BBE0959587957795679518
:101B3000BA95D1F7E60EF71E081F191F0D2C04C029
:101B4000EE0CFF1C001F111F0A94D2F722E030E0B8
:101B500040E050E0E20EF31E041F151FC801B7015C
:101B600024E030E040E050E00E94153479018A0121
:101B70004E185F08600A710A20E533EC40E050E03F
:101B800004C05695479537952795DA94D2F7C30147
:101B9000B2010E94C0335B016C01AA0CBB1CCC1CBF
:101BA000DD1C97FD56C08B859C859C01442737FD25
:101BB0004095542F69817A818B819C810E94C0332A
:101BC0007B018C01FDE015950795F794E794FA9554
:101BD000D1F722E030E040E050E0E20EF31E041FB7
:101BE000151F9101442737FD4095542F6F8178854B
:101BF00089859A850E94C033BC01992777FD90950D
:101C0000892FE60EF71E081F191F72E0159507951C
:101C1000F794E7947A95D1F780E090E8A0E0B0E0FF
:101C2000E80EF91E0A1F1B1FAD81BE819D0140E019
:101C300050E0C801B7010E94C0339B01AC016FE0C6
:101C400056954795379527956A95D1F7C601B50101
:101C500004C0C601B501A80197010E94F333C90170
:101C6000DA015C016D015527D7FC5A954D2D3C2DAD
:101C70002B2DCA01B9010E94C0332EED3BE040E09C
:101C800050E00E94C0337B018C01C601B50123E402
:101C900033EE4FEF5FEF0E94C0339B01AC019A011E
:101CA000552737FD5095452F2153314F4F4F5F4FEB
:101CB00078011127F7FC1095012F2E0D3F1D401FB5
:101CC000511F14E055954795379527951A95D1F7EB
:101CD0002A0D3B1D4C1D5D1DB901CA012C960FB686
:101CE000F894DEBF0FBECDBFCF91DF911F910F9152
:101CF000FF90EF90DF90CF90BF90AF909F908F902C
:101D00007F906F905F904F903F902F900895CF936A
:101D1000DF93EC01643008F063E068838BEB92E0C2
:101D20000E947706CE016AEA0E94850B9A83898316
:101D3000CE016CEA0E94850B9C838B83CE016EEAF8
:101D40000E94850B9E838D83CE0160EB0E94850BE4
:101D50009A8B898BCE0162EB0E94850B9C8B8B8BBF
:101D6000CE0164EB0E94850B9E8B8D8BCE0166EBC2
:101D70000E94850B98878F83CE0168EB0E94850BAC
:101D80009A878987CE016AEB0E94850B9C878B8797
:101D9000CE016CEB0E94850B9E878D87CE016EEB8A
:101DA0000E94850B988B8F87DF91CF910895FC015E
:101DB000608B0895462B40937C0086E880937A00E0
:101DC00020E030E040E050E080917A008064809331
:101DD0007A0080917A0086FDFCCF4A30510534F0BC
:101DE0008091780090917900280F391F4F5F5F4FE5
:101DF0004A34510549F780917A008F7780937A00B1
:101E000086E0369527958A95E1F7C901089560E443
:101E10004EE00E94DA0E9C0140E050E064EB7BE271
:101E200081E190E00E94F333C9010895CF92DF92DF
:101E3000EF92FF920F931F936C01FC01848161E08C
:101E40000E94F030F601848160E00E942F31C601CB
:101E500060ECF60145810E94DA0EA0E0B0E0BC0122
:101E6000CD012CE434E040E050E00E94C0332FEF7D
:101E700033E040E050E00E94F333CA01B9010E9410
:101E8000CF32F60126813781408551850E943B3251
:101E90007B018C01F601848160E00E94F030C80172
:101EA000B7010E94A332CB011F910F91FF90EF90D9
:101EB000DF90CF900895CF93DF93EC010E94A7307D
:101EC0009B01AC018B81882361F18C859D85AE855A
:101ED000BF85281739074A075B0718F1CE010E9412
:101EE000070FCE010E94160F9C0140E064E670E0EF
:101EF0000E94DF33888990E06817790708F441E091
:101F000048833A8329830E94A7302A853B8540E095
:101F100050E0260F371F481F591F2C873D874E87DB
:101F20005F87DF91CF9108959F92AF92BF92CF923A
:101F3000DF92EF92FF920F931F93CF93DF93EC0109
:101F4000962EB42EA22E0E94A7309B82BC82AD8218
:101F5000EE82FF8208871987DB86CA86992021F0E6
:101F60006C877D878E879F878C81882319F060E03E
:101F70000E94F030DF91CF911F910F91FF90EF9071
:101F8000DF90CF90BF90AF909F90089570E068274A
:101F9000792720E030E041E050EACB019695879523
:101FA00060FF04C0BC016427752701C0BC012F5F1E
:101FB0003F4F2830310589F7CB010895EF92FF920A
:101FC0000F931F93E82EF89490E0FC01EE0FFF1F93
:101FD000DF01A55BBE4F0D90BC91A02D2C91EB5B5A
:101FE000FE4F0190F081E02D3081322389539D4FC7
:101FF000DC010C9103273C93002311F478944EC02C
:102000008081FF24381710F0FF24F39410E040C0C3
:10201000A12FB0E0FD0143E0EE0FFF1F4A95E1F76D
:10202000E653FD4F80818E1591F58181801779F5FA
:1020300033E0AA0FBB1F3A95E1F7FD01E453FD4FD2
:1020400060817181A253BD4F8C9111969C91119723
:10205000FC01AF0112962C91129713963C9120FF30
:102060000EC0F901F595E795E60FF71F0190F08195
:10207000E02DE40FF51F80819181FC01AF013595C2
:102080002795CB01820F931F6F2DFA0109951F5FD2
:1020900080911A03181708F4BBCF78941F910F9101
:1020A000FF90EF9008951F920F920FB60F92112498
:1020B0002F933F934F935F936F937F938F939F9350
:1020C000AF93BF93EF93FF9382E00E94DE0FFF91E7
:1020D000EF91BF91AF919F918F917F916F915F91A0
:1020E0004F913F912F910F900FBE0F901F90189519
:1020F0001F920F920FB60F9211242F933F934F937D
:102100005F936F937F938F939F93AF93BF93EF935F
:10211000FF9381E00E94DE0FFF91EF91BF91AF919D
:102120009F918F917F916F915F914F913F912F91EF
:102130000F900FBE0F901F9018951F920F920FB621
:102140000F9211242F933F934F935F936F937F933D
:102150008F939F93AF93BF93EF93FF9380E00E9481
:10216000DE0FFF91EF91BF91AF919F918F917F9182
:102170006F915F914F913F912F910F900FBE0F90F4
:102180001F901895ECECF2E01182108213821282FB
:1021900015821482389683E0EC31F807A9F7089588
:1021A000FF920F931F93CF93DF93082FEB0188309B
:1021B00010F412E00CC08850863010F410E007C014
:1021C000802F8E50863010F01FEF01C011E0A091DB
:1021D0001A03AF5FA0931A03B0E011972A813B81E5
:1021E0004C815D81FD0183E0EE0FFF1F8A95E1F7D1
:1021F000E253FD4F2083318342835383E3E0AA0FF0
:10220000BB1FEA95E1F7FD01E453FD4F88819981F9
:1022100091838083A653BD4F1C93E02FF0E0EA59D1
:10222000FD4FF4901196FC92802F62E00E94F030F6
:10223000412F50E0DA01AA0FBB1FBD016B5B7E4F3F
:10224000EB01E881F98180818F29808320916800EA
:1022500081E090E002C0880F991F1A95E2F7282BC1
:1022600020936800A55BBE4FED91FC919081E881C1
:10227000F9818081892349535D4FFA0180837894E5
:10228000DF91CF911F910F91FF9008950F931F93AE
:102290000AE914E0C80167EA70E00E94DE2E0E949D
:1022A000A730AB01BC01C8012AE030E00E94892FB1
:1022B000C80164EA70E00E94DE2E80E01F910F9159
:1022C0000895CF92DF92EF92FF920F931F93E82E23
:1022D000FF249AE9C92E94E0D92EF70184E0F59500
:1022E000E7958A95E1F702E611E0E00FF11FC601DC
:1022F00060810E94012F8FE0E822FF240E0D1F1D38
:10230000C601F80160810E94012F80E01F910F91AA
:10231000FF90EF90DF90CF900895DF92EF92FF92C1
:102320000F931F93CF93DF93D62E8C01C0E0D0E0A4
:10233000E62EFF240FC0F80180810E9461112196D2
:10234000CE15DF052CF48AE994E060E20E94012FAB
:102350000F5F1F4FCD1578F380E0DF91CF911F9174
:102360000F91FF90EF90DF900895FF920F931F93CE
:10237000F62E0E948D110AE914E0C8016BEA70E0A4
:102380000E94DE2EC8016F2D4AE050E00E94982F77
:10239000C80169EA70E00E94DE2E80E01F910F9173
:1023A000FF90089570931C0360931B030895DF92C0
:1023B000EF92FF920F931F93CF93DF937C01D62E62
:1023C000C42FD0E08C010C0F1D1FF80180810E94EA
:1023D0002F31F801D2822296CC0FDD1FCC0FDD1FEA
:1023E000CE0DDF1D188219821A821B82DF91CF91D8
:1023F0001F910F91FF90EF90DF900895462F60E0BE
:102400000E94D71108951F93CF93DF93EC01162FED
:1024100060FF04C0CE0160E00E94FE1111FF04C005
:10242000CE0161E00E94FE111C821E821A821D8272
:102430001F821B82DF91CF911F910895462F61E08B
:102440000E94D71108959C01FC01E60FF11D8281C5
:10245000882321F0C9010E94FE110895C9010E943C
:102460001E120895FF920F931F93CF93DF93EC01F9
:10247000062FF42E122F0E94A730212F30E0220FBA
:10248000331F422F00FF06C0FC822E8368877987A6
:102490008A879B8701FF06C0FD824F836C877D87FB
:1024A0008E879F87DF91CF911F910F91FF900895A5
:1024B000BF92CF92DF92EF92FF920F931F93CF9331
:1024C000DF93B82EE92E9C0189016901FF240E9447
:1024D000A730F601208531854285538521153105C8
:1024E0004105510509F470C0621773078407950709
:1024F00008F46AC0F8018481882331F48B2D9E2D65
:102500006F2D0E94FE1107C0813041F48B2D9E2D4E
:102510006F2D0E941E12C0E0D0E023C0823019F45B
:10252000C8E5D2E01EC0833019F4CCE2D1E019C076
:10253000843019F4C4E6D0E014C0853061F7F801A6
:102540008681843008F01682F8018681E82FF0E059
:10255000EE0FFF1FEE58FE4FC081D1818F5FF80153
:102560008683F8018481823078F18B2D9E2D6F2D2A
:102570000E9423120E94A7309E01442737FD4095F8
:10258000542F260F371F481F591FF6012087318708
:1025900042875387F80186818823B1F08150868372
:1025A000882329F48B2D9E2D6F2D0E94FE11CC596E
:1025B000DF4FAE01662757FD6095762F80911B0394
:1025C00090911C030E948021F39484E090E0C80E57
:1025D000D91E0F5F1F4F92E0F91609F078CFDF91F7
:1025E000CF911F910F91FF90EF90DF90CF90BF9010
:1025F0000895FF920F931F938C01862FF42EF801FC
:10260000608361E00E94F030C80160E00E94FE112A
:10261000F801F1828F2D61E00E94F030C80161E085
:102620000E94FE111F910F91FF900895EF920F935A
:10263000FC016083418322830383E4820F91EF9046
:1026400008950F931F93CF93DF93EC01162F042F60
:10265000888160E00E942F318A810E948331892B1A
:10266000D9F71EBD0DB407FEFDCF8EB50EBD0DB45E
:1026700007FEFDCF8EB5888161E00E942F31DF918A
:10268000CF911F910F9108950F931F93CF93DF93D5
:10269000EC01062F142F888160E00E942F318A817F
:1026A0000E948331892BD9F7102B1EBD0DB407FE74
:1026B000FDCF8EB51EBC0DB407FEFDCF1EB58881C3
:1026C00061E00E942F31812FDF91CF911F910F91F7
:1026D000089568E340EC0E9444130895EF92FF923E
:1026E0000F931F93CF93DF93EC01062FF72E142F38
:1026F000E22E888160E00E942F318A810E9483311E
:10270000892BD9F7106C1EBD0DB407FEFDCF8EB519
:10271000802F9F2D9C01F90190E007C01EBC0DB4D5
:1027200007FEFDCF8EB581939F5F9E15B8F388811C
:1027300061E00E942F31DF91CF911F910F91FF90A7
:10274000EF900895EF92FF920F931F93CF93DF9333
:10275000EC01162F042FF52EE22E888160E00E94F6
:102760002F318A810E948331892BD9F710641EBDD5
:102770000DB407FEFDCF8EB5802F9F2D9C01F90172
:1027800090E008C080818EBD0DB407FEFDCF8EB5F0
:102790009F5F31969E15B0F3888161E00E942F31D2
:1027A000DF91CF911F910F91FF90EF9008951F93AC
:1027B000CF93DF93EC01162F888160E00E942F31C8
:1027C0008A810E948331892BD9F71EBD0DB407FE83
:1027D000FDCF8EB5888161E00E942F31DF91CF91CE
:1027E0001F9108950F931F938C0166E30E94D713E6
:1027F000C8016AE30E94D713C80169E30E94D71396
:102800001F910F9108950F931F93CF93DF93EC01C6
:102810008B016BE340EC0E944413282F90E08F77EC
:102820009070892B29F127FD23C0CE016FE340E88A
:102830000E944413282FF80180838D33D0F4B8010F
:102840006F5F7F4FCE014FE30E946E13CE016FE3A7
:1028500040E80E944413CE016FE340E80E94441315
:10286000982F9F779887881F8827881F8E8302C09C
:10287000F8011082CE016AE30E94D713CE0166E30D
:102880000E94D713CE0164E30E94D713CE016CE3FC
:102890000E94D713F8018081DF91CF911F910F9192
:1028A0000895EF92FF920F931F93CF93DF93EC0164
:1028B0007B01142F66E30E94D713CE016AE30E94C6
:1028C000D713CE016BE30E94D713112371F0CE0111
:1028D00065E30E94D71380E19EE028EC30E0F90127
:1028E0003197F1F70197D9F704C080ED97E0019790
:1028F000F1F7F70120812F5FCE016FE3A7010E945E
:10290000A213CE016AE30E94D713CE0165E30E94B1
:10291000D71310E00AE1CE0165E340EC0E944413B6
:102920008D3069F0CE0165E340EC0E9444138331A1
:1029300031F4802F8A95F1F71F5F183C61F781E031
:10294000DF91CF911F910F91FF90EF900895CF935A
:10295000DF93EC01888160E00E942F318A810E9420
:102960008331892BD9F7888161E00E942F31CE0114
:1029700064E30E94D71380E797E10197F1F7CE0156
:102980000E94691390E026E0959587952A95E1F7D6
:102990008170DF91CF9108950F931F93CF93DF93B1
:1029A000EC01888161E00E94F030898161E00E9441
:1029B000F0308A8160E00E94F0308B8161E00E94FB
:1029C000F0308C8160E00E94F030888161E00E94EC
:1029D0002F318B8161E00E942F31898160E00E945C
:1029E0002F3180E58CBD888161E00E942F318DE020
:1029F0008A95F1F7888160E00E942F318AE18A95FB
:102A0000F1F7888161E00E942F318DE68A95F1F718
:102A1000CE0160E30E94D71380E29EE40197F1F7B4
:102A200000E010E0F801E950FF4F6491F801E85030
:102A3000FF4FE491CE014E2F0E9421130E5F1F4FD6
:102A40000433110579F7CE0163E30E94D71312E036
:102A500003C0812F8A95F1F7CE0165E340EC0E9417
:102A600044138130B1F7CE016EE340EC0E94211394
:102A7000CE0164E30E94D713CE016CE30E94D7130A
:102A8000DF91CF911F910F9108959C01F999FECF8D
:102A900032BD21BDF89A80B508959C01F999FECF09
:102AA0001FBA32BD21BD60BD0FB6F894FA9AF99AEB
:102AB0000FBE08951F920F920FB60F9211248F939D
:102AC00081E0809305048F910F900FBE0F901F90AF
:102AD0001895EF92FF920F931F93CF93DF93CA0144
:102AE0007901E801A62FB0E0FA0122813381448107
:102AF0005581FD0173E0EE0FFF1F7A95E1F7EC566B
:102B0000FE4F208331834283538323E0AA0FBB1FF0
:102B10002A95E1F79D012E563E4FFC01808191815F
:102B2000F90191838083A057BE4F81E08C9370E0C0
:102B3000ABE026C07A9FC001112420911F01309183
:102B40002001280F391FF90184918617C1F4A901CA
:102B50004F5F5F4FFA018491833030F0F90139966D
:102B60008591949199838883FA018491823038F415
:102B7000F901399685919491F701918380837F5F64
:102B800080911C017817B0F2DF91CF911F910F91C6
:102B9000FF90EF900895DF93CF9300D00F92CDB7C1
:102BA000DEB7FC01E654FF4F60817291829190E0A4
:102BB0000F900F900F90CF91DF910895FC0184AD9D
:102BC00081500895EF92FF920F931F93CF93DF935D
:102BD000FF2442C0AF2DB0E0FD0183E0EE0FFF1FE8
:102BE0008A95E1F7E057FE4F80818823A1F103E049
:102BF000AA0FBB1F0A95E1F7FD01EE56FE4F40817B
:102C00005181AC56BE4F8C9111969C911197FC014D
:102C1000EF0112962C91129713963C9120FF0EC053
:102C2000F901F595E795E40FF51F0190F081E02D8E
:102C3000EC0FFD1F80819181FC01EF0135952795F7
:102C4000CA01820F931F60E040E020E000E010E046
:102C5000EE24FE010995F39480911B018F1508F075
:102C6000B9CFDF91CF911F910F91FF90EF90089511
:102C7000DB0111969C91119786E7982711969C93FA
:102C8000119712965C91129742E008C0FD01E20F85
:102C9000F31F94528081982790834F5F8C91242F4B
:102CA00030E0481798F3FD01E20FF31F808185277C
:102CB00080830895DB0111969C91119786E78927FF
:102CC00011968C93119742E009C0FD01E20FF31FAA
:102CD00080819452982790834F5F982F8C91242F56
:102CE00030E0481790F3FD01E20FF31F8081129648
:102CF0009C918927808308958F929F92AF92BF9273
:102D0000CF92DF92EF92FF921F93CF93DF93EC016C
:102D1000C25BDF4F40E010E0A7E48A2E912C880EC2
:102D2000991E5E01FFE4CF2ED12CC80ED91EE4E41B
:102D3000EE2EF12CE80EF91E212F30E0F901EE0FF6
:102D4000FF1FEE0FFF1FE20FF31FE55CFE4FE08158
:102D5000EE23D1F1D4018C91E81711F0EF3F91F5FA
:102D6000F901EE0FFF1FEE0FFF1FE20FF31FE55CEF
:102D7000FE4F9181F5018081981711F09F3F11F569
:102D8000F901EE0FFF1FEE0FFF1FE20FF31FE55CCF
:102D9000FE4F9281D6018C91981711F09F3F91F4CC
:102DA000F901EE0FFF1FEE0FFF1FE20FF31FE55CAF
:102DB000FE4FD7016C9169500380F481E02DCE0164
:102DC000099541E01F5FB8CF842FDF91CF911F910C
:102DD000FF90EF90DF90CF90BF90AF909F908F903B
:102DE0000895CF92EF92FF920F931F93CF93DF93AB
:102DF000EB01F8018081A82FB0E0FD0163E0EE0F48
:102E0000FF1F6A95E1F7E057FE4F80818823C1F1EB
:102E10006881FA010081F901108123E0AA0FBB1F2C
:102E20002A95E1F7FD01EE56FE4F40815181AC56E7
:102E3000BE4F8C9111969C911197FC01EF01129657
:102E40002C91129713963C9120FF0EC0F901F59535
:102E5000E795E40FF51F0190F081E02DEC0FFD1FC9
:102E600080819181FC01EF0135952795CA01820F80
:102E7000931F402F212F8701EC2CFE01099581E043
:102E8000DF91CF911F910F91FF90EF90CF90089518
:102E9000CF92EF92FF920F931F93FC018C01015B85
:102EA0001F4FAC01425B5F4F70E5E72EF12CE80E3F
:102EB000F91EEC5BFF4FA081E454F040AB50CF0112
:102EC000E95BFF4FBF019801CA2E0E94F1161F91C6
:102ED0000F91FF90EF90CF90089520911C01E09109
:102EE0001F01F091200190E009C08491681761F4FE
:102EF000319684913197481739F404C09217A8F39A
:102F0000E0E0F0E0CF0108959F5F3B96F7CF0F938D
:102F10001F93022F0E946D17AC010596FC012591AD
:102F200034914C5F5F4FFA0144918091250190915B
:102F30002601280F391F409F80011124200F311FC7
:102F4000C9011F910F91089520911C01E0911F016B
:102F5000F091200190E009C08491681761F43296E5
:102F600084913297882339F004C09217A8F3E0E0E7
:102F7000F0E0CF0108959F5F3B96F7CF1F93142F8A
:102F80000E94A417FC01009739F0112351F03296EA
:102F900084913297181728F040E050E0CA011F9141
:102FA0000895379625913491412F50E0440F551FD5
:102FB000440F551F8091230190912401480F591F00
:102FC000420F531FEBCFEF92FF920F931F93CF93BC
:102FD000DF937C0180913801882309F440C010E020
:102FE00007E038C0109FC0011124C0913901D09171
:102FF0003A01C80FD91F8881882331F4C70169813C
:103000004B810E94BE170BC0813019F020E030E0E8
:1030100007C0C70169814A812B810E9487179C01E3
:103020006C8140E014C0ED81FE81E40FF11D5491EC
:10303000F999FECFC90101961FBA32BD21BD50BD1D
:103040000FB6F894FA9AF99A0FBE4F5F9C01461793
:1030500050F31F5F80913801181708F4C3CFDF9138
:10306000CF911F910F91FF90EF9008959F92AF9293
:10307000BF92CF92DF92EF92FF920F931F93CF9365
:10308000DF93EC01942EB52EA22E0E94A417C152FC
:10309000DF4F99838883CF5DD040892B09F443C0EB
:1030A000C753DF4F80E7888380E28A93C85CD040B3
:1030B000FE01E653FF4FC955DF4F8881879588276A
:1030C00087958B298083A4969992A9921993099345
:1030D0008F2D9927AA27BB278993E992A7019601EB
:1030E00040705070BB27A52F942F832F899328837E
:1030F000C25DD040FE01E855FF4F8181CD52DF4FC8
:1031000088832196808188832A968BE08883CE5D90
:10311000D040FE01EF51FF4F80818F5F8083CE5101
:10312000DF4F81E08883DF91CF911F910F91FF9056
:10313000EF90DF90CF90BF90AF909F900895FF9257
:103140000F931F93CF93DF93EC01062FF42E122FD2
:103150000E94A417C152DF4F99838883CF5DD0406E
:10316000892B09F443C0202F30E0CF51DF4FF90104
:1031700083E0EE0FFF1F8A95E1F7E057FE4F818154
:103180008883C15ED040FE01E853FF4F81E0F8160E
:1031900011F4108202C080E28083C753DF4F80E4C5
:1031A0008883A2978881C75AD040811111E0FF20FF
:1031B00011F480E001C080E4C653DF4F179511275A
:1031C0001795102B812B8993F901B3E0EE0FFF1FA8
:1031D000BA95E1F7E057FE4F818188838F5F818345
:1031E000639682E08883249681E08883DF91CF9183
:1031F0001F910F91FF90089581E080930604089538
:10320000EF92FF920F93CF93DF93E42EE9010E9498
:10321000A417AC010596FC01259134914C5F5F4FDA
:10322000FA0144918091250190912601280F391FC0
:103230004E9D700111242E0D3F1D2115310541F0C9
:10324000C901BE01402F50E02DE435E10E94060285
:10325000DF91CF910F91FF90EF900895CF93DF937F
:10326000E9010E94BE17BC01009711F480E008C07C
:10327000CE0144E050E025E435E10E94AE0181E05A
:10328000DF91CF9108951F93142F0E94A4179C01E2
:103290000097D9F00596FC01659174912C5F3F4F22
:1032A000F9014491359685919491209125013091B1
:1032B0002601620F731F419F90011124620F731F3B
:1032C00050E025E435E10E94AE011F910895FF9280
:1032D0000F931F93CF93DF93EC01F62E0E94A41758
:1032E000FC010097A9F0329610E004910FC0CE01C6
:1032F0006F2D412F0E94BE1765E475E10E94CA013F
:10330000611571058105910521F01F5F101778F394
:103310001FEF812FDF91CF911F910F91FF900895A3
:10332000DF92EF92FF920F931F93CF93DF93EC0105
:10333000062F7A01662311F410E020C00E94A41722
:10334000FC010097D1F0329610E0D49014C0CE0169
:10335000602F412F0E94BE1765E475E10E94CA01EB
:10336000F7012081318142815381621773078407FD
:10337000950721F01F5F1D1550F31FEF812FDF917F
:10338000CF911F910F91FF90EF90DF9008951F93C1
:10339000CF93DF93EC01162F0E949019482F8F3F97
:1033A00081F0CE01612F0E94BE17009751F040E0DE
:1033B00050E060E070E02DE435E10E94220281E0FF
:1033C00001C080E0DF91CF911F910895EF92FF92AD
:1033D0000F931F93CF93DF93EC01062F7A010E9486
:1033E00090198F3F11F01EEF19C0CE01602F0E947F
:1033F0006719182F8F3F11F41DEF10C0CE01602FF9
:10340000412F0E94BE17009711F41FEF07C0B701AC
:1034100044E050E02DE435E10E940602812FDF9167
:10342000CF911F910F91FF90EF900895EF92FF922F
:103430001F93CF93DF937C01EB0111E008C0C7011C
:10344000612FAE010E9490198F3F31F41F5F809170
:103450001B018117A0F71FEF812FDF91CF911F91E3
:10346000FF90EF900895AF92BF92CF92DF92EF92CC
:10347000FF920F931F93CF93DF93A22EB02E0E9443
:103480006D17EC010097A1F100911D0110911E0133
:103490002396FE0184912196FE01F4902497080F53
:1034A000111DC8016B2D70E04F2D50E00E948B0163
:1034B000DC010097E9F0CE010596FC01659174915D
:1034C0008091250190912601680F791FFA9CC00117
:1034D0001124680F791F8A2F801B680F711DC60188
:1034E0004E2D50E025E435E10E94AE0181E001C09F
:1034F00080E0DF91CF911F910F91FF90EF90DF90CF
:10350000CF90BF90AF900895CF92DF92EF920F933C
:103510001F936C0100E01BE021C0019FC00111243A
:1035200020911F0130912001280F391FC9010596F4
:10353000FC01659174912C5F3F4FF90144913596E0
:10354000859194912091250130912601620F731F7E
:1035500050E025E435E10E94AE010F5F80911C012F
:103560000817D8F2C60160E040E020E00AE053E02E
:10357000E52E32E1C32E31E0D32E0E94331A1F9183
:103580000F91EF90DF90CF9008958F929F92AF921E
:10359000BF92CF92DF92EF92FF920F931F93CF9340
:1035A000DF93EC01162FC42EA02E4701A9010E9423
:1035B0009019D82E2FEF821711F48FEF53C0CE0140
:1035C000612F4C2D0E946D17AC01009711F480E023
:1035D00049C04D5F5F4FFA01349143505040CA01DA
:1035E0000596FC01059114914C5F5F4FFA012491FF
:1035F0008091250190912601080F191F2D9DC00172
:103600001124080F191FC0911D01D0911E01C30F75
:10361000D11DBC2EDD24C22E22C07401ED0CF11C84
:10362000F7016081CE0170E04C2D50E00E948B01CB
:103630009C01009791F0F7016181F999FECF1FBAC3
:10364000822F8B199801280F311D32BD21BD60BD1D
:103650000FB6F894FA9AF99A0FBE32E0D30EDA1444
:10366000E0F281E0DF91CF911F910F91FF90EF90F9
:10367000DF90CF90BF90AF909F908F900895AF92C2
:10368000BF92CF92DF92EF92FF920F931F93CF934F
:10369000DF93EC01F62EE42E6801A9010E94901937
:1036A000182F8F3F09F472C080915101811729F0C2
:1036B000109207041093510107C0809107048F3FB7
:1036C00019F48093510108C0CE016F2D4E2D0E9438
:1036D0006D17AC01009711F410E058C04D5F5F4FBB
:1036E000FA01349143505040CA010596FC01C5913E
:1036F000D4914C5F5F4FFA01249180912501909104
:103700002601C80FD91F219FC0011124C80FD91F3E
:10371000760110E0022FA32EBB24809107048017AE
:1037200028F5103199F19501280F311DE0911D0107
:10373000F0911E01E20FF31F8081F70181931E5F5C
:1037400080910704BE01680F711DCF0141E050E078
:1037500025E435E10E94AE01809107048F5F8093DC
:10376000070482E090E0E80EF91ED7CF103170F424
:10377000F601E10FF11D1082812F8F5FC80ED11C61
:10378000F60110821E5F8FEF80930704812FDF9177
:10379000CF911F910F91FF90EF90DF90CF90BF904E
:1037A000AF900895BF92CF92DF92EF92FF920F9366
:1037B0001F93DF93CF9300D000D0CDB7DEB76C015D
:1037C000B62E7A010E94A417FC0180910804909102
:1037D00009048E179F0751F010920A04F093090410
:1037E000E0930804329610E0049117C080910A0417
:1037F0008F3FC1F7109209041092080410E03AC0FC
:10380000F701E10FF11D60837183828393831C5F55
:1038100080910A048F5F80930A0440910A04401744
:10382000A0F4103138F5C6016B2D0E94BE1765E477
:1038300075E10E94CA0169837A838B839C83611539
:1038400071058105910521F3DBCF103198F4E10E6C
:10385000F11C80911E0390911F03A0912003B09151
:103860002103F70180839183A283B3831C5F8FEFD1
:1038700080930A04812F0F900F900F900F90CF919B
:10388000DF911F910F91FF90EF90DF90CF90BF904D
:103890000895BF92CF92DF92EF92FF920F931F9302
:1038A000DF93CF9300D000D0CDB7DEB76C01B62E3A
:1038B0007A01FA0180819181A281B38189839A83FF
:1038C000AB83BC83C6018E010F5F1F4FA8010E940E
:1038D000C719F70184818C83C6016B2DA8010E9452
:1038E000C71981E00F900F900F900F90CF91DF914B
:1038F0001F910F91FF90EF90DF90CF90BF900895B0
:10390000CF92DF92EF92FF920F931F93DF93CF93AB
:1039100000D000D0CDB7DEB77C01C62E8A01FA01F7
:103920008381882379F080819181A281B381898309
:103930009A83AB83BC83C701AE014F5F5F4F0E9488
:10394000E619D82EF8014481442341F04C83C70185
:103950006C2DAE014F5F5F4F0E94E61925E530E008
:10396000E20EF31EF701D1927F0180832AEA3FEF36
:10397000E20EF31E8701025B1F4F9701215B3F4F51
:10398000F701ED5AFF4FC70147E450E0E40EF51E82
:10399000B701A8017F01E4E0CE2E0E94F11681E07C
:1039A0000F900F900F900F90CF91DF911F910F917B
:1039B000FF90EF90DF90CF900895CF92DF92EF923B
:1039C000FF920F931F93DF93CF9300D000D00F92FD
:1039D000CDB7DEB78C01B2E0CB2ED12CCC0EDD1EE4
:1039E000085B1F4FF80180819181A281B381085447
:1039F00010408A839B83AC83BD83AEE4EA2EF12C16
:103A0000E00EF11ED7018C918F708D83C801B60135
:103A10000E94161A682F882329F18983C801A601FC
:103A20000E949019482F8F3FE9F0C80169810E94D8
:103A30004319FFE4CF2ED12CC00ED11E0C5B1F4FBB
:103A4000D801EC9104541040EA50C801095B1F4FA3
:103A5000B801A70196018E010F5F1F4F7601CE2E90
:103A60000E94F1160F900F900F900F900F90CF9132
:103A7000DF911F910F91FF90EF90DF90CF9008950D
:103A8000CF93DF93EB0182E191E06EE173E043E0DD
:103A900050E00E949801009759F082E191E0BE0148
:103AA00043E050E00E9498019C0180E0232B09F440
:103AB00081E0DF91CF910895CF93DF93EC018A816C
:103AC00085FF03C080910D0101C081E08EAF8A8126
:103AD00090E024E0959587952A95E1F78170CD5B7C
:103AE000DF4F8883C354D040BE0168547F4FCE015E
:103AF000079643E050E00E949801009771F4AE01F0
:103B00004C5B5F4F288130E02F5F3F4FCA01BE0101
:103B1000A9010E94A5011DAE07C081E08DAFEF96FF
:103B2000188219821A821B82DF91CF910895CF9259
:103B3000EF92FF920F931F93CF93DF93EC015C2DD5
:103B4000575F5883595069834A832B83DC0114964D
:103B5000FC01E854FF4F83E001900D928150E1F7A2
:103B6000DE011796F80183E001900D928150E1F794
:103B70009E01265F3F4FE216F30631F0C901B701FF
:103B8000452F50E00E94A501CE010E945C1DDF91EF
:103B9000CF911F910F91FF90EF90CF9008958F924A
:103BA0009F92AF92BF92CF92DF92EF92FF920F93CC
:103BB0001F93DF93CF9300D000D00F92CDB7DEB725
:103BC0005C01FC0185AD882309F0EDC02FED30E0EC
:103BD000A20EB31EF5012081318141E25FEFA40EF8
:103BE000B51E80910B0490910C048217930719F570
:103BF00081EE90E0A80EB91E90911004F50180812D
:103C00004FE15FEFA40EB51E9817A9F480910F0441
:103C1000813049F5E0910D04F0910E043296E49163
:103C2000809111048E17F8F082EE90E0A80EB91E74
:103C3000F5011082B8C030930C0420930B0441EEC0
:103C400050E0A40EB51EF50180814FE15FEFA40E98
:103C5000B51E809310041092110410920F0430933B
:103C60000E0420930D0480910F04882309F07EC078
:103C7000E0910D04F0910E043296E49180911104CC
:103C80008E1708F473C0F50164AD6F5F64AF6150C7
:103C900028EC30E0A20EB31EF501408128E33FEF8F
:103CA000A20EB31E4268EAECEE2EF12CEA0CFB1CCD
:103CB000D501A252BF4FC501E9ECF0E0AE0EBF1E28
:103CC000F501208102E111E0CC900E94971D81E076
:103CD00080930F0468C02F5F2093110464C081E0BB
:103CE00080930F04E0910D04F0910E0464913196DD
:103CF000E4912F5F209311042150C5014E2F01E064
:103D0000EE24E3946E010894C11CD11C0E94331A66
:103D1000F50164AD6F5F64AF6150898190E081709F
:103D2000907074E0880F991F7A95E1F728EC30E0E5
:103D3000A20EB31EF501408128E33FEFA20EB31E91
:103D40004268482B5AECE52EF12CEA0CFB1CD501FD
:103D5000A252BF4FC501E9ECF0E0AE0EBF1EF50167
:103D600020818401CC900E94971D1DC0E0910D041C
:103D7000F0910E04E49132E0832E912C8C0E9D1E66
:103D8000C5016E2F4091110494010E942E198A8161
:103D90009B81AC81BD81209111040097A105B105E3
:103DA00009F499CF9CCF0F900F900F900F900F9028
:103DB000CF91DF911F910F91FF90EF90DF90CF9007
:103DC000BF90AF909F908F900895CF92EF92FF9207
:103DD0000F931F93DF93CF930F92CDB7DEB7FC0104
:103DE00080E889838F01085B1F4FCF01EB5BFF4F9A
:103DF000608140E822E07E010894E11CF11CCC24A3
:103E0000C3940E94971D0F90CF91DF911F910F9146
:103E1000FF90EF90CF900895CF92EF92FF920F9383
:103E20001F93DF93CF930F92CDB7DEB7FC011982BA
:103E30008C01085B1F4FEB5BFF4F608140E822E085
:103E40007E010894E11CF11CCC24C3940E94971DB0
:103E50000F90CF91DF911F910F91FF90EF90CF9036
:103E60000895CF92EF92FF920F931F93FC0181E090
:103E7000828763874487E955FF4F8081E75AF04086
:103E8000879588278795822B8587EB56FF4F808102
:103E9000E559F04086878F01085B1F4FDF011A96B6
:103EA000CF01EB5BFF4F608140E822E07D01F5E050
:103EB000CF2E0E94971D1F910F91FF90EF90CF90F2
:103EC0000895CF92EF92FF920F931F93CF93DF93BA
:103ED000EC01162F042FF22E82E191E06EE173E0E7
:103EE00043E050E00E949801009771F186E08A87D4
:103EF0001B870C87FD86CB56DF4F8881C559D04084
:103F00008E87C95BDF4F8881C754D040813069F408
:103F1000C15BDF4F8881CF54D0408E3031F4CB5B12
:103F2000DF4F6881C554D04004C06CAD6F5F6CAF8B
:103F30006150CE0144EA20E102E111E02A967E01BF
:103F4000A5E0CA2E0E94971DDF91CF911F910F917E
:103F5000FF90EF90CF900895CF92EF92FF920F9342
:103F60001F93CF93DF93EC014FE4E42EF12CE80E86
:103F7000F91EF7018081813049F4CE01C25BDF4F29
:103F800068812296AE010E94801CDEC0823049F416
:103F9000CE01C25BDF4F68812296AE010E94491CB0
:103FA000D3C0833019F5FE01E554FF4FCB5BDF4FE3
:103FB0008881C554D0408083FE01E154FF4FC25B2D
:103FC000DF4F8881CE54D0408083DE01A454BF4FA0
:103FD000FE01E85BFF4F83E001900D928150E1F715
:103FE000CB53DF4F81E0888322963DC08430E9F5D2
:103FF000FE01E554FF4FCB5BDF4F8881C554D040B5
:104000008083FE01E154FF4FC25BDF4F8881CE54B5
:10401000D0408083FE01E054FF4FCC5ADF4F8881AF
:10402000C455D0408083FE01EF53FF4FC05BDF4F8C
:1040300088819981AA81BB81C055D04080839183BA
:10404000A283B383DE01A454BF4FFE01E85BFF4FA0
:1040500083E001900D928150E1F7CB53DF4F82E076
:104060008883229681E08883D5C0853031F5FE01B2
:10407000E154FF4FC25BDF4F8881CE54D040808334
:10408000FE01EF53FF4FC05BDF4F88819981AA810A
:10409000BB81C055D04080839183A283B383FE014E
:1040A000E054FF4FCC5ADF4F88818083CE58DF4FDA
:1040B00081E08883C058D04048C08630C1F4CA53DC
:1040C000DF4F1882C65CD040CE010E94841A8E0158
:1040D000025B1F4FCE01C95BDF4FBE01A8019701F4
:1040E000EE24FF24CC240E94F1168A912FC0883040
:1040F000A9F5CA53DF4F8881C65CD040882351F0B0
:10410000C154DF4F6881C157D0408881CE54D04020
:10411000681739F08AE994E06BE271E00E94DE2EC4
:1041200079C0FE01E054FF4F9E012F533F4FCC5BFF
:10413000DF4F0881C454D0400B50CE014081C05B9A
:10414000DF4F7E010E94C51A2A978881C654D0404D
:1041500085FF60C0CE010E940C1F5CC08930E1F475
:104160001A8660911001709111016D5F7F4FCE0131
:104170000B964BE050E00E9482018E01085B1F4FBE
:10418000FE013A96CE01CB5BDF4F688140E820E12B
:104190007F013BE0C32E29C08A3051F50091100108
:1041A00010911101B8016D5F7F4FCE01805B9F4F71
:1041B0004AE050E00E947501892B61F58AE0E82E03
:1041C000F12CEC0EFD1EC701B80141E150E00E9448
:1041D00082016CAD6F5F6CAF6150CE0142EA20E0AE
:1041E000C85BDF4F8E01B1E1CB2E0E94971D12C03C
:1041F0008E3081F48E01025B1F4F9E01215B3F4F89
:10420000CE01C95BDF4FBE01A801EE24FF24CC2400
:104210000E94F116DF91CF911F910F91FF90EF90C7
:10422000CF9008951F93CF93DF93EC01162F613049
:1042300019F483B7817F28C0623041F5CC57DF4F36
:1042400088E99AE38993999380ED97E0998388832D
:104250000E94A730249666507F4F8F4F9F4F6883F0
:1042600079838A839B83809160008861809360005A
:1042700084E0809360008AEF90E09A938A93C85814
:10428000D04083B7817F846083BF12C0633081F4E4
:104290008091600088618093600084E0809360007A
:1042A000C857DF4F8AEF90E099838883C858D04081
:1042B000812F83508230D8F4CC57DF4F88E99AE3BE
:1042C0008993999388EE93E0998388830E94A7301D
:1042D00024966056704F8F4F9F4F688379838A83EF
:1042E0009B83CA58D04083B7817F846083BFCE57F9
:1042F000DF4F199381E08883DF91CF911F9108955B
:10430000EF92FF920F931F93CF93DF93EC017A010B
:104310008B01CD57DF4F8881C358D040882329F4C3
:10432000CE0182579F4F0E94A714CD57DF4F81E0E7
:1043300088830E94A7309B01AC012E0D3F1D401FBA
:10434000511FFE01379680819181A281B381281788
:1043500039074A075B0720F0208331834283538368
:10436000DF91CF911F910F91FF90EF900895EF9201
:10437000FF920F931F93CF93DF93EC018C010E57A5
:104380001F4FF8018081882309F4D4C00E94A73010
:104390005AE8E52EF12CEC0EFD1EF701208131814B
:1043A00042815381621773078407950708F4C2C0DE
:1043B0008DAD882309F0BEC0F8019081923009F0DC
:1043C00042C08E010D571F4FF8018081882331F5BF
:1043D000CE0182579F4F0E94A714882389F00E9424
:1043E000A7309B01AC01CA57DF4F88819981C6581D
:1043F000D040A0E0B0E0280F391F4A1F5B1F04C067
:104400000E94A7309B01AC01CD57DF4F81E088832C
:104410002796288339834A835B838CC0813041F59A
:10442000CE0182579F4F0E94F213F80110820E9422
:10443000A73066507F4F8F4F9F4FF7016083718386
:104440008283938377C0933008F474C08E010D5734
:104450001F4FF8018081813041F4CE0182579F4F78
:104460000E94F213F801108265C0923008F462C015
:10447000CD57DF4F8881C358D040882309F05AC0F8
:10448000CE0189569F4F63E00E940312CE57DF4F43
:104490009881C258D0409250923028F480916000A8
:1044A00080648093600010927A00209164008FEF06
:1044B0008093640083B7816083BF80E685BF80E41A
:1044C00085BF889583B78E7F83BF923028F4809113
:1044D00060008F7B809360002093640080910504CE
:1044E0008130E9F4109205042091C4043091C50490
:1044F0004091C6045091C704C857DF4F8881998105
:10450000A0E0B0E0820F931FA41FB51F8093C404E6
:104510009093C504A093C604B093C7040BC0CA57B8
:10452000DF4F48815981C658D04060E070E0CE012D
:104530000E948021DF91CF911F910F91FF90EF900A
:104540000895CF92EF92FF920F931F938C0189569B
:104550009F4F62E043E020E00E943212EAE0EE2E3C
:10456000F12CE00EF11E6091100170911101C70154
:1045700041E150E00E948201F80164AD6F5F64AFD9
:104580006150C80142EA20E002E111E071E1C72E6A
:104590000E94971D1F910F91FF90EF90CF9008956B
:1045A000CF92EF92FF920F931F93CF93DF93EC0183
:1045B0008DAD882309F05BC0CE0189569F4F61E025
:1045C00044E021E00E943212CB53DF4FF880C55CFB
:1045D000D04081E0F81659F4FE01E154FF4FAE01DE
:1045E000455F5F4FCE0160810E94D21B14C0B2E0D4
:1045F000FB16E9F5FE01E154FF4FDE01A054BF4F69
:104600009E012F533F4F8E01055F1F4FCE016081EA
:104610004C910E943F1B382F882351F4CE018554C2
:104620009F4FFC018DE0DF011D928A95E9F71FC0C5
:10463000DE01A554BF4F8F3F41F48DE01D928A9556
:10464000E9F7CE010E94E51E12C0FA866C916F5FF9
:104650006C936150FE013A963F5FCE0140EA20E143
:10466000C454DF4F8E017F01C32E0E94971DDF913E
:10467000CF911F910F91FF90EF90CF9008958F925F
:104680009F92AF92BF92CF92DF92EF92FF920F93E1
:104690001F93CF93DF93EC010E94A7305B016C0165
:1046A0009DAD8EAD891708F48EC08E01015C1F4F41
:1046B000F80180819181A281B381A816B906CA064A
:1046C000DB0608F480C09C2E8D2ECE01BE010E9418
:1046D000381680911D030E94D02FFE01ED5BFF4F25
:1046E000CE0182579F4FBE0140810E94511480919C
:1046F0001D036CEF78E142E050E00E94AD2FCE0147
:10470000BE010E945A168DAD8F5F8DAF80910E0154
:1047100090910F01A0E0B0E08A0D9B1DAC1DBD1D66
:10472000F80180839183A283B383CD57DF4F81E06B
:1047300088838A91C258D0408823F1F0CA57DF4F4E
:10474000888199817C0100E010E02496A601950102
:104750002E0D3F1D401F511F88819981AA81BB8169
:10476000CA58D04082179307A407B50728F4CE0192
:10477000B801A7010E9480218AE994E069E571E00F
:104780000E94DE2E68816F5F892D982D0E94B511E1
:10479000682F8AE994E00E94012F0E944611682F39
:1047A0008AE994E00E94012FCE51DF4F8881C25EDA
:1047B000D040813041F4CE0189569F4F63E044E000
:1047C00021E00E9432129DAD8EAD891758F4809180
:1047D0000D01981738F41DAEEF96188219821A82CF
:1047E0001B82EF979DAD8EAD891788F5FE01FF9670
:1047F00080819181A281B381A816B906CA06DB0621
:1048000030F11DAE1082118212821382CE51DF4F21
:104810008881C25ED040813069F48E0109561F4FF5
:10482000C80163E00E940312C80162E042E021E097
:104830000E9432128AE994E062E571E00E94DE2E65
:104840000E944611682F8AE994E00E94012FDF91AF
:10485000CF911F910F91FF90EF90DF90CF90BF907D
:10486000AF909F908F9008950F931F93CF93DF93F6
:10487000EC018C01055B1F4FBC0168547F4FC801E0
:1048800043E050E00E949801FE01E058FF4F00977E
:1048900019F48081816002C080818E7F8083C8018D
:1048A0006EE173E043E050E00E949801FE01E058A1
:1048B000FF4F009719F48081826002C080818D7F54
:1048C0008083C058DF4F8881C058D04080FF05C02A
:1048D0008AE994E06FEC71E00BC081FF05C08AE9C2
:1048E00094E06BEC71E004C08AE994E067EC71E05D
:1048F0000E94DE2E8E010C5B1F4FF80160816F5FFE
:10490000C8010E94B511682F8AE994E00E94012F26
:104910000E944611682F8AE994E00E94012FC05836
:10492000DF4F8881C058D04080FD05C081FD03C0A5
:10493000F801108292C0CA5BDF4F8881C654D04014
:1049400086FF28C08AE994E061EB71E00E94DE2EC8
:10495000FE01EF57FF4FCB5BDF4F90818881C5543D
:10496000D040981729F48AE994E068E971E004C01E
:104970008AE994E060E871E00E94DE2EFE01EF57C4
:10498000FF4FCB5BDF4F90818881C554D040981793
:1049900009F460C0BE01685B7F4FCE010E94401DDC
:1049A000882349F0FE01EF57FF4FCB5BDF4F888133
:1049B000C554D0408083C058DF4F8881C058D04054
:1049C00080FD02C081FF3CC0CA5BDF4F8881C654B6
:1049D000D04087FF35C0C95BDF4F8881C754D040C6
:1049E000813021F4CE010E94AC1F2AC08230B1F484
:1049F0001DAECE51DF4F8881C25ED040813001F5BF
:104A00008E0109561F4FC80163E00E940312C801BE
:104A100061E044E021E00E94321212C0813121F4B1
:104A2000CE010E9448170CC0823120F0CE010E94B6
:104A3000DD1C06C08AE994E06DE571E00E94DE2E7F
:104A4000C058DF4F8881C058D04080FF03C0CE01DE
:104A50000E947C16CC5BDF4F1882DF91CF911F91B3
:104A60000F9108959F92AF92BF92CF92DF92EF92F3
:104A7000FF920F931F93CF93DF935C01C0901F01B0
:104A8000D0902001EE24FF2400E0FBE09F2E0BC01D
:104A9000FE016491C7010E94C60F7C011F5F219631
:104AA0001930B1F70F5F80911C01081738F4099D88
:104AB000E0011124CC0DDD1D10E0EACF8091210131
:104AC0009091220165E475E10E94F001E816F90673
:104AD00009F439C08AE994E060E071E00E94AA2FED
:104AE000609123017091240140912B0150912C0180
:104AF00020E030E010C0F999FECF1FBAC901860F3F
:104B0000971F92BD81BD10BC0FB6F894FA9AF99A1E
:104B10000FBE2F5F3F4F2417350768F384EF91E0F6
:104B200028EC30E0F9013197F1F70197D9F7C50189
:104B30000E94E31784EF91E028EC30E0F90131970F
:104B4000F1F70197D9F78091210190912201B701E6
:104B50004DE455E10E944802DF91CF911F910F91E2
:104B6000FF90EF90DF90CF90BF90AF909F9008950F
:104B70000F931F938C01809121019091220160E09D
:104B800070E04DE455E10E944802C8010E943225C0
:104B9000C8010E94841AC80189569F4F62E044E010
:104BA00025E00E9432121F910F91089580911D03FC
:104BB0000E94D02F80EB93E066E673E00E9403141E
:104BC000882331F082E293E066E673E00E945A1691
:104BD0001092060480911D036CEF78E142E050E0F2
:104BE0000E94AD2F0895CF93DF93EC0180910604CE
:104BF000882319F0CE010E94D625CC5BDF4F888137
:104C0000C454D040882319F0CE010E9434248DADC5
:104C1000882319F0CE010E943F23C953DF4F8881BA
:104C2000C75CD040882319F0CE010E94D022CE511B
:104C3000DF4F8881C25ED040882319F0CE010E94E8
:104C4000CF1DCE010E94B721CE010E94E215CE01F8
:104C500089569F4F0E945812CE0189559F4F0E943E
:104C60005B0FDF91CF9108950F931F938C018AE919
:104C700094E040E051EE60E070E00E94362DC80103
:104C80000E943225C8010E94841AC80182579F4F92
:104C90000E94CC140D561F4FF8018081035910401B
:104CA00080931D036CEF78E142E050E00E94AD2F4D
:104CB00060911001709111016F5E7F4FC80188549F
:104CC0009F4F43E050E00E948201C80189569F4FE8
:104CD000B8010E94D21182E293E048EE53E060E016
:104CE00070E00E9480211F910F910895EF92FF9232
:104CF0000F93CF93DF93EC017B01FB0120812223F3
:104D000081F18181882319F18D899E8920FF0FC04F
:104D10006C8942812AE731E001E00E9400198D8907
:104D20009E896C89F70143812BE731E025C06C89AE
:104D3000F70142812BE731E001E00E9400198D89E3
:104D40009E896C89F70143812AE731E015C08D897E
:104D50009E896C89F70142812CE731E001E00E94D5
:104D60000019F7018181882349F08D899E896C891A
:104D700043812CE731E001E00E940019DF91CF91DF
:104D80000F91FF90EF900895DF92EF92FF920F93B3
:104D90001F93DF93CF9300D000D000D0CDB7DEB704
:104DA0007C01D62ECA01F701568B458B28EB38E2E1
:104DB00040E050E02B833C834D835E83FA82E9829E
:104DC0009701275E3F4F8701095E1F4FAE014F5F7E
:104DD0005F4F0E946915F701D48A26960FB6F894A2
:104DE000DEBF0FBECDBFCF91DF911F910F91FF901E
:104DF000EF90DF9008950F931F938C016170660F01
:104E0000FC0182858D7F862B82870E94A730665F9A
:104E10007F4F8F4F9F4FF8016387748785879687F1
:104E20008285816082871F910F910895FC01858999
:104E300096896489438920E00E94611F0895FC01DE
:104E4000858996896489438920E00E94311F0895ED
:104E50001F93CF93DF93EC01162F8D899E8948EE27
:104E600053E060E070E00E9480211F3F09F451C0D0
:104E70006C89662359F5112369F48D899E890E94F6
:104E8000A1228D899E8940E25EE460E070E00E948C
:104E9000802138C0123039F48D899E8989569F4F00
:104EA00062E044E008C0163051F48D899E8989562D
:104EB0009F4F62E040E020E00E94321223C0153094
:104EC00009F58D899E890E94B8251CC0123030F4E6
:104ED0008D899E8940E020E00E949F18812F82509A
:104EE000823038F48D899E896C8941E020E00E94EF
:104EF0009F18143039F48D899E896C8942E020E036
:104F00000E949F18E885F985309719F08C89612FE8
:104F10000995DF91CF911F910895EF92FF920F9322
:104F20001F93CF93DF93EC010E94A7307B018C018C
:104F30006A8560FF16C18B859C85AD85BE85E816A8
:104F4000F9060A071B0708F40CC1862F86958170A5
:104F5000813009F0B5C0862F8695869581708130A5
:104F600009F055C064FF17C08E819F81A0E0B0E0BA
:104F70002F85388949895A89820F931FA41FB51F2D
:104F8000E816F9060A071B0730F06F7E6A87CE0124
:104F900066E00E9428276A8563FF13C08A819B818F
:104FA000A0E0B0E02F85388949895A89820F931F84
:104FB000A41FB51FE816F9060A071B0710F0677F44
:104FC0006A878A8584FD04C083FD02C08E7F8A873C
:104FD0008A8584FF0CC08E819F81A0E0B0E08E0D99
:104FE0009F1DA01FB11F8B879C87AD87BE878A85B9
:104FF00083FFB7C08A819B81A0E0B0E08E0D9F1D2A
:10500000A01FB11F8B879C87AD87BE87AAC088234E
:1050100009F0A7C065FF05C06F7D6A87CE0164E017
:1050200020C063FF05C0677F6A87CE0161E019C0B9
:105030008C819D81A0E0B0E02F85388949895A890B
:10504000820F931FA41FB51FE816F9060A071B0756
:1050500050F468606A878A819B81892B21F4CE0194
:1050600060E00E9428278A8583FF0EC08A819B8189
:10507000009751F0A0E0B0E08E0D9F1DA01FB11F62
:105080008B879C87AD87BE878A8584FF0CC08E8105
:105090009F81A0E0B0E08E0D9F1DA01FB11F8B87E8
:1050A0009C87AD87BE87EF86F88A098B1A8B8A8525
:1050B000982F990F94708B7F892B81608A8751C0BC
:1050C000882309F04EC0862F8695869581708130A1
:1050D000D1F4EF86F88A098B1A8B8C819D81A0E030
:1050E000B0E08E0D9F1DA01FB11F8B879C87AD87E1
:1050F000BE87862F880F84706B7F682B61606A87FC
:10510000CE016FEF2CC0882361F565FF11C06F7E63
:105110006A878CE291E0A0E0B0E0E80EF91E0A1F79
:105120001B1FEB86FC860D871E87CE0163E017C030
:1051300064FF05C06E7C6A87CE0165E010C06063C5
:105140006A878C819D81A0E0B0E08E0D9F1DA01F1D
:10515000B11F8B879C87AD87BE87CE0162E00E941E
:105160002827DF91CF911F910F91FF90EF90089525
:10517000EF920F931F93DC01662321F4CD010E946F
:105180008D2754C0613091F52630D1F554968C911D
:105190005497882359F413961C921E92129788E80C
:1051A00093E115969C938E9314971BC0ED91FC91FF
:1051B000119782818F7024E6829FC001112413967B
:1051C0009C938E931297808182958F70829FC001ED
:1051D0001124845D9E4F15969C938E93149788EEB0
:1051E00093E017969C938E93169720C06131B1F48B
:1051F0004230E1F4CD01B8014E2D0E941F2716C0A8
:105200002E3021F4CD010E94162710C0213071F4F8
:10521000CD01B8014E2D0E94762608C06E3330F0C5
:1052200055968D919C9156970E940C1F1F910F913E
:10523000EF900895CF92DF92FF920F931F93DF9329
:10524000CF93CDB7DEB729970FB6F894DEBF0FBE68
:10525000CDBF6C01F62E8A01862F62E00E94F030ED
:10526000D60119961C930E9318971A968C911A973B
:10527000887C86601A968C938BEF96E2A0E0B0E073
:105280008E839F83A887B987DD82CC828F2DBE0154
:105290006C5F7F4F0E94D010F6018489882329F02B
:1052A000818D928D918380830EC0DE011196EDE792
:1052B000F1E083E001900D928150E1F7CE0101967B
:1052C000D6018D939C93F6018489882349F4138237
:1052D000128288E893E1958384839783868320C034
:1052E000D601ED91FC91119782818F7024E6829F07
:1052F000C001112413969C938E93129780818295FE
:105300008F70829FC0011124845D9E4F15969C93DF
:105310008E93149788EE93E017969C938E9316972E
:1053200029960FB6F894DEBF0FBECDBFCF91DF91A7
:105330001F910F91FF90DF90CF900895FC0160873F
:105340000895EF92FF920F93CF93DF93EC017B01CF
:10535000FB012081222381F18181882319F18A8137
:105360009B8120FF0FC06981428120E831E000E08D
:105370000E9400198A819B816981F701438120E89D
:1053800031E025C06981F701428120E831E000E089
:105390000E9400198A819B816981F701438120E87D
:1053A00031E015C08A819B816981F701428120E843
:1053B00031E000E00E940019F7018181882349F063
:1053C0008A819B816981438120E831E000E00E946D
:1053D0000019DF91CF910F91FF90EF900895DF9228
:1053E000EF92FF920F931F93DF93CF9300D000D0E3
:1053F00000D0CDB7DEB77C01D62ECA01F7015383AA
:10540000428324E33CE240E050E02B833C834D8325
:105410005E83FA82E98297012A5F3F4F87010C5F22
:105420001F4FAE014F5F5F4F0E946915F701D18298
:1054300026960FB6F894DEBF0FBECDBFCF91DF9199
:105440001F910F91FF90EF90DF900895FC018281F2
:1054500093816181408120E00E94611F0895FC01D9
:10546000828193816181408120E00E94311F0895F3
:10547000CF92DF92EF92FF920F931F936C01FC018A
:10548000828193810E94CB157B018C01F601828180
:1054900093810E94DE1590E0A0E0B0E0102F0F2D68
:1054A000FE2CEE248E299F29A02BB12BBC01CD010F
:1054B0002DE63EE446EC51E40E94C033675C7F4C2D
:1054C0008F4F9F4F282F30E040E050E020523E4F5A
:1054D0004F4F5F4FB901CA011F910F91FF90EF909D
:1054E000DF90CF900895CF92DF92EF92FF920F93CB
:1054F0001F93CF93DF93EC010E94A7307B018C01B7
:10550000888D998D009759F0A0E0B0E08E0D9F1D19
:10551000A01FB11F8C8B9D8BAE8BBF8B19C0CE0192
:105520000E94382A28E13CEF4FEF5FEFE20EF31EB6
:10553000041F151F2AEF30E040E050E00E94C03306
:10554000E60EF71E081F191FEC8AFD8A0E8B1F8BB3
:105550008DE68B8B4A8D5B8D0D8D1E8DCF8CD8A0EB
:10556000E9A0FAA08A819B8169812C8D0E9436185E
:10557000DF91CF911F910F91FF90EF90DF90CF902F
:1055800008953F924F925F926F927F928F929F9277
:10559000AF92BF92CF92DF92EF92FF920F931F9341
:1055A000DF93CF9300D000D000D0CDB7DEB72C0171
:1055B000FC0184899589A689B78988519C4FAF4F92
:1055C000BF4F848B958BA68BB78B84E7838B109210
:1055D000BC008585968560E0AE014F5F5F4F21E09E
:1055E0000E94110B382E882309F0A8C089819A8166
:1055F0009C0140E050E08E5D9340B8F4CA01B901CF
:105600000E94CF322DEC3CEC4CEC5EE30E945D330B
:1056100020E030E046EC53E40E94D6319B01AC011F
:1056200060E070E080E896E40EC0CA01B9010E9413
:10563000CF322DEC3CEC4CEC5EE30E945D3320E07D
:1056400030E046EC53E40E94D6310E94A332F201CE
:10565000738F628FF2018585968561E0AE014F5FA1
:105660005F4F21E00E94110B69817A8180E090E018
:105670000E94CF325B016C012DEB32E546E15FE326
:105680000E945D3325EC3EEF42E050E40E94D631AB
:105690007B018C01C601B5012BE335E246ED59EBE8
:1056A0000E945D33A60195010E945D339B01AC0110
:1056B000C801B7010E94D7310E94A332E62EF20141
:1056C000648F628D738D80E090E00E94CF3220E085
:1056D00030E040E251E40E943B3220E030E048EC10
:1056E00051E40E94D6313B014C01C601B5012CEAC0
:1056F00035EC47EA5AE30E945D332AE037ED43E296
:105700005CE30E94D7319B01AC01C401B3010E944C
:105710005D335B016C01FF240027F7FC0095102F1F
:10572000C801B7010E94D1329B01AC01C601B5018D
:105730000E94D7310E94A332F201648FF201878563
:105740009089009751F160E00E94870EF2018785F1
:1057500090890E94B30C24E630E040E050E00E94C3
:105760001534F201368F258F2D52314098F03320B9
:10577000A1F0F201878590890E94D00B20E030E0F3
:1057800040E251E40E945D330E94A332F201738F24
:10579000628F03C0F201168E158EF2018189928903
:1057A000BE016D5F7F4FAE014B5F5F4F0E94D70818
:1057B00020E030E048EC52E40E945D330E94A332C6
:1057C000F201678F70A381A392A3818992890E94BD
:1057D0008306882329F088EC90E0A4E6B0E005C0B9
:1057E000F201878D90A1A1A1B2A1F201878F90A3B0
:1057F000A1A3B2A326960FB6F894DEBF0FBECDBF0D
:10580000CF91DF911F910F91FF90EF90DF90CF909C
:10581000BF90AF909F908F907F906F905F904F90D0
:105820003F900895CF93DF93EC010E94A7302C891D
:105830003D894E895F89211531054105510589F062
:10584000621773078407950760F08B898D3621F402
:10585000CE010E94C12A05C0843719F4CE010E94EE
:10586000732ADF91CF910895EF920F931F93FC015C
:10587000662321F4CF010E94122C23C0613019F459
:10588000263059F41EC06131B1F44230D1F4CF0159
:10589000B8014E2D0E942F2A14C02E3021F4CF01C2
:1058A0000E94262A0EC0213061F4CF01B8014E2D8E
:1058B0000E94A12906C06E3320F0828193810E944C
:1058C0000C1F1F910F91EF900895AF92BF92CF924E
:1058D000DF92EF92FF920F931F93CF93DF93EC0130
:1058E000B62EA42E398F288F0E94A73068517C4F86
:1058F0008F4F9F4F6C8B7D8B8E8B9F8B8DE68B8B11
:105900001E870D87C8016B2D4A2D0E94FA0A8D85CE
:105910009E8561E00E94E30AE114F10411F0F88A27
:10592000EF86C114D10411F0DA8AC98A1BA28989D1
:105930009A890E94D20889899A896BA140E00E94C5
:105940008408DF91CF911F910F91FF90EF90DF902E
:10595000CF90BF90AF90089508951F920F920FB609
:105960000F9211242F933F934F938F939F93EF9315
:10597000FF938091C00082FD1DC04091C600209120
:105980005204309153042F5F3F4F2F73307080913A
:105990005404909155042817390771F0E09152048E
:1059A000F0915304EE5EFB4F4083309353042093F9
:1059B000520402C08091C600FF91EF919F918F9198
:1059C0004F913F912F910F900FBE0F901F90189500
:1059D000E091A604F091A704E05CFF4F81919191C2
:1059E00020813181821B930B8F739070892B11F072
:1059F0000E94AC2C08951F920F920FB60F921124A3
:105A00002F933F938F939F93EF93FF93209196044F
:105A10003091970480919804909199042817390740
:105A200031F48091C1008F7D8093C10014C0E0915A
:105A30009804F0919904EA5AFB4F208180919804D0
:105A40009091990401968F7390709093990480932C
:105A500098042093C600FF91EF919F918F913F9101
:105A60002F910F900FBE0F901F901895AF92BF927D
:105A7000DF92EF92FF920F931F93CF93DF93EC018E
:105A80007A018B01DD24D39491E0A92EB12CEC890D
:105A9000FD89DD2069F0C50108A002C0880F991FAB
:105AA0000A94E2F7808360E874E88EE190E005C034
:105AB000108260E472E48FE090E0A80197010E94F8
:105AC000F33321503040404050405695479537952C
:105AD000279580E12030380720F0DD2011F0DD240B
