:100000000C9449010C94E42F0C9411300C949B1027
:100010000C9476100C9451100C9458150C9471019A
:100020000C9471010C9471010C9471010C94710188
:100030000C9471010C9471010C9471010C94710178
:100040000C9454300C9471010C94AE2C0C94FC2C38
:100050000C9471010C9471010C9471010C94710158
:100060000C94EC030C9471010000000005000000EA
:1000700000A001010406050105000000A50172654C
:100080007365742C20646174613A200010F1024899
:10009000423044656661756C7470030100ABCDEF4E
:1000A00000631963290A002800290020286C3A00FF
:1000B0004B6E6F776E20636F6D6D616E64733A0087
:1000C000206279746573004E6F7420656E6F75677A
:1000D0006820646174612C206E6565642000556E33
:1000E0007265636F676E697A6564206368617261C7
:1000F000637465723A2000002E0206030D04E905C0
:10010000CA063D070C0B060D210E650F5010C811D5
:1001100093120315341601181819161B432156257E
:100120000026112D353EC32020207772697465208A
:10013000646174612C20627574206E6F7420696E26
:1001400020636F6E666967206D6F64650A002D3EDF
:10015000204E4120003C2D20000A554E4B4E4F575B
:100160004E204D4553534147452C20504C4541535B
:1001700045205245504F5254210A0A006E6F742098
:100180007265636569766564206265666F72652E67
:100190002E2E0A00616C7265616479207265636558
:1001A00069766564202D20736B69700A0020202019
:1001B0007265706561746564206D657373616765F0
:1001C0003B20006C3E2000623E20002D3E20000AB5
:1001D0000A00202020000A0A00646174613A2000AD
:1001E000726567733A20002C20616464723A002CB7
:1001F000206C656E3A006964783A002C20704D617D
:10020000783A002C206C73743A00636E6C3A0020CC
:10021000656C656D656E74730A000A636F6E746554
:100220006E74206F66206444656620666F722000DD
:1002300000000000240027002A0000000000250024
:1002400028002B00000000002300260029000404E1
:10025000040404040404020202020202030303036E
:10026000030301020408102040800102040810204A
:100270000102040810200000000700020100000332
:10028000040600000000000000005B02D505C0105D
:100290005F2E11241FBECFEFD8E0DEBFCDBF11E02F
:1002A000A0E0B1E0E0EEF8E602C005900D92A039C2
:1002B000B107D9F714E0A0E9B1E001C01D92A93C53
:1002C000B107E1F712E0C2E9D2E004C02297FE01D3
:1002D0000E943334CA38D107C9F70E9445300C94C4
:1002E0006E340C940000FB01DC0104C08D9105907C
:1002F000801921F441505040C8F7881B990B08958C
:10030000FB01DC0102C005900D9241505040D8F72E
:100310000895FC014150504030F001900616D1F78D
:100320003197CF010895882799270895FB01DC01B3
:1003300004C08D910190801921F441505040C8F7BC
:10034000881B990B0895FB01DC0102C001900D92FE
:1003500041505040D8F70895A0E0B0E0E2EBF1E062
:100360000C9441347C01EB018A01690109C0CE0182
:100370002196F6010995F70181937F010150104004
:1003800001151105A1F7CDB7DEB7E8E00C945D3497
:10039000BF92CF92DF92EF92FF920F931F937B0158
:1003A0008C01FB010995B82EC8010196F70109954A
:1003B000C82EC8010296F7010995D82EC8010396E8
:1003C000F7010995982F6B2D7C2D8D2D1F910F9185
:1003D000FF90EF90DF90CF90BF900895DF92EF9263
:1003E000FF920F931F937B018C01FB010995D82E7F
:1003F000C8010196F7010995982F8D2D1F910F9136
:10040000FF90EF90DF900895A0E0B0E0EAE0F2E026
:100410000C944134EC017B018A01690109C0CE01D1
:100420002196F70161917F01F60109950150104075
:1004300001151105A1F7CDB7DEB7E8E00C945D34E6
:10044000BF92CF92DF92EF92FF920F931F93D52E20
:10045000C62EB72E79018C01642FF9010995C801C8
:1004600001966D2DF7010995C80102966C2DF701D3
:100470000995C80103966B2DF70109951F910F91FE
:10048000FF90EF90DF90CF90BF900895DF92EF92B2
:10049000FF920F931F93D72E7A018C01FA010995D1
:1004A000C80101966D2DF70109951F910F91FF90DD
:1004B000EF90DF90089588E0E0E9F1E0DF01982F08
:1004C0001D929A95E9F7109295011092940110925D
:1004D0009701109296011092930110929201389612
:1004E000DF011D928A95E9F710929D0110929C01FF
:1004F00010929F0110929E0110929B0110929A01FE
:100500008EED91E00E9480060895EF92FF921F9376
:100510007C01162F8AE994E06EE770E00E94DF2EDE
:10052000C701612F0E948B11682F8AE994E00E9415
:10053000022F8AE994E06AE00E94022F82E293E0AF
:100540000E940A1FF7018081882321F482E293E050
:100550000E94B6251F91FF90EF90089582E293E0EC
:100560000E94F1250895AF92BF92CF92DF92EF9251
:10057000FF920F931F9310EBA12E13E0B12EC50134
:100580006AE04BE02CE00DE0B2E0EB2ECC240E94C0
:1005900014138501075F1F4FC80164E044E00E9407
:1005A000F712C80163E043E023E00E94301289E1C2
:1005B00090E0A80EB91EC50162E047E021E00F2ED1
:1005C000FEE9EF2EFFEEFF2EF7E20F2FFEE31F2FC7
:1005D000F02DA0E1CA2EA7E2DA2E0E94920FC501EB
:1005E00066E10E94D50EF2E2EF2EF3E0FF2EC70186
:1005F00063E00E941021C7010E94322606EA11E042
:10060000C80160E0A7010E94C226C80168E040E07E
:1006100050E00E941829E3EEAE2EE1E0BE2EC501A7
:1006200061E0A7010E94ED29C50162E143E120E0FC
:1006300030E001EC11E077ECE72E71E0F72E5EED93
:10064000C52E51E0D52E0E94662C64B714BEC5019C
:100650000E949C291F910F91FF90EF90DF90CF9007
:10066000BF90AF900895382F413210F040E042C063
:10067000809107028823E1F791E09093070220938D
:1006800009028FEF8093740210922F024150409321
:1006900030024F5F9093080280910802330F832B42
:1006A0008093080280910A02813041F410920A027C
:1006B000809108028093BB0085EC01C085EE809399
:1006C000BC00809107028130E1F380912F028417F2
:1006D00010F440912F0220E030E00AC0FB01E20F4D
:1006E000F31FD901A15FBD4F8C9180832F5F3F4FD6
:1006F0002417A0F3842F08950F931F93582F122FC0
:10070000413210F081E04AC0809107028823E1F76E
:1007100082E080930702009309028FEF80937402B6
:1007200010922F0240933002AFE0B2E0FB0102C012
:1007300081918D938E2F861B8417D0F3109208021F
:1007400080910802550F852B8093080280910A0240
:10075000813041F410920A02809108028093BB001C
:1007600085EC01C085EE8093BC00112321F08091BF
:1007700007028230E1F3809174028F3F11F480E030
:100780000DC080917402803211F482E007C0809124
:100790007402803311F084E001C083E01F910F9157
:1007A0000895482F613210F081E00895809107028A
:1007B000843011F082E0089560935202A1E3B2E028
:1007C000842F9C01F90102C081918D938E2F841B8F
:1007D0008617D0F380E008951F920F920FB60F9204
:1007E00011242F933F934F935F936F937F938F9336
:1007F0009F93AF93BF93EF93FF938091B90090E0E5
:10080000887F90708036910509F4F2C08136910599
:10081000CCF58832910509F47BC089329105B4F496
:100820008031910509F46FC0813191053CF4009746
:1008300009F447C1089709F04FC165C08831910597
:1008400009F466C0809709F047C182C080349105E1
:1008500009F4A4C08134910544F48033910509F46E
:1008600082C0C89709F038C189C08035910509F464
:1008700089C08835910509F496C08834910509F03E
:100880002BC1AEC08839910509F413C1893991058E
:10089000ECF48837910509F4ABC0893791054CF425
:1008A0008836910509F4A4C08037910509F014C178
:1008B0009FC08838910509F4FCC08039910509F47E
:1008C0009DC08038910509F007C198C0803B910513
:1008D00009F4C6C0813B91054CF4803A910509F4B6
:1008E0009FC0883A910509F0F7C0BAC0803C9105D5
:1008F00009F4E3C0883C910509F4DFC0883B910509
:1009000009F0EAC0C2C0809108028093BB00CFC04A
:1009100090912F0280913002981768F490912F02E5
:10092000E92FF0E0E15FFD4F80818093BB009F5F86
:1009300090932F02BCC080910902882309F44BC018
:1009400085ED8093BC008091BC0084FDFCCFC2C0CB
:1009500080E28093740285ED8093BC008091BC009E
:1009600084FDFCCFB7C080E38093740285ED809353
:10097000BC008091BC0084FDFCCFACC088E38093B8
:1009800074029BC080912F029091BB00E82FF0E091
:10099000E15FFD4F90838F5F80932F0290912F0234
:1009A0008091300282C080912F029091BB00E82F8D
:1009B000F0E0E15FFD4F90838F5F80932F02809185
:1009C0000902882341F085ED8093BC008091BC0032
:1009D00084FDFCCF7FC081E080930A0284EA6EC070
:1009E00085ED8093BC008091BC0084FDFCCF72C07B
:1009F00083E0809307021092730259C080917302C2
:100A0000803208F056C0809173029091BB00E82FAD
:100A1000F0E0ED5AFD4F90838F5F8093730247C0E3
:100A200080917302803230F4E0917302F0E0ED5A6D
:100A3000FD4F108285ED8093BC008091BC0084FD49
:100A4000FCCF1092070260917302E0910D02F091C9
:100A50000E0283E592E070E00995109273022DC0BA
:100A600084E0809307021092510210925202E091AA
:100A70000B02F0910C02099580915202882329F40F
:100A800081E0809352021092310290915102E92F3D
:100A9000F0E0EF5CFD4F80818093BB009F5F9093FF
:100AA00051029091510280915202981710F485ECF6
:100AB00001C085E88093BC000FC085EC8093BC002A
:100AC00009C01092740285ED8093BC008091BC0037
:100AD00084FDFCCF10920702FF91EF91BF91AF917F
:100AE0009F918F917F916F915F914F913F912F9146
:100AF0000F900FBE0F901F9018951092070281E083
:100B00008093090210920A0282E161E00E94303172
:100B100083E161E00E943031E9EBF0E080818E7F7B
:100B2000808380818D7F808380E28093B80085E41C
:100B30008093BC00089581E08093BA02609397028D
:100B40001092B8021092B90208952091960230E0F6
:100B500080919502281B3109C901089540919502A1
:100B600080919602481718F02FEF3FEF0AC0E42F4C
:100B7000F0E0EB58FD4F8081282F30E04F5F40932D
:100B80009502C9010895E091950280919602E817B7
:100B900018F0EFEFFFEF06C0F0E0EB58FD4F80815B
:100BA000E82FF0E0CF01089508951092BE02109250
:100BB000BD0288EE93E0A0E0B0E08093BF02909386
:100BC000C002A093C102B093C20286E591E0909367
:100BD000BC028093BB020895CF92DF92EF92FF9206
:100BE0000F931F93CF93DF937C016B018A01809158
:100BF000BA028823A1F0C0E0D0E00DC0D701ED918A
:100C0000FC91D601AC0FBD1F0190F081E02DC70112
:100C10006C9109952196C017D10780F304C0CB01D0
:100C2000642F0E94D103C801DF91CF911F910F91D2
:100C3000FF90EF90DF90CF900895DF93CF930F92C6
:100C4000CDB7DEB7FC0169838091BA028823C9F071
:100C50008091B902803238F081E090E09383828302
:100C600020E030E015C08091B802E82FF0E0E856AF
:100C7000FD4F998190838F5F8093B8028093B90272
:100C800005C0CE01019661E00E94D10321E030E071
:100C9000C9010F90CF91DF9108950F93062F809196
:100CA000970268E972E04091B90221E00E947C035A
:100CB0001092B8021092B9021092BA020F910895E0
:100CC00061E00E944D060895413208F040E2862F0F
:100CD00065E772E00E9433031092950280939602BA
:100CE000089521E00E9464060895109295021092E2
:100CF00096021092B8021092B9020E947D050895E2
:100D00000895FC01848108956F927F928F929F9243
:100D1000AF92BF92CF92DF92EF92FF920F931F9309
:100D2000CF93DF93FC01EA01818192818E3091059E
:100D300039F417E1E12E15E7F12E012D112D0FC029
:100D40008536910531F0E12CB4E0FB2E012D112DFB
:100D500006C0A7EEEA2EAFE0FA2E012D112D8381F9
:100D6000882339F4E4E0EE0CFF1C001F111FEA9504
:100D7000D1F79B0140E050E0C801B7010E94C133A8
:100D80005B016C015AE0D694C794B794A7945A9526
:100D9000D1F79E0140E050E0C801B7010E94C13385
:100DA0003B014C014AE096948794779467944A9566
:100DB000D1F7A114B104C104D10429F480E090E07A
:100DC000A0E0B0E00FC0C401B3013AE0660F771FA6
:100DD000881F991F3A95D1F7A60195010E94F43317
:100DE000C901DA010196A11DB11DB695A795979588
:100DF000879581349105A105B10528F462EF71E072
:100E0000CEEBD1E049C081389105A105B10528F4A8
:100E100064E172E0C1EDD2E03FC0813C9105A105E3
:100E2000B10528F46FE372E0CBE7D3E035C0813041
:100E300021E0920720E0A20720E0B20728F460E753
:100E400072E0CEEFD3E028C0893321E0920720E0A2
:100E5000A20720E0B20728F46FE671E0CCEFD1E002
:100E60001BC08B3921E0920720E0A20720E0B207E7
:100E700028F462ED70E0CBEFD0E00EC08B599240C9
:100E8000A040B04028F060E070E0C0E0D0E004C0D6
:100E900068E170E0C2E1D0E080E090E0A601950159
:100EA0000E94C1337B018C01BE0180E090E0A4016F
:100EB00093010E94C133E61AF70A080B190BC80107
:100EC000B7010E94D03220E030E040E858E30E94B1
:100ED0005E33DF91CF911F910F91FF90EF90DF90E4
:100EE000CF90BF90AF909F908F907F906F9008951C
:100EF000CF93DF93FC01E90181819281833B9105CE
:100F000018F08FEF9FEF08C08636910518F089E33F
:100F100091E902C087EB93E16817790719F0481748
:100F2000590751F480E090E0A0E0B0E08883998315
:100F3000AA83BB8380E008C0CF010E948406688337
:100F400079838A839B8381E0DF91CF910895EF922B
:100F5000FF920F931F93CF93DF93EC01062F7A013B
:100F60006881772767FD70958BEB92E00E949B0567
:100F700010E00F70107000688BEB92E0602F0E9401
:100F80001D068BEB92E00E9460068C838823C1F4DF
:100F90006881772767FD70958BEB92E041E050E028
:100FA0000E9471068BEB92E00E94A505019741F427
:100FB0008BEB92E00E94AE05F701808381E001C0D7
:100FC00080E0DF91CF911F910F91FF90EF900895F6
:100FD000EF92FF920F931F93CF93DF93EC01062FB5
:100FE0007A016881772767FD70958BEB92E00E940C
:100FF0009B0510E00F70107000688BEB92E0602F83
:101000000E941D068BEB92E00E9460068C83882371
:1010100009F56881772767FD70958BEB92E042E0D8
:1010200050E00E9471068BEB92E00E94A5050297AA
:1010300089F48BEB92E00E94AE05182F8BEB92E0C7
:101040000E94AE05612F0E943E30F701918380839C
:1010500081E001C080E0DF91CF911F910F91FF905F
:10106000EF9008950F931F93CF93DF93EC019B01B3
:101070008A016CE0A9010E94E807882311F490E03E
:101080000BC0CE016EE0A8010E94E80790E0882323
:1010900009F491E081E09827892FDF91CF911F918A
:1010A0000F910895DF92EF92FF920F931F937C01AF
:1010B000062FD42EFC016081772767FD70958BEB9E
:1010C00092E00E949B0510E00F70107000688BEB9F
:1010D00092E0602F0E941D068BEB92E06D2D0E9426
:1010E0001D068BEB92E00E946006F701848390E07E
:1010F000882309F491E0892F1F910F91FF90EF90C1
:10110000DF900895EF92FF920F931F93DF93CF9399
:101110000F92CDB7DEB78C01E62EF42EFC0163836F
:10112000442319F48EE090E006C0F1E04F1731F44B
:1011300085E690E0F8019283818309C0F2E04F17C1
:1011400019F482E991E0F6CFFC0112821182C80104
:1011500061E0AE014F5F5F4F0E94A707882399F0BF
:101160008981EE2011F0806101C08F7E89834F2D2F
:10117000437089818C7F482B4983C80161E00E94BC
:101180005208811181E00F90CF91DF911F910F9153
:10119000FF90EF90089560E040E00E9452080895AB
:1011A00060E043E00E9452080895CF92DF92EF92F0
:1011B000FF920F931F93DF93CF9300D000D0CDB752
:1011C000DEB78C016B017A0180E090E0A0E0B0E036
:1011D00089839A83AB83BC8389E2F80180838BEB9C
:1011E00092E00E947506C8010E94D008C80160E024
:1011F00040E00E94820884EF91E028EC30E0F901A1
:101200003197F1F70197D9F7C801B601A7010E94FC
:101210003208F60180819181F3E0883E9F0708F54E
:10122000F70120813181F3E0283E3F07E8F484365E
:10123000910510F060E007C060E02436310508F049
:1012400061E081E06827C80142E00E94820884E9E9
:1012500091E128EC30E0F9013197F1F70197D9F7E6
:1012600017C0805D9740C8F4F70180819181805D4F
:10127000974098F4C80160E041E00E9482088CED3C
:1012800095E028EC30E0F9013197F1F70197D9F7B3
:10129000C801B601A7010E943208F6016081718180
:1012A000F70140815181C8019E012F5F3F4F0E948D
:1012B0007807882329F480E890E0A0E8B7E404C028
:1012C00089819A81AB81BC8189839A83AB83BC83FA
:1012D000C8010E94CB0829813A814B815C81B90108
:1012E000CA010F900F900F900F90CF91DF911F9137
:1012F0000F91FF90EF90DF90CF900895FF920F93A2
:101300001F938C01FC01808161E00E943031F80163
:10131000808161E00E94F13082E0F82E8F2D8A9565
:10132000F1F7F801818161E00E9430318F2D8A95BB
:10133000F1F7F801808160E00E9430318F2D8A95AD
:10134000F1F7F801818160E00E94303188E08A95F0
:10135000F1F7F801818161E00E9430318F2D8A958B
:10136000F1F7F801808161E00E9430318F2D8A957C
:10137000F1F7F801818160E00E943031FA94F1F7D1
:101380001F910F91FF9008950F931F93CF93DF93B9
:10139000EC01888161E00E943031888161E00E9427
:1013A000F13088E08A95F1F710E008E0898161E08A
:1013B0000E943031802F8A95F1F7898160E00E9488
:1013C0003031802F8A95F1F71F5F193079F7CE0100
:1013D0000E947E09DF91CF911F910F910895DF92B6
:1013E000EF92FF920F931F93CF93DF93EC01E62EC2
:1013F00018E000E022E0F22E898161E00E943031A5
:1014000092E0D92E8F2D8A95F1F788810E94843140
:10141000000F082B898160E00E9430318F2D8A9562
:10142000F1F7115049F7888161E00E94F13061E0E5
:101430006E2588810E9430318D2D8A95F1F7898142
:1014400061E00E94303188E08A95F1F7898160E09F
:101450000E9430318D2D8A95F1F7888160E00E94DD
:10146000F130888161E00E943031802FDF91CF918F
:101470001F910F91FF90EF90DF9008950F931F93AE
:10148000CF93DF93EC018B0161E00E94EF099D8116
:10149000982728E031E397FF03C0990F932701C0F5
:1014A000990F2150C1F79D83F80180831182CE01ED
:1014B00061E00E94EF099D81982748E021E397FFB2
:1014C00003C0990F922701C0990F4150C1F79D8326
:1014D000282F30E0F801908180E0282B392B3183D0
:1014E0002083CE0160E00E94EF09382F90E028E0D1
:1014F000990F832F8170982B36952150C9F78D81D4
:10150000981711F480E006C08FEF9FEFF8019183E8
:10151000808382E0DF91CF911F910F910895DF9238
:10152000EF92FF920F931F93CF93DF93EC01F62E70
:10153000888161E00E94F13010E808E042E0E42E8A
:1015400038E0D32E612F6F2188810E9430318E2D9B
:101550008A95F1F7898161E00E9430318D2D8A955D
:10156000F1F7898160E00E9430318E2D8A95F1F784
:101570001695015039F7888160E00E94F13088812A
:1015800061E00E943031898161E00E94303188E061
:101590008A95F1F788810E9484318C0182E08A95D6
:1015A000F1F7898160E00E94303180E0012B09F081
:1015B00081E0DF91CF911F910F91FF90EF90DF902D
:1015C00008951F93CF93DF93EC01162F17701C83A0
:1015D0000E947E09CE0166E00E948F0A882321F4D2
:1015E000CE01612F0E948F0ADF91CF911F91089544
:1015F0000F931F938C01842FF80160834183138222
:101600001282148261E00E94F130C8010E94C40974
:10161000C8016EE10E948F0A1F910F910895CF9229
:10162000DF92EF92FF921F93CF93DF93EC01162F7F
:101630006A01F22E2C81277090E038E0990F822FFA
:101640008170982B26953150C9F79D83CE010E9459
:101650007E09112311F015E001C013E0CE01612FC6
:101660000E948F0A882341F59D81912728E031E36C
:1016700097FF03C0990F932701C0990F2150C1F71D
:101680009D83FF2031F010EF60E7E62E67E1F62E34
:101690000AC0DB82CA8210C0115011F483E00CC072
:1016A000C7010197F1F788810E948431892BA1F746
:1016B000CE01B6010E943E0ADF91CF911F91FF90AB
:1016C000EF90DF90CF900895EF92FF920F931F93CA
:1016D000162F042F8BEBE82E82E0F82EC70167E768
:1016E00070E00E949B05C701612F0E941D06C70183
:1016F000602F0E941D06C7010E9460061F910F9176
:10170000FF90EF900895CF92DF92EF92FF920F93A8
:101710001F93162F9BEBE92E92E0F92EC70167E786
:1017200070E00E949B05C701612F0E941D06C70142
:101730000E946006C70167E770E00E949B05C70131
:1017400067E770E042E050E00E947106C7010E9426
:10175000AE05182F00E0C7010E94AE056C01C7015D
:101760000E9460060C291D29C8011F910F91FF904E
:10177000EF90DF90CF9008950F931F938C0164EF4B
:101780004EE20E94640B80E197E20197F1F7C801F5
:1017900066EF0E94830B1F910F910895CF92DF9205
:1017A000EF92FF920F931F936C010E94BC0BA0E07D
:1017B000B0E0F6012589368940E050E0821B930BAA
:1017C000A40BB50B2389348940E050E0BC01CD0166
:1017D0000E94C1337B018C01FFE015950795F794BA
:1017E000E794FA95D1F7D6011D966D917C911E97DD
:1017F000882777FD8095982FEBE0660F771F881F6D
:10180000991FEA95D1F71F962D913C915097442747
:1018100037FD4095542F2E0D3F1D401F511F0E9434
:10182000163488E090E0A0E0B0E0E80EF91E0A1F50
:101830001B1F2E0D3F1D401F511F64E055954795FE
:10184000379527956A95D1F7CA01B9010E94D2321E
:1018500020E030E040E251E40E943C321F910F91C1
:10186000FF90EF90DF90CF900895EF92FF921F933B
:10187000162FABEBEA2EA2E0FA2EC70167E770E065
:101880000E949B05C701612F0E941D06C7010E948F
:101890006006C70167E770E00E949B05C70167E724
:1018A00070E041E050E00E947106C7010E94AE0561
:1018B000182FC7010E946006812F1F91FF90EF90A3
:1018C0000895EF92FF920F931F93CF93DF93EC0154
:1018D00048814295440F440F407C4C5C64EF0E9469
:1018E000640B8881882319F480E197E20CC0813071
:1018F00019F480E89EE307C0823019F480E69DE683
:1019000002C080E29BEC0197F1F7CE0166EF0E94E6
:10191000830B7C0100E010E0102F0F2DFE2CEE2435
:10192000CE0168EF0E94350C282F30E040E050E0F7
:101930002E293F29402B512B688188E090E0861B9F
:10194000910904C056954795379527958A95D2F702
:10195000B901CA01DF91CF911F910F91FF90EF90D4
:1019600008952F923F924F925F926F927F928F9243
:101970009F92AF92BF92CF92DF92EF92FF920F931E
:101980001F93DF93CF93CDB7DEB72C970FB6F894A4
:10199000DEBF0FBECDBF4C010E94BC0B7C01C40159
:1019A0000E94610C2B013C0100E010E0D40155962F
:1019B0008D919C915697A0E0B0E0E81AF90A0A0BC5
:1019C0001B0BF4012389348940E050E0C801B701C2
:1019D0000E94C1335B016C01FFE0D594C794B794BA
:1019E000A794FA95D1F7D4011F96ED90FC905097EB
:1019F0000027F7FC0095102FEA0CFB1C0C1D1D1D89
:101A0000C801B70122E030E040E050E00E94163407
:101A1000F40165857685882777FD8095982FEBE022
:101A2000660F771F881F991FEA95D1F7621B730B0A
:101A3000840B950BA6019501205A3F404040504031
:101A400029833A834B835C83A80197010E94163453
:101A500089819A81AB81BC81820F931FA41FB51F1E
:101A600089839A83AB83BC83BC01CD019B01AC010C
:101A70000E94C1339B01AC016CE0559547953795A9
:101A800027956A95D1F72F83388749875A87D401DC
:101A9000DC901596ED91FC911697FC87EB871796D5
:101AA0002D903C90189751962D913C9152973E83E2
:101AB0002D8313962D913C911497442737FD409523
:101AC000542F69817A818B819C810E94C1337B0173
:101AD0008C013BE015950795F794E7943A95D1F77B
:101AE000D40111968D919C911297AA2797FDA095EC
:101AF000BA2F22E0880F991FAA1FBB1F2A95D1F782
:101B0000E80EF91E0A1F1B1FF401218532854427A8
:101B100037FD4095542F6F81788589859A850E947D
:101B2000C133BBE09595879577956795BA95D1F7C1
:101B3000E60EF71E081F191F0D2C04C0EE0CFF1C2B
:101B4000001F111F0A94D2F722E030E040E050E07D
:101B5000E20EF31E041F151FC801B70124E030E098
:101B600040E050E00E94163479018A014E185F0867
:101B7000600A710A20E533EC40E050E004C056955D
:101B8000479537952795DA94D2F7C301B2010E94A1
:101B9000C1335B016C01AA0CBB1CCC1CDD1C97FD86
:101BA00056C08B859C859C01442737FD4095542F5A
:101BB00069817A818B819C810E94C1337B018C0178
:101BC000FDE015950795F794E794FA95D1F722E093
:101BD00030E040E050E0E20EF31E041F151F9101BB
:101BE000442737FD4095542F6F81788589859A85E4
:101BF0000E94C133BC01992777FD9095892FE60E8D
:101C0000F71E081F191F72E015950795F794E794C2
:101C10007A95D1F780E090E8A0E0B0E0E80EF91EF8
:101C20000A1F1B1FAD81BE819D0140E050E0C8012D
:101C3000B7010E94C1339B01AC016FE056954795F7
:101C4000379527956A95D1F7C601B50104C0C6013D
:101C5000B501A80197010E94F433C901DA015C01C2
:101C60006D015527D7FC5A954D2D3C2D2B2DCA01C2
:101C7000B9010E94C1332EED3BE040E050E00E94EC
:101C8000C1337B018C01C601B50123E433EE4FEF74
:101C90005FEF0E94C1339B01AC019A01552737FDCC
:101CA0005095452F2153314F4F4F5F4F78011127EA
:101CB000F7FC1095012F2E0D3F1D401F511F14E002
:101CC00055954795379527951A95D1F72A0D3B1DC0
:101CD0004C1D5D1DB901CA012C960FB6F894DEBFEC
:101CE0000FBECDBFCF91DF911F910F91FF90EF906D
:101CF000DF90CF90BF90AF909F908F907F906F902C
:101D00005F904F903F902F900895CF93DF93EC0119
:101D1000643008F063E068838BEB92E00E94750604
:101D2000CE016AEA0E94830B9A838983CE016CEA12
:101D30000E94830B9C838B83CE016EEA0E94830BEF
:101D40009E838D83CE0160EB0E94830B9A8B898BDF
:101D5000CE0162EB0E94830B9C8B8B8BCE0164EBDC
:101D60000E94830B9E8B8D8BCE0166EB0E94830BB2
:101D700098878F83CE0168EB0E94830B9A878987AF
:101D8000CE016AEB0E94830B9C878B87CE016CEBA4
:101D90000E94830B9E878D87CE016EEB0E94830B82
:101DA000988B8F87DF91CF910895FC01608B089508
:101DB000462B40937C0086E880937A0020E030E058
:101DC00040E050E080917A00806480937A008091B6
:101DD0007A0086FDFCCF4A30510534F080917800BE
:101DE00090917900280F391F4F5F5F4F4A3451059A
:101DF00049F780917A008F7780937A0086E0369554
:101E000027958A95E1F7C901089560E44EE00E94A4
:101E1000D80E9C0140E050E064EB7BE281E190E071
:101E20000E94F433C9010895CF92DF92EF92FF929E
:101E30000F931F936C01FC01848161E00E94F130DB
:101E4000F601848160E00E943031C60160ECF60149
:101E500045810E94D80EA0E0B0E0BC01CD012CE489
:101E600034E040E050E00E94C1332FEF33E040E027
:101E700050E00E94F433CA01B9010E94D032F60149
:101E800026813781408551850E943C327B018C013F
:101E9000F601848160E00E94F130C801B7010E9420
:101EA000A432CB011F910F91FF90EF90DF90CF9064
:101EB0000895CF93DF93EC010E94A8309B01AC0101
:101EC0008B81882361F18C859D85AE85BF85281720
:101ED00039074A075B0718F1CE010E94050FCE01B2
:101EE0000E94140F9C0140E064E670E00E94E03321
:101EF000888990E06817790708F441E048833A83BD
:101F000029830E94A8302A853B8540E050E0260FB7
:101F1000371F481F591F2C873D874E875F87DF91EA
:101F2000CF9108959F92AF92BF92CF92DF92EF929E
:101F3000FF920F931F93CF93DF93EC01962EB42E55
:101F4000A22E0E94A8309B82BC82AD82EE82FF82CC
:101F500008871987DB86CA86992021F06C877D87E0
:101F60008E879F878C81882319F060E00E94F13072
:101F7000DF91CF911F910F91FF90EF90DF90CF9065
:101F8000BF90AF909F90089570E06827792720E078
:101F900030E041E050EACB019695879560FF04C0A0
:101FA000BC016427752701C0BC012F5F3F4F28305B
:101FB000310589F7CB010895EF92FF920F931F939C
:101FC000E82EF89490E0FC01EE0FFF1FDF01A55B07
:101FD000BE4F0D90BC91A02D2C91EB5BFE4F01905C
:101FE000F081E02D3081322389539D4FDC010C912B
:101FF00003273C93002311F478944EC08081FF2482
:10200000381710F0FF24F39410E040C0A12FB0E087
:10201000FD0143E0EE0FFF1F4A95E1F7E653FD4F48
:1020200080818E1591F58181801779F533E0AA0FB3
:10203000BB1F3A95E1F7FD01E453FD4F60817181CB
:10204000A253BD4F8C9111969C911197FC01AF0149
:1020500012962C91129713963C9120FF0EC0F90115
:10206000F595E795E60FF71F0190F081E02DE40F5D
:10207000F51F80819181FC01AF0135952795CB013A
:10208000820F931F6F2DFA0109951F5F80911A032C
:10209000181708F4BBCF78941F910F91FF90EF9021
:1020A00008951F920F920FB60F9211242F933F9312
:1020B0004F935F936F937F938F939F93AF93BF9350
:1020C000EF93FF9382E00E94DC0FFF91EF91BF91AD
:1020D000AF919F918F917F916F915F914F913F91C0
:1020E0002F910F900FBE0F901F9018951F920F9277
:1020F0000FB60F9211242F933F934F935F936F93DB
:102100007F938F939F93AF93BF93EF93FF9381E060
:102110000E94DC0FFF91EF91BF91AF919F918F9142
:102120007F916F915F914F913F912F910F900FBED3
:102130000F901F9018951F920F920FB60F921124B7
:102140002F933F934F935F936F937F938F939F93BF
:10215000AF93BF93EF93FF9380E00E94DC0FFF915A
:10216000EF91BF91AF919F918F917F916F915F910F
:102170004F913F912F910F900FBE0F901F90189588
:10218000ECECF2E01182108213821282158214822A
:10219000389683E0EC31F807A9F70895FF920F9382
:1021A0001F93CF93DF93082FEB01883010F412E0D8
:1021B0000CC08850863010F410E007C0802F8E507D
:1021C000863010F01FEF01C011E0A0911A03AF5F3D
:1021D000A0931A03B0E011972A813B814C815D8165
:1021E000FD0183E0EE0FFF1F8A95E1F7E253FD4FFB
:1021F0002083318342835383E3E0AA0FBB1FEA9518
:10220000E1F7FD01E453FD4F88819981918380833B
:10221000A653BD4F1C93E02FF0E0EE59FD4FF49014
:102220001196FC92802F62E00E94F130412F50E025
:10223000DA01AA0FBB1FBD016B5B7E4FEB01E8818A
:10224000F98180818F2980832091680081E090E06E
:1022500002C0880F991F1A95E2F7282B2093680077
:10226000A55BBE4FED91FC919081E881F981808161
:10227000892349535D4FFA0180837894DF91CF9190
:102280001F910F91FF9008950F931F930AE914E097
:10229000C80167EA70E00E94DF2E0E94A830AB01FF
:1022A000BC01C8012AE030E00E948A2FC80164EA1C
:1022B00070E00E94DF2E80E01F910F910895CF9271
:1022C000DF92EF92FF920F931F93E82EFF249AE97B
:1022D000C92E94E0D92EF70184E0F595E7958A950B
:1022E000E1F702E611E0E00FF11FC60160810E94F4
:1022F000022F8FE0E822FF240E0D1F1DC601F801FA
:1023000060810E94022F80E01F910F91FF90EF905B
:10231000DF90CF900895DF92EF92FF920F931F937B
:10232000CF93DF93D62E8C01C0E0D0E0E62EFF24C1
:102330000FC0F80180810E945F112196CE15DF0544
:102340002CF48AE994E060E20E94022F0F5F1F4F95
:10235000CD1578F380E0DF91CF911F910F91FF9021
:10236000EF90DF900895FF920F931F93F62E0E9437
:102370008B110AE914E0C8016BEA70E00E94DF2EBD
:10238000C8016F2D4AE050E00E94992FC80169EA08
:1023900070E00E94DF2E80E01F910F91FF90089562
:1023A00070931C0360931B030895DF92EF92FF92DA
:1023B0000F931F93CF93DF937C01D62EC42FD0E0D1
:1023C0008C010C0F1D1FF80180810E943031F80133
:1023D000D2822296CC0FDD1FCC0FDD1FCE0DDF1D6C
:1023E000188219821A821B82DF91CF911F910F915F
:1023F000FF90EF90DF900895462F60E00E94D51186
:1024000008951F93CF93DF93EC01162F60FF04C054
:10241000CE0160E00E94FC1111FF04C0CE0161E01A
:102420000E94FC111C821E821A821D821F821B8246
:10243000DF91CF911F910895462F61E00E94D51141
:1024400008959C01FC01E60FF11D8281882321F093
:10245000C9010E94FC110895C9010E941C1208952F
:10246000FF920F931F93CF93DF93EC01062FF42E6F
:10247000122F0E94A830212F30E0220F331F422F4D
:1024800000FF06C0FC822E83688779878A879B8736
:1024900001FF06C0FD824F836C877D878E879F87F3
:1024A000DF91CF911F910F91FF900895BF92CF922E
:1024B000DF92EF92FF920F931F93CF93DF93B82E8B
:1024C000E92E9C0189016901FF240E94A830F601D0
:1024D00020853185428553852115310541055105FA
:1024E00009F470C0621773078407950708F46AC07F
:1024F000F8018481882331F48B2D9E2D6F2D0E944D
:10250000FC1107C0813041F48B2D9E2D6F2D0E9450
:102510001C12C0E0D0E023C0823019F4CCE2D1E03C
:102520001EC0833019F4C6E9D0E019C0843019F414
:10253000C2E3D0E014C0853061F7F80186818430B1
:1025400008F01682F8018681E82FF0E0EE0FFF1FF9
:10255000EE58FE4FC081D1818F5FF8018683F8016C
:102560008481823078F18B2D9E2D6F2D0E94211257
:102570000E94A8309E01442737FD4095542F260F16
:10258000371F481F591FF60120873187428753871D
:10259000F80186818823B1F081508683882329F44D
:1025A0008B2D9E2D6F2D0E94FC11CC59DF4FAE015B
:1025B000662757FD6095762F80911B0390911C0331
:1025C0000E947E21F39484E090E0C80ED91E0F5F34
:1025D0001F4F92E0F91609F078CFDF91CF911F914C
:1025E0000F91FF90EF90DF90CF90BF900895FF92F2
:1025F0000F931F938C01862FF42EF801608361E006
:102600000E94F130C80160E00E94FC11F801F182E3
:102610008F2D61E00E94F130C80161E00E94FC1141
:102620001F910F91FF900895EF920F93FC0160832B
:10263000418322830383E4820F91EF9008950F93E7
:102640001F93CF93DF93EC01162F042F888160E056
:102650000E9430318A810E948431892BD9F71EBDB6
:102660000DB407FEFDCF8EB50EBD0DB407FEFDCF38
:102670008EB5888161E00E943031DF91CF911F914A
:102680000F9108950F931F93CF93DF93EC01062FC3
:10269000142F888160E00E9430318A810E94843149
:1026A000892BD9F7102B1EBD0DB407FEFDCF8EB5BB
:1026B0001EBC0DB407FEFDCF1EB5888161E00E94EF
:1026C0003031812FDF91CF911F910F91089568E3F1
:1026D00040EC0E9442130895EF92FF920F931F93D4
:1026E000CF93DF93EC01062FF72E142FE22E888173
:1026F00060E00E9430318A810E948431892BD9F7B1
:10270000106C1EBD0DB407FEFDCF8EB5802F9F2D22
:102710009C01F90190E007C01EBC0DB407FEFDCF7F
:102720008EB581939F5F9E15B8F3888161E00E940A
:102730003031DF91CF911F910F91FF90EF9008956D
:10274000EF92FF920F931F93CF93DF93EC01162F1D
:10275000042FF52EE22E888160E00E9430318A81BC
:102760000E948431892BD9F710641EBD0DB407FE79
:10277000FDCF8EB5802F9F2D9C01F90190E008C000
:1027800080818EBD0DB407FEFDCF8EB59F5F319663
:102790009E15B0F3888161E00E943031DF91CF91C6
:1027A0001F910F91FF90EF9008951F93CF93DF93A8
:1027B000EC01162F888160E00E9430318A810E94EE
:1027C0008431892BD9F71EBD0DB407FEFDCF8EB520
:1027D000888161E00E943031DF91CF911F9108958F
:1027E0000F931F938C0166E30E94D513C8016AE31F
:1027F0000E94D513C80169E30E94D5131F910F9160
:1028000008950F931F93CF93DF93EC018B016BE33C
:1028100040EC0E944213282F90E08F779070892B14
:1028200029F127FD23C0CE016FE340E80E94421347
:10283000282FF80180838D33D0F4B8016F5F7F4F6C
:10284000CE014FE30E946C13CE016FE340E80E947B
:102850004213CE016FE340E80E944213982F9F7706
:102860009887881F8827881F8E8302C0F8011082EE
:10287000CE016AE30E94D513CE0166E30E94D51310
:10288000CE0164E30E94D513CE016CE30E94D51300
:10289000F8018081DF91CF911F910F910895EF9200
:1028A000FF920F931F93CF93DF93EC017B01142FC3
:1028B00066E30E94D513CE016AE30E94D513CE01D0
:1028C0006BE30E94D513112371F0CE0165E30E94E2
:1028D000D51380E19EE028EC30E0F9013197F1F763
:1028E0000197D9F704C080ED97E00197F1F7F70160
:1028F00020812F5FCE016FE3A7010E94A013CE01BC
:102900006AE30E94D513CE0165E30E94D51310E05F
:102910000AE1CE0165E340EC0E9442138D3069F07C
:10292000CE0165E340EC0E944213833131F4802FE5
:102930008A95F1F71F5F183C61F781E0DF91CF9135
:102940001F910F91FF90EF900895CF93DF93EC01CB
:10295000888160E00E9430318A810E948431892B15
:10296000D9F7888161E00E943031CE0164E30E9492
:10297000D51380E797E10197F1F7CE010E94671325
:1029800090E026E0959587952A95E1F78170DF9193
:10299000CF9108950F931F93CF93DF93EC0188811C
:1029A00061E00E94F130898161E00E94F1308A810A
:1029B00060E00E94F1308B8161E00E94F1308C81F7
:1029C00060E00E94F130888161E00E9430318B81AB
:1029D00061E00E943031898160E00E94303180E501
:1029E0008CBD888161E00E9430318DE08A95F1F7DD
:1029F000888160E00E9430318AE18A95F1F7888110
:102A000061E00E9430318DE68A95F1F7CE0160E3F6
:102A10000E94D51380E29EE40197F1F700E010E0F8
:102A2000F801E950FF4F6491F801E850FF4FE4913D
:102A3000CE014E2F0E941F130E5F1F4F0033110552
:102A400079F7CE0163E30E94D51312E003C0812F12
:102A50008A95F1F7CE0165E340EC0E944213813084
:102A6000B1F7CE016EE340EC0E941F13CE0164E388
:102A70000E94D513CE016CE30E94D513DF91CF9154
:102A80001F910F9108959C01F999FECF32BD21BD90
:102A9000F89A80B508959C01F999FECF1FBA32BD0E
:102AA00021BD60BD0FB6F894FA9AF99A0FBE089549
:102AB0001F920F920FB60F9211248F9381E0809393
:102AC00005048F910F900FBE0F901F901895EF92F5
:102AD000FF920F931F93CF93DF93CA017901E8010F
:102AE000A62FB0E0FA012281338144815581FD0196
:102AF00073E0EE0FFF1F7A95E1F7EC56FE4F20834F
:102B000031834283538323E0AA0FBB1F2A95E1F749
:102B10009D012E563E4FFC0180819181F9019183E8
:102B20008083A057BE4F81E08C9370E0ABE026C05D
:102B30007A9FC001112420911F0130912001280F9C
:102B4000391FF90184918617C1F4A9014F5F5F4FC6
:102B5000FA018491833030F0F9013996859194918E
:102B600099838883FA018491823038F4F901399687
:102B700085919491F701918380837F5F80911C01FF
:102B80007817B0F2DF91CF911F910F91FF90EF90E6
:102B90000895DF93CF9300D00F92CDB7DEB7FC013D
:102BA000E654FF4F60817291829190E00F900F90F8
:102BB0000F90CF91DF910895FC0184AD815008956D
:102BC000EF92FF920F931F93CF93DF93FF2442C0A6
:102BD000AF2DB0E0FD0183E0EE0FFF1F8A95E1F716
:102BE000E057FE4F80818823A1F103E0AA0FBB1FAD
:102BF0000A95E1F7FD01EE56FE4F40815181AC563A
:102C0000BE4F8C9111969C911197FC01EF01129689
:102C10002C91129713963C9120FF0EC0F901F59567
:102C2000E795E40FF51F0190F081E02DEC0FFD1FFB
:102C300080819181FC01EF0135952795CA01820FB2
:102C4000931F60E040E020E000E010E0EE24FE0191
:102C50000995F39480911B018F1508F0B9CFDF918E
:102C6000CF911F910F91FF90EF900895DB01119686
:102C70009C91119786E7982711969C93119712962D
:102C80005C91129742E008C0FD01E20FF31F9452DD
:102C90008081982790834F5F8C91242F30E04817D4
:102CA00098F3FD01E20FF31F80818527808308954B
:102CB000DB0111969C91119786E7892711968C93D9
:102CC000119742E009C0FD01E20FF31F8081945289
:102CD000982790834F5F982F8C91242F30E04817CE
:102CE00090F3FD01E20FF31F808112969C918927DA
:102CF000808308958F929F92AF92BF92CF92DF927E
:102D0000EF92FF921F93CF93DF93EC01C25BDF4FF3
:102D100040E010E0A7E48A2E912C880E991E5E01F7
:102D2000FFE4CF2ED12CC80ED91EE4E4EE2EF12CF8
:102D3000E80EF91E212F30E0F901EE0FFF1FEE0F14
:102D4000FF1FE20FF31FE55CFE4FE081EE23D1F1A0
:102D5000D4018C91E81711F0EF3F91F5F901EE0FD6
:102D6000FF1FEE0FFF1FE20FF31FE55CFE4F918187
:102D7000F5018081981711F09F3F11F5F901EE0FD1
:102D8000FF1FEE0FFF1FE20FF31FE55CFE4F928166
:102D9000D6018C91981711F09F3F91F4F901EE0F35
:102DA000FF1FEE0FFF1FE20FF31FE55CFE4FD70181
:102DB0006C9169500380F481E02DCE01099541E0CA
:102DC0001F5FB8CF842FDF91CF911F91FF90EF90BD
:102DD000DF90CF90BF90AF909F908F900895CF924B
:102DE000EF92FF920F931F93CF93DF93EB01F801C4
:102DF0008081A82FB0E0FD0163E0EE0FFF1F6A9510
:102E0000E1F7E057FE4F80818823C1F16881FA0124
:102E10000081F901108123E0AA0FBB1F2A95E1F779
:102E2000FD01EE56FE4F40815181AC56BE4F8C9154
:102E300011969C911197FC01EF0112962C9112971B
:102E400013963C9120FF0EC0F901F595E795E40F2C
:102E5000F51F0190F081E02DEC0FFD1F8081918125
:102E6000FC01EF0135952795CA01820F931F402F72
:102E7000212F8701EC2CFE01099581E0DF91CF9194
:102E80001F910F91FF90EF90CF900895CF92EF9206
:102E9000FF920F931F93FC018C01015B1F4FAC014C
:102EA000425B5F4F70E5E72EF12CE80EF91EEC5BFC
:102EB000FF4FA081E454F040AB50CF01E95BFF4FDE
:102EC000BF019801CA2E0E94EF161F910F91FF902B
:102ED000EF90CF90089520911C01E0911F01F09197
:102EE000200190E009C08491681761F431968491C3
:102EF0003197481739F404C09217A8F3E0E0F0E0E6
:102F0000CF0108959F5F3B96F7CF0F931F93022F3A
:102F10000E946B17AC010596FC01259134914C5F22
:102F20005F4FFA0144918091250190912601280F6D
:102F3000391F409F80011124200F311FC9011F91AB
:102F40000F91089520911C01E0911F01F091200143
:102F500090E009C08491681761F4329684913297A9
:102F6000882339F004C09217A8F3E0E0F0E0CF0125
:102F700008959F5F3B96F7CF1F93142F0E94A217CF
:102F8000FC01009739F0112351F032968491329769
:102F9000181728F040E050E0CA011F9108953796B5
:102FA00025913491412F50E0440F551F440F551F78
:102FB0008091230190912401480F591F420F531F04
:102FC000EBCFEF92FF920F931F93CF93DF937C0190
:102FD00080913801882309F440C010E007E038C030
:102FE000109FC0011124C0913901D0913A01C80F3E
:102FF000D91F8881882331F4C70169814B810E94E0
:10300000BC170BC0813019F020E030E007C0C701C9
:1030100069814A812B810E9485179C016C8140E067
:1030200014C0ED81FE81E40FF11D5491F999FECF9A
:10303000C90101961FBA32BD21BD50BD0FB6F8942B
:10304000FA9AF99A0FBE4F5F9C01461750F31F5F23
:1030500080913801181708F4C3CFDF91CF911F91E9
:103060000F91FF90EF9008959F92AF92BF92CF92F1
:10307000DF92EF92FF920F931F93CF93DF93EC01B8
:10308000942EB52EA22E0E94A217C152DF4F998313
:103090008883CF5DD040892B09F443C0C753DF4FED
:1030A00080E7888380E28A93C85CD040FE01E653C3
:1030B000FF4FC955DF4F88818795882787958B29D2
:1030C0008083A4969992A992199309938F2D992799
:1030D000AA27BB278993E992A701960140705070F7
:1030E000BB27A52F942F832F89932883C25DD040BF
:1030F000FE01E855FF4F8181CD52DF4F8883219635
:10310000808188832A968BE08883CE5DD040FE0143
:10311000EF51FF4F80818F5F8083CE51DF4F81E081
:103120008883DF91CF911F910F91FF90EF90DF90F7
:10313000CF90BF90AF909F900895FF920F931F93F1
:10314000CF93DF93EC01062FF42E122F0E94A217CB
:10315000C152DF4F99838883CF5DD040892B09F41A
:1031600043C0202F30E0CF51DF4FF90183E0EE0F55
:10317000FF1F8A95E1F7E057FE4F81818883C15E8A
:10318000D040FE01E853FF4F81E0F81611F41082A1
:1031900002C080E28083C753DF4F80E48883A29718
:1031A0008881C75AD040811111E0FF2011F480E0DE
:1031B00001C080E4C653DF4F179511271795102BD8
:1031C000812B8993F901B3E0EE0FFF1FBA95E1F768
:1031D000E057FE4F818188838F5F8183639682E011
:1031E0008883249681E08883DF91CF911F910F918E
:1031F000FF90089581E0809306040895EF92FF9276
:103200000F93CF93DF93E42EE9010E94A217AC0144
:103210000596FC01259134914C5F5F4FFA01449172
:103220008091250190912601280F391F4E9D700134
:1032300011242E0D3F1D2115310541F0C901BE019C
:10324000402F50E02BE435E10E940402DF91CF9142
:103250000F91FF90EF900895CF93DF93E9010E94C3
:10326000BC17BC01009711F480E008C0CE0144E017
:1032700050E023E435E10E94AC0181E0DF91CF9181
:1032800008951F93142F0E94A2179C010097D9F054
:103290000596FC01659174912C5F3F4FF9014491B3
:1032A0003596859194912091250130912601620FE8
:1032B000731F419F90011124620F731F50E023E49C
:1032C00035E10E94AC011F910895FF920F931F9367
:1032D000CF93DF93EC01F62E0E94A217FC0100971A
:1032E000A9F0329610E004910FC0CE016F2D412F4E
:1032F0000E94BC1763E475E10E94C8016115710565
:103300008105910521F01F5F101778F31FEF812FC2
:10331000DF91CF911F910F91FF900895DF92EF926F
:10332000FF920F931F93CF93DF93EC01062F7A0147
:10333000662311F410E020C00E94A217FC01009740
:10334000D1F0329610E0D49014C0CE01602F412FFE
:103350000E94BC1763E475E10E94C801F701208157
:10336000318142815381621773078407950721F0E9
:103370001F5F1D1550F31FEF812FDF91CF911F911C
:103380000F91FF90EF90DF9008951F93CF93DF93FD
:10339000EC01162F0E948E19482F8F3F81F0CE012D
:1033A000612F0E94BC17009751F040E050E060E0B0
:1033B00070E02BE435E10E94200281E001C080E052
:1033C000DF91CF911F910895EF92FF920F931F937A
:1033D000CF93DF93EC01062F7A010E948E198F3F65
:1033E00011F01EEF19C0CE01602F0E946519182F31
:1033F0008F3F11F41DEF10C0CE01602F412F0E94AE
:10340000BC17009711F41FEF07C0B70144E050E06C
:103410002BE435E10E940402812FDF91CF911F91AF
:103420000F91FF90EF900895EF92FF921F93CF932B
:10343000DF937C01EB0111E008C0C701612FAE01F1
:103440000E948E198F3F31F41F5F80911B018117FD
:10345000A0F71FEF812FDF91CF911F91FF90EF9089
:103460000895AF92BF92CF92DF92EF92FF920F93A7
:103470001F93CF93DF93A22EB02E0E946B17EC0107
:103480000097A1F100911D0110911E012396FE01EC
:1034900084912196FE01F4902497080F111DC80114
:1034A0006B2D70E04F2D50E00E948901DC010097E8
:1034B000E9F0CE010596FC0165917491809125019A
:1034C00090912601680F791FFA9CC0011124680FA2
:1034D000791F8A2F801B680F711DC6014E2D50E089
:1034E00023E435E10E94AC0181E001C080E0DF917E
:1034F000CF911F910F91FF90EF90DF90CF90BF90F1
:10350000AF900895CF92DF92EF920F931F936C01CB
:1035100000E01BE021C0019FC001112420911F0188
:1035200030912001280F391FC9010596FC016591D2
:1035300074912C5F3F4FF901449135968591949198
:103540002091250130912601620F731F50E023E482
:1035500035E10E94AC010F5F80911C010817D8F281
:10356000C60160E040E020E00AE053E0E52E32E1F1
:10357000C32E31E0D32E0E94311A1F910F91EF908C
:10358000DF90CF9008958F929F92AF92BF92CF928B
:10359000DF92EF92FF920F931F93CF93DF93EC0193
:1035A000162FC42EA02E4701A9010E948E19D82ED5
:1035B0002FEF821711F48FEF53C0CE01612F4C2DE6
:1035C0000E946B17AC01009711F480E049C04D5F79
:1035D0005F4FFA01349143505040CA010596FC01F7
:1035E000059114914C5F5F4FFA0124918091250160
:1035F00090912601080F191F2D9DC0011124080F5D
:10360000191FC0911D01D0911E01C30FD11DBC2EE9
:10361000DD24C22E22C07401ED0CF11CF701608183
:10362000CE0170E04C2D50E00E9489019C01009772
:1036300091F0F7016181F999FECF1FBA822F8B19A2
:103640009801280F311D32BD21BD60BD0FB6F89421
:10365000FA9AF99A0FBE32E0D30EDA14E0F281E062
:10366000DF91CF911F910F91FF90EF90DF90CF905E
:10367000BF90AF909F908F900895AF92BF92CF92DE
:10368000DF92EF92FF920F931F93CF93DF93EC01A2
:10369000F62EE42E6801A9010E948E19182F8F3F83
:1036A00009F472C080915101811729F0109207042A
:1036B0001093510107C0809107048F3F19F4809344
:1036C000510108C0CE016F2D4E2D0E946B17AC0129
:1036D000009711F410E058C04D5F5F4FFA0134912C
:1036E00043505040CA010596FC01C591D4914C5FEE
:1036F0005F4FFA0124918091250190912601C80F16
:10370000D91F219FC0011124C80FD91F760110E0D5
:10371000022FA32EBB2480910704801728F51031B7
:1037200099F19501280F311DE0911D01F0911E01C5
:10373000E20FF31F8081F70181931E5F80910704E0
:10374000BE01680F711DCF0141E050E023E435E177
:103750000E94AC01809107048F5F8093070482E090
:1037600090E0E80EF91ED7CF103170F4F601E10FAA
:10377000F11D1082812F8F5FC80ED11CF6011082BF
:103780001E5F8FEF80930704812FDF91CF911F91F0
:103790000F91FF90EF90DF90CF90BF90AF90089582
:1037A000BF92CF92DF92EF92FF920F931F93DF931E
:1037B000CF9300D000D0CDB7DEB76C01B62E7A0122
:1037C0000E94A217FC0180910804909109048E17B1
:1037D0009F0751F010920A04F0930904E093080443
:1037E000329610E0049117C080910A048F3FC1F710
:1037F000109209041092080410E03AC0F701E10F9A
:10380000F11D60837183828393831C5F80910A041E
:103810008F5F80930A0440910A044017A0F410318E
:1038200038F5C6016B2D0E94BC1763E475E10E9458
:10383000C80169837A838B839C8361157105810537
:10384000910521F3DBCF103198F4E10EF11C80914A
:103850001E0390911F03A0912003B0912103F70153
:1038600080839183A283B3831C5F8FEF80930A04CC
:10387000812F0F900F900F900F90CF91DF911F919C
:103880000F91FF90EF90DF90CF90BF900895BF927F
:10389000CF92DF92EF92FF920F931F93DF93CF931C
:1038A00000D000D0CDB7DEB76C01B62E7A01FA0198
:1038B00080819181A281B38189839A83AB83BC8308
:1038C000C6018E010F5F1F4FA8010E94C519F701A5
:1038D00084818C83C6016B2DA8010E94C51981E0EB
:1038E0000F900F900F900F90CF91DF911F910F913C
:1038F000FF90EF90DF90CF90BF900895CF92DF922E
:10390000EF92FF920F931F93DF93CF9300D000D0DD
:10391000CDB7DEB77C01C62E8A01FA0183818823E8
:1039200079F080819181A281B38189839A83AB836D
:10393000BC83C701AE014F5F5F4F0E94E419D82ED0
:10394000F8014481442341F04C83C7016C2DAE0142
:103950004F5F5F4F0E94E41925E530E0E20EF31E51
:10396000F701D1927F0180832AEA3FEFE20EF31E36
:103970008701025B1F4F9701215B3F4FF701ED5A13
:10398000FF4FC70147E450E0E40EF51EB701A80160
:103990007F01E4E0CE2E0E94EF1681E00F900F90A1
:1039A0000F900F90CF91DF911F910F91FF90EF90AB
:1039B000DF90CF900895CF92DF92EF92FF920F9316
:1039C0001F93DF93CF9300D000D00F92CDB7DEB717
:1039D0008C01B2E0CB2ED12CCC0EDD1E085B1F4F2C
:1039E000F80180819181A281B381085410408A83BB
:1039F0009B83AC83BD83AEE4EA2EF12CE00EF11E76
:103A0000D7018C918F708D83C801B6010E94141A62
:103A1000682F882329F18983C801A6010E948E1985
:103A2000482F8F3FE9F0C80169810E944119FFE4E6
:103A3000CF2ED12CC00ED11E0C5B1F4FD801EC91A4
:103A400004541040EA50C801095B1F4FB801A70198
:103A500096018E010F5F1F4F7601CE2E0E94EF164A
:103A60000F900F900F900F900F90CF91DF911F91BB
:103A70000F91FF90EF90DF90CF900895CF93DF9359
:103A8000EB0182E191E06EE173E043E050E00E94DF
:103A90009601009759F082E191E0BE0143E050E0C9
:103AA0000E9496019C0180E0232B09F481E0DF91C4
:103AB000CF910895CF93DF93EC018A8185FF03C0F6
:103AC00080910D0101C081E08EAF8A8190E024E0F9
:103AD000959587952A95E1F78170CD5BDF4F8883B7
:103AE000C354D040BE0168547F4FCE01079643E0D7
:103AF00050E00E949601009771F4AE014C5B5F4F5D
:103B0000288130E02F5F3F4FCA01BE01A9010E940A
:103B1000A3011DAE07C081E08DAFEF961882198218
:103B20001A821B82DF91CF910895CF92EF92FF927C
:103B30000F931F93CF93DF93EC015C2D575F588356
:103B4000595069834A832B83DC011496FC01E854A5
:103B5000FF4F83E001900D928150E1F7DE0117964F
:103B6000F80183E001900D928150E1F79E01265FFC
:103B70003F4FE216F30631F0C901B701452F50E07F
:103B80000E94A301CE010E945A1DDF91CF911F9187
:103B90000F91FF90EF90CF9008958F929F92AF92E8
:103BA000BF92CF92DF92EF92FF920F931F93DF931A
:103BB000CF9300D000D00F92CDB7DEB75C01FC01EF
:103BC00085AD882309F0EDC02FED30E0A20EB31EC5
:103BD000F5012081318141E25FEFA40EB51E809195
:103BE0000B0490910C048217930719F581EE90E075
:103BF000A80EB91E90911004F50180814FE15FEF8E
:103C0000A40EB51E9817A9F480910F04813049F5D0
:103C1000E0910D04F0910E043296E491809111042C
:103C20008E17F8F082EE90E0A80EB91EF501108212
:103C3000B8C030930C0420930B0441EE50E0A40E66
:103C4000B51EF50180814FE15FEFA40EB51E809394
:103C500010041092110410920F0430930E0420935C
:103C60000D0480910F04882309F07EC0E0910D04BB
:103C7000F0910E043296E491809111048E1708F4AD
:103C800073C0F50164AD6F5F64AF615028EC30E044
:103C9000A20EB31EF501408128E33FEFA20EB31E32
:103CA0004268EAECEE2EF12CEA0CFB1CD501A25284
:103CB000BF4FC501E9ECF0E0AE0EBF1EF50120815B
:103CC00002E111E0CC900E94951D81E080930F04E9
:103CD00068C02F5F2093110464C081E080930F04BB
:103CE000E0910D04F0910E0464913196E4912F5F00
:103CF000209311042150C5014E2F01E0EE24E394DE
:103D00006E010894C11CD11C0E94311AF50164ADEA
:103D10006F5F64AF6150898190E08170907074E052
:103D2000880F991F7A95E1F728EC30E0A20EB31EB8
:103D3000F501408128E33FEFA20EB31E4268482BF5
:103D40005AECE52EF12CEA0CFB1CD501A252BF4F18
:103D5000C501E9ECF0E0AE0EBF1EF5012081840143
:103D6000CC900E94951D1DC0E0910D04F0910E04B1
:103D7000E49132E0832E912C8C0E9D1EC5016E2F96
:103D80004091110494010E942C198A819B81AC817D
:103D9000BD81209111040097A105B10509F499CFC7
:103DA0009CCF0F900F900F900F900F90CF91DF91BD
:103DB0001F910F91FF90EF90DF90CF90BF90AF9049
:103DC0009F908F900895CF92EF92FF920F931F9341
:103DD000DF93CF930F92CDB7DEB7FC0180E88983E4
:103DE0008F01085B1F4FCF01EB5BFF4F608140E805
:103DF00022E07E010894E11CF11CCC24C3940E94B3
:103E0000951D0F90CF91DF911F910F91FF90EF9033
:103E1000CF900895CF92EF92FF920F931F93DF936D
:103E2000CF930F92CDB7DEB7FC0119828C01085BEE
:103E30001F4FEB5BFF4F608140E822E07E0108945A
:103E4000E11CF11CCC24C3940E94951D0F90CF91CE
:103E5000DF911F910F91FF90EF90CF900895CF9237
:103E6000EF92FF920F931F93FC0181E0828763879B
:103E70004487E955FF4F8081E75AF04087958827AE
:103E80008795822B8587EB56FF4F8081E559F0405F
:103E900086878F01085B1F4FDF011A96CF01EB5B0E
:103EA000FF4F608140E822E07D01F5E0CF2E0E94C7
:103EB000951D1F910F91FF90EF90CF900895CF9295
:103EC000EF92FF920F931F93CF93DF93EC01162F86
:103ED000042FF22E82E191E06EE173E043E050E0C6
:103EE0000E949601009771F186E08A871B870C87F4
:103EF000FD86CB56DF4F8881C559D0408E87C95B80
:103F0000DF4F8881C754D040813069F4C15BDF4FF7
:103F10008881CF54D0408E3031F4CB5BDF4F688145
:103F2000C554D04004C06CAD6F5F6CAF6150CE0122
:103F300044EA20E102E111E02A967E01A5E0CA2EC2
:103F40000E94951DDF91CF911F910F91FF90EF90EF
:103F5000CF900895CF92EF92FF920F931F93CF933C
:103F6000DF93EC014FE4E42EF12CE80EF91EF7018B
:103F70008081813049F4CE01C25BDF4F6881229697
:103F8000AE010E947E1CDEC0823049F4CE01C25BCD
:103F9000DF4F68812296AE010E94471CD3C0833058
:103FA00019F5FE01E554FF4FCB5BDF4F8881C55407
:103FB000D0408083FE01E154FF4FC25BDF4F888118
:103FC000CE54D0408083DE01A454BF4FFE01E85B95
:103FD000FF4F83E001900D928150E1F7CB53DF4F0B
:103FE00081E0888322963DC08430E9F5FE01E554E6
:103FF000FF4FCB5BDF4F8881C554D0408083FE01EB
:10400000E154FF4FC25BDF4F8881CE54D0408083A4
:10401000FE01E054FF4FCC5ADF4F8881C455D04099
:104020008083FE01EF53FF4FC05BDF4F8881998192
:10403000AA81BB81C055D04080839183A283B38382
:10404000DE01A454BF4FFE01E85BFF4F83E0019007
:104050000D928150E1F7CB53DF4F82E088832296A7
:1040600081E08883D5C0853031F5FE01E154FF4FF2
:10407000C25BDF4F8881CE54D0408083FE01EF5376
:10408000FF4FC05BDF4F88819981AA81BB81C055FA
:10409000D04080839183A283B383FE01E054FF4F1D
:1040A000CC5ADF4F88818083CE58DF4F81E08883F0
:1040B000C058D04048C08630C1F4CA53DF4F188280
:1040C000C65CD040CE010E94821A8E01025B1F4F57
:1040D000CE01C95BDF4FBE01A8019701EE24FF248A
:1040E000CC240E94EF168A912FC08830A9F5CA53BC
:1040F000DF4F8881C65CD040882351F0C154DF4F28
:104100006881C157D0408881CE54D040681739F0BB
:104110008AE994E067E271E00E94DF2E79C0FE0137
:10412000E054FF4F9E012F533F4FCC5BDF4F088180
:10413000C454D0400B50CE014081C05BDF4F7E01A4
:104140000E94C31A2A978881C654D04085FF60C058
:10415000CE010E940A1F5CC08930E1F41A8660918A
:104160001001709111016D5F7F4FCE010B964BE0F6
:1041700050E00E9480018E01085B1F4FFE013A96BD
:10418000CE01CB5BDF4F688140E820E17F013BE05F
:10419000C32E29C08A3051F50091100110911101F0
:1041A000B8016D5F7F4FCE01805B9F4F4AE050E0CA
:1041B0000E947301892B61F58AE0E82EF12CEC0E48
:1041C000FD1EC701B80141E150E00E9480016CADC5
:1041D0006F5F6CAF6150CE0142EA20E0C85BDF4FF9
:1041E0008E01B1E1CB2E0E94951D12C08E3081F45C
:1041F0008E01025B1F4F9E01215B3F4FCE01C95BC9
:10420000DF4FBE01A801EE24FF24CC240E94EF164C
:10421000DF91CF911F910F91FF90EF90CF90089574
:104220001F93CF93DF93EC01162F613019F483B7FE
:10423000817F28C0623041F5CC57DF4F88E99AE38F
:104240008993999380ED97E0998388830E94A830A1
:10425000249666507F4F8F4F9F4F688379838A8360
:104260009B838091600088618093600084E08093EC
:1042700060008AEF90E09A938A93C858D04083B741
:10428000817F846083BF12C0633081F480916000BD
:1042900088618093600084E080936000C857DF4F9E
:1042A0008AEF90E099838883C858D040812F83504B
:1042B0008230D8F4CC57DF4F88E99AE389939993F9
:1042C00088EE93E0998388830E94A83024966056F4
:1042D000704F8F4F9F4F688379838A839B83CA581F
:1042E000D04083B7817F846083BFCE57DF4F19935F
:1042F00081E08883DF91CF911F910895EF92FF9223
:104300000F931F93CF93DF93EC017A018B01CD576D
:10431000DF4F8881C358D040882329F4CE018257CB
:104320009F4F0E94A514CD57DF4F81E088830E94E4
:10433000A8309B01AC012E0D3F1D401F511FFE01F7
:10434000379680819181A281B381281739074A0766
:104350005B0720F02083318342835383DF91CF9129
:104360001F910F91FF90EF900895EF92FF920F939E
:104370001F93CF93DF93EC018C010E571F4FF80171
:104380008081882309F4D4C00E94A8305AE8E52E21
:10439000F12CEC0EFD1EF701208131814281538109
:1043A000621773078407950708F4C2C08DAD882390
:1043B00009F0BEC0F8019081923009F042C08E0130
:1043C0000D571F4FF8018081882331F5CE018257A8
:1043D0009F4F0E94A514882389F00E94A8309B015A
:1043E000AC01CA57DF4F88819981C658D040A0E000
:1043F000B0E0280F391F4A1F5B1F04C00E94A8307D
:104400009B01AC01CD57DF4F81E08883279628833D
:1044100039834A835B838CC0813041F5CE0182575A
:104420009F4F0E94F013F80110820E94A83066503E
:104430007F4F8F4F9F4FF7016083718382839383F8
:1044400077C0933008F474C08E010D571F4FF801E8
:104450008081813041F4CE0182579F4F0E94F0133A
:10446000F801108265C0923008F462C0CD57DF4F6A
:104470008881C358D040882309F05AC0CE0189569C
:104480009F4F63E00E940112CE57DF4F9881C258C0
:10449000D0409250923028F48091600080648093E4
:1044A000600010927A00209164008FEF8093640086
:1044B00083B7816083BF80E685BF80E485BF889530
:1044C00083B78E7F83BF923028F4809160008F7B0A
:1044D0008093600020936400809105048130E9F4AA
:1044E000109205042091C4043091C5044091C60483
:1044F0005091C704C857DF4F88819981A0E0B0E090
:10450000820F931FA41FB51F8093C4049093C5040A
:10451000A093C604B093C7040BC0CA57DF4F4881AD
:104520005981C658D04060E070E0CE010E947E21E3
:10453000DF91CF911F910F91FF90EF900895CF924F
:10454000EF92FF920F931F938C0189569F4F62E069
:1045500043E020E00E943012EAE0EE2EF12CE00E63
:10456000F11E6091100170911101C70141E150E00D
:104570000E948001F80164AD6F5F64AF6150C801B3
:1045800042EA20E002E111E071E1C72E0E94951D90
:104590001F910F91FF90EF90CF900895CF92EF92DF
:1045A000FF920F931F93CF93DF93EC018DAD882380
:1045B00009F05BC0CE0189569F4F61E044E021E0E5
:1045C0000E943012CB53DF4FF880C55CD04081E0B1
:1045D000F81659F4FE01E154FF4FAE01455F5F4FFD
:1045E000CE0160810E94D01B14C0B2E0FB16E9F539
:1045F000FE01E154FF4FDE01A054BF4F9E012F5337
:104600003F4F8E01055F1F4FCE0160814C910E948C
:104610003D1B382F882351F4CE0185549F4FFC0158
:104620008DE0DF011D928A95E9F71FC0DE01A554D8
:10463000BF4F8F3F41F48DE01D928A95E9F7CE017F
:104640000E94E31E12C0FA866C916F5F6C936150FA
:10465000FE013A963F5FCE0140EA20E1C454DF4FAD
:104660008E017F01C32E0E94951DDF91CF911F9176
:104670000F91FF90EF90CF9008958F929F92AF92FD
:10468000BF92CF92DF92EF92FF920F931F93CF933F
:10469000DF93EC010E94A8305B016C019DAD8EADF3
:1046A000891708F48EC08E01015C1F4FF8018081CC
:1046B0009181A281B381A816B906CA06DB0608F467
:1046C00080C09C2E8D2ECE01BE010E943616809198
:1046D0001D030E94D12FFE01ED5BFF4FCE018257DB
:1046E0009F4FBE0140810E944F1480911D036AEFCD
:1046F00078E142E050E00E94AE2FCE01BE010E9460
:1047000058168DAD8F5F8DAF80910E0190910F0186
:10471000A0E0B0E08A0D9B1DAC1DBD1DF80180839B
:104720009183A283B383CD57DF4F81E088838A9141
:10473000C258D0408823F1F0CA57DF4F8881998151
:104740007C0100E010E02496A60195012E0D3F1D8E
:10475000401F511F88819981AA81BB81CA58D040CE
:1047600082179307A407B50728F4CE01B801A70163
:104770000E947E218AE994E065E571E00E94DF2EC7
:1047800068816F5F892D982D0E94B311682F8AE987
:1047900094E00E94022F0E944411682F8AE994E05D
:1047A0000E94022FCE51DF4F8881C25ED0408130FF
:1047B00041F4CE0189569F4F63E044E021E00E941E
:1047C00030129DAD8EAD891758F480910D01981768
:1047D00038F41DAEEF96188219821A821B82EF9769
:1047E0009DAD8EAD891788F5FE01FF968081918180
:1047F000A281B381A816B906CA06DB0630F11DAE48
:104800001082118212821382CE51DF4F8881C25EE4
:10481000D040813069F48E0109561F4FC80163E012
:104820000E940112C80162E042E021E00E943012C1
:104830008AE994E06EE471E00E94DF2E0E94441148
:10484000682F8AE994E00E94022FDF91CF911F9197
:104850000F91FF90EF90DF90CF90BF90AF909F901F
:104860008F9008950F931F93CF93DF93EC018C01EA
:10487000055B1F4FBC0168547F4FC80143E050E007
:104880000E949601FE01E058FF4F009719F48081C5
:10489000816002C080818E7F8083C8016EE173E0F9
:1048A00043E050E00E949601FE01E058FF4F009760
:1048B00019F48081826002C080818D7F8083C0581E
:1048C000DF4F8881C058D04080FF05C08AE994E05E
:1048D0006BEC71E00BC081FF05C08AE994E067ECE6
:1048E00071E004C08AE994E063EC71E00E94DF2E7D
:1048F0008E010C5B1F4FF80160816F5FC8010E9441
:10490000B311682F8AE994E00E94022F0E9444119B
:10491000682F8AE994E00E94022FC058DF4F8881F7
:10492000C058D04080FD05C081FD03C0F801108251
:1049300092C0CA5BDF4F8881C654D04086FF28C032
:104940008AE994E06DEA71E00E94DF2EFE01EF57E4
:10495000FF4FCB5BDF4F90818881C554D0409817C3
:1049600029F48AE994E064E971E004C08AE994E0FA
:104970006CE771E00E94DF2EFE01EF57FF4FCB5B2B
:10498000DF4F90818881C554D040981709F460C0EA
:10499000BE01685B7F4FCE010E943E1D882349F017
:1049A000FE01EF57FF4FCB5BDF4F8881C554D040EE
:1049B0008083C058DF4F8881C058D04080FD02C03E
:1049C00081FF3CC0CA5BDF4F8881C654D04087FF5F
:1049D00035C0C95BDF4F8881C754D040813021F496
:1049E000CE010E94AA1F2AC08230B1F41DAECE5162
:1049F000DF4F8881C25ED040813001F58E010956BB
:104A00001F4FC80163E00E940112C80161E044E049
:104A100021E00E94301212C0813121F4CE010E94A7
:104A200046170CC0823120F0CE010E94DB1C06C06C
:104A30008AE994E069E571E00E94DF2EC058DF4FFB
:104A40008881C058D04080FF03C0CE010E947A16F2
:104A5000CC5BDF4F1882DF91CF911F910F910895AA
:104A60009F92AF92BF92CF92DF92EF92FF920F93FD
:104A70001F93CF93DF935C01C0901F01D090200162
:104A8000EE24FF2400E0FBE09F2E0BC0FE016491AA
:104A9000C7010E94C40F7C011F5F21961930B1F736
:104AA0000F5F80911C01081738F4099DE001112463
:104AB000CC0DDD1D10E0EACF809121019091220103
:104AC00063E475E10E94EE01E816F90609F439C0C5
:104AD0008AE994E060E071E00E94AB2F60912301CD
:104AE0007091240140912B0150912C0120E030E085
:104AF00010C0F999FECF1FBAC901860F971F92BD4A
:104B000081BD10BC0FB6F894FA9AF99A0FBE2F5FC8
:104B10003F4F2417350768F384EF91E028EC30E02D
:104B2000F9013197F1F70197D9F7C5010E94E11713
:104B300084EF91E028EC30E0F9013197F1F701972B
:104B4000D9F78091210190912201B7014BE455E101
:104B50000E944602DF91CF911F910F91FF90EF903D
:104B6000DF90CF90BF90AF909F9008950F931F93C9
:104B70008C01809121019091220160E070E04BE472
:104B800055E10E944602C8010E943025C8010E94DA
:104B9000821AC80189569F4F62E044E025E00E94D6
:104BA00030121F910F91089580911D030E94D12F03
:104BB00080EB93E066E673E00E940114882331F0F5
:104BC00082E293E066E673E00E94581610920604B3
:104BD00080911D036AEF78E142E050E00E94AE2F21
:104BE0000895CF93DF93EC0180910604882319F098
:104BF000CE010E94D425CC5BDF4F8881C454D040C5
:104C0000882319F0CE010E9432248DAD882319F03B
:104C1000CE010E943D23C953DF4F8881C75CD0403D
:104C2000882319F0CE010E94CE22CE51DF4F888119
:104C3000C25ED040882319F0CE010E94CD1DCE0166
:104C40000E94B521CE010E94E015CE0189569F4FEA
:104C50000E945612CE0189559F4F0E94590FDF9135
:104C6000CF9108950F931F938C018AE994E040E05F
:104C700051EE60E070E00E94372DC8010E9430259F
:104C8000C8010E94821AC80182579F4F0E94CA140D
:104C90000D561F4FF80180810359104080931D036A
:104CA0006AEF78E142E050E00E94AE2F609110017F
:104CB000709111016F5E7F4FC80188549F4F43E090
:104CC00050E00E948001C80189569F4FB8010E94A0
:104CD000D01182E293E048EE53E060E070E00E9481
:104CE0007E211F910F910895EF92FF920F93CF9322
:104CF000DF93EC017B01FB012081222381F1818183
:104D0000882319F18D899E8920FF0FC06C8942810B
:104D10002AE731E001E00E94FE188D899E896C89A6
:104D2000F70143812BE731E025C06C89F70142810F
:104D30002BE731E001E00E94FE188D899E896C8985
:104D4000F70143812AE731E015C08D899E896C897E
:104D5000F70142812CE731E001E00E94FE18F701E3
:104D60008181882349F08D899E896C8943812CE754
:104D700031E001E00E94FE18DF91CF910F91FF908A
:104D8000EF900895DF92EF92FF920F931F93DF93BE
:104D9000CF9300D000D000D0CDB7DEB77C01D62EA7
:104DA000CA01F701568B458B26EB38E240E050E014
:104DB0002B833C834D835E83FA82E9829701275ED1
:104DC0003F4F8701095E1F4FAE014F5F5F4F0E944B
:104DD0006715F701D48A26960FB6F894DEBF0FBE8A
:104DE000CDBFCF91DF911F910F91FF90EF90DF909A
:104DF00008950F931F938C016170660FFC018285EB
:104E00008D7F862B82870E94A830665F7F4F8F4FF1
:104E10009F4FF801638774878587968782858160B5
:104E200082871F910F910895FC0185899689648975
:104E3000438920E00E945F1F0895FC0185899689BF
:104E40006489438920E00E942F1F08951F93CF9308
:104E5000DF93EC01162F8D899E8948EE53E060E0C8
:104E600070E00E947E211F3F09F451C06C896623C7
:104E700059F5112369F48D899E890E949F228D899D
:104E80009E8940E25EE460E070E00E947E2138C0CE
:104E9000123039F48D899E8989569F4F62E044E033
:104EA00008C0163051F48D899E8989569F4F62E063
:104EB00040E020E00E94301223C0153009F58D89B2
:104EC0009E890E94B6251CC0123030F48D899E89BF
:104ED00040E020E00E949D18812F8250823038F4FB
:104EE0008D899E896C8941E020E00E949D181430D4
:104EF00039F48D899E896C8942E020E00E949D18DA
:104F0000E885F985309719F08C89612F0995DF9133
:104F1000CF911F910895EF92FF920F931F93CF931C
:104F2000DF93EC010E94A8307B018C016A8560FF51
:104F300016C18B859C85AD85BE85E816F9060A07E6
:104F40001B0708F40CC1862F86958170813009F00B
:104F5000B5C0862F869586958170813009F055C041
:104F600064FF17C08E819F81A0E0B0E02F85388953
:104F700049895A89820F931FA41FB51FE816F906A5
:104F80000A071B0730F06F7E6A87CE0166E00E9439
:104F900026276A8563FF13C08A819B81A0E0B0E069
:104FA0002F85388949895A89820F931FA41FB51FFD
:104FB000E816F9060A071B0710F0677F6A878A85DB
:104FC00084FD04C083FD02C08E7F8A878A8584FFAA
:104FD0000CC08E819F81A0E0B0E08E0D9F1DA01FB0
:104FE000B11F8B879C87AD87BE878A8583FFB7C03B
:104FF0008A819B81A0E0B0E08E0D9F1DA01FB11F94
:105000008B879C87AD87BE87AAC0882309F0A7C07D
:1050100065FF05C06F7D6A87CE0164E020C063FF35
:1050200005C0677F6A87CE0161E019C08C819D81D0
:10503000A0E0B0E02F85388949895A89820F931FF3
:10504000A41FB51FE816F9060A071B0750F468608D
:105050006A878A819B81892B21F4CE0160E00E94BE
:1050600026278A8583FF0EC08A819B81009751F095
:10507000A0E0B0E08E0D9F1DA01FB11F8B879C8705
:10508000AD87BE878A8584FF0CC08E819F81A0E09A
:10509000B0E08E0D9F1DA01FB11F8B879C87AD8731
:1050A000BE87EF86F88A098B1A8B8A85982F990F0D
:1050B00094708B7F892B81608A8751C0882309F087
:1050C0004EC0862F8695869581708130D1F4EF860B
:1050D000F88A098B1A8B8C819D81A0E0B0E08E0D3F
:1050E0009F1DA01FB11F8B879C87AD87BE87862F12
:1050F000880F84706B7F682B61606A87CE016FEFC9
:105100002CC0882361F565FF11C06F7E6A878CE231
:1051100091E0A0E0B0E0E80EF91E0A1F1B1FEB862D
:10512000FC860D871E87CE0163E017C064FF05C0B3
:105130006E7C6A87CE0165E010C060636A878C81EF
:105140009D81A0E0B0E08E0D9F1DA01FB11F8B8739
:105150009C87AD87BE87CE0162E00E942627DF9143
:10516000CF911F910F91FF90EF900895EF920F93C1
:105170001F93DC01662321F4CD010E948B2754C0CC
:10518000613091F52630D1F554968C91549788234F
:1051900059F413961C921E92129788E893E1159683
:1051A0009C938E9314971BC0ED91FC911197828173
:1051B0008F7024E6829FC001112413969C938E93D6
:1051C0001297808182958F70829FC0011124845D27
:1051D0009E4F15969C938E93149788EE93E01796A6
:1051E0009C938E93169720C06131B1F44230E1F464
:1051F000CD01B8014E2D0E941D2716C02E3021F47E
:10520000CD010E94142710C0213071F4CD01B801E6
:105210004E2D0E94742608C06E3330F055968D9145
:105220009C9156970E940A1F1F910F91EF9008952D
:10523000CF92DF92FF920F931F93DF93CF93CDB75F
:10524000DEB729970FB6F894DEBF0FBECDBF6C0155
:10525000F62E8A01862F62E00E94F130D60119965F
:105260001C930E9318971A968C911A97887C8660D7
:105270001A968C9389EF96E2A0E0B0E08E839F832C
:10528000A887B987DD82CC828F2DBE016C5F7F4FEE
:105290000E94CE10F6018489882329F0818D928D99
:1052A000918380830EC0DE011196EDE7F1E083E08B
:1052B00001900D928150E1F7CE010196D6018D93B8
:1052C0009C93F6018489882349F41382128288E82A
:1052D00093E1958384839783868320C0D601ED91E3
:1052E000FC91119782818F7024E6829FC001112466
:1052F00013969C938E931297808182958F70829FD4
:10530000C0011124845D9E4F15969C938E93149733
:1053100088EE93E017969C938E93169729960FB676
:10532000F894DEBF0FBECDBFCF91DF911F910F91DB
:10533000FF90DF90CF900895FC0160870895EF9271
:10534000FF920F93CF93DF93EC017B01FB01208150
:10535000222381F18181882319F18A819B8120FF99
:105360000FC06981428120E831E000E00E94FE1810
:105370008A819B816981F701438120E831E025C062
:105380006981F701428120E831E000E00E94FE18C7
:105390008A819B816981F701438120E831E015C052
:1053A0008A819B816981F701428120E831E000E038
:1053B0000E94FE18F7018181882349F08A819B8130
:1053C0006981438120E831E000E00E94FE18DF910E
:1053D000CF910F91FF90EF900895DF92EF92FF929F
:1053E0000F931F93DF93CF9300D000D000D0CDB7A1
:1053F000DEB77C01D62ECA01F7015383428325E331
:105400003CE240E050E02B833C834D835E83FA8294
:10541000E98297012A5F3F4F87010C5F1F4FAE0162
:105420004F5F5F4F0E946715F701D18226960FB636
:10543000F894DEBF0FBECDBFCF91DF911F910F91CA
:10544000FF90EF90DF900895FC018281938161814C
:10545000408120E00E945F1F0895FC0182819381BA
:105460006181408120E00E942F1F0895CF92DF923A
:10547000EF92FF920F931F936C01FC018281938145
:105480000E94C9157B018C01F601828193810E94E3
:10549000DC1590E00196AA2797FDA095BA2F102F52
:1054A0000F2DFE2CEE248E299F29A02BB12BBC01A1
:1054B000CD012DE63EE446EC51E40E94C133675C29
:1054C0007F4C8F4F9F4F282F30E040E050E020521C
:1054D0003E4F4F4F5F4FB901CA011F910F91FF908F
:1054E000EF90DF90CF900895CF92DF92EF92FF92EE
:1054F0000F931F93CF93DF93EC010E94A8307B01A1
:105500008C01888D998D009759F0A0E0B0E08E0D48
:105510009F1DA01FB11F8C8B9D8BAE8BBF8B19C0A5
:10552000CE010E94362A28E13CEF4FEF5FEFE20EFA
:10553000F31E041F151F2AEF30E040E050E00E94E8
:10554000C133E60EF71E081F191FEC8AFD8A0E8B69
:105550001F8B8DE68B8B4A8D5B8D0D8D1E8DCF8CB9
:10556000D8A0E9A0FAA08A819B8169812C8D0E9434
:105570003418DF91CF911F910F91FF90EF90DF9042
:10558000CF9008953F924F925F926F927F928F9249
:105590009F92AF92BF92CF92DF92EF92FF920F93C2
:1055A0001F93DF93CF9300D000D000D0CDB7DEB7EC
:1055B0002C01FC0184899589A689B78988519C4F63
:1055C000AF4FBF4F848B958BA68BB78B84E7838BB4
:1055D0001092BC008585968560E0AE014F5F5F4FFD
:1055E00021E00E940F0B382E882309F0A8C0898182
:1055F0009A819C0140E050E08E5D9340B8F4CA016E
:10560000B9010E94D0322DEC3CEC4CEC5EE30E94E0
:105610005E3320E030E046EC53E40E94D7319B013A
:10562000AC0160E070E080E896E40EC0CA01B90108
:105630000E94D0322DEC3CEC4CEC5EE30E945E33D9
:1056400020E030E046EC53E40E94D7310E94A432BF
:10565000F201738F628FF2018585968561E0AE015C
:105660004F5F5F4F21E00E940F0B69817A8180E0DC
:1056700090E00E94D0325B016C012DEB32E546E1F7
:105680005FE30E945E3325EC3EEF42E050E40E946F
:10569000D7317B018C01C601B5012BE335E246ED24
:1056A00059EB0E945E33A60195010E945E339B0177
:1056B000AC01C801B7010E94D8310E94A432E62E85
:1056C000F201648F628D738D80E090E00E94D03291
:1056D00020E030E040E251E40E943C3220E030E043
:1056E00048EC51E40E94D7313B014C01C601B501A1
:1056F0002CEA35EC47EA5AE30E945E332AE037EDA4
:1057000043E25CE30E94D8319B01AC01C401B301C8
:105710000E945E335B016C01FF240027F7FC0095BB
:10572000102FC801B7010E94D2329B01AC01C60103
:10573000B5010E94D8310E94A432F201648FF201B7
:1057400087859089009751F160E00E94850EF201F3
:10575000878590890E94B10C24E630E040E050E05B
:105760000E941634F201368F258F2D52314098F069
:105770003320A1F0F201878590890E94CE0B20E0B2
:1057800030E040E251E40E945E330E94A432F20114
:10579000738F628F03C0F201168E158EF20181891C
:1057A0009289BE016D5F7F4FAE014B5F5F4F0E94DC
:1057B000D50820E030E048EC52E40E945E330E94BD
:1057C000A432F201678F70A381A392A38189928989
:1057D0000E948106882329F088EC90E0A4E6B0E0DE
:1057E00005C0F201878D90A1A1A1B2A1F201878F1E
:1057F00090A3A1A3B2A326960FB6F894DEBF0FBE66
:10580000CDBFCF91DF911F910F91FF90EF90DF906F
:10581000CF90BF90AF909F908F907F906F905F9050
:105820004F903F900895CF93DF93EC010E94A830F2
:105830002C893D894E895F89211531054105510526
:1058400089F0621773078407950760F08B898D369E
:1058500021F4CE010E94C22A05C0843719F4CE017A
:105860000E94742ADF91CF910895EF920F931F93B6
:10587000FC01662321F4CF010E94132C23C0613068
:1058800019F4263059F41EC06131B1F44230D1F41C
:10589000CF01B8014E2D0E942D2A14C02E3021F4C4
:1058A000CF010E94242A0EC0213061F4CF01B8013B
:1058B0004E2D0E949F2906C06E3320F08281938175
:1058C0000E940A1F1F910F91EF900895AF92BF920F
:1058D000CF92DF92EF92FF920F931F93CF93DF93BC
:1058E000EC01B62EA42E398F288F0E94A830685163
:1058F0007C4F8F4F9F4F6C8B7D8B8E8B9F8B8DE65C
:105900008B8B1E870D87C8016B2D4A2D0E94F80ACC
:105910008D859E8561E00E94E10AE114F10411F099
:10592000F88AEF86C114D10411F0DA8AC98A1BA261
:1059300089899A890E94D00889899A896BA140E057
:105940000E948208DF91CF911F910F91FF90EF90FD
:10595000DF90CF90BF90AF90089508951F920F925F
:105960000FB60F9211242F933F934F938F939F93D2
:10597000EF93FF938091C00082FD1DC04091C6004F
:1059800020915204309153042F5F3F4F2F7330709A
:1059900080915404909155042817390771F0E091D3
:1059A0005204F0915304EE5EFB4F40833093530456
:1059B0002093520402C08091C600FF91EF919F9105
:1059C0008F914F913F912F910F900FBE0F901F908D
:1059D0001895E091A604F091A704E05CFF4F819137
:1059E000919120813181821B930B8F739070892B51
:1059F00011F00E94AD2C08951F920F920FB60F92D6
:105A000011242F933F938F939F93EF93FF932091B4
:105A100096043091970480919804909199042817E6
:105A2000390731F48091C1008F7D8093C10014C08B
:105A3000E0919804F0919904EA5AFB4F20818091FB
:105A400098049091990401968F73907090939904A3
:105A5000809398042093C600FF91EF919F918F91BE
:105A60003F912F910F900FBE0F901F901895AF92FE
:105A7000BF92DF92EF92FF920F931F93CF93DF932A
:105A8000EC017A018B01DD24D39491E0A92EB12C95
:105A9000EC89FD89DD2069F0C50108A002C0880FEE
:105AA000991F0A94E2F7808360E874E88EE190E041
:105AB00005C0108260E472E48FE090E0A8019701D5
:105AC0000E94F43321503040404050405695479555
:105AD0003795279580E12030380720F0DD2011F040
